{"contracts/AutophageToken.sol":{"AutophageToken":{"abi":[{"inputs":[],"stateMutability":"nonpayable","type":"constructor"},{"anonymous":false,"inputs":[{"indexed":true,"internalType":"address","name":"user","type":"address"},{"indexed":true,"internalType":"uint8","name":"species","type":"uint8"},{"indexed":false,"internalType":"uint256","name":"amount","type":"uint256"}],"name":"DecayApplied","type":"event"},{"anonymous":false,"inputs":[{"indexed":true,"internalType":"uint8","name":"species","type":"uint8"},{"indexed":false,"internalType":"uint256","name":"oldRate","type":"uint256"},{"indexed":false,"internalType":"uint256","name":"newRate","type":"uint256"}],"name":"DecayRateUpdated","type":"event"},{"anonymous":false,"inputs":[{"indexed":true,"internalType":"address","name":"to","type":"address"},{"indexed":true,"internalType":"uint8","name":"species","type":"uint8"},{"indexed":false,"internalType":"uint256","name":"amount","type":"uint256"}],"name":"Mint","type":"event"},{"anonymous":false,"inputs":[{"indexed":false,"internalType":"address","name":"account","type":"address"}],"name":"Paused","type":"event"},{"anonymous":false,"inputs":[{"indexed":true,"internalType":"bytes32","name":"role","type":"bytes32"},{"indexed":true,"internalType":"bytes32","name":"previousAdminRole","type":"bytes32"},{"indexed":true,"internalType":"bytes32","name":"newAdminRole","type":"bytes32"}],"name":"RoleAdminChanged","type":"event"},{"anonymous":false,"inputs":[{"indexed":true,"internalType":"bytes32","name":"role","type":"bytes32"},{"indexed":true,"internalType":"address","name":"account","type":"address"},{"indexed":true,"internalType":"address","name":"sender","type":"address"}],"name":"RoleGranted","type":"event"},{"anonymous":false,"inputs":[{"indexed":true,"internalType":"bytes32","name":"role","type":"bytes32"},{"indexed":true,"internalType":"address","name":"account","type":"address"},{"indexed":true,"internalType":"address","name":"sender","type":"address"}],"name":"RoleRevoked","type":"event"},{"anonymous":false,"inputs":[{"indexed":true,"internalType":"address","name":"from","type":"address"},{"indexed":true,"internalType":"address","name":"to","type":"address"},{"indexed":true,"internalType":"uint8","name":"species","type":"uint8"},{"indexed":false,"internalType":"uint256","name":"amount","type":"uint256"},{"indexed":false,"internalType":"uint256","name":"decayAmount","type":"uint256"}],"name":"Transfer","type":"event"},{"anonymous":false,"inputs":[{"indexed":false,"internalType":"address","name":"account","type":"address"}],"name":"Unpaused","type":"event"},{"anonymous":false,"inputs":[{"indexed":true,"internalType":"address","name":"user","type":"address"},{"indexed":true,"internalType":"uint8","name":"species","type":"uint8"},{"indexed":false,"internalType":"uint256","name":"amount","type":"uint256"},{"indexed":false,"internalType":"uint256","name":"lockDuration","type":"uint256"}],"name":"VaultLocked","type":"event"},{"inputs":[],"name":"CATALYST","outputs":[{"internalType":"uint8","name":"","type":"uint8"}],"stateMutability":"view","type":"function"},{"inputs":[],"name":"DEFAULT_ADMIN_ROLE","outputs":[{"internalType":"bytes32","name":"","type":"bytes32"}],"stateMutability":"view","type":"function"},{"inputs":[],"name":"FOUNDATION","outputs":[{"internalType":"uint8","name":"","type":"uint8"}],"stateMutability":"view","type":"function"},{"inputs":[],"name":"GOVERNANCE_ROLE","outputs":[{"internalType":"bytes32","name":"","type":"bytes32"}],"stateMutability":"view","type":"function"},{"inputs":[],"name":"HEALING","outputs":[{"internalType":"uint8","name":"","type":"uint8"}],"stateMutability":"view","type":"function"},{"inputs":[],"name":"MINTER_ROLE","outputs":[{"internalType":"bytes32","name":"","type":"bytes32"}],"stateMutability":"view","type":"function"},{"inputs":[],"name":"RESERVOIR_ROLE","outputs":[{"internalType":"bytes32","name":"","type":"bytes32"}],"stateMutability":"view","type":"function"},{"inputs":[],"name":"RHYTHM","outputs":[{"internalType":"uint8","name":"","type":"uint8"}],"stateMutability":"view","type":"function"},{"inputs":[{"internalType":"address","name":"user","type":"address"},{"internalType":"uint8","name":"species","type":"uint8"}],"name":"balanceOf","outputs":[{"internalType":"uint256","name":"","type":"uint256"}],"stateMutability":"view","type":"function"},{"inputs":[{"internalType":"address[]","name":"users","type":"address[]"},{"internalType":"uint8[]","name":"species","type":"uint8[]"}],"name":"collectDecay","outputs":[{"internalType":"uint256","name":"totalDecayed","type":"uint256"}],"stateMutability":"nonpayable","type":"function"},{"inputs":[{"internalType":"uint8","name":"","type":"uint8"}],"name":"decayRates","outputs":[{"internalType":"uint256","name":"","type":"uint256"}],"stateMutability":"view","type":"function"},{"inputs":[{"internalType":"address","name":"user","type":"address"}],"name":"getAllBalances","outputs":[{"internalType":"uint256[4]","name":"","type":"uint256[4]"}],"stateMutability":"view","type":"function"},{"inputs":[{"internalType":"bytes32","name":"role","type":"bytes32"}],"name":"getRoleAdmin","outputs":[{"internalType":"bytes32","name":"","type":"bytes32"}],"stateMutability":"view","type":"function"},{"inputs":[{"internalType":"bytes32","name":"role","type":"bytes32"},{"internalType":"address","name":"account","type":"address"}],"name":"grantRole","outputs":[],"stateMutability":"nonpayable","type":"function"},{"inputs":[{"internalType":"bytes32","name":"role","type":"bytes32"},{"internalType":"address","name":"account","type":"address"}],"name":"hasRole","outputs":[{"internalType":"bool","name":"","type":"bool"}],"stateMutability":"view","type":"function"},{"inputs":[{"internalType":"uint8","name":"species","type":"uint8"},{"internalType":"uint256","name":"amount","type":"uint256"},{"internalType":"uint256","name":"lockDays","type":"uint256"}],"name":"lockInVault","outputs":[],"stateMutability":"nonpayable","type":"function"},{"inputs":[{"internalType":"address","name":"to","type":"address"},{"internalType":"uint8","name":"species","type":"uint8"},{"internalType":"uint256","name":"amount","type":"uint256"}],"name":"mint","outputs":[],"stateMutability":"nonpayable","type":"function"},{"inputs":[],"name":"pause","outputs":[],"stateMutability":"nonpayable","type":"function"},{"inputs":[],"name":"paused","outputs":[{"internalType":"bool","name":"","type":"bool"}],"stateMutability":"view","type":"function"},{"inputs":[{"internalType":"bytes32","name":"role","type":"bytes32"},{"internalType":"address","name":"account","type":"address"}],"name":"renounceRole","outputs":[],"stateMutability":"nonpayable","type":"function"},{"inputs":[{"internalType":"bytes32","name":"role","type":"bytes32"},{"internalType":"address","name":"account","type":"address"}],"name":"revokeRole","outputs":[],"stateMutability":"nonpayable","type":"function"},{"inputs":[{"internalType":"bytes4","name":"interfaceId","type":"bytes4"}],"name":"supportsInterface","outputs":[{"internalType":"bool","name":"","type":"bool"}],"stateMutability":"view","type":"function"},{"inputs":[{"internalType":"uint8","name":"","type":"uint8"}],"name":"totalSupply","outputs":[{"internalType":"uint256","name":"","type":"uint256"}],"stateMutability":"view","type":"function"},{"inputs":[{"internalType":"address","name":"to","type":"address"},{"internalType":"uint8","name":"species","type":"uint8"},{"internalType":"uint256","name":"amount","type":"uint256"}],"name":"transfer","outputs":[{"internalType":"bool","name":"","type":"bool"}],"stateMutability":"nonpayable","type":"function"},{"inputs":[],"name":"unpause","outputs":[],"stateMutability":"nonpayable","type":"function"},{"inputs":[{"internalType":"uint8","name":"species","type":"uint8"},{"internalType":"uint256","name":"newRate","type":"uint256"}],"name":"updateDecayRate","outputs":[],"stateMutability":"nonpayable","type":"function"},{"inputs":[{"internalType":"uint8","name":"","type":"uint8"},{"internalType":"uint256","name":"","type":"uint256"}],"name":"whaleMultipliers","outputs":[{"internalType":"uint256","name":"","type":"uint256"}],"stateMutability":"view","type":"function"},{"inputs":[{"internalType":"uint8","name":"","type":"uint8"},{"internalType":"uint256","name":"","type":"uint256"}],"name":"whaleThresholds","outputs":[{"internalType":"uint256","name":"","type":"uint256"}],"stateMutability":"view","type":"function"}],"evm":{"bytecode":{"linkReferences":{},"object":"60806040523480156200001157600080fd5b50600180556002805460ff191690556200002d6000336200021d565b620000597f71840dc4906352362b0cdaf79870196c8e42acafade72d5d5a6d59291253ceb1336200021d565b600460205266b1a2bc2ec500007f17ef568e3e12ab5b9c7254a8d58478811de00f9e6eb34345acd53bf8fd09d3ec819055661aa535d3d0c0007fabd6e7cb50984ff9c2f3e18a2660c3353dadf4e3291deeb275dae2cd1e44fe055566038d7ea4c680007f91da3fd0782e51c6b3986e9e672fd566868e71f3dbc2d6c2cd6fbb3e361af2a75560036000527f2e174c10e159ea99b867ce3205125c24a42d128804e4070ed6fcc8cc98166aa05560408051606081019091528062000127670de0b6b3a764000061271062000338565b815260200162000142670de0b6b3a764000061c35062000338565b81526020016200015e670de0b6b3a7640000620186a062000338565b905260008052600660205262000198907f54cdd369e4e8a8515e52ca72ec816c2101831ad1f18bf44102ed171459c9b4f8906003620002d1565b5060408051608081018252670de0b6b3a764000081526714d1120d7b160000602080830191909152671bc16d674ec80000928201929092526729a2241af62c0000606082015260008052600790915262000216907f6d5257204ebe7d88fd91ae87941cb2dd9d8062b64ae5a2bd2d28ec40b9fbf6df906004620002d1565b506200035e565b620002298282620002a6565b620002a2576000828152602081815260408083206001600160a01b03851684529091529020805460ff19166001179055620002613390565b6001600160a01b0316816001600160a01b0316837f2f8788117e7eff1d82e926ec794901d17c78024a50270940304540a733656f0d60405160405180910390a45b5050565b6000828152602081815260408083206001600160a01b038516845290915290205460ff165b92915050565b8280548282559060005260206000209081019282156200030f579160200282015b828111156200030f578251825591602001919060010190620002f2565b506200031d92915062000321565b5090565b5b808211156200031d576000815560010162000322565b8082028115828204841417620002cb57634e487b7160e01b600052601160045260246000fd5b611f3d806200036e6000396000f3fe608060405234801561001057600080fd5b50600436106101c45760003560e01c806367412045116100f9578063a7c3fce711610097578063c85d171211610071578063c85d1712146103c9578063d5391393146103d1578063d547741f146103f8578063f36c8f5c1461040b57600080fd5b8063a7c3fce71461038e578063b0a3996e14610396578063c53d6ce1146103a957600080fd5b80638456cb59116100d35780638456cb591461034b57806391d1485414610353578063a217fddf14610366578063a388b3b51461036e57600080fd5b8063674120451461031257806370904483146103255780637d5ffe211461033857600080fd5b80633f4ba83a116101665780634ed387b2116101405780634ed387b2146102d2578063598150b2146102e55780635c975abb146102ff57806365df2e511461030a57600080fd5b80633f4ba83a1461029757806345881d0b1461029f578063496d9f44146102b257600080fd5b80632741ef17116101a25780632741ef17146102495780632f2ff15d1461025c5780633431757c1461027157806336568abe1461028457600080fd5b806301ffc9a7146101c957806319ccd5ee146101f1578063248a9ca314610226575b600080fd5b6101dc6101d7366004611a9e565b610432565b60405190151581526020015b60405180910390f35b6102187fcfd434139d70347fd097c11cc39da980977996175f8d0cd5219f61ed0070f3b381565b6040519081526020016101e8565b610218610234366004611ac8565b60009081526020819052604090206001015490565b610218610257366004611af7565b610469565b61026f61026a366004611b38565b61049a565b005b61026f61027f366004611af7565b6104c4565b61026f610292366004611b38565b6105bc565b61026f61063a565b61026f6102ad366004611b64565b610650565b6102186102c0366004611b97565b60056020526000908152604090205481565b61026f6102e0366004611bb2565b61089c565b6102ed600381565b60405160ff90911681526020016101e8565b60025460ff166101dc565b6102ed600281565b610218610320366004611bee565b610a5b565b6101dc610333366004611bb2565b610ba9565b610218610346366004611af7565b610e2a565b61026f610e46565b6101dc610361366004611b38565b610e59565b610218600081565b61021861037c366004611b97565b60046020526000908152604090205481565b6102ed600181565b6102186103a4366004611c63565b610e82565b6103bc6103b7366004611cce565b610fe1565b6040516101e89190611ce9565b6102ed600081565b6102187f9f2df0fed2c77648de5860a4cc508cd0818c85b8b8a1ab4ceeef8d981c8956a681565b61026f610406366004611b38565b611037565b6102187f71840dc4906352362b0cdaf79870196c8e42acafade72d5d5a6d59291253ceb181565b60006001600160e01b03198216637965db0b60e01b148061046357506301ffc9a760e01b6001600160e01b03198316145b92915050565b6007602052816000526040600020818154811061048557600080fd5b90600052602060002001600091509150505481565b6000828152602081905260409020600101546104b58161105c565b6104bf8383611066565b505050565b7f71840dc4906352362b0cdaf79870196c8e42acafade72d5d5a6d59291253ceb16104ee8161105c565b60048360ff161061051a5760405162461bcd60e51b815260040161051190611d1a565b60405180910390fd5b67016345785d8a00008211156105625760405162461bcd60e51b815260206004820152600d60248201526c0a4c2e8ca40e8dede40d0d2ced609b1b6044820152606401610511565b60ff8316600081815260046020908152604091829020805490869055825181815291820186905292917f5fe4ec169dd2e350332e390738cc0e826afd8dd8cd51a28c639b819743c7f84f910160405180910390a250505050565b6001600160a01b038116331461062c5760405162461bcd60e51b815260206004820152602f60248201527f416363657373436f6e74726f6c3a2063616e206f6e6c792072656e6f756e636560448201526e103937b632b9903337b91039b2b63360891b6064820152608401610511565b61063682826110ea565b5050565b60006106458161105c565b61064d61114f565b50565b6106586111a1565b6106606111fa565b60048360ff16106106835760405162461bcd60e51b815260040161051190611d1a565b601e8110158015610696575061016d8111155b6106e25760405162461bcd60e51b815260206004820152601f60248201527f4c6f636b20706572696f64206d7573742062652033302d3336352064617973006044820152606401610511565b6000821161072c5760405162461bcd60e51b8152602060048201526017602482015276416d6f756e74206d75737420626520706f73697469766560481b6044820152606401610511565b60006107383385611242565b9050828110156107815760405162461bcd60e51b8152602060048201526014602482015273496e73756666696369656e742062616c616e636560601b6044820152606401610511565b33600090815260036020908152604080832060ff8816845290915290205442600160c01b9091046001600160401b031611156107f05760405162461bcd60e51b815260206004820152600e60248201526d105b1c9958591e481b1bd8dad95960921b6044820152606401610511565b60006107ff6201518084611d59565b905061080b8142611d70565b33600081815260036020908152604080832060ff8b1680855292529182902080546001600160401b0395909516600160c01b026001600160c01b0390951694909417909355517fcebf0ddba10e8c31e8033a2f05c648b4c997e4d173a310387c37be455f46d88b906108899088908690918252602082015260400190565b60405180910390a350506104bf60018055565b7f9f2df0fed2c77648de5860a4cc508cd0818c85b8b8a1ab4ceeef8d981c8956a66108c68161105c565b6108ce6111fa565b6001600160a01b0384166109185760405162461bcd60e51b8152602060048201526011602482015270125b9d985b1a59081c9958da5c1a595b9d607a1b6044820152606401610511565b60048360ff161061093b5760405162461bcd60e51b815260040161051190611d1a565b600082116109855760405162461bcd60e51b8152602060048201526017602482015276416d6f756e74206d75737420626520706f73697469766560481b6044820152606401610511565b60006109918585611242565b905061099d8382611d70565b6001600160a01b038616600090815260036020908152604080832060ff89168452825280832080546001600160801b03959095166001600160c01b031990951694909417600160801b426001600160401b03160217909355600590529081208054859290610a0c908490611d70565b909155505060405183815260ff8516906001600160a01b038716907ffe446fb36fbb8c47e4ee0d7e1e9fca431c3a2314854d8de0f3bb04fa156d6e719060200160405180910390a35050505050565b600060048260ff1610610a805760405162461bcd60e51b815260040161051190611d1a565b6001600160a01b038316600090815260036020908152604080832060ff861684528252808320815160608101835290546001600160801b0381168083526001600160401b03600160801b8304811695840195909552600160c01b909104909316918101919091529103610af7576000915050610463565b4281604001516001600160401b03161115610b1e57610b168184611351565b915050610463565b600081602001516001600160401b031642610b399190611d83565b90506000610b4a6201518083611d96565b905080600003610b67575050516001600160801b03169050610463565b6000610b81878786600001516001600160801b0316611422565b90506000610b9d85600001516001600160801b031683856115e6565b98975050505050505050565b6000610bb36111a1565b610bbb6111fa565b6001600160a01b038416610c055760405162461bcd60e51b8152602060048201526011602482015270125b9d985b1a59081c9958da5c1a595b9d607a1b6044820152606401610511565b60048360ff1610610c285760405162461bcd60e51b815260040161051190611d1a565b6000610c343385611242565b905082811015610c7d5760405162461bcd60e51b8152602060048201526014602482015273496e73756666696369656e742062616c616e636560601b6044820152606401610511565b33600090815260036020908152604080832060ff8816845290915290205442600160c01b9091046001600160401b03161115610cf45760405162461bcd60e51b8152602060048201526016602482015275151bdad95b9cc81b1bd8dad959081a5b881d985d5b1d60521b6044820152606401610511565b610cfe8382611d83565b33600090815260036020908152604080832060ff89168452909152812080546001600160801b03939093166001600160c01b031990931692909217600160801b426001600160401b03160217909155610d578686611242565b9050610d638482611d70565b6001600160a01b038716600090815260036020908152604080832060ff8a168452909152812080546001600160801b03939093166001600160c01b031990931692909217600160801b426001600160401b03160217909155610dc53387611665565b604080518781526020810183905291925060ff8816916001600160a01b038a169133917fe5ff0d2b76d23d83b4f100713c827146903cb7c83470e5f991586d2a4cbe5e9d910160405180910390a460019350505050610e2360018055565b9392505050565b6006602052816000526040600020818154811061048557600080fd5b6000610e518161105c565b61064d611725565b6000918252602082815260408084206001600160a01b0393909316845291905290205460ff1690565b60007fcfd434139d70347fd097c11cc39da980977996175f8d0cd5219f61ed0070f3b3610eae8161105c565b848314610ef55760405162461bcd60e51b8152602060048201526015602482015274082e4e4c2f240d8cadccee8d040dad2e6dac2e8c6d605b1b6044820152606401610511565b60005b85811015610fd7576000610f58888884818110610f1757610f17611db8565b9050602002016020810190610f2c9190611cce565b878785818110610f3e57610f3e611db8565b9050602002016020810190610f539190611b97565b611665565b90508015610fc457610fb6888884818110610f7557610f75611db8565b9050602002016020810190610f8a9190611cce565b878785818110610f9c57610f9c611db8565b9050602002016020810190610fb19190611b97565b611242565b50610fc18185611d70565b93505b5080610fcf81611dce565b915050610ef8565b5050949350505050565b610fe9611a80565b6040518060800160405280610fff846000610a5b565b815260200161100f846001610a5b565b815260200161101f846002610a5b565b815260200161102f846003610a5b565b905292915050565b6000828152602081905260409020600101546110528161105c565b6104bf83836110ea565b61064d8133611762565b6110708282610e59565b610636576000828152602081815260408083206001600160a01b03851684529091529020805460ff191660011790556110a63390565b6001600160a01b0316816001600160a01b0316837f2f8788117e7eff1d82e926ec794901d17c78024a50270940304540a733656f0d60405160405180910390a45050565b6110f48282610e59565b15610636576000828152602081815260408083206001600160a01b0385168085529252808320805460ff1916905551339285917ff6391f5c32d9c69d2a47ea670b442974b53935d1edc7fd64eb21e047a839171b9190a45050565b6111576117bb565b6002805460ff191690557f5db9ee0a495bf2e6ff9c91a7834c1ba4fdd244a5e8aa4e537bd38aeae4b073aa335b6040516001600160a01b03909116815260200160405180910390a1565b6002600154036111f35760405162461bcd60e51b815260206004820152601f60248201527f5265656e7472616e637947756172643a207265656e7472616e742063616c6c006044820152606401610511565b6002600155565b60025460ff16156112405760405162461bcd60e51b815260206004820152601060248201526f14185d5cd8589b194e881c185d5cd95960821b6044820152606401610511565b565b6001600160a01b038216600090815260036020908152604080832060ff85168452909152812080546001600160801b031682036112a457805467ffffffffffffffff60801b1916600160801b426001600160401b031602179055506000610463565b60006112b08585610a5b565b82549091506000906112cc9083906001600160801b0316611d83565b9050801561131c578460ff16866001600160a01b03167fc69c91ba5f5913e26138489c21e28ec634a1150b5308c549b9ea252053c982208360405161131391815260200190565b60405180910390a35b5081546001600160801b0382166001600160c01b031990911617600160801b426001600160401b031602179091559392505050565b600080836020015184604001516113689190611de7565b6001600160401b0316905060006113826201518083611d96565b9050600061138f82611804565b90506000670de0b6b3a76400006113a68382611d83565b60ff88166000908152600460205260409020546113c39190611d59565b6113cd9190611d96565b9050600087602001516001600160401b0316426113ea9190611d83565b905060006113fb6201518083611d96565b905061141589600001516001600160801b031684836115e6565b9998505050505050505050565b600060ff8316151580611445575060ff8316600090815260066020526040902054155b15611463575060ff8216600090815260046020526040902054610e23565b60ff83166000908152600660209081526040808320805482518185028101850190935280835291929091908301828280156114bd57602002820191906000526020600020905b8154815260200190600101908083116114a9575b5050505060ff86166000908152600760209081526040808320805482518185028101850190935280835295965092949093509083018282801561151f57602002820191906000526020600020905b81548152602001906001019080831161150b575b505085519394505050505b80156115c7578261153c600183611d83565b8151811061154c5761154c611db8565b602002602001015185106115b557670de0b6b3a764000082828151811061157557611575611db8565b6020026020010151600460008960ff1660ff168152602001908152602001600020546115a19190611d59565b6115ab9190611d96565b9350505050610e23565b806115bf81611e0e565b91505061152a565b50505060ff831660009081526004602052604090205490509392505050565b60008115806115f3575082155b156115ff575082610e23565b600061161384670de0b6b3a7640000611d83565b9050600061162a8285670de0b6b3a764000061185b565b9050611647670de0b6b3a764000085670de0b6b3a764000061185b565b6116518288611d59565b61165b9190611d96565b9695505050505050565b6001600160a01b038216600090815260036020908152604080832060ff851684528252808320815160608101835290546001600160801b0381168083526001600160401b03600160801b8304811695840195909552600160c01b909104909316918101919091529082036116dd576000915050610463565b60006116e98585610a5b565b90508082600001516001600160801b03161161170657600061171c565b815161171c9082906001600160801b0316611d83565b95945050505050565b61172d6111fa565b6002805460ff191660011790557f62e78cea01bee320cd4e420270b5ea74000d11b0c9f74754ebdbfc544b05a2586111843390565b61176c8282610e59565b61063657611779816118d3565b6117848360206118e5565b604051602001611795929190611e49565b60408051601f198184030181529082905262461bcd60e51b825261051191600401611ebe565b60025460ff166112405760405162461bcd60e51b815260206004820152601460248201527314185d5cd8589b194e881b9bdd081c185d5cd95960621b6044820152606401610511565b600061016d821061181e5750670c7d713b49da0000919050565b60b48210611835575067063eb89da4ed0000919050565b605a821061184c57506703bf3b91c95b0000919050565b5067013fbe85edc90000919050565b60008260000361186c575080610e23565b8260010361187b575082610e23565b81845b84156118ca57846001166001036118a7578361189a8284611d59565b6118a49190611d96565b91505b836118b28280611d59565b6118bc9190611d96565b9050600185901c945061187e565b50949350505050565b60606104636001600160a01b03831660145b606060006118f4836002611d59565b6118ff906002611d70565b6001600160401b0381111561191657611916611ef1565b6040519080825280601f01601f191660200182016040528015611940576020820181803683370190505b509050600360fc1b8160008151811061195b5761195b611db8565b60200101906001600160f81b031916908160001a905350600f60fb1b8160018151811061198a5761198a611db8565b60200101906001600160f81b031916908160001a90535060006119ae846002611d59565b6119b9906001611d70565b90505b6001811115611a31576f181899199a1a9b1b9c1cb0b131b232b360811b85600f16601081106119ed576119ed611db8565b1a60f81b828281518110611a0357611a03611db8565b60200101906001600160f81b031916908160001a90535060049490941c93611a2a81611e0e565b90506119bc565b508315610e235760405162461bcd60e51b815260206004820181905260248201527f537472696e67733a20686578206c656e67746820696e73756666696369656e746044820152606401610511565b60405180608001604052806004906020820280368337509192915050565b600060208284031215611ab057600080fd5b81356001600160e01b031981168114610e2357600080fd5b600060208284031215611ada57600080fd5b5035919050565b803560ff81168114611af257600080fd5b919050565b60008060408385031215611b0a57600080fd5b611b1383611ae1565b946020939093013593505050565b80356001600160a01b0381168114611af257600080fd5b60008060408385031215611b4b57600080fd5b82359150611b5b60208401611b21565b90509250929050565b600080600060608486031215611b7957600080fd5b611b8284611ae1565b95602085013595506040909401359392505050565b600060208284031215611ba957600080fd5b610e2382611ae1565b600080600060608486031215611bc757600080fd5b611bd084611b21565b9250611bde60208501611ae1565b9150604084013590509250925092565b60008060408385031215611c0157600080fd5b611c0a83611b21565b9150611b5b60208401611ae1565b60008083601f840112611c2a57600080fd5b5081356001600160401b03811115611c4157600080fd5b6020830191508360208260051b8501011115611c5c57600080fd5b9250929050565b60008060008060408587031215611c7957600080fd5b84356001600160401b0380821115611c9057600080fd5b611c9c88838901611c18565b90965094506020870135915080821115611cb557600080fd5b50611cc287828801611c18565b95989497509550505050565b600060208284031215611ce057600080fd5b610e2382611b21565b60808101818360005b6004811015611d11578151835260209283019290910190600101611cf2565b50505092915050565b6020808252600f908201526e496e76616c6964207370656369657360881b604082015260600190565b634e487b7160e01b600052601160045260246000fd5b808202811582820484141761046357610463611d43565b8082018082111561046357610463611d43565b8181038181111561046357610463611d43565b600082611db357634e487b7160e01b600052601260045260246000fd5b500490565b634e487b7160e01b600052603260045260246000fd5b600060018201611de057611de0611d43565b5060010190565b6001600160401b03828116828216039080821115611e0757611e07611d43565b5092915050565b600081611e1d57611e1d611d43565b506000190190565b60005b83811015611e40578181015183820152602001611e28565b50506000910152565b7f416363657373436f6e74726f6c3a206163636f756e7420000000000000000000815260008351611e81816017850160208801611e25565b7001034b99036b4b9b9b4b733903937b6329607d1b6017918401918201528351611eb2816028840160208801611e25565b01602801949350505050565b6020815260008251806020840152611edd816040850160208701611e25565b601f01601f19169190910160400192915050565b634e487b7160e01b600052604160045260246000fdfea26469706673582212209c30133451486e6c8236ba990eff28eb3591b2856ddac0de9e69b62b6abaf59764736f6c63430008130033","opcodes":"PUSH1 0x80 PUSH1 0x40 MSTORE CALLVALUE DUP1 ISZERO PUSH3 0x11 JUMPI PUSH1 0x0 DUP1 REVERT JUMPDEST POP PUSH1 0x1 DUP1 SSTORE PUSH1 0x2 DUP1 SLOAD PUSH1 0xFF NOT AND SWAP1 SSTORE PUSH3 0x2D PUSH1 0x0 CALLER PUSH3 0x21D JUMP JUMPDEST PUSH3 0x59 PUSH32 0x71840DC4906352362B0CDAF79870196C8E42ACAFADE72D5D5A6D59291253CEB1 CALLER PUSH3 0x21D JUMP JUMPDEST PUSH1 0x4 PUSH1 0x20 MSTORE PUSH7 0xB1A2BC2EC50000 PUSH32 0x17EF568E3E12AB5B9C7254A8D58478811DE00F9E6EB34345ACD53BF8FD09D3EC DUP2 SWAP1 SSTORE PUSH7 0x1AA535D3D0C000 PUSH32 0xABD6E7CB50984FF9C2F3E18A2660C3353DADF4E3291DEEB275DAE2CD1E44FE05 SSTORE PUSH7 0x38D7EA4C68000 PUSH32 0x91DA3FD0782E51C6B3986E9E672FD566868E71F3DBC2D6C2CD6FBB3E361AF2A7 SSTORE PUSH1 0x3 PUSH1 0x0 MSTORE PUSH32 0x2E174C10E159EA99B867CE3205125C24A42D128804E4070ED6FCC8CC98166AA0 SSTORE PUSH1 0x40 DUP1 MLOAD PUSH1 0x60 DUP2 ADD SWAP1 SWAP2 MSTORE DUP1 PUSH3 0x127 PUSH8 0xDE0B6B3A7640000 PUSH2 0x2710 PUSH3 0x338 JUMP JUMPDEST DUP2 MSTORE PUSH1 0x20 ADD PUSH3 0x142 PUSH8 0xDE0B6B3A7640000 PUSH2 0xC350 PUSH3 0x338 JUMP JUMPDEST DUP2 MSTORE PUSH1 0x20 ADD PUSH3 0x15E PUSH8 0xDE0B6B3A7640000 PUSH3 0x186A0 PUSH3 0x338 JUMP JUMPDEST SWAP1 MSTORE PUSH1 0x0 DUP1 MSTORE PUSH1 0x6 PUSH1 0x20 MSTORE PUSH3 0x198 SWAP1 PUSH32 0x54CDD369E4E8A8515E52CA72EC816C2101831AD1F18BF44102ED171459C9B4F8 SWAP1 PUSH1 0x3 PUSH3 0x2D1 JUMP JUMPDEST POP PUSH1 0x40 DUP1 MLOAD PUSH1 0x80 DUP2 ADD DUP3 MSTORE PUSH8 0xDE0B6B3A7640000 DUP2 MSTORE PUSH8 0x14D1120D7B160000 PUSH1 0x20 DUP1 DUP4 ADD SWAP2 SWAP1 SWAP2 MSTORE PUSH8 0x1BC16D674EC80000 SWAP3 DUP3 ADD SWAP3 SWAP1 SWAP3 MSTORE PUSH8 0x29A2241AF62C0000 PUSH1 0x60 DUP3 ADD MSTORE PUSH1 0x0 DUP1 MSTORE PUSH1 0x7 SWAP1 SWAP2 MSTORE PUSH3 0x216 SWAP1 PUSH32 0x6D5257204EBE7D88FD91AE87941CB2DD9D8062B64AE5A2BD2D28EC40B9FBF6DF SWAP1 PUSH1 0x4 PUSH3 0x2D1 JUMP JUMPDEST POP PUSH3 0x35E JUMP JUMPDEST PUSH3 0x229 DUP3 DUP3 PUSH3 0x2A6 JUMP JUMPDEST PUSH3 0x2A2 JUMPI PUSH1 0x0 DUP3 DUP2 MSTORE PUSH1 0x20 DUP2 DUP2 MSTORE PUSH1 0x40 DUP1 DUP4 KECCAK256 PUSH1 0x1 PUSH1 0x1 PUSH1 0xA0 SHL SUB DUP6 AND DUP5 MSTORE SWAP1 SWAP2 MSTORE SWAP1 KECCAK256 DUP1 SLOAD PUSH1 0xFF NOT AND PUSH1 0x1 OR SWAP1 SSTORE PUSH3 0x261 CALLER SWAP1 JUMP JUMPDEST PUSH1 0x1 PUSH1 0x1 PUSH1 0xA0 SHL SUB AND DUP2 PUSH1 0x1 PUSH1 0x1 PUSH1 0xA0 SHL SUB AND DUP4 PUSH32 0x2F8788117E7EFF1D82E926EC794901D17C78024A50270940304540A733656F0D PUSH1 0x40 MLOAD PUSH1 0x40 MLOAD DUP1 SWAP2 SUB SWAP1 LOG4 JUMPDEST POP POP JUMP JUMPDEST PUSH1 0x0 DUP3 DUP2 MSTORE PUSH1 0x20 DUP2 DUP2 MSTORE PUSH1 0x40 DUP1 DUP4 KECCAK256 PUSH1 0x1 PUSH1 0x1 PUSH1 0xA0 SHL SUB DUP6 AND DUP5 MSTORE SWAP1 SWAP2 MSTORE SWAP1 KECCAK256 SLOAD PUSH1 0xFF AND JUMPDEST SWAP3 SWAP2 POP POP JUMP JUMPDEST DUP3 DUP1 SLOAD DUP3 DUP3 SSTORE SWAP1 PUSH1 0x0 MSTORE PUSH1 0x20 PUSH1 0x0 KECCAK256 SWAP1 DUP2 ADD SWAP3 DUP3 ISZERO PUSH3 0x30F JUMPI SWAP2 PUSH1 0x20 MUL DUP3 ADD JUMPDEST DUP3 DUP2 GT ISZERO PUSH3 0x30F JUMPI DUP3 MLOAD DUP3 SSTORE SWAP2 PUSH1 0x20 ADD SWAP2 SWAP1 PUSH1 0x1 ADD SWAP1 PUSH3 0x2F2 JUMP JUMPDEST POP PUSH3 0x31D SWAP3 SWAP2 POP PUSH3 0x321 JUMP JUMPDEST POP SWAP1 JUMP JUMPDEST JUMPDEST DUP1 DUP3 GT ISZERO PUSH3 0x31D JUMPI PUSH1 0x0 DUP2 SSTORE PUSH1 0x1 ADD PUSH3 0x322 JUMP JUMPDEST DUP1 DUP3 MUL DUP2 ISZERO DUP3 DUP3 DIV DUP5 EQ OR PUSH3 0x2CB JUMPI PUSH4 0x4E487B71 PUSH1 0xE0 SHL PUSH1 0x0 MSTORE PUSH1 0x11 PUSH1 0x4 MSTORE PUSH1 0x24 PUSH1 0x0 REVERT JUMPDEST PUSH2 0x1F3D DUP1 PUSH3 0x36E PUSH1 0x0 CODECOPY PUSH1 0x0 RETURN INVALID PUSH1 0x80 PUSH1 0x40 MSTORE CALLVALUE DUP1 ISZERO PUSH2 0x10 JUMPI PUSH1 0x0 DUP1 REVERT JUMPDEST POP PUSH1 0x4 CALLDATASIZE LT PUSH2 0x1C4 JUMPI PUSH1 0x0 CALLDATALOAD PUSH1 0xE0 SHR DUP1 PUSH4 0x67412045 GT PUSH2 0xF9 JUMPI DUP1 PUSH4 0xA7C3FCE7 GT PUSH2 0x97 JUMPI DUP1 PUSH4 0xC85D1712 GT PUSH2 0x71 JUMPI DUP1 PUSH4 0xC85D1712 EQ PUSH2 0x3C9 JUMPI DUP1 PUSH4 0xD5391393 EQ PUSH2 0x3D1 JUMPI DUP1 PUSH4 0xD547741F EQ PUSH2 0x3F8 JUMPI DUP1 PUSH4 0xF36C8F5C EQ PUSH2 0x40B JUMPI PUSH1 0x0 DUP1 REVERT JUMPDEST DUP1 PUSH4 0xA7C3FCE7 EQ PUSH2 0x38E JUMPI DUP1 PUSH4 0xB0A3996E EQ PUSH2 0x396 JUMPI DUP1 PUSH4 0xC53D6CE1 EQ PUSH2 0x3A9 JUMPI PUSH1 0x0 DUP1 REVERT JUMPDEST DUP1 PUSH4 0x8456CB59 GT PUSH2 0xD3 JUMPI DUP1 PUSH4 0x8456CB59 EQ PUSH2 0x34B JUMPI DUP1 PUSH4 0x91D14854 EQ PUSH2 0x353 JUMPI DUP1 PUSH4 0xA217FDDF EQ PUSH2 0x366 JUMPI DUP1 PUSH4 0xA388B3B5 EQ PUSH2 0x36E JUMPI PUSH1 0x0 DUP1 REVERT JUMPDEST DUP1 PUSH4 0x67412045 EQ PUSH2 0x312 JUMPI DUP1 PUSH4 0x70904483 EQ PUSH2 0x325 JUMPI DUP1 PUSH4 0x7D5FFE21 EQ PUSH2 0x338 JUMPI PUSH1 0x0 DUP1 REVERT JUMPDEST DUP1 PUSH4 0x3F4BA83A GT PUSH2 0x166 JUMPI DUP1 PUSH4 0x4ED387B2 GT PUSH2 0x140 JUMPI DUP1 PUSH4 0x4ED387B2 EQ PUSH2 0x2D2 JUMPI DUP1 PUSH4 0x598150B2 EQ PUSH2 0x2E5 JUMPI DUP1 PUSH4 0x5C975ABB EQ PUSH2 0x2FF JUMPI DUP1 PUSH4 0x65DF2E51 EQ PUSH2 0x30A JUMPI PUSH1 0x0 DUP1 REVERT JUMPDEST DUP1 PUSH4 0x3F4BA83A EQ PUSH2 0x297 JUMPI DUP1 PUSH4 0x45881D0B EQ PUSH2 0x29F JUMPI DUP1 PUSH4 0x496D9F44 EQ PUSH2 0x2B2 JUMPI PUSH1 0x0 DUP1 REVERT JUMPDEST DUP1 PUSH4 0x2741EF17 GT PUSH2 0x1A2 JUMPI DUP1 PUSH4 0x2741EF17 EQ PUSH2 0x249 JUMPI DUP1 PUSH4 0x2F2FF15D EQ PUSH2 0x25C JUMPI DUP1 PUSH4 0x3431757C EQ PUSH2 0x271 JUMPI DUP1 PUSH4 0x36568ABE EQ PUSH2 0x284 JUMPI PUSH1 0x0 DUP1 REVERT JUMPDEST DUP1 PUSH4 0x1FFC9A7 EQ PUSH2 0x1C9 JUMPI DUP1 PUSH4 0x19CCD5EE EQ PUSH2 0x1F1 JUMPI DUP1 PUSH4 0x248A9CA3 EQ PUSH2 0x226 JUMPI JUMPDEST PUSH1 0x0 DUP1 REVERT JUMPDEST PUSH2 0x1DC PUSH2 0x1D7 CALLDATASIZE PUSH1 0x4 PUSH2 0x1A9E JUMP JUMPDEST PUSH2 0x432 JUMP JUMPDEST PUSH1 0x40 MLOAD SWAP1 ISZERO ISZERO DUP2 MSTORE PUSH1 0x20 ADD JUMPDEST PUSH1 0x40 MLOAD DUP1 SWAP2 SUB SWAP1 RETURN JUMPDEST PUSH2 0x218 PUSH32 0xCFD434139D70347FD097C11CC39DA980977996175F8D0CD5219F61ED0070F3B3 DUP2 JUMP JUMPDEST PUSH1 0x40 MLOAD SWAP1 DUP2 MSTORE PUSH1 0x20 ADD PUSH2 0x1E8 JUMP JUMPDEST PUSH2 0x218 PUSH2 0x234 CALLDATASIZE PUSH1 0x4 PUSH2 0x1AC8 JUMP JUMPDEST PUSH1 0x0 SWAP1 DUP2 MSTORE PUSH1 0x20 DUP2 SWAP1 MSTORE PUSH1 0x40 SWAP1 KECCAK256 PUSH1 0x1 ADD SLOAD SWAP1 JUMP JUMPDEST PUSH2 0x218 PUSH2 0x257 CALLDATASIZE PUSH1 0x4 PUSH2 0x1AF7 JUMP JUMPDEST PUSH2 0x469 JUMP JUMPDEST PUSH2 0x26F PUSH2 0x26A CALLDATASIZE PUSH1 0x4 PUSH2 0x1B38 JUMP JUMPDEST PUSH2 0x49A JUMP JUMPDEST STOP JUMPDEST PUSH2 0x26F PUSH2 0x27F CALLDATASIZE PUSH1 0x4 PUSH2 0x1AF7 JUMP JUMPDEST PUSH2 0x4C4 JUMP JUMPDEST PUSH2 0x26F PUSH2 0x292 CALLDATASIZE PUSH1 0x4 PUSH2 0x1B38 JUMP JUMPDEST PUSH2 0x5BC JUMP JUMPDEST PUSH2 0x26F PUSH2 0x63A JUMP JUMPDEST PUSH2 0x26F PUSH2 0x2AD CALLDATASIZE PUSH1 0x4 PUSH2 0x1B64 JUMP JUMPDEST PUSH2 0x650 JUMP JUMPDEST PUSH2 0x218 PUSH2 0x2C0 CALLDATASIZE PUSH1 0x4 PUSH2 0x1B97 JUMP JUMPDEST PUSH1 0x5 PUSH1 0x20 MSTORE PUSH1 0x0 SWAP1 DUP2 MSTORE PUSH1 0x40 SWAP1 KECCAK256 SLOAD DUP2 JUMP JUMPDEST PUSH2 0x26F PUSH2 0x2E0 CALLDATASIZE PUSH1 0x4 PUSH2 0x1BB2 JUMP JUMPDEST PUSH2 0x89C JUMP JUMPDEST PUSH2 0x2ED PUSH1 0x3 DUP2 JUMP JUMPDEST PUSH1 0x40 MLOAD PUSH1 0xFF SWAP1 SWAP2 AND DUP2 MSTORE PUSH1 0x20 ADD PUSH2 0x1E8 JUMP JUMPDEST PUSH1 0x2 SLOAD PUSH1 0xFF AND PUSH2 0x1DC JUMP JUMPDEST PUSH2 0x2ED PUSH1 0x2 DUP2 JUMP JUMPDEST PUSH2 0x218 PUSH2 0x320 CALLDATASIZE PUSH1 0x4 PUSH2 0x1BEE JUMP JUMPDEST PUSH2 0xA5B JUMP JUMPDEST PUSH2 0x1DC PUSH2 0x333 CALLDATASIZE PUSH1 0x4 PUSH2 0x1BB2 JUMP JUMPDEST PUSH2 0xBA9 JUMP JUMPDEST PUSH2 0x218 PUSH2 0x346 CALLDATASIZE PUSH1 0x4 PUSH2 0x1AF7 JUMP JUMPDEST PUSH2 0xE2A JUMP JUMPDEST PUSH2 0x26F PUSH2 0xE46 JUMP JUMPDEST PUSH2 0x1DC PUSH2 0x361 CALLDATASIZE PUSH1 0x4 PUSH2 0x1B38 JUMP JUMPDEST PUSH2 0xE59 JUMP JUMPDEST PUSH2 0x218 PUSH1 0x0 DUP2 JUMP JUMPDEST PUSH2 0x218 PUSH2 0x37C CALLDATASIZE PUSH1 0x4 PUSH2 0x1B97 JUMP JUMPDEST PUSH1 0x4 PUSH1 0x20 MSTORE PUSH1 0x0 SWAP1 DUP2 MSTORE PUSH1 0x40 SWAP1 KECCAK256 SLOAD DUP2 JUMP JUMPDEST PUSH2 0x2ED PUSH1 0x1 DUP2 JUMP JUMPDEST PUSH2 0x218 PUSH2 0x3A4 CALLDATASIZE PUSH1 0x4 PUSH2 0x1C63 JUMP JUMPDEST PUSH2 0xE82 JUMP JUMPDEST PUSH2 0x3BC PUSH2 0x3B7 CALLDATASIZE PUSH1 0x4 PUSH2 0x1CCE JUMP JUMPDEST PUSH2 0xFE1 JUMP JUMPDEST PUSH1 0x40 MLOAD PUSH2 0x1E8 SWAP2 SWAP1 PUSH2 0x1CE9 JUMP JUMPDEST PUSH2 0x2ED PUSH1 0x0 DUP2 JUMP JUMPDEST PUSH2 0x218 PUSH32 0x9F2DF0FED2C77648DE5860A4CC508CD0818C85B8B8A1AB4CEEEF8D981C8956A6 DUP2 JUMP JUMPDEST PUSH2 0x26F PUSH2 0x406 CALLDATASIZE PUSH1 0x4 PUSH2 0x1B38 JUMP JUMPDEST PUSH2 0x1037 JUMP JUMPDEST PUSH2 0x218 PUSH32 0x71840DC4906352362B0CDAF79870196C8E42ACAFADE72D5D5A6D59291253CEB1 DUP2 JUMP JUMPDEST PUSH1 0x0 PUSH1 0x1 PUSH1 0x1 PUSH1 0xE0 SHL SUB NOT DUP3 AND PUSH4 0x7965DB0B PUSH1 0xE0 SHL EQ DUP1 PUSH2 0x463 JUMPI POP PUSH4 0x1FFC9A7 PUSH1 0xE0 SHL PUSH1 0x1 PUSH1 0x1 PUSH1 0xE0 SHL SUB NOT DUP4 AND EQ JUMPDEST SWAP3 SWAP2 POP POP JUMP JUMPDEST PUSH1 0x7 PUSH1 0x20 MSTORE DUP2 PUSH1 0x0 MSTORE PUSH1 0x40 PUSH1 0x0 KECCAK256 DUP2 DUP2 SLOAD DUP2 LT PUSH2 0x485 JUMPI PUSH1 0x0 DUP1 REVERT JUMPDEST SWAP1 PUSH1 0x0 MSTORE PUSH1 0x20 PUSH1 0x0 KECCAK256 ADD PUSH1 0x0 SWAP2 POP SWAP2 POP POP SLOAD DUP2 JUMP JUMPDEST PUSH1 0x0 DUP3 DUP2 MSTORE PUSH1 0x20 DUP2 SWAP1 MSTORE PUSH1 0x40 SWAP1 KECCAK256 PUSH1 0x1 ADD SLOAD PUSH2 0x4B5 DUP2 PUSH2 0x105C JUMP JUMPDEST PUSH2 0x4BF DUP4 DUP4 PUSH2 0x1066 JUMP JUMPDEST POP POP POP JUMP JUMPDEST PUSH32 0x71840DC4906352362B0CDAF79870196C8E42ACAFADE72D5D5A6D59291253CEB1 PUSH2 0x4EE DUP2 PUSH2 0x105C JUMP JUMPDEST PUSH1 0x4 DUP4 PUSH1 0xFF AND LT PUSH2 0x51A JUMPI PUSH1 0x40 MLOAD PUSH3 0x461BCD PUSH1 0xE5 SHL DUP2 MSTORE PUSH1 0x4 ADD PUSH2 0x511 SWAP1 PUSH2 0x1D1A JUMP JUMPDEST PUSH1 0x40 MLOAD DUP1 SWAP2 SUB SWAP1 REVERT JUMPDEST PUSH8 0x16345785D8A0000 DUP3 GT ISZERO PUSH2 0x562 JUMPI PUSH1 0x40 MLOAD PUSH3 0x461BCD PUSH1 0xE5 SHL DUP2 MSTORE PUSH1 0x20 PUSH1 0x4 DUP3 ADD MSTORE PUSH1 0xD PUSH1 0x24 DUP3 ADD MSTORE PUSH13 0xA4C2E8CA40E8DEDE40D0D2CED PUSH1 0x9B SHL PUSH1 0x44 DUP3 ADD MSTORE PUSH1 0x64 ADD PUSH2 0x511 JUMP JUMPDEST PUSH1 0xFF DUP4 AND PUSH1 0x0 DUP2 DUP2 MSTORE PUSH1 0x4 PUSH1 0x20 SWAP1 DUP2 MSTORE PUSH1 0x40 SWAP2 DUP3 SWAP1 KECCAK256 DUP1 SLOAD SWAP1 DUP7 SWAP1 SSTORE DUP3 MLOAD DUP2 DUP2 MSTORE SWAP2 DUP3 ADD DUP7 SWAP1 MSTORE SWAP3 SWAP2 PUSH32 0x5FE4EC169DD2E350332E390738CC0E826AFD8DD8CD51A28C639B819743C7F84F SWAP2 ADD PUSH1 0x40 MLOAD DUP1 SWAP2 SUB SWAP1 LOG2 POP POP POP POP JUMP JUMPDEST PUSH1 0x1 PUSH1 0x1 PUSH1 0xA0 SHL SUB DUP2 AND CALLER EQ PUSH2 0x62C JUMPI PUSH1 0x40 MLOAD PUSH3 0x461BCD PUSH1 0xE5 SHL DUP2 MSTORE PUSH1 0x20 PUSH1 0x4 DUP3 ADD MSTORE PUSH1 0x2F PUSH1 0x24 DUP3 ADD MSTORE PUSH32 0x416363657373436F6E74726F6C3A2063616E206F6E6C792072656E6F756E6365 PUSH1 0x44 DUP3 ADD MSTORE PUSH15 0x103937B632B9903337B91039B2B633 PUSH1 0x89 SHL PUSH1 0x64 DUP3 ADD MSTORE PUSH1 0x84 ADD PUSH2 0x511 JUMP JUMPDEST PUSH2 0x636 DUP3 DUP3 PUSH2 0x10EA JUMP JUMPDEST POP POP JUMP JUMPDEST PUSH1 0x0 PUSH2 0x645 DUP2 PUSH2 0x105C JUMP JUMPDEST PUSH2 0x64D PUSH2 0x114F JUMP JUMPDEST POP JUMP JUMPDEST PUSH2 0x658 PUSH2 0x11A1 JUMP JUMPDEST PUSH2 0x660 PUSH2 0x11FA JUMP JUMPDEST PUSH1 0x4 DUP4 PUSH1 0xFF AND LT PUSH2 0x683 JUMPI PUSH1 0x40 MLOAD PUSH3 0x461BCD PUSH1 0xE5 SHL DUP2 MSTORE PUSH1 0x4 ADD PUSH2 0x511 SWAP1 PUSH2 0x1D1A JUMP JUMPDEST PUSH1 0x1E DUP2 LT ISZERO DUP1 ISZERO PUSH2 0x696 JUMPI POP PUSH2 0x16D DUP2 GT ISZERO JUMPDEST PUSH2 0x6E2 JUMPI PUSH1 0x40 MLOAD PUSH3 0x461BCD PUSH1 0xE5 SHL DUP2 MSTORE PUSH1 0x20 PUSH1 0x4 DUP3 ADD MSTORE PUSH1 0x1F PUSH1 0x24 DUP3 ADD MSTORE PUSH32 0x4C6F636B20706572696F64206D7573742062652033302D333635206461797300 PUSH1 0x44 DUP3 ADD MSTORE PUSH1 0x64 ADD PUSH2 0x511 JUMP JUMPDEST PUSH1 0x0 DUP3 GT PUSH2 0x72C JUMPI PUSH1 0x40 MLOAD PUSH3 0x461BCD PUSH1 0xE5 SHL DUP2 MSTORE PUSH1 0x20 PUSH1 0x4 DUP3 ADD MSTORE PUSH1 0x17 PUSH1 0x24 DUP3 ADD MSTORE PUSH23 0x416D6F756E74206D75737420626520706F736974697665 PUSH1 0x48 SHL PUSH1 0x44 DUP3 ADD MSTORE PUSH1 0x64 ADD PUSH2 0x511 JUMP JUMPDEST PUSH1 0x0 PUSH2 0x738 CALLER DUP6 PUSH2 0x1242 JUMP JUMPDEST SWAP1 POP DUP3 DUP2 LT ISZERO PUSH2 0x781 JUMPI PUSH1 0x40 MLOAD PUSH3 0x461BCD PUSH1 0xE5 SHL DUP2 MSTORE PUSH1 0x20 PUSH1 0x4 DUP3 ADD MSTORE PUSH1 0x14 PUSH1 0x24 DUP3 ADD MSTORE PUSH20 0x496E73756666696369656E742062616C616E6365 PUSH1 0x60 SHL PUSH1 0x44 DUP3 ADD MSTORE PUSH1 0x64 ADD PUSH2 0x511 JUMP JUMPDEST CALLER PUSH1 0x0 SWAP1 DUP2 MSTORE PUSH1 0x3 PUSH1 0x20 SWAP1 DUP2 MSTORE PUSH1 0x40 DUP1 DUP4 KECCAK256 PUSH1 0xFF DUP9 AND DUP5 MSTORE SWAP1 SWAP2 MSTORE SWAP1 KECCAK256 SLOAD TIMESTAMP PUSH1 0x1 PUSH1 0xC0 SHL SWAP1 SWAP2 DIV PUSH1 0x1 PUSH1 0x1 PUSH1 0x40 SHL SUB AND GT ISZERO PUSH2 0x7F0 JUMPI PUSH1 0x40 MLOAD PUSH3 0x461BCD PUSH1 0xE5 SHL DUP2 MSTORE PUSH1 0x20 PUSH1 0x4 DUP3 ADD MSTORE PUSH1 0xE PUSH1 0x24 DUP3 ADD MSTORE PUSH14 0x105B1C9958591E481B1BD8DAD959 PUSH1 0x92 SHL PUSH1 0x44 DUP3 ADD MSTORE PUSH1 0x64 ADD PUSH2 0x511 JUMP JUMPDEST PUSH1 0x0 PUSH2 0x7FF PUSH3 0x15180 DUP5 PUSH2 0x1D59 JUMP JUMPDEST SWAP1 POP PUSH2 0x80B DUP2 TIMESTAMP PUSH2 0x1D70 JUMP JUMPDEST CALLER PUSH1 0x0 DUP2 DUP2 MSTORE PUSH1 0x3 PUSH1 0x20 SWAP1 DUP2 MSTORE PUSH1 0x40 DUP1 DUP4 KECCAK256 PUSH1 0xFF DUP12 AND DUP1 DUP6 MSTORE SWAP3 MSTORE SWAP2 DUP3 SWAP1 KECCAK256 DUP1 SLOAD PUSH1 0x1 PUSH1 0x1 PUSH1 0x40 SHL SUB SWAP6 SWAP1 SWAP6 AND PUSH1 0x1 PUSH1 0xC0 SHL MUL PUSH1 0x1 PUSH1 0x1 PUSH1 0xC0 SHL SUB SWAP1 SWAP6 AND SWAP5 SWAP1 SWAP5 OR SWAP1 SWAP4 SSTORE MLOAD PUSH32 0xCEBF0DDBA10E8C31E8033A2F05C648B4C997E4D173A310387C37BE455F46D88B SWAP1 PUSH2 0x889 SWAP1 DUP9 SWAP1 DUP7 SWAP1 SWAP2 DUP3 MSTORE PUSH1 0x20 DUP3 ADD MSTORE PUSH1 0x40 ADD SWAP1 JUMP JUMPDEST PUSH1 0x40 MLOAD DUP1 SWAP2 SUB SWAP1 LOG3 POP POP PUSH2 0x4BF PUSH1 0x1 DUP1 SSTORE JUMP JUMPDEST PUSH32 0x9F2DF0FED2C77648DE5860A4CC508CD0818C85B8B8A1AB4CEEEF8D981C8956A6 PUSH2 0x8C6 DUP2 PUSH2 0x105C JUMP JUMPDEST PUSH2 0x8CE PUSH2 0x11FA JUMP JUMPDEST PUSH1 0x1 PUSH1 0x1 PUSH1 0xA0 SHL SUB DUP5 AND PUSH2 0x918 JUMPI PUSH1 0x40 MLOAD PUSH3 0x461BCD PUSH1 0xE5 SHL DUP2 MSTORE PUSH1 0x20 PUSH1 0x4 DUP3 ADD MSTORE PUSH1 0x11 PUSH1 0x24 DUP3 ADD MSTORE PUSH17 0x125B9D985B1A59081C9958DA5C1A595B9D PUSH1 0x7A SHL PUSH1 0x44 DUP3 ADD MSTORE PUSH1 0x64 ADD PUSH2 0x511 JUMP JUMPDEST PUSH1 0x4 DUP4 PUSH1 0xFF AND LT PUSH2 0x93B JUMPI PUSH1 0x40 MLOAD PUSH3 0x461BCD PUSH1 0xE5 SHL DUP2 MSTORE PUSH1 0x4 ADD PUSH2 0x511 SWAP1 PUSH2 0x1D1A JUMP JUMPDEST PUSH1 0x0 DUP3 GT PUSH2 0x985 JUMPI PUSH1 0x40 MLOAD PUSH3 0x461BCD PUSH1 0xE5 SHL DUP2 MSTORE PUSH1 0x20 PUSH1 0x4 DUP3 ADD MSTORE PUSH1 0x17 PUSH1 0x24 DUP3 ADD MSTORE PUSH23 0x416D6F756E74206D75737420626520706F736974697665 PUSH1 0x48 SHL PUSH1 0x44 DUP3 ADD MSTORE PUSH1 0x64 ADD PUSH2 0x511 JUMP JUMPDEST PUSH1 0x0 PUSH2 0x991 DUP6 DUP6 PUSH2 0x1242 JUMP JUMPDEST SWAP1 POP PUSH2 0x99D DUP4 DUP3 PUSH2 0x1D70 JUMP JUMPDEST PUSH1 0x1 PUSH1 0x1 PUSH1 0xA0 SHL SUB DUP7 AND PUSH1 0x0 SWAP1 DUP2 MSTORE PUSH1 0x3 PUSH1 0x20 SWAP1 DUP2 MSTORE PUSH1 0x40 DUP1 DUP4 KECCAK256 PUSH1 0xFF DUP10 AND DUP5 MSTORE DUP3 MSTORE DUP1 DUP4 KECCAK256 DUP1 SLOAD PUSH1 0x1 PUSH1 0x1 PUSH1 0x80 SHL SUB SWAP6 SWAP1 SWAP6 AND PUSH1 0x1 PUSH1 0x1 PUSH1 0xC0 SHL SUB NOT SWAP1 SWAP6 AND SWAP5 SWAP1 SWAP5 OR PUSH1 0x1 PUSH1 0x80 SHL TIMESTAMP PUSH1 0x1 PUSH1 0x1 PUSH1 0x40 SHL SUB AND MUL OR SWAP1 SWAP4 SSTORE PUSH1 0x5 SWAP1 MSTORE SWAP1 DUP2 KECCAK256 DUP1 SLOAD DUP6 SWAP3 SWAP1 PUSH2 0xA0C SWAP1 DUP5 SWAP1 PUSH2 0x1D70 JUMP JUMPDEST SWAP1 SWAP2 SSTORE POP POP PUSH1 0x40 MLOAD DUP4 DUP2 MSTORE PUSH1 0xFF DUP6 AND SWAP1 PUSH1 0x1 PUSH1 0x1 PUSH1 0xA0 SHL SUB DUP8 AND SWAP1 PUSH32 0xFE446FB36FBB8C47E4EE0D7E1E9FCA431C3A2314854D8DE0F3BB04FA156D6E71 SWAP1 PUSH1 0x20 ADD PUSH1 0x40 MLOAD DUP1 SWAP2 SUB SWAP1 LOG3 POP POP POP POP POP JUMP JUMPDEST PUSH1 0x0 PUSH1 0x4 DUP3 PUSH1 0xFF AND LT PUSH2 0xA80 JUMPI PUSH1 0x40 MLOAD PUSH3 0x461BCD PUSH1 0xE5 SHL DUP2 MSTORE PUSH1 0x4 ADD PUSH2 0x511 SWAP1 PUSH2 0x1D1A JUMP JUMPDEST PUSH1 0x1 PUSH1 0x1 PUSH1 0xA0 SHL SUB DUP4 AND PUSH1 0x0 SWAP1 DUP2 MSTORE PUSH1 0x3 PUSH1 0x20 SWAP1 DUP2 MSTORE PUSH1 0x40 DUP1 DUP4 KECCAK256 PUSH1 0xFF DUP7 AND DUP5 MSTORE DUP3 MSTORE DUP1 DUP4 KECCAK256 DUP2 MLOAD PUSH1 0x60 DUP2 ADD DUP4 MSTORE SWAP1 SLOAD PUSH1 0x1 PUSH1 0x1 PUSH1 0x80 SHL SUB DUP2 AND DUP1 DUP4 MSTORE PUSH1 0x1 PUSH1 0x1 PUSH1 0x40 SHL SUB PUSH1 0x1 PUSH1 0x80 SHL DUP4 DIV DUP2 AND SWAP6 DUP5 ADD SWAP6 SWAP1 SWAP6 MSTORE PUSH1 0x1 PUSH1 0xC0 SHL SWAP1 SWAP2 DIV SWAP1 SWAP4 AND SWAP2 DUP2 ADD SWAP2 SWAP1 SWAP2 MSTORE SWAP2 SUB PUSH2 0xAF7 JUMPI PUSH1 0x0 SWAP2 POP POP PUSH2 0x463 JUMP JUMPDEST TIMESTAMP DUP2 PUSH1 0x40 ADD MLOAD PUSH1 0x1 PUSH1 0x1 PUSH1 0x40 SHL SUB AND GT ISZERO PUSH2 0xB1E JUMPI PUSH2 0xB16 DUP2 DUP5 PUSH2 0x1351 JUMP JUMPDEST SWAP2 POP POP PUSH2 0x463 JUMP JUMPDEST PUSH1 0x0 DUP2 PUSH1 0x20 ADD MLOAD PUSH1 0x1 PUSH1 0x1 PUSH1 0x40 SHL SUB AND TIMESTAMP PUSH2 0xB39 SWAP2 SWAP1 PUSH2 0x1D83 JUMP JUMPDEST SWAP1 POP PUSH1 0x0 PUSH2 0xB4A PUSH3 0x15180 DUP4 PUSH2 0x1D96 JUMP JUMPDEST SWAP1 POP DUP1 PUSH1 0x0 SUB PUSH2 0xB67 JUMPI POP POP MLOAD PUSH1 0x1 PUSH1 0x1 PUSH1 0x80 SHL SUB AND SWAP1 POP PUSH2 0x463 JUMP JUMPDEST PUSH1 0x0 PUSH2 0xB81 DUP8 DUP8 DUP7 PUSH1 0x0 ADD MLOAD PUSH1 0x1 PUSH1 0x1 PUSH1 0x80 SHL SUB AND PUSH2 0x1422 JUMP JUMPDEST SWAP1 POP PUSH1 0x0 PUSH2 0xB9D DUP6 PUSH1 0x0 ADD MLOAD PUSH1 0x1 PUSH1 0x1 PUSH1 0x80 SHL SUB AND DUP4 DUP6 PUSH2 0x15E6 JUMP JUMPDEST SWAP9 SWAP8 POP POP POP POP POP POP POP POP JUMP JUMPDEST PUSH1 0x0 PUSH2 0xBB3 PUSH2 0x11A1 JUMP JUMPDEST PUSH2 0xBBB PUSH2 0x11FA JUMP JUMPDEST PUSH1 0x1 PUSH1 0x1 PUSH1 0xA0 SHL SUB DUP5 AND PUSH2 0xC05 JUMPI PUSH1 0x40 MLOAD PUSH3 0x461BCD PUSH1 0xE5 SHL DUP2 MSTORE PUSH1 0x20 PUSH1 0x4 DUP3 ADD MSTORE PUSH1 0x11 PUSH1 0x24 DUP3 ADD MSTORE PUSH17 0x125B9D985B1A59081C9958DA5C1A595B9D PUSH1 0x7A SHL PUSH1 0x44 DUP3 ADD MSTORE PUSH1 0x64 ADD PUSH2 0x511 JUMP JUMPDEST PUSH1 0x4 DUP4 PUSH1 0xFF AND LT PUSH2 0xC28 JUMPI PUSH1 0x40 MLOAD PUSH3 0x461BCD PUSH1 0xE5 SHL DUP2 MSTORE PUSH1 0x4 ADD PUSH2 0x511 SWAP1 PUSH2 0x1D1A JUMP JUMPDEST PUSH1 0x0 PUSH2 0xC34 CALLER DUP6 PUSH2 0x1242 JUMP JUMPDEST SWAP1 POP DUP3 DUP2 LT ISZERO PUSH2 0xC7D JUMPI PUSH1 0x40 MLOAD PUSH3 0x461BCD PUSH1 0xE5 SHL DUP2 MSTORE PUSH1 0x20 PUSH1 0x4 DUP3 ADD MSTORE PUSH1 0x14 PUSH1 0x24 DUP3 ADD MSTORE PUSH20 0x496E73756666696369656E742062616C616E6365 PUSH1 0x60 SHL PUSH1 0x44 DUP3 ADD MSTORE PUSH1 0x64 ADD PUSH2 0x511 JUMP JUMPDEST CALLER PUSH1 0x0 SWAP1 DUP2 MSTORE PUSH1 0x3 PUSH1 0x20 SWAP1 DUP2 MSTORE PUSH1 0x40 DUP1 DUP4 KECCAK256 PUSH1 0xFF DUP9 AND DUP5 MSTORE SWAP1 SWAP2 MSTORE SWAP1 KECCAK256 SLOAD TIMESTAMP PUSH1 0x1 PUSH1 0xC0 SHL SWAP1 SWAP2 DIV PUSH1 0x1 PUSH1 0x1 PUSH1 0x40 SHL SUB AND GT ISZERO PUSH2 0xCF4 JUMPI PUSH1 0x40 MLOAD PUSH3 0x461BCD PUSH1 0xE5 SHL DUP2 MSTORE PUSH1 0x20 PUSH1 0x4 DUP3 ADD MSTORE PUSH1 0x16 PUSH1 0x24 DUP3 ADD MSTORE PUSH22 0x151BDAD95B9CC81B1BD8DAD959081A5B881D985D5B1D PUSH1 0x52 SHL PUSH1 0x44 DUP3 ADD MSTORE PUSH1 0x64 ADD PUSH2 0x511 JUMP JUMPDEST PUSH2 0xCFE DUP4 DUP3 PUSH2 0x1D83 JUMP JUMPDEST CALLER PUSH1 0x0 SWAP1 DUP2 MSTORE PUSH1 0x3 PUSH1 0x20 SWAP1 DUP2 MSTORE PUSH1 0x40 DUP1 DUP4 KECCAK256 PUSH1 0xFF DUP10 AND DUP5 MSTORE SWAP1 SWAP2 MSTORE DUP2 KECCAK256 DUP1 SLOAD PUSH1 0x1 PUSH1 0x1 PUSH1 0x80 SHL SUB SWAP4 SWAP1 SWAP4 AND PUSH1 0x1 PUSH1 0x1 PUSH1 0xC0 SHL SUB NOT SWAP1 SWAP4 AND SWAP3 SWAP1 SWAP3 OR PUSH1 0x1 PUSH1 0x80 SHL TIMESTAMP PUSH1 0x1 PUSH1 0x1 PUSH1 0x40 SHL SUB AND MUL OR SWAP1 SWAP2 SSTORE PUSH2 0xD57 DUP7 DUP7 PUSH2 0x1242 JUMP JUMPDEST SWAP1 POP PUSH2 0xD63 DUP5 DUP3 PUSH2 0x1D70 JUMP JUMPDEST PUSH1 0x1 PUSH1 0x1 PUSH1 0xA0 SHL SUB DUP8 AND PUSH1 0x0 SWAP1 DUP2 MSTORE PUSH1 0x3 PUSH1 0x20 SWAP1 DUP2 MSTORE PUSH1 0x40 DUP1 DUP4 KECCAK256 PUSH1 0xFF DUP11 AND DUP5 MSTORE SWAP1 SWAP2 MSTORE DUP2 KECCAK256 DUP1 SLOAD PUSH1 0x1 PUSH1 0x1 PUSH1 0x80 SHL SUB SWAP4 SWAP1 SWAP4 AND PUSH1 0x1 PUSH1 0x1 PUSH1 0xC0 SHL SUB NOT SWAP1 SWAP4 AND SWAP3 SWAP1 SWAP3 OR PUSH1 0x1 PUSH1 0x80 SHL TIMESTAMP PUSH1 0x1 PUSH1 0x1 PUSH1 0x40 SHL SUB AND MUL OR SWAP1 SWAP2 SSTORE PUSH2 0xDC5 CALLER DUP8 PUSH2 0x1665 JUMP JUMPDEST PUSH1 0x40 DUP1 MLOAD DUP8 DUP2 MSTORE PUSH1 0x20 DUP2 ADD DUP4 SWAP1 MSTORE SWAP2 SWAP3 POP PUSH1 0xFF DUP9 AND SWAP2 PUSH1 0x1 PUSH1 0x1 PUSH1 0xA0 SHL SUB DUP11 AND SWAP2 CALLER SWAP2 PUSH32 0xE5FF0D2B76D23D83B4F100713C827146903CB7C83470E5F991586D2A4CBE5E9D SWAP2 ADD PUSH1 0x40 MLOAD DUP1 SWAP2 SUB SWAP1 LOG4 PUSH1 0x1 SWAP4 POP POP POP POP PUSH2 0xE23 PUSH1 0x1 DUP1 SSTORE JUMP JUMPDEST SWAP4 SWAP3 POP POP POP JUMP JUMPDEST PUSH1 0x6 PUSH1 0x20 MSTORE DUP2 PUSH1 0x0 MSTORE PUSH1 0x40 PUSH1 0x0 KECCAK256 DUP2 DUP2 SLOAD DUP2 LT PUSH2 0x485 JUMPI PUSH1 0x0 DUP1 REVERT JUMPDEST PUSH1 0x0 PUSH2 0xE51 DUP2 PUSH2 0x105C JUMP JUMPDEST PUSH2 0x64D PUSH2 0x1725 JUMP JUMPDEST PUSH1 0x0 SWAP2 DUP3 MSTORE PUSH1 0x20 DUP3 DUP2 MSTORE PUSH1 0x40 DUP1 DUP5 KECCAK256 PUSH1 0x1 PUSH1 0x1 PUSH1 0xA0 SHL SUB SWAP4 SWAP1 SWAP4 AND DUP5 MSTORE SWAP2 SWAP1 MSTORE SWAP1 KECCAK256 SLOAD PUSH1 0xFF AND SWAP1 JUMP JUMPDEST PUSH1 0x0 PUSH32 0xCFD434139D70347FD097C11CC39DA980977996175F8D0CD5219F61ED0070F3B3 PUSH2 0xEAE DUP2 PUSH2 0x105C JUMP JUMPDEST DUP5 DUP4 EQ PUSH2 0xEF5 JUMPI PUSH1 0x40 MLOAD PUSH3 0x461BCD PUSH1 0xE5 SHL DUP2 MSTORE PUSH1 0x20 PUSH1 0x4 DUP3 ADD MSTORE PUSH1 0x15 PUSH1 0x24 DUP3 ADD MSTORE PUSH21 0x82E4E4C2F240D8CADCCEE8D040DAD2E6DAC2E8C6D PUSH1 0x5B SHL PUSH1 0x44 DUP3 ADD MSTORE PUSH1 0x64 ADD PUSH2 0x511 JUMP JUMPDEST PUSH1 0x0 JUMPDEST DUP6 DUP2 LT ISZERO PUSH2 0xFD7 JUMPI PUSH1 0x0 PUSH2 0xF58 DUP9 DUP9 DUP5 DUP2 DUP2 LT PUSH2 0xF17 JUMPI PUSH2 0xF17 PUSH2 0x1DB8 JUMP JUMPDEST SWAP1 POP PUSH1 0x20 MUL ADD PUSH1 0x20 DUP2 ADD SWAP1 PUSH2 0xF2C SWAP2 SWAP1 PUSH2 0x1CCE JUMP JUMPDEST DUP8 DUP8 DUP6 DUP2 DUP2 LT PUSH2 0xF3E JUMPI PUSH2 0xF3E PUSH2 0x1DB8 JUMP JUMPDEST SWAP1 POP PUSH1 0x20 MUL ADD PUSH1 0x20 DUP2 ADD SWAP1 PUSH2 0xF53 SWAP2 SWAP1 PUSH2 0x1B97 JUMP JUMPDEST PUSH2 0x1665 JUMP JUMPDEST SWAP1 POP DUP1 ISZERO PUSH2 0xFC4 JUMPI PUSH2 0xFB6 DUP9 DUP9 DUP5 DUP2 DUP2 LT PUSH2 0xF75 JUMPI PUSH2 0xF75 PUSH2 0x1DB8 JUMP JUMPDEST SWAP1 POP PUSH1 0x20 MUL ADD PUSH1 0x20 DUP2 ADD SWAP1 PUSH2 0xF8A SWAP2 SWAP1 PUSH2 0x1CCE JUMP JUMPDEST DUP8 DUP8 DUP6 DUP2 DUP2 LT PUSH2 0xF9C JUMPI PUSH2 0xF9C PUSH2 0x1DB8 JUMP JUMPDEST SWAP1 POP PUSH1 0x20 MUL ADD PUSH1 0x20 DUP2 ADD SWAP1 PUSH2 0xFB1 SWAP2 SWAP1 PUSH2 0x1B97 JUMP JUMPDEST PUSH2 0x1242 JUMP JUMPDEST POP PUSH2 0xFC1 DUP2 DUP6 PUSH2 0x1D70 JUMP JUMPDEST SWAP4 POP JUMPDEST POP DUP1 PUSH2 0xFCF DUP2 PUSH2 0x1DCE JUMP JUMPDEST SWAP2 POP POP PUSH2 0xEF8 JUMP JUMPDEST POP POP SWAP5 SWAP4 POP POP POP POP JUMP JUMPDEST PUSH2 0xFE9 PUSH2 0x1A80 JUMP JUMPDEST PUSH1 0x40 MLOAD DUP1 PUSH1 0x80 ADD PUSH1 0x40 MSTORE DUP1 PUSH2 0xFFF DUP5 PUSH1 0x0 PUSH2 0xA5B JUMP JUMPDEST DUP2 MSTORE PUSH1 0x20 ADD PUSH2 0x100F DUP5 PUSH1 0x1 PUSH2 0xA5B JUMP JUMPDEST DUP2 MSTORE PUSH1 0x20 ADD PUSH2 0x101F DUP5 PUSH1 0x2 PUSH2 0xA5B JUMP JUMPDEST DUP2 MSTORE PUSH1 0x20 ADD PUSH2 0x102F DUP5 PUSH1 0x3 PUSH2 0xA5B JUMP JUMPDEST SWAP1 MSTORE SWAP3 SWAP2 POP POP JUMP JUMPDEST PUSH1 0x0 DUP3 DUP2 MSTORE PUSH1 0x20 DUP2 SWAP1 MSTORE PUSH1 0x40 SWAP1 KECCAK256 PUSH1 0x1 ADD SLOAD PUSH2 0x1052 DUP2 PUSH2 0x105C JUMP JUMPDEST PUSH2 0x4BF DUP4 DUP4 PUSH2 0x10EA JUMP JUMPDEST PUSH2 0x64D DUP2 CALLER PUSH2 0x1762 JUMP JUMPDEST PUSH2 0x1070 DUP3 DUP3 PUSH2 0xE59 JUMP JUMPDEST PUSH2 0x636 JUMPI PUSH1 0x0 DUP3 DUP2 MSTORE PUSH1 0x20 DUP2 DUP2 MSTORE PUSH1 0x40 DUP1 DUP4 KECCAK256 PUSH1 0x1 PUSH1 0x1 PUSH1 0xA0 SHL SUB DUP6 AND DUP5 MSTORE SWAP1 SWAP2 MSTORE SWAP1 KECCAK256 DUP1 SLOAD PUSH1 0xFF NOT AND PUSH1 0x1 OR SWAP1 SSTORE PUSH2 0x10A6 CALLER SWAP1 JUMP JUMPDEST PUSH1 0x1 PUSH1 0x1 PUSH1 0xA0 SHL SUB AND DUP2 PUSH1 0x1 PUSH1 0x1 PUSH1 0xA0 SHL SUB AND DUP4 PUSH32 0x2F8788117E7EFF1D82E926EC794901D17C78024A50270940304540A733656F0D PUSH1 0x40 MLOAD PUSH1 0x40 MLOAD DUP1 SWAP2 SUB SWAP1 LOG4 POP POP JUMP JUMPDEST PUSH2 0x10F4 DUP3 DUP3 PUSH2 0xE59 JUMP JUMPDEST ISZERO PUSH2 0x636 JUMPI PUSH1 0x0 DUP3 DUP2 MSTORE PUSH1 0x20 DUP2 DUP2 MSTORE PUSH1 0x40 DUP1 DUP4 KECCAK256 PUSH1 0x1 PUSH1 0x1 PUSH1 0xA0 SHL SUB DUP6 AND DUP1 DUP6 MSTORE SWAP3 MSTORE DUP1 DUP4 KECCAK256 DUP1 SLOAD PUSH1 0xFF NOT AND SWAP1 SSTORE MLOAD CALLER SWAP3 DUP6 SWAP2 PUSH32 0xF6391F5C32D9C69D2A47EA670B442974B53935D1EDC7FD64EB21E047A839171B SWAP2 SWAP1 LOG4 POP POP JUMP JUMPDEST PUSH2 0x1157 PUSH2 0x17BB JUMP JUMPDEST PUSH1 0x2 DUP1 SLOAD PUSH1 0xFF NOT AND SWAP1 SSTORE PUSH32 0x5DB9EE0A495BF2E6FF9C91A7834C1BA4FDD244A5E8AA4E537BD38AEAE4B073AA CALLER JUMPDEST PUSH1 0x40 MLOAD PUSH1 0x1 PUSH1 0x1 PUSH1 0xA0 SHL SUB SWAP1 SWAP2 AND DUP2 MSTORE PUSH1 0x20 ADD PUSH1 0x40 MLOAD DUP1 SWAP2 SUB SWAP1 LOG1 JUMP JUMPDEST PUSH1 0x2 PUSH1 0x1 SLOAD SUB PUSH2 0x11F3 JUMPI PUSH1 0x40 MLOAD PUSH3 0x461BCD PUSH1 0xE5 SHL DUP2 MSTORE PUSH1 0x20 PUSH1 0x4 DUP3 ADD MSTORE PUSH1 0x1F PUSH1 0x24 DUP3 ADD MSTORE PUSH32 0x5265656E7472616E637947756172643A207265656E7472616E742063616C6C00 PUSH1 0x44 DUP3 ADD MSTORE PUSH1 0x64 ADD PUSH2 0x511 JUMP JUMPDEST PUSH1 0x2 PUSH1 0x1 SSTORE JUMP JUMPDEST PUSH1 0x2 SLOAD PUSH1 0xFF AND ISZERO PUSH2 0x1240 JUMPI PUSH1 0x40 MLOAD PUSH3 0x461BCD PUSH1 0xE5 SHL DUP2 MSTORE PUSH1 0x20 PUSH1 0x4 DUP3 ADD MSTORE PUSH1 0x10 PUSH1 0x24 DUP3 ADD MSTORE PUSH16 0x14185D5CD8589B194E881C185D5CD959 PUSH1 0x82 SHL PUSH1 0x44 DUP3 ADD MSTORE PUSH1 0x64 ADD PUSH2 0x511 JUMP JUMPDEST JUMP JUMPDEST PUSH1 0x1 PUSH1 0x1 PUSH1 0xA0 SHL SUB DUP3 AND PUSH1 0x0 SWAP1 DUP2 MSTORE PUSH1 0x3 PUSH1 0x20 SWAP1 DUP2 MSTORE PUSH1 0x40 DUP1 DUP4 KECCAK256 PUSH1 0xFF DUP6 AND DUP5 MSTORE SWAP1 SWAP2 MSTORE DUP2 KECCAK256 DUP1 SLOAD PUSH1 0x1 PUSH1 0x1 PUSH1 0x80 SHL SUB AND DUP3 SUB PUSH2 0x12A4 JUMPI DUP1 SLOAD PUSH8 0xFFFFFFFFFFFFFFFF PUSH1 0x80 SHL NOT AND PUSH1 0x1 PUSH1 0x80 SHL TIMESTAMP PUSH1 0x1 PUSH1 0x1 PUSH1 0x40 SHL SUB AND MUL OR SWAP1 SSTORE POP PUSH1 0x0 PUSH2 0x463 JUMP JUMPDEST PUSH1 0x0 PUSH2 0x12B0 DUP6 DUP6 PUSH2 0xA5B JUMP JUMPDEST DUP3 SLOAD SWAP1 SWAP2 POP PUSH1 0x0 SWAP1 PUSH2 0x12CC SWAP1 DUP4 SWAP1 PUSH1 0x1 PUSH1 0x1 PUSH1 0x80 SHL SUB AND PUSH2 0x1D83 JUMP JUMPDEST SWAP1 POP DUP1 ISZERO PUSH2 0x131C JUMPI DUP5 PUSH1 0xFF AND DUP7 PUSH1 0x1 PUSH1 0x1 PUSH1 0xA0 SHL SUB AND PUSH32 0xC69C91BA5F5913E26138489C21E28EC634A1150B5308C549B9EA252053C98220 DUP4 PUSH1 0x40 MLOAD PUSH2 0x1313 SWAP2 DUP2 MSTORE PUSH1 0x20 ADD SWAP1 JUMP JUMPDEST PUSH1 0x40 MLOAD DUP1 SWAP2 SUB SWAP1 LOG3 JUMPDEST POP DUP2 SLOAD PUSH1 0x1 PUSH1 0x1 PUSH1 0x80 SHL SUB DUP3 AND PUSH1 0x1 PUSH1 0x1 PUSH1 0xC0 SHL SUB NOT SWAP1 SWAP2 AND OR PUSH1 0x1 PUSH1 0x80 SHL TIMESTAMP PUSH1 0x1 PUSH1 0x1 PUSH1 0x40 SHL SUB AND MUL OR SWAP1 SWAP2 SSTORE SWAP4 SWAP3 POP POP POP JUMP JUMPDEST PUSH1 0x0 DUP1 DUP4 PUSH1 0x20 ADD MLOAD DUP5 PUSH1 0x40 ADD MLOAD PUSH2 0x1368 SWAP2 SWAP1 PUSH2 0x1DE7 JUMP JUMPDEST PUSH1 0x1 PUSH1 0x1 PUSH1 0x40 SHL SUB AND SWAP1 POP PUSH1 0x0 PUSH2 0x1382 PUSH3 0x15180 DUP4 PUSH2 0x1D96 JUMP JUMPDEST SWAP1 POP PUSH1 0x0 PUSH2 0x138F DUP3 PUSH2 0x1804 JUMP JUMPDEST SWAP1 POP PUSH1 0x0 PUSH8 0xDE0B6B3A7640000 PUSH2 0x13A6 DUP4 DUP3 PUSH2 0x1D83 JUMP JUMPDEST PUSH1 0xFF DUP9 AND PUSH1 0x0 SWAP1 DUP2 MSTORE PUSH1 0x4 PUSH1 0x20 MSTORE PUSH1 0x40 SWAP1 KECCAK256 SLOAD PUSH2 0x13C3 SWAP2 SWAP1 PUSH2 0x1D59 JUMP JUMPDEST PUSH2 0x13CD SWAP2 SWAP1 PUSH2 0x1D96 JUMP JUMPDEST SWAP1 POP PUSH1 0x0 DUP8 PUSH1 0x20 ADD MLOAD PUSH1 0x1 PUSH1 0x1 PUSH1 0x40 SHL SUB AND TIMESTAMP PUSH2 0x13EA SWAP2 SWAP1 PUSH2 0x1D83 JUMP JUMPDEST SWAP1 POP PUSH1 0x0 PUSH2 0x13FB PUSH3 0x15180 DUP4 PUSH2 0x1D96 JUMP JUMPDEST SWAP1 POP PUSH2 0x1415 DUP10 PUSH1 0x0 ADD MLOAD PUSH1 0x1 PUSH1 0x1 PUSH1 0x80 SHL SUB AND DUP5 DUP4 PUSH2 0x15E6 JUMP JUMPDEST SWAP10 SWAP9 POP POP POP POP POP POP POP POP POP JUMP JUMPDEST PUSH1 0x0 PUSH1 0xFF DUP4 AND ISZERO ISZERO DUP1 PUSH2 0x1445 JUMPI POP PUSH1 0xFF DUP4 AND PUSH1 0x0 SWAP1 DUP2 MSTORE PUSH1 0x6 PUSH1 0x20 MSTORE PUSH1 0x40 SWAP1 KECCAK256 SLOAD ISZERO JUMPDEST ISZERO PUSH2 0x1463 JUMPI POP PUSH1 0xFF DUP3 AND PUSH1 0x0 SWAP1 DUP2 MSTORE PUSH1 0x4 PUSH1 0x20 MSTORE PUSH1 0x40 SWAP1 KECCAK256 SLOAD PUSH2 0xE23 JUMP JUMPDEST PUSH1 0xFF DUP4 AND PUSH1 0x0 SWAP1 DUP2 MSTORE PUSH1 0x6 PUSH1 0x20 SWAP1 DUP2 MSTORE PUSH1 0x40 DUP1 DUP4 KECCAK256 DUP1 SLOAD DUP3 MLOAD DUP2 DUP6 MUL DUP2 ADD DUP6 ADD SWAP1 SWAP4 MSTORE DUP1 DUP4 MSTORE SWAP2 SWAP3 SWAP1 SWAP2 SWAP1 DUP4 ADD DUP3 DUP3 DUP1 ISZERO PUSH2 0x14BD JUMPI PUSH1 0x20 MUL DUP3 ADD SWAP2 SWAP1 PUSH1 0x0 MSTORE PUSH1 0x20 PUSH1 0x0 KECCAK256 SWAP1 JUMPDEST DUP2 SLOAD DUP2 MSTORE PUSH1 0x20 ADD SWAP1 PUSH1 0x1 ADD SWAP1 DUP1 DUP4 GT PUSH2 0x14A9 JUMPI JUMPDEST POP POP POP POP PUSH1 0xFF DUP7 AND PUSH1 0x0 SWAP1 DUP2 MSTORE PUSH1 0x7 PUSH1 0x20 SWAP1 DUP2 MSTORE PUSH1 0x40 DUP1 DUP4 KECCAK256 DUP1 SLOAD DUP3 MLOAD DUP2 DUP6 MUL DUP2 ADD DUP6 ADD SWAP1 SWAP4 MSTORE DUP1 DUP4 MSTORE SWAP6 SWAP7 POP SWAP3 SWAP5 SWAP1 SWAP4 POP SWAP1 DUP4 ADD DUP3 DUP3 DUP1 ISZERO PUSH2 0x151F JUMPI PUSH1 0x20 MUL DUP3 ADD SWAP2 SWAP1 PUSH1 0x0 MSTORE PUSH1 0x20 PUSH1 0x0 KECCAK256 SWAP1 JUMPDEST DUP2 SLOAD DUP2 MSTORE PUSH1 0x20 ADD SWAP1 PUSH1 0x1 ADD SWAP1 DUP1 DUP4 GT PUSH2 0x150B JUMPI JUMPDEST POP POP DUP6 MLOAD SWAP4 SWAP5 POP POP POP POP JUMPDEST DUP1 ISZERO PUSH2 0x15C7 JUMPI DUP3 PUSH2 0x153C PUSH1 0x1 DUP4 PUSH2 0x1D83 JUMP JUMPDEST DUP2 MLOAD DUP2 LT PUSH2 0x154C JUMPI PUSH2 0x154C PUSH2 0x1DB8 JUMP JUMPDEST PUSH1 0x20 MUL PUSH1 0x20 ADD ADD MLOAD DUP6 LT PUSH2 0x15B5 JUMPI PUSH8 0xDE0B6B3A7640000 DUP3 DUP3 DUP2 MLOAD DUP2 LT PUSH2 0x1575 JUMPI PUSH2 0x1575 PUSH2 0x1DB8 JUMP JUMPDEST PUSH1 0x20 MUL PUSH1 0x20 ADD ADD MLOAD PUSH1 0x4 PUSH1 0x0 DUP10 PUSH1 0xFF AND PUSH1 0xFF AND DUP2 MSTORE PUSH1 0x20 ADD SWAP1 DUP2 MSTORE PUSH1 0x20 ADD PUSH1 0x0 KECCAK256 SLOAD PUSH2 0x15A1 SWAP2 SWAP1 PUSH2 0x1D59 JUMP JUMPDEST PUSH2 0x15AB SWAP2 SWAP1 PUSH2 0x1D96 JUMP JUMPDEST SWAP4 POP POP POP POP PUSH2 0xE23 JUMP JUMPDEST DUP1 PUSH2 0x15BF DUP2 PUSH2 0x1E0E JUMP JUMPDEST SWAP2 POP POP PUSH2 0x152A JUMP JUMPDEST POP POP POP PUSH1 0xFF DUP4 AND PUSH1 0x0 SWAP1 DUP2 MSTORE PUSH1 0x4 PUSH1 0x20 MSTORE PUSH1 0x40 SWAP1 KECCAK256 SLOAD SWAP1 POP SWAP4 SWAP3 POP POP POP JUMP JUMPDEST PUSH1 0x0 DUP2 ISZERO DUP1 PUSH2 0x15F3 JUMPI POP DUP3 ISZERO JUMPDEST ISZERO PUSH2 0x15FF JUMPI POP DUP3 PUSH2 0xE23 JUMP JUMPDEST PUSH1 0x0 PUSH2 0x1613 DUP5 PUSH8 0xDE0B6B3A7640000 PUSH2 0x1D83 JUMP JUMPDEST SWAP1 POP PUSH1 0x0 PUSH2 0x162A DUP3 DUP6 PUSH8 0xDE0B6B3A7640000 PUSH2 0x185B JUMP JUMPDEST SWAP1 POP PUSH2 0x1647 PUSH8 0xDE0B6B3A7640000 DUP6 PUSH8 0xDE0B6B3A7640000 PUSH2 0x185B JUMP JUMPDEST PUSH2 0x1651 DUP3 DUP9 PUSH2 0x1D59 JUMP JUMPDEST PUSH2 0x165B SWAP2 SWAP1 PUSH2 0x1D96 JUMP JUMPDEST SWAP7 SWAP6 POP POP POP POP POP POP JUMP JUMPDEST PUSH1 0x1 PUSH1 0x1 PUSH1 0xA0 SHL SUB DUP3 AND PUSH1 0x0 SWAP1 DUP2 MSTORE PUSH1 0x3 PUSH1 0x20 SWAP1 DUP2 MSTORE PUSH1 0x40 DUP1 DUP4 KECCAK256 PUSH1 0xFF DUP6 AND DUP5 MSTORE DUP3 MSTORE DUP1 DUP4 KECCAK256 DUP2 MLOAD PUSH1 0x60 DUP2 ADD DUP4 MSTORE SWAP1 SLOAD PUSH1 0x1 PUSH1 0x1 PUSH1 0x80 SHL SUB DUP2 AND DUP1 DUP4 MSTORE PUSH1 0x1 PUSH1 0x1 PUSH1 0x40 SHL SUB PUSH1 0x1 PUSH1 0x80 SHL DUP4 DIV DUP2 AND SWAP6 DUP5 ADD SWAP6 SWAP1 SWAP6 MSTORE PUSH1 0x1 PUSH1 0xC0 SHL SWAP1 SWAP2 DIV SWAP1 SWAP4 AND SWAP2 DUP2 ADD SWAP2 SWAP1 SWAP2 MSTORE SWAP1 DUP3 SUB PUSH2 0x16DD JUMPI PUSH1 0x0 SWAP2 POP POP PUSH2 0x463 JUMP JUMPDEST PUSH1 0x0 PUSH2 0x16E9 DUP6 DUP6 PUSH2 0xA5B JUMP JUMPDEST SWAP1 POP DUP1 DUP3 PUSH1 0x0 ADD MLOAD PUSH1 0x1 PUSH1 0x1 PUSH1 0x80 SHL SUB AND GT PUSH2 0x1706 JUMPI PUSH1 0x0 PUSH2 0x171C JUMP JUMPDEST DUP2 MLOAD PUSH2 0x171C SWAP1 DUP3 SWAP1 PUSH1 0x1 PUSH1 0x1 PUSH1 0x80 SHL SUB AND PUSH2 0x1D83 JUMP JUMPDEST SWAP6 SWAP5 POP POP POP POP POP JUMP JUMPDEST PUSH2 0x172D PUSH2 0x11FA JUMP JUMPDEST PUSH1 0x2 DUP1 SLOAD PUSH1 0xFF NOT AND PUSH1 0x1 OR SWAP1 SSTORE PUSH32 0x62E78CEA01BEE320CD4E420270B5EA74000D11B0C9F74754EBDBFC544B05A258 PUSH2 0x1184 CALLER SWAP1 JUMP JUMPDEST PUSH2 0x176C DUP3 DUP3 PUSH2 0xE59 JUMP JUMPDEST PUSH2 0x636 JUMPI PUSH2 0x1779 DUP2 PUSH2 0x18D3 JUMP JUMPDEST PUSH2 0x1784 DUP4 PUSH1 0x20 PUSH2 0x18E5 JUMP JUMPDEST PUSH1 0x40 MLOAD PUSH1 0x20 ADD PUSH2 0x1795 SWAP3 SWAP2 SWAP1 PUSH2 0x1E49 JUMP JUMPDEST PUSH1 0x40 DUP1 MLOAD PUSH1 0x1F NOT DUP2 DUP5 SUB ADD DUP2 MSTORE SWAP1 DUP3 SWAP1 MSTORE PUSH3 0x461BCD PUSH1 0xE5 SHL DUP3 MSTORE PUSH2 0x511 SWAP2 PUSH1 0x4 ADD PUSH2 0x1EBE JUMP JUMPDEST PUSH1 0x2 SLOAD PUSH1 0xFF AND PUSH2 0x1240 JUMPI PUSH1 0x40 MLOAD PUSH3 0x461BCD PUSH1 0xE5 SHL DUP2 MSTORE PUSH1 0x20 PUSH1 0x4 DUP3 ADD MSTORE PUSH1 0x14 PUSH1 0x24 DUP3 ADD MSTORE PUSH20 0x14185D5CD8589B194E881B9BDD081C185D5CD959 PUSH1 0x62 SHL PUSH1 0x44 DUP3 ADD MSTORE PUSH1 0x64 ADD PUSH2 0x511 JUMP JUMPDEST PUSH1 0x0 PUSH2 0x16D DUP3 LT PUSH2 0x181E JUMPI POP PUSH8 0xC7D713B49DA0000 SWAP2 SWAP1 POP JUMP JUMPDEST PUSH1 0xB4 DUP3 LT PUSH2 0x1835 JUMPI POP PUSH8 0x63EB89DA4ED0000 SWAP2 SWAP1 POP JUMP JUMPDEST PUSH1 0x5A DUP3 LT PUSH2 0x184C JUMPI POP PUSH8 0x3BF3B91C95B0000 SWAP2 SWAP1 POP JUMP JUMPDEST POP PUSH8 0x13FBE85EDC90000 SWAP2 SWAP1 POP JUMP JUMPDEST PUSH1 0x0 DUP3 PUSH1 0x0 SUB PUSH2 0x186C JUMPI POP DUP1 PUSH2 0xE23 JUMP JUMPDEST DUP3 PUSH1 0x1 SUB PUSH2 0x187B JUMPI POP DUP3 PUSH2 0xE23 JUMP JUMPDEST DUP2 DUP5 JUMPDEST DUP5 ISZERO PUSH2 0x18CA JUMPI DUP5 PUSH1 0x1 AND PUSH1 0x1 SUB PUSH2 0x18A7 JUMPI DUP4 PUSH2 0x189A DUP3 DUP5 PUSH2 0x1D59 JUMP JUMPDEST PUSH2 0x18A4 SWAP2 SWAP1 PUSH2 0x1D96 JUMP JUMPDEST SWAP2 POP JUMPDEST DUP4 PUSH2 0x18B2 DUP3 DUP1 PUSH2 0x1D59 JUMP JUMPDEST PUSH2 0x18BC SWAP2 SWAP1 PUSH2 0x1D96 JUMP JUMPDEST SWAP1 POP PUSH1 0x1 DUP6 SWAP1 SHR SWAP5 POP PUSH2 0x187E JUMP JUMPDEST POP SWAP5 SWAP4 POP POP POP POP JUMP JUMPDEST PUSH1 0x60 PUSH2 0x463 PUSH1 0x1 PUSH1 0x1 PUSH1 0xA0 SHL SUB DUP4 AND PUSH1 0x14 JUMPDEST PUSH1 0x60 PUSH1 0x0 PUSH2 0x18F4 DUP4 PUSH1 0x2 PUSH2 0x1D59 JUMP JUMPDEST PUSH2 0x18FF SWAP1 PUSH1 0x2 PUSH2 0x1D70 JUMP JUMPDEST PUSH1 0x1 PUSH1 0x1 PUSH1 0x40 SHL SUB DUP2 GT ISZERO PUSH2 0x1916 JUMPI PUSH2 0x1916 PUSH2 0x1EF1 JUMP JUMPDEST PUSH1 0x40 MLOAD SWAP1 DUP1 DUP3 MSTORE DUP1 PUSH1 0x1F ADD PUSH1 0x1F NOT AND PUSH1 0x20 ADD DUP3 ADD PUSH1 0x40 MSTORE DUP1 ISZERO PUSH2 0x1940 JUMPI PUSH1 0x20 DUP3 ADD DUP2 DUP1 CALLDATASIZE DUP4 CALLDATACOPY ADD SWAP1 POP JUMPDEST POP SWAP1 POP PUSH1 0x3 PUSH1 0xFC SHL DUP2 PUSH1 0x0 DUP2 MLOAD DUP2 LT PUSH2 0x195B JUMPI PUSH2 0x195B PUSH2 0x1DB8 JUMP JUMPDEST PUSH1 0x20 ADD ADD SWAP1 PUSH1 0x1 PUSH1 0x1 PUSH1 0xF8 SHL SUB NOT AND SWAP1 DUP2 PUSH1 0x0 BYTE SWAP1 MSTORE8 POP PUSH1 0xF PUSH1 0xFB SHL DUP2 PUSH1 0x1 DUP2 MLOAD DUP2 LT PUSH2 0x198A JUMPI PUSH2 0x198A PUSH2 0x1DB8 JUMP JUMPDEST PUSH1 0x20 ADD ADD SWAP1 PUSH1 0x1 PUSH1 0x1 PUSH1 0xF8 SHL SUB NOT AND SWAP1 DUP2 PUSH1 0x0 BYTE SWAP1 MSTORE8 POP PUSH1 0x0 PUSH2 0x19AE DUP5 PUSH1 0x2 PUSH2 0x1D59 JUMP JUMPDEST PUSH2 0x19B9 SWAP1 PUSH1 0x1 PUSH2 0x1D70 JUMP JUMPDEST SWAP1 POP JUMPDEST PUSH1 0x1 DUP2 GT ISZERO PUSH2 0x1A31 JUMPI PUSH16 0x181899199A1A9B1B9C1CB0B131B232B3 PUSH1 0x81 SHL DUP6 PUSH1 0xF AND PUSH1 0x10 DUP2 LT PUSH2 0x19ED JUMPI PUSH2 0x19ED PUSH2 0x1DB8 JUMP JUMPDEST BYTE PUSH1 0xF8 SHL DUP3 DUP3 DUP2 MLOAD DUP2 LT PUSH2 0x1A03 JUMPI PUSH2 0x1A03 PUSH2 0x1DB8 JUMP JUMPDEST PUSH1 0x20 ADD ADD SWAP1 PUSH1 0x1 PUSH1 0x1 PUSH1 0xF8 SHL SUB NOT AND SWAP1 DUP2 PUSH1 0x0 BYTE SWAP1 MSTORE8 POP PUSH1 0x4 SWAP5 SWAP1 SWAP5 SHR SWAP4 PUSH2 0x1A2A DUP2 PUSH2 0x1E0E JUMP JUMPDEST SWAP1 POP PUSH2 0x19BC JUMP JUMPDEST POP DUP4 ISZERO PUSH2 0xE23 JUMPI PUSH1 0x40 MLOAD PUSH3 0x461BCD PUSH1 0xE5 SHL DUP2 MSTORE PUSH1 0x20 PUSH1 0x4 DUP3 ADD DUP2 SWAP1 MSTORE PUSH1 0x24 DUP3 ADD MSTORE PUSH32 0x537472696E67733A20686578206C656E67746820696E73756666696369656E74 PUSH1 0x44 DUP3 ADD MSTORE PUSH1 0x64 ADD PUSH2 0x511 JUMP JUMPDEST PUSH1 0x40 MLOAD DUP1 PUSH1 0x80 ADD PUSH1 0x40 MSTORE DUP1 PUSH1 0x4 SWAP1 PUSH1 0x20 DUP3 MUL DUP1 CALLDATASIZE DUP4 CALLDATACOPY POP SWAP2 SWAP3 SWAP2 POP POP JUMP JUMPDEST PUSH1 0x0 PUSH1 0x20 DUP3 DUP5 SUB SLT ISZERO PUSH2 0x1AB0 JUMPI PUSH1 0x0 DUP1 REVERT JUMPDEST DUP2 CALLDATALOAD PUSH1 0x1 PUSH1 0x1 PUSH1 0xE0 SHL SUB NOT DUP2 AND DUP2 EQ PUSH2 0xE23 JUMPI PUSH1 0x0 DUP1 REVERT JUMPDEST PUSH1 0x0 PUSH1 0x20 DUP3 DUP5 SUB SLT ISZERO PUSH2 0x1ADA JUMPI PUSH1 0x0 DUP1 REVERT JUMPDEST POP CALLDATALOAD SWAP2 SWAP1 POP JUMP JUMPDEST DUP1 CALLDATALOAD PUSH1 0xFF DUP2 AND DUP2 EQ PUSH2 0x1AF2 JUMPI PUSH1 0x0 DUP1 REVERT JUMPDEST SWAP2 SWAP1 POP JUMP JUMPDEST PUSH1 0x0 DUP1 PUSH1 0x40 DUP4 DUP6 SUB SLT ISZERO PUSH2 0x1B0A JUMPI PUSH1 0x0 DUP1 REVERT JUMPDEST PUSH2 0x1B13 DUP4 PUSH2 0x1AE1 JUMP JUMPDEST SWAP5 PUSH1 0x20 SWAP4 SWAP1 SWAP4 ADD CALLDATALOAD SWAP4 POP POP POP JUMP JUMPDEST DUP1 CALLDATALOAD PUSH1 0x1 PUSH1 0x1 PUSH1 0xA0 SHL SUB DUP2 AND DUP2 EQ PUSH2 0x1AF2 JUMPI PUSH1 0x0 DUP1 REVERT JUMPDEST PUSH1 0x0 DUP1 PUSH1 0x40 DUP4 DUP6 SUB SLT ISZERO PUSH2 0x1B4B JUMPI PUSH1 0x0 DUP1 REVERT JUMPDEST DUP3 CALLDATALOAD SWAP2 POP PUSH2 0x1B5B PUSH1 0x20 DUP5 ADD PUSH2 0x1B21 JUMP JUMPDEST SWAP1 POP SWAP3 POP SWAP3 SWAP1 POP JUMP JUMPDEST PUSH1 0x0 DUP1 PUSH1 0x0 PUSH1 0x60 DUP5 DUP7 SUB SLT ISZERO PUSH2 0x1B79 JUMPI PUSH1 0x0 DUP1 REVERT JUMPDEST PUSH2 0x1B82 DUP5 PUSH2 0x1AE1 JUMP JUMPDEST SWAP6 PUSH1 0x20 DUP6 ADD CALLDATALOAD SWAP6 POP PUSH1 0x40 SWAP1 SWAP5 ADD CALLDATALOAD SWAP4 SWAP3 POP POP POP JUMP JUMPDEST PUSH1 0x0 PUSH1 0x20 DUP3 DUP5 SUB SLT ISZERO PUSH2 0x1BA9 JUMPI PUSH1 0x0 DUP1 REVERT JUMPDEST PUSH2 0xE23 DUP3 PUSH2 0x1AE1 JUMP JUMPDEST PUSH1 0x0 DUP1 PUSH1 0x0 PUSH1 0x60 DUP5 DUP7 SUB SLT ISZERO PUSH2 0x1BC7 JUMPI PUSH1 0x0 DUP1 REVERT JUMPDEST PUSH2 0x1BD0 DUP5 PUSH2 0x1B21 JUMP JUMPDEST SWAP3 POP PUSH2 0x1BDE PUSH1 0x20 DUP6 ADD PUSH2 0x1AE1 JUMP JUMPDEST SWAP2 POP PUSH1 0x40 DUP5 ADD CALLDATALOAD SWAP1 POP SWAP3 POP SWAP3 POP SWAP3 JUMP JUMPDEST PUSH1 0x0 DUP1 PUSH1 0x40 DUP4 DUP6 SUB SLT ISZERO PUSH2 0x1C01 JUMPI PUSH1 0x0 DUP1 REVERT JUMPDEST PUSH2 0x1C0A DUP4 PUSH2 0x1B21 JUMP JUMPDEST SWAP2 POP PUSH2 0x1B5B PUSH1 0x20 DUP5 ADD PUSH2 0x1AE1 JUMP JUMPDEST PUSH1 0x0 DUP1 DUP4 PUSH1 0x1F DUP5 ADD SLT PUSH2 0x1C2A JUMPI PUSH1 0x0 DUP1 REVERT JUMPDEST POP DUP2 CALLDATALOAD PUSH1 0x1 PUSH1 0x1 PUSH1 0x40 SHL SUB DUP2 GT ISZERO PUSH2 0x1C41 JUMPI PUSH1 0x0 DUP1 REVERT JUMPDEST PUSH1 0x20 DUP4 ADD SWAP2 POP DUP4 PUSH1 0x20 DUP3 PUSH1 0x5 SHL DUP6 ADD ADD GT ISZERO PUSH2 0x1C5C JUMPI PUSH1 0x0 DUP1 REVERT JUMPDEST SWAP3 POP SWAP3 SWAP1 POP JUMP JUMPDEST PUSH1 0x0 DUP1 PUSH1 0x0 DUP1 PUSH1 0x40 DUP6 DUP8 SUB SLT ISZERO PUSH2 0x1C79 JUMPI PUSH1 0x0 DUP1 REVERT JUMPDEST DUP5 CALLDATALOAD PUSH1 0x1 PUSH1 0x1 PUSH1 0x40 SHL SUB DUP1 DUP3 GT ISZERO PUSH2 0x1C90 JUMPI PUSH1 0x0 DUP1 REVERT JUMPDEST PUSH2 0x1C9C DUP9 DUP4 DUP10 ADD PUSH2 0x1C18 JUMP JUMPDEST SWAP1 SWAP7 POP SWAP5 POP PUSH1 0x20 DUP8 ADD CALLDATALOAD SWAP2 POP DUP1 DUP3 GT ISZERO PUSH2 0x1CB5 JUMPI PUSH1 0x0 DUP1 REVERT JUMPDEST POP PUSH2 0x1CC2 DUP8 DUP3 DUP9 ADD PUSH2 0x1C18 JUMP JUMPDEST SWAP6 SWAP9 SWAP5 SWAP8 POP SWAP6 POP POP POP POP JUMP JUMPDEST PUSH1 0x0 PUSH1 0x20 DUP3 DUP5 SUB SLT ISZERO PUSH2 0x1CE0 JUMPI PUSH1 0x0 DUP1 REVERT JUMPDEST PUSH2 0xE23 DUP3 PUSH2 0x1B21 JUMP JUMPDEST PUSH1 0x80 DUP2 ADD DUP2 DUP4 PUSH1 0x0 JUMPDEST PUSH1 0x4 DUP2 LT ISZERO PUSH2 0x1D11 JUMPI DUP2 MLOAD DUP4 MSTORE PUSH1 0x20 SWAP3 DUP4 ADD SWAP3 SWAP1 SWAP2 ADD SWAP1 PUSH1 0x1 ADD PUSH2 0x1CF2 JUMP JUMPDEST POP POP POP SWAP3 SWAP2 POP POP JUMP JUMPDEST PUSH1 0x20 DUP1 DUP3 MSTORE PUSH1 0xF SWAP1 DUP3 ADD MSTORE PUSH15 0x496E76616C69642073706563696573 PUSH1 0x88 SHL PUSH1 0x40 DUP3 ADD MSTORE PUSH1 0x60 ADD SWAP1 JUMP JUMPDEST PUSH4 0x4E487B71 PUSH1 0xE0 SHL PUSH1 0x0 MSTORE PUSH1 0x11 PUSH1 0x4 MSTORE PUSH1 0x24 PUSH1 0x0 REVERT JUMPDEST DUP1 DUP3 MUL DUP2 ISZERO DUP3 DUP3 DIV DUP5 EQ OR PUSH2 0x463 JUMPI PUSH2 0x463 PUSH2 0x1D43 JUMP JUMPDEST DUP1 DUP3 ADD DUP1 DUP3 GT ISZERO PUSH2 0x463 JUMPI PUSH2 0x463 PUSH2 0x1D43 JUMP JUMPDEST DUP2 DUP2 SUB DUP2 DUP2 GT ISZERO PUSH2 0x463 JUMPI PUSH2 0x463 PUSH2 0x1D43 JUMP JUMPDEST PUSH1 0x0 DUP3 PUSH2 0x1DB3 JUMPI PUSH4 0x4E487B71 PUSH1 0xE0 SHL PUSH1 0x0 MSTORE PUSH1 0x12 PUSH1 0x4 MSTORE PUSH1 0x24 PUSH1 0x0 REVERT JUMPDEST POP DIV SWAP1 JUMP JUMPDEST PUSH4 0x4E487B71 PUSH1 0xE0 SHL PUSH1 0x0 MSTORE PUSH1 0x32 PUSH1 0x4 MSTORE PUSH1 0x24 PUSH1 0x0 REVERT JUMPDEST PUSH1 0x0 PUSH1 0x1 DUP3 ADD PUSH2 0x1DE0 JUMPI PUSH2 0x1DE0 PUSH2 0x1D43 JUMP JUMPDEST POP PUSH1 0x1 ADD SWAP1 JUMP JUMPDEST PUSH1 0x1 PUSH1 0x1 PUSH1 0x40 SHL SUB DUP3 DUP2 AND DUP3 DUP3 AND SUB SWAP1 DUP1 DUP3 GT ISZERO PUSH2 0x1E07 JUMPI PUSH2 0x1E07 PUSH2 0x1D43 JUMP JUMPDEST POP SWAP3 SWAP2 POP POP JUMP JUMPDEST PUSH1 0x0 DUP2 PUSH2 0x1E1D JUMPI PUSH2 0x1E1D PUSH2 0x1D43 JUMP JUMPDEST POP PUSH1 0x0 NOT ADD SWAP1 JUMP JUMPDEST PUSH1 0x0 JUMPDEST DUP4 DUP2 LT ISZERO PUSH2 0x1E40 JUMPI DUP2 DUP2 ADD MLOAD DUP4 DUP3 ADD MSTORE PUSH1 0x20 ADD PUSH2 0x1E28 JUMP JUMPDEST POP POP PUSH1 0x0 SWAP2 ADD MSTORE JUMP JUMPDEST PUSH32 0x416363657373436F6E74726F6C3A206163636F756E7420000000000000000000 DUP2 MSTORE PUSH1 0x0 DUP4 MLOAD PUSH2 0x1E81 DUP2 PUSH1 0x17 DUP6 ADD PUSH1 0x20 DUP9 ADD PUSH2 0x1E25 JUMP JUMPDEST PUSH17 0x1034B99036B4B9B9B4B733903937B6329 PUSH1 0x7D SHL PUSH1 0x17 SWAP2 DUP5 ADD SWAP2 DUP3 ADD MSTORE DUP4 MLOAD PUSH2 0x1EB2 DUP2 PUSH1 0x28 DUP5 ADD PUSH1 0x20 DUP9 ADD PUSH2 0x1E25 JUMP JUMPDEST ADD PUSH1 0x28 ADD SWAP5 SWAP4 POP POP POP POP JUMP JUMPDEST PUSH1 0x20 DUP2 MSTORE PUSH1 0x0 DUP3 MLOAD DUP1 PUSH1 0x20 DUP5 ADD MSTORE PUSH2 0x1EDD DUP2 PUSH1 0x40 DUP6 ADD PUSH1 0x20 DUP8 ADD PUSH2 0x1E25 JUMP JUMPDEST PUSH1 0x1F ADD PUSH1 0x1F NOT AND SWAP2 SWAP1 SWAP2 ADD PUSH1 0x40 ADD SWAP3 SWAP2 POP POP JUMP JUMPDEST PUSH4 0x4E487B71 PUSH1 0xE0 SHL PUSH1 0x0 MSTORE PUSH1 0x41 PUSH1 0x4 MSTORE PUSH1 0x24 PUSH1 0x0 REVERT INVALID LOG2 PUSH5 0x6970667358 0x22 SLT KECCAK256 SWAP13 ADDRESS SGT CALLVALUE MLOAD BASEFEE PUSH15 0x6C8236BA990EFF28EB3591B2856DDA 0xC0 0xDE SWAP15 PUSH10 0xB62B6ABAF59764736F6C PUSH4 0x43000813 STOP CALLER "},"methodIdentifiers":{"CATALYST()":"598150b2","DEFAULT_ADMIN_ROLE()":"a217fddf","FOUNDATION()":"65df2e51","GOVERNANCE_ROLE()":"f36c8f5c","HEALING()":"a7c3fce7","MINTER_ROLE()":"d5391393","RESERVOIR_ROLE()":"19ccd5ee","RHYTHM()":"c85d1712","balanceOf(address,uint8)":"67412045","collectDecay(address[],uint8[])":"b0a3996e","decayRates(uint8)":"a388b3b5","getAllBalances(address)":"c53d6ce1","getRoleAdmin(bytes32)":"248a9ca3","grantRole(bytes32,address)":"2f2ff15d","hasRole(bytes32,address)":"91d14854","lockInVault(uint8,uint256,uint256)":"45881d0b","mint(address,uint8,uint256)":"4ed387b2","pause()":"8456cb59","paused()":"5c975abb","renounceRole(bytes32,address)":"36568abe","revokeRole(bytes32,address)":"d547741f","supportsInterface(bytes4)":"01ffc9a7","totalSupply(uint8)":"496d9f44","transfer(address,uint8,uint256)":"70904483","unpause()":"3f4ba83a","updateDecayRate(uint8,uint256)":"3431757c","whaleMultipliers(uint8,uint256)":"2741ef17","whaleThresholds(uint8,uint256)":"7d5ffe21"}}}}}