{"contracts/VerificationEngine.sol":{"VerificationEngine":{"abi":[{"inputs":[{"internalType":"address","name":"_token","type":"address"},{"internalType":"address","name":"_reservoir","type":"address"}],"stateMutability":"nonpayable","type":"constructor"},{"anonymous":false,"inputs":[{"indexed":true,"internalType":"address","name":"app","type":"address"},{"indexed":false,"internalType":"uint256","name":"stake","type":"uint256"}],"name":"AppRegistered","type":"event"},{"anonymous":false,"inputs":[{"indexed":true,"internalType":"address","name":"app","type":"address"},{"indexed":false,"internalType":"uint256","name":"amount","type":"uint256"},{"indexed":false,"internalType":"string","name":"reason","type":"string"}],"name":"AppSlashed","type":"event"},{"anonymous":false,"inputs":[{"indexed":false,"internalType":"uint256","name":"count","type":"uint256"},{"indexed":false,"internalType":"uint256","name":"totalRewards","type":"uint256"}],"name":"BatchProofVerified","type":"event"},{"anonymous":false,"inputs":[{"indexed":true,"internalType":"bytes32","name":"profileId","type":"bytes32"},{"indexed":false,"internalType":"string","name":"traitName","type":"string"},{"indexed":false,"internalType":"uint256","name":"cost","type":"uint256"}],"name":"GeneticTraitEvolved","type":"event"},{"anonymous":false,"inputs":[{"indexed":false,"internalType":"address","name":"account","type":"address"}],"name":"Paused","type":"event"},{"anonymous":false,"inputs":[{"indexed":true,"internalType":"bytes32","name":"profileId","type":"bytes32"},{"indexed":true,"internalType":"uint8","name":"activityType","type":"uint8"},{"indexed":false,"internalType":"uint256","name":"reward","type":"uint256"},{"indexed":false,"internalType":"uint256","name":"multiplier","type":"uint256"}],"name":"ProofVerified","type":"event"},{"anonymous":false,"inputs":[{"indexed":true,"internalType":"bytes32","name":"role","type":"bytes32"},{"indexed":true,"internalType":"bytes32","name":"previousAdminRole","type":"bytes32"},{"indexed":true,"internalType":"bytes32","name":"newAdminRole","type":"bytes32"}],"name":"RoleAdminChanged","type":"event"},{"anonymous":false,"inputs":[{"indexed":true,"internalType":"bytes32","name":"role","type":"bytes32"},{"indexed":true,"internalType":"address","name":"account","type":"address"},{"indexed":true,"internalType":"address","name":"sender","type":"address"}],"name":"RoleGranted","type":"event"},{"anonymous":false,"inputs":[{"indexed":true,"internalType":"bytes32","name":"role","type":"bytes32"},{"indexed":true,"internalType":"address","name":"account","type":"address"},{"indexed":true,"internalType":"address","name":"sender","type":"address"}],"name":"RoleRevoked","type":"event"},{"anonymous":false,"inputs":[{"indexed":false,"internalType":"address","name":"account","type":"address"}],"name":"Unpaused","type":"event"},{"inputs":[],"name":"APP_ROLE","outputs":[{"internalType":"bytes32","name":"","type":"bytes32"}],"stateMutability":"view","type":"function"},{"inputs":[],"name":"DEFAULT_ADMIN_ROLE","outputs":[{"internalType":"bytes32","name":"","type":"bytes32"}],"stateMutability":"view","type":"function"},{"inputs":[],"name":"ORACLE_ROLE","outputs":[{"internalType":"bytes32","name":"","type":"bytes32"}],"stateMutability":"view","type":"function"},{"inputs":[],"name":"VERIFIER_ROLE","outputs":[{"internalType":"bytes32","name":"","type":"bytes32"}],"stateMutability":"view","type":"function"},{"inputs":[{"internalType":"enum VerificationEngine.ActivityType","name":"","type":"uint8"}],"name":"activityToSpecies","outputs":[{"internalType":"uint8","name":"","type":"uint8"}],"stateMutability":"view","type":"function"},{"inputs":[{"internalType":"address","name":"","type":"address"}],"name":"appStakes","outputs":[{"internalType":"uint256","name":"","type":"uint256"}],"stateMutability":"view","type":"function"},{"inputs":[{"internalType":"address","name":"","type":"address"}],"name":"appViolations","outputs":[{"internalType":"uint256","name":"","type":"uint256"}],"stateMutability":"view","type":"function"},{"inputs":[],"name":"autophageToken","outputs":[{"internalType":"contract IAutophageToken","name":"","type":"address"}],"stateMutability":"view","type":"function"},{"inputs":[{"internalType":"enum VerificationEngine.ActivityType","name":"","type":"uint8"}],"name":"baseRewards","outputs":[{"internalType":"uint256","name":"","type":"uint256"}],"stateMutability":"view","type":"function"},{"inputs":[{"components":[{"internalType":"bytes32","name":"activityHash","type":"bytes32"},{"internalType":"uint8","name":"activityType","type":"uint8"},{"internalType":"uint256","name":"energyExpended","type":"uint256"},{"internalType":"uint256","name":"timestamp","type":"uint256"},{"internalType":"bytes32","name":"profileId","type":"bytes32"},{"internalType":"bytes","name":"proof","type":"bytes"},{"internalType":"bytes","name":"metadata","type":"bytes"}],"internalType":"struct VerificationEngine.HealthProof[]","name":"proofs","type":"tuple[]"}],"name":"batchVerifyAndMint","outputs":[{"internalType":"uint256","name":"totalRewards","type":"uint256"}],"stateMutability":"nonpayable","type":"function"},{"inputs":[{"internalType":"bytes32","name":"","type":"bytes32"},{"internalType":"uint8","name":"","type":"uint8"}],"name":"dailyActivities","outputs":[{"internalType":"bool","name":"","type":"bool"}],"stateMutability":"view","type":"function"},{"inputs":[{"internalType":"bytes32","name":"profileId","type":"bytes32"},{"internalType":"string","name":"traitName","type":"string"}],"name":"evolveGeneticTrait","outputs":[],"stateMutability":"nonpayable","type":"function"},{"inputs":[{"internalType":"bytes32","name":"","type":"bytes32"}],"name":"geneticTraitCount","outputs":[{"internalType":"uint256","name":"","type":"uint256"}],"stateMutability":"view","type":"function"},{"inputs":[{"internalType":"bytes32","name":"role","type":"bytes32"}],"name":"getRoleAdmin","outputs":[{"internalType":"bytes32","name":"","type":"bytes32"}],"stateMutability":"view","type":"function"},{"inputs":[{"internalType":"bytes32","name":"role","type":"bytes32"},{"internalType":"address","name":"account","type":"address"}],"name":"grantRole","outputs":[],"stateMutability":"nonpayable","type":"function"},{"inputs":[{"internalType":"bytes32","name":"role","type":"bytes32"},{"internalType":"address","name":"account","type":"address"}],"name":"hasRole","outputs":[{"internalType":"bool","name":"","type":"bool"}],"stateMutability":"view","type":"function"},{"inputs":[{"internalType":"bytes32","name":"","type":"bytes32"}],"name":"lastActivityTimestamp","outputs":[{"internalType":"uint256","name":"","type":"uint256"}],"stateMutability":"view","type":"function"},{"inputs":[],"name":"nextTraitId","outputs":[{"internalType":"uint8","name":"","type":"uint8"}],"stateMutability":"view","type":"function"},{"inputs":[],"name":"pause","outputs":[],"stateMutability":"nonpayable","type":"function"},{"inputs":[],"name":"paused","outputs":[{"internalType":"bool","name":"","type":"bool"}],"stateMutability":"view","type":"function"},{"inputs":[{"internalType":"uint256","name":"stakeAmount","type":"uint256"}],"name":"registerApp","outputs":[],"stateMutability":"nonpayable","type":"function"},{"inputs":[{"internalType":"address","name":"","type":"address"}],"name":"registeredApps","outputs":[{"internalType":"bool","name":"","type":"bool"}],"stateMutability":"view","type":"function"},{"inputs":[{"internalType":"bytes32","name":"role","type":"bytes32"},{"internalType":"address","name":"account","type":"address"}],"name":"renounceRole","outputs":[],"stateMutability":"nonpayable","type":"function"},{"inputs":[],"name":"reservoir","outputs":[{"internalType":"contract IReservoir","name":"","type":"address"}],"stateMutability":"view","type":"function"},{"inputs":[{"internalType":"bytes32","name":"role","type":"bytes32"},{"internalType":"address","name":"account","type":"address"}],"name":"revokeRole","outputs":[],"stateMutability":"nonpayable","type":"function"},{"inputs":[{"internalType":"address","name":"app","type":"address"},{"internalType":"string","name":"reason","type":"string"}],"name":"slashApp","outputs":[],"stateMutability":"nonpayable","type":"function"},{"inputs":[{"internalType":"bytes32","name":"","type":"bytes32"}],"name":"streakCount","outputs":[{"internalType":"uint256","name":"","type":"uint256"}],"stateMutability":"view","type":"function"},{"inputs":[{"internalType":"bytes4","name":"interfaceId","type":"bytes4"}],"name":"supportsInterface","outputs":[{"internalType":"bool","name":"","type":"bool"}],"stateMutability":"view","type":"function"},{"inputs":[{"internalType":"string","name":"","type":"string"}],"name":"traitNameToId","outputs":[{"internalType":"uint8","name":"","type":"uint8"}],"stateMutability":"view","type":"function"},{"inputs":[],"name":"unpause","outputs":[],"stateMutability":"nonpayable","type":"function"},{"inputs":[{"internalType":"enum VerificationEngine.ActivityType","name":"activityType","type":"uint8"},{"internalType":"uint256","name":"newReward","type":"uint256"}],"name":"updateBaseReward","outputs":[],"stateMutability":"nonpayable","type":"function"},{"inputs":[{"internalType":"bytes32","name":"","type":"bytes32"},{"internalType":"uint8","name":"","type":"uint8"}],"name":"userTraits","outputs":[{"internalType":"string","name":"name","type":"string"},{"internalType":"uint256","name":"bonus","type":"uint256"},{"internalType":"uint256","name":"cost","type":"uint256"},{"internalType":"bool","name":"active","type":"bool"}],"stateMutability":"view","type":"function"},{"inputs":[{"components":[{"internalType":"bytes32","name":"activityHash","type":"bytes32"},{"internalType":"uint8","name":"activityType","type":"uint8"},{"internalType":"uint256","name":"energyExpended","type":"uint256"},{"internalType":"uint256","name":"timestamp","type":"uint256"},{"internalType":"bytes32","name":"profileId","type":"bytes32"},{"internalType":"bytes","name":"proof","type":"bytes"},{"internalType":"bytes","name":"metadata","type":"bytes"}],"internalType":"struct VerificationEngine.HealthProof","name":"healthProof","type":"tuple"}],"name":"verifyAndMint","outputs":[{"internalType":"uint256","name":"reward","type":"uint256"}],"stateMutability":"nonpayable","type":"function"}],"evm":{"bytecode":{"linkReferences":{},"object":"60806040523480156200001157600080fd5b50604051620031c4380380620031c483398101604081905262000034916200070f565b60018055600280546001600160a81b0319166101006001600160a01b038581169190910291909117909155600380546001600160a01b03191691831691909117905562000083600033620003bd565b620000af7f68e79a7bf1e0bc45d0a330c573bc367f9cf464fd326078812f301165fbda4ef133620003bd565b60046020527f17ef568e3e12ab5b9c7254a8d58478811de00f9e6eb34345acd53bf8fd09d3ec805460ff199081169091557f2e174c10e159ea99b867ce3205125c24a42d128804e4070ed6fcc8cc98166aa08054821690557fabd6e7cb50984ff9c2f3e18a2660c3353dadf4e3291deeb275dae2cd1e44fe058054821660019081179091557f1a1e6821cde7d0159c0d293177871e09677b4e42307c7db3ba94f8648a5a050f8054831690911790557f91da3fd0782e51c6b3986e9e672fd566868e71f3dbc2d6c2cd6fbb3e361af2a78054821660029081179091557f04cde762ef08b6b6c5ded8e8c4c0b3f4e5c9ad7342c88fcc93681b4588b73f0580548316909117905560066000527fc59312466997bb42aaaf719ece141047820e6b34531e1670dc1852a453648f0f80549091166003179055620001fa670de0b6b3a764000060326200075d565b6000805260056020527f05b8ccbb9d4d8fb16ea74ce3c29a41f1b461fbdaff4714a0d9a8eb05499746bc556200023a670de0b6b3a764000060506200075d565b600160005260056020527f1471eb6eb2c5e789fc3de43f8ce62938c7d1836ec861730447e2ada8fd81017b556200027b670de0b6b3a764000060646200075d565b600260005260056020527f89832631fb3c3307a103ba2c84ab569c64d6182a18893dcd163f0f1c2090733a55620002bc670de0b6b3a7640000601e6200075d565b600360005260056020527fa9bc9a3a348c357ba16b37005d7e6b3236198c0e939f4af8c5f19b8deeb8ebc055620002fd670de0b6b3a764000060286200075d565b600460005260056020527f3eec716f11ba9e820c81ca75eb978ffb45831ef8b7a53e5e422c26008e1ca6d5556200033e670de0b6b3a764000060146200075d565b600560008190526020527f458b30c2d72bfd2c6317304a4594ecbafe5f729d3111b65fdc3a33bd48e5432d556200037f670de0b6b3a764000060236200075d565b600660005260056020527f069400f22b28c6c362558d92f66163cec5671cba50b61abd2eecfcd0eaeac51855620003b562000446565b5050620007ca565b620003c9828262000650565b62000442576000828152602081815260408083206001600160a01b03851684529091529020805460ff19166001179055620004013390565b6001600160a01b0316816001600160a01b0316837f2f8788117e7eff1d82e926ec794901d17c78024a50270940304540a733656f0d60405160405180910390a45b5050565b60408051808201909152600a81526911585c9b1e48109a5c9960b21b60208201526200047490600c6200067b565b604080518082019091526009815268139a59da1d0813dddb60ba1b6020820152620004a190600c6200067b565b60408051808201909152600d81526c29ba3932b0b59026b0b9ba32b960991b6020820152620004d290600a6200067b565b60408051808201909152600d81526c47726f7570204669746e65737360981b6020820152620005039060086200067b565b6200053d6040518060400160405280600f81526020016e456e647572616e636520456c69746560881b815250600f6200067b60201b60201c565b60408051808201909152600f81526e149958dbdd995c9e48115e1c195c9d608a1b60208201526200057090600a6200067b565b6040805180820190915260118152704d656e74616c20526573696c69656e636560781b6020820152620005a590600c6200067b565b60408051808201909152601381527f4e7574726974696f6e204f7074696d697a6572000000000000000000000000006020820152620005e69060086200067b565b60408051808201909152601081526f536f6369616c20427574746572666c7960801b60208201526200061a90600a6200067b565b60408051808201909152601081526f436f6e73697374656e6379204b696e6760801b60208201526200064e90600f6200067b565b565b6000828152602081815260408083206001600160a01b038516845290915290205460ff165b92915050565b600c805460ff16906000620006908362000777565b91906101000a81548160ff021916908360ff16021790555050600c60009054906101000a900460ff16600b83604051620006cb919062000799565b908152604051908190036020019020805460ff9290921660ff199092169190911790555050565b80516001600160a01b03811681146200070a57600080fd5b919050565b600080604083850312156200072357600080fd5b6200072e83620006f2565b91506200073e60208401620006f2565b90509250929050565b634e487b7160e01b600052601160045260246000fd5b808202811582820484141762000675576200067562000747565b600060ff821660ff810362000790576200079062000747565b60010192915050565b6000825160005b81811015620007bc5760208186018101518583015201620007a0565b506000920191825250919050565b6129ea80620007da6000396000f3fe608060405234801561001057600080fd5b50600436106101fb5760003560e01c806391d148541161011a578063aff97a31116100ad578063c385d2f31161007c578063c385d2f314610506578063cb8cd71914610519578063d547741f14610539578063e7705db61461054c578063f68f224a1461057357600080fd5b8063aff97a3114610475578063b1e3c1a914610498578063ba7c8df6146104c6578063bb453b32146104e657600080fd5b8063a99d6405116100e9578063a99d64051461041c578063a9adcaa11461043c578063aaa0e5181461044f578063ad3915c81461046257600080fd5b806391d14854146103be578063931433fd146103d1578063a217fddf146103f1578063a6c4cce9146103f957600080fd5b806336568abe11610192578063674e914711610161578063674e91471461036e5780637ecd66f81461038e57806383fd49a7146103a35780638456cb59146103b657600080fd5b806336568abe1461033b5780633f4ba83a1461034e5780635c975abb146103565780636275f8a31461036157600080fd5b806316dc8062116101ce57806316dc8062146102a0578063248a9ca3146102c35780632f2ff15d146102e657806333d66609146102fb57600080fd5b806301ffc9a71461020057806307e2cea514610228578063141c57281461025d578063151e6aa51461028d575b600080fd5b61021361020e3660046121cb565b610586565b60405190151581526020015b60405180910390f35b61024f7f68e79a7bf1e0bc45d0a330c573bc367f9cf464fd326078812f301165fbda4ef181565b60405190815260200161021f565b6002546102759061010090046001600160a01b031681565b6040516001600160a01b03909116815260200161021f565b600354610275906001600160a01b031681565b6102b36102ae366004612206565b6105bd565b60405161021f9493929190612282565b61024f6102d13660046122b3565b60009081526020819052604090206001015490565b6102f96102f43660046122e3565b61067d565b005b61032961030936600461231c565b8051602081830181018051600b8252928201919093012091525460ff1681565b60405160ff909116815260200161021f565b6102f96103493660046122e3565b6106a7565b6102f961072a565b60025460ff16610213565b600c546103299060ff1681565b61024f61037c3660046123cd565b600f6020526000908152604090205481565b61024f60008051602061299583398151915281565b61024f6103b13660046123e8565b610740565b6102f96109cc565b6102136103cc3660046122e3565b6109df565b61024f6103df3660046123cd565b600e6020526000908152604090205481565b61024f600081565b6102136104073660046123cd565b600d6020526000908152604090205460ff1681565b61024f61042a366004612432565b60056020526000908152604090205481565b6102f961044a366004612496565b610a08565b6102f961045d3660046124e9565b610c83565b6102f96104703660046122b3565b610f55565b610329610483366004612432565b60046020526000908152604090205460ff1681565b6102136104a6366004612206565b600860209081526000928352604080842090915290825290205460ff1681565b61024f6104d43660046122b3565b60066020526000908152604090205481565b61024f6104f43660046122b3565b60096020526000908152604090205481565b6102f961051436600461251c565b6110eb565b61024f6105273660046122b3565b60076020526000908152604090205481565b6102f96105473660046122e3565b611153565b61024f7f0ce23c3e399818cfee81a7ab0880f714e53d7672b08df0fa62f2843416e1ea0981565b61024f610581366004612546565b611178565b60006001600160e01b03198216637965db0b60e01b14806105b757506301ffc9a760e01b6001600160e01b03198316145b92915050565b600a6020908152600092835260408084209091529082529020805481906105e3906125bb565b80601f016020809104026020016040519081016040528092919081815260200182805461060f906125bb565b801561065c5780601f106106315761010080835404028352916020019161065c565b820191906000526020600020905b81548152906001019060200180831161063f57829003601f168201915b50505050600183015460028401546003909401549293909290915060ff1684565b60008281526020819052604090206001015461069881611342565b6106a2838361134c565b505050565b6001600160a01b038116331461071c5760405162461bcd60e51b815260206004820152602f60248201527f416363657373436f6e74726f6c3a2063616e206f6e6c792072656e6f756e636560448201526e103937b632b9903337b91039b2b63360891b60648201526084015b60405180910390fd5b61072682826113d0565b5050565b600061073581611342565b61073d611435565b50565b600061074a611487565b6107526114e0565b60008051602061299583398151915261076a81611342565b61077383611528565b6107af5760405162461bcd60e51b815260206004820152600d60248201526c24b73b30b634b210383937b7b360991b6044820152606401610713565b60808301356000908152600660205260409020546107cf90610e1061260b565b421161081d5760405162461bcd60e51b815260206004820152601c60248201527f546f6f20736f6f6e2073696e6365206c617374206163746976697479000000006044820152606401610713565b600061082884611576565b905060006108358561162b565b905060006108428261182a565b905061084d8161190f565b9050670de0b6b3a7640000610862828561261e565b61086c919061264b565b945061087786611987565b600060048161088c60408a0160208b0161265f565b60ff1660068111156108a0576108a061267a565b60068111156108b1576108b161267a565b60068111156108c2576108c261267a565b815260208101919091526040016000205460025460ff909116915061010090046001600160a01b0316634ed387b260808901356040516001600160e01b031960e084901b1681526001600160a01b03909116600482015260ff8416602482015260448101899052606401600060405180830381600087803b15801561094657600080fd5b505af115801561095a573d6000803e3d6000fd5b5061096f92505050604088016020890161265f565b60ff1687608001357fe1aef7c7bd671e633c5732ce5a3b2ace78de3182b6df7babab76e3a5279056d288856040516109b1929190918252602082015260400190565b60405180910390a350505050506109c760018055565b919050565b60006109d781611342565b61073d611a72565b6000918252602082815260408084206001600160a01b0393909316845291905290205460ff1690565b7f68e79a7bf1e0bc45d0a330c573bc367f9cf464fd326078812f301165fbda4ef1610a3281611342565b6001600160a01b0384166000908152600d602052604090205460ff16610a8f5760405162461bcd60e51b8152602060048201526012602482015271105c1c081b9bdd081c9959da5cdd195c995960721b6044820152606401610713565b6001600160a01b0384166000908152600f60205260408120805491610ab383612690565b91905055506000610ac385611aaf565b6001600160a01b0386166000908152600e60205260409020549091508110610ba3576003546001600160a01b038681166000818152600e60205260409081902054905163131a38b560e31b8152600481019290925260248201529116906398d1c5a890604401600060405180830381600087803b158015610b4357600080fd5b505af1158015610b57573d6000803e3d6000fd5b5050506001600160a01b0386166000908152600d60209081526040808320805460ff19169055600e90915281205550610b9e600080516020612995833981519152866113d0565b610c37565b60035460405163131a38b560e31b81526001600160a01b03878116600483015260248201849052909116906398d1c5a890604401600060405180830381600087803b158015610bf157600080fd5b505af1158015610c05573d6000803e3d6000fd5b505050506001600160a01b0385166000908152600e602052604081208054839290610c319084906126a9565b90915550505b846001600160a01b03167fb090b5aad42b59cf0a8521faeaf4c01cace742461abe4f9bd4726294e452244a828686604051610c74939291906126e5565b60405180910390a25050505050565b610c8b611487565b610c936114e0565b336001600160a01b03841614610cdf5760405162461bcd60e51b81526020600482015260116024820152702737ba10383937b334b6329037bbb732b960791b6044820152606401610713565b6000600b8383604051610cf3929190612708565b9081526040519081900360200190205460ff16905080610d455760405162461bcd60e51b815260206004820152600d60248201526c125b9d985b1a59081d1c985a5d609a1b6044820152606401610713565b6000848152600a6020908152604080832060ff80861685529252909120600381015490911615610dae5760405162461bcd60e51b8152602060048201526014602482015273547261697420616c72656164792061637469766560601b6044820152606401610713565b600085815260096020526040902054600a11610e015760405162461bcd60e51b815260206004820152601260248201527113585e081d1c985a5d1cc81c995858da195960721b6044820152606401610713565b6000610e17670de0b6b3a76400006103e861261e565b60008781526009602052604081205491925090610e3590600a6127fc565b600088815260096020526040902054610e4f9060196127fc565b610e59908461261e565b610e63919061264b565b6002805460405163a29b3f5b60e01b81523360048201526024810192909252604482018390529192506101009091046001600160a01b03169063a29b3f5b90606401600060405180830381600087803b158015610ebf57600080fd5b505af1158015610ed3573d6000803e3d6000fd5b50505060038401805460ff1916600117905550600283018190556000878152600960205260408120805491610f0783612690565b9190505550867fc5e2258fafc54f5c6bc61750ed415420ea06489a8424db56e223ae2e7d6ccb10878784604051610f4093929190612808565b60405180910390a2505050506106a260018055565b610f5d611487565b610f71670de0b6b3a764000061271061261e565b811015610fb55760405162461bcd60e51b8152602060048201526012602482015271496e73756666696369656e74207374616b6560701b6044820152606401610713565b336000908152600d602052604090205460ff161561100a5760405162461bcd60e51b8152602060048201526012602482015271105b1c9958591e481c9959da5cdd195c995960721b6044820152606401610713565b600354604051622b006760e81b8152336004820152602481018390526001600160a01b0390911690632b00670090604401600060405180830381600087803b15801561105557600080fd5b505af1158015611069573d6000803e3d6000fd5b5050336000818152600d60209081526040808320805460ff19166001179055600e90915290208490556110ad9250600080516020612995833981519152915061134c565b60405181815233907f2d2c3cda96327d29a77f74fcf6444053faf409786e4dcae6caba837e5375ebbf9060200160405180910390a261073d60018055565b7f68e79a7bf1e0bc45d0a330c573bc367f9cf464fd326078812f301165fbda4ef161111581611342565b816005600085600681111561112c5761112c61267a565b600681111561113d5761113d61267a565b8152602081019190915260400160002055505050565b60008281526020819052604090206001015461116e81611342565b6106a283836113d0565b6000611182611487565b61118a6114e0565b6000805160206129958339815191526111a281611342565b60648311156111e55760405162461bcd60e51b815260206004820152600f60248201526e426174636820746f6f206c6172676560881b6044820152606401610713565b826112205760405162461bcd60e51b815260206004820152600b60248201526a08adae0e8f240c4c2e8c6d60ab1b6044820152606401610713565b60005b838110156112fe576112578585838181106112405761124061282c565b90506020028101906112529190612842565b611528565b15806112aa5750600660008686848181106112745761127461282c565b90506020028101906112869190612842565b60800135815260200190815260200160002054610e106112a6919061260b565b4211155b6112ec5760006112dc8686848181106112c5576112c561282c565b90506020028101906112d79190612842565b611b63565b90506112e8818561260b565b9350505b806112f681612690565b915050611223565b5060408051848152602081018490527f7dc133219b0c7fc08e64c767c1387c34ba1ed1da56fbbd864d1fb4a458d2ab2c910160405180910390a1506105b760018055565b61073d8133611d09565b61135682826109df565b610726576000828152602081815260408083206001600160a01b03851684529091529020805460ff1916600117905561138c3390565b6001600160a01b0316816001600160a01b0316837f2f8788117e7eff1d82e926ec794901d17c78024a50270940304540a733656f0d60405160405180910390a45050565b6113da82826109df565b15610726576000828152602081815260408083206001600160a01b0385168085529252808320805460ff1916905551339285917ff6391f5c32d9c69d2a47ea670b442974b53935d1edc7fd64eb21e047a839171b9190a45050565b61143d611d62565b6002805460ff191690557f5db9ee0a495bf2e6ff9c91a7834c1ba4fdd244a5e8aa4e537bd38aeae4b073aa335b6040516001600160a01b03909116815260200160405180910390a1565b6002600154036114d95760405162461bcd60e51b815260206004820152601f60248201527f5265656e7472616e637947756172643a207265656e7472616e742063616c6c006044820152606401610713565b6002600155565b60025460ff16156115265760405162461bcd60e51b815260206004820152601060248201526f14185d5cd8589b194e881c185d5cd95960821b6044820152606401610713565b565b60008061153860a0840184612862565b90501180156115475750813515155b80156115565750428260600135105b80156105b7575061156a62015180426126a9565b82606001351192915050565b60008060058161158c604086016020870161265f565b60ff1660068111156115a0576115a061267a565b60068111156115b1576115b161267a565b60068111156115c2576115c261267a565b81526020019081526020016000205490506000836040013511156105b757600060646115fa670de0b6b3a7640000604087013561261e565b611604919061264b565b9050670de0b6b3a7640000611619828461261e565b611623919061264b565b949350505050565b6116646040518060c001604052806000815260200160008152602001600081526020016000815260200160008152602001600081525090565b61169d6040518060c001604052806000815260200160008152602001600081526020016000815260200160008152602001600081525090565b6080830135600090815260076020526040902054801561170157600a6116cc6116c783600161260b565b611dab565b6116de90670de0b6b3a764000061261e565b6116e8919061264b565b6116fa90670de0b6b3a764000061260b565b825261170d565b670de0b6b3a764000082525b6000610e106117236201518060608801356128a9565b61172d919061264b565b905061173881611e1b565b604084015261174a6080860135611e84565b6060840152600061175e60c0870187612862565b905011156117a157600a61177b670de0b6b3a7640000600561261e565b611785919061264b565b61179790670de0b6b3a764000061260b565b60208401526117b0565b670de0b6b3a764000060208401525b60006117bf8660800135611fc8565b9050600181111561180457600a6117de82670de0b6b3a764000061261e565b6117e8919061264b565b6117fa90670de0b6b3a764000061260b565b6080850152611813565b670de0b6b3a764000060808501525b5050670de0b6b3a764000060a08301525092915050565b8051600090670de0b6b3a7640000908190611845908261261e565b61184f919061264b565b9050670de0b6b3a764000083602001518261186a919061261e565b611874919061264b565b9050670de0b6b3a764000083604001518261188f919061261e565b611899919061264b565b9050670de0b6b3a76400008360600151826118b4919061261e565b6118be919061264b565b9050670de0b6b3a76400008360800151826118d9919061261e565b6118e3919061264b565b9050670de0b6b3a76400008360a00151826118fe919061261e565b611908919061264b565b9392505050565b6000611924670de0b6b3a7640000601461261e565b82111561193e576105b7670de0b6b3a7640000601461261e565b600a611953670de0b6b3a7640000600361261e565b61195d919061264b565b82101561198357600a611979670de0b6b3a7640000600361261e565b6105b7919061264b565b5090565b6080810135600061199b620151804261264b565b600083815260066020526040812054919250906119bc90620151809061264b565b90506119c981600161260b565b82036119f35760008381526007602052604081208054916119e983612690565b9190505550611a0d565b808214611a0d576000838152600760205260409020600190555b6001600860008581526020019081526020016000206000866020016020810190611a37919061265f565b60ff16815260208082019290925260409081016000908120805460ff1916941515949094179093559482526006905292909220429055505050565b611a7a6114e0565b6002805460ff191660011790557f62e78cea01bee320cd4e420270b5ea74000d11b0c9f74754ebdbfc544b05a25861146a3390565b6001600160a01b0381166000908152600f6020908152604080832054600e9092528220548290611ae190600a9061264b565b905060048210611b09575050506001600160a01b03166000908152600e602052604090205490565b81600303611b36576001600160a01b0384166000908152600e60205260409020546116239060029061264b565b81600203611908576001600160a01b0384166000908152600e60205260409020546116239060049061264b565b600080611b6f83611576565b90506000611b7c8461162b565b90506000611b91611b8c8361182a565b61190f565b90506000670de0b6b3a7640000611ba8838661261e565b611bb2919061264b565b9050611bbd86611987565b6000600481611bd260408a0160208b0161265f565b60ff166006811115611be657611be661267a565b6006811115611bf757611bf761267a565b6006811115611c0857611c0861267a565b815260208101919091526040016000205460025460ff909116915061010090046001600160a01b0316634ed387b260808901356040516001600160e01b031960e084901b1681526001600160a01b03909116600482015260ff8416602482015260448101859052606401600060405180830381600087803b158015611c8c57600080fd5b505af1158015611ca0573d6000803e3d6000fd5b50611cb592505050604088016020890161265f565b60ff1687608001357fe1aef7c7bd671e633c5732ce5a3b2ace78de3182b6df7babab76e3a5279056d28486604051611cf7929190918252602082015260400190565b60405180910390a35095945050505050565b611d1382826109df565b61072657611d208161201d565b611d2b83602061202f565b604051602001611d3c9291906128bd565b60408051601f198184030181529082905262461bcd60e51b825261071391600401612932565b60025460ff166115265760405162461bcd60e51b815260206004820152601460248201527314185d5cd8589b194e881b9bdd081c185d5cd95960621b6044820152606401610713565b6000620f42408210611dbf57506006919050565b620186a08210611dd157506005919050565b6127108210611de257506004919050565b6103e88210611df357506003919050565b60648210611e0357506002919050565b600a8210611e1357506001919050565b506000919050565b600060048210158015611e2f575060088211155b15611e4957600a611979670de0b6b3a7640000600d61261e565b60108210158015611e5b575060148211155b15611e7557600a611979670de0b6b3a7640000600761261e565b50670de0b6b3a7640000919050565b600081815260096020526040812054670de0b6b3a764000090808303611eab575092915050565b60015b600c5460ff90811690821611611f85576000858152600a6020908152604080832060ff80861685529252909120600301541615611f73576000858152600a6020818152604080842060ff861685529091528220600190810154929190611f149085612945565b611f299060ff16670de0b6b3a764000061261e565b611f33919061264b565b611f4590670de0b6b3a76400006126a9565b9050670de0b6b3a7640000611f5a828461261e565b611f64919061264b565b611f6e908661260b565b945050505b80611f7d8161295e565b915050611eae565b50600a611f9b670de0b6b3a7640000600f61261e565b611fa5919061264b565b821115611fc157600a611619670de0b6b3a7640000600f61261e565b5092915050565b600080805b60078160ff161015611fc157600084815260086020908152604080832060ff8086168552925290912054161561200b578161200781612690565b9250505b806120158161295e565b915050611fcd565b60606105b76001600160a01b03831660145b6060600061203e83600261261e565b61204990600261260b565b67ffffffffffffffff81111561206157612061612306565b6040519080825280601f01601f19166020018201604052801561208b576020820181803683370190505b509050600360fc1b816000815181106120a6576120a661282c565b60200101906001600160f81b031916908160001a905350600f60fb1b816001815181106120d5576120d561282c565b60200101906001600160f81b031916908160001a90535060006120f984600261261e565b61210490600161260b565b90505b600181111561217c576f181899199a1a9b1b9c1cb0b131b232b360811b85600f16601081106121385761213861282c565b1a60f81b82828151811061214e5761214e61282c565b60200101906001600160f81b031916908160001a90535060049490941c936121758161297d565b9050612107565b5083156119085760405162461bcd60e51b815260206004820181905260248201527f537472696e67733a20686578206c656e67746820696e73756666696369656e746044820152606401610713565b6000602082840312156121dd57600080fd5b81356001600160e01b03198116811461190857600080fd5b803560ff811681146109c757600080fd5b6000806040838503121561221957600080fd5b82359150612229602084016121f5565b90509250929050565b60005b8381101561224d578181015183820152602001612235565b50506000910152565b6000815180845261226e816020860160208601612232565b601f01601f19169290920160200192915050565b6080815260006122956080830187612256565b60208301959095525060408101929092521515606090910152919050565b6000602082840312156122c557600080fd5b5035919050565b80356001600160a01b03811681146109c757600080fd5b600080604083850312156122f657600080fd5b82359150612229602084016122cc565b634e487b7160e01b600052604160045260246000fd5b60006020828403121561232e57600080fd5b813567ffffffffffffffff8082111561234657600080fd5b818401915084601f83011261235a57600080fd5b81358181111561236c5761236c612306565b604051601f8201601f19908116603f0116810190838211818310171561239457612394612306565b816040528281528760208487010111156123ad57600080fd5b826020860160208301376000928101602001929092525095945050505050565b6000602082840312156123df57600080fd5b611908826122cc565b6000602082840312156123fa57600080fd5b813567ffffffffffffffff81111561241157600080fd5b820160e0818503121561190857600080fd5b8035600781106109c757600080fd5b60006020828403121561244457600080fd5b61190882612423565b60008083601f84011261245f57600080fd5b50813567ffffffffffffffff81111561247757600080fd5b60208301915083602082850101111561248f57600080fd5b9250929050565b6000806000604084860312156124ab57600080fd5b6124b4846122cc565b9250602084013567ffffffffffffffff8111156124d057600080fd5b6124dc8682870161244d565b9497909650939450505050565b6000806000604084860312156124fe57600080fd5b83359250602084013567ffffffffffffffff8111156124d057600080fd5b6000806040838503121561252f57600080fd5b61253883612423565b946020939093013593505050565b6000806020838503121561255957600080fd5b823567ffffffffffffffff8082111561257157600080fd5b818501915085601f83011261258557600080fd5b81358181111561259457600080fd5b8660208260051b85010111156125a957600080fd5b60209290920196919550909350505050565b600181811c908216806125cf57607f821691505b6020821081036125ef57634e487b7160e01b600052602260045260246000fd5b50919050565b634e487b7160e01b600052601160045260246000fd5b808201808211156105b7576105b76125f5565b80820281158282048414176105b7576105b76125f5565b634e487b7160e01b600052601260045260246000fd5b60008261265a5761265a612635565b500490565b60006020828403121561267157600080fd5b611908826121f5565b634e487b7160e01b600052602160045260246000fd5b6000600182016126a2576126a26125f5565b5060010190565b818103818111156105b7576105b76125f5565b81835281816020850137506000828201602090810191909152601f909101601f19169091010190565b8381526040602082015260006126ff6040830184866126bc565b95945050505050565b8183823760009101908152919050565b600181815b80851115612753578160001904821115612739576127396125f5565b8085161561274657918102915b93841c939080029061271d565b509250929050565b60008261276a575060016105b7565b81612777575060006105b7565b816001811461278d5760028114612797576127b3565b60019150506105b7565b60ff8411156127a8576127a86125f5565b50506001821b6105b7565b5060208310610133831016604e8410600b84101617156127d6575081810a6105b7565b6127e08383612718565b80600019048211156127f4576127f46125f5565b029392505050565b6000611908838361275b565b60408152600061281c6040830185876126bc565b9050826020830152949350505050565b634e487b7160e01b600052603260045260246000fd5b6000823560de1983360301811261285857600080fd5b9190910192915050565b6000808335601e1984360301811261287957600080fd5b83018035915067ffffffffffffffff82111561289457600080fd5b60200191503681900382131561248f57600080fd5b6000826128b8576128b8612635565b500690565b7f416363657373436f6e74726f6c3a206163636f756e74200000000000000000008152600083516128f5816017850160208801612232565b7001034b99036b4b9b9b4b733903937b6329607d1b6017918401918201528351612926816028840160208801612232565b01602801949350505050565b6020815260006119086020830184612256565b60ff82811682821603908111156105b7576105b76125f5565b600060ff821660ff8103612974576129746125f5565b60010192915050565b60008161298c5761298c6125f5565b50600019019056fe7b98b41c1b69918066115c47a3fabea25b5765269638096b0143b9ee263737bea264697066735822122012be0ee6c186a9ac3578e6535b56138c6ff41265fecc213f60bdc5f1c778d99a64736f6c63430008130033","opcodes":"PUSH1 0x80 PUSH1 0x40 MSTORE CALLVALUE DUP1 ISZERO PUSH3 0x11 JUMPI PUSH1 0x0 DUP1 REVERT JUMPDEST POP PUSH1 0x40 MLOAD PUSH3 0x31C4 CODESIZE SUB DUP1 PUSH3 0x31C4 DUP4 CODECOPY DUP2 ADD PUSH1 0x40 DUP2 SWAP1 MSTORE PUSH3 0x34 SWAP2 PUSH3 0x70F JUMP JUMPDEST PUSH1 0x1 DUP1 SSTORE PUSH1 0x2 DUP1 SLOAD PUSH1 0x1 PUSH1 0x1 PUSH1 0xA8 SHL SUB NOT AND PUSH2 0x100 PUSH1 0x1 PUSH1 0x1 PUSH1 0xA0 SHL SUB DUP6 DUP2 AND SWAP2 SWAP1 SWAP2 MUL SWAP2 SWAP1 SWAP2 OR SWAP1 SWAP2 SSTORE PUSH1 0x3 DUP1 SLOAD PUSH1 0x1 PUSH1 0x1 PUSH1 0xA0 SHL SUB NOT AND SWAP2 DUP4 AND SWAP2 SWAP1 SWAP2 OR SWAP1 SSTORE PUSH3 0x83 PUSH1 0x0 CALLER PUSH3 0x3BD JUMP JUMPDEST PUSH3 0xAF PUSH32 0x68E79A7BF1E0BC45D0A330C573BC367F9CF464FD326078812F301165FBDA4EF1 CALLER PUSH3 0x3BD JUMP JUMPDEST PUSH1 0x4 PUSH1 0x20 MSTORE PUSH32 0x17EF568E3E12AB5B9C7254A8D58478811DE00F9E6EB34345ACD53BF8FD09D3EC DUP1 SLOAD PUSH1 0xFF NOT SWAP1 DUP2 AND SWAP1 SWAP2 SSTORE PUSH32 0x2E174C10E159EA99B867CE3205125C24A42D128804E4070ED6FCC8CC98166AA0 DUP1 SLOAD DUP3 AND SWAP1 SSTORE PUSH32 0xABD6E7CB50984FF9C2F3E18A2660C3353DADF4E3291DEEB275DAE2CD1E44FE05 DUP1 SLOAD DUP3 AND PUSH1 0x1 SWAP1 DUP2 OR SWAP1 SWAP2 SSTORE PUSH32 0x1A1E6821CDE7D0159C0D293177871E09677B4E42307C7DB3BA94F8648A5A050F DUP1 SLOAD DUP4 AND SWAP1 SWAP2 OR SWAP1 SSTORE PUSH32 0x91DA3FD0782E51C6B3986E9E672FD566868E71F3DBC2D6C2CD6FBB3E361AF2A7 DUP1 SLOAD DUP3 AND PUSH1 0x2 SWAP1 DUP2 OR SWAP1 SWAP2 SSTORE PUSH32 0x4CDE762EF08B6B6C5DED8E8C4C0B3F4E5C9AD7342C88FCC93681B4588B73F05 DUP1 SLOAD DUP4 AND SWAP1 SWAP2 OR SWAP1 SSTORE PUSH1 0x6 PUSH1 0x0 MSTORE PUSH32 0xC59312466997BB42AAAF719ECE141047820E6B34531E1670DC1852A453648F0F DUP1 SLOAD SWAP1 SWAP2 AND PUSH1 0x3 OR SWAP1 SSTORE PUSH3 0x1FA PUSH8 0xDE0B6B3A7640000 PUSH1 0x32 PUSH3 0x75D JUMP JUMPDEST PUSH1 0x0 DUP1 MSTORE PUSH1 0x5 PUSH1 0x20 MSTORE PUSH32 0x5B8CCBB9D4D8FB16EA74CE3C29A41F1B461FBDAFF4714A0D9A8EB05499746BC SSTORE PUSH3 0x23A PUSH8 0xDE0B6B3A7640000 PUSH1 0x50 PUSH3 0x75D JUMP JUMPDEST PUSH1 0x1 PUSH1 0x0 MSTORE PUSH1 0x5 PUSH1 0x20 MSTORE PUSH32 0x1471EB6EB2C5E789FC3DE43F8CE62938C7D1836EC861730447E2ADA8FD81017B SSTORE PUSH3 0x27B PUSH8 0xDE0B6B3A7640000 PUSH1 0x64 PUSH3 0x75D JUMP JUMPDEST PUSH1 0x2 PUSH1 0x0 MSTORE PUSH1 0x5 PUSH1 0x20 MSTORE PUSH32 0x89832631FB3C3307A103BA2C84AB569C64D6182A18893DCD163F0F1C2090733A SSTORE PUSH3 0x2BC PUSH8 0xDE0B6B3A7640000 PUSH1 0x1E PUSH3 0x75D JUMP JUMPDEST PUSH1 0x3 PUSH1 0x0 MSTORE PUSH1 0x5 PUSH1 0x20 MSTORE PUSH32 0xA9BC9A3A348C357BA16B37005D7E6B3236198C0E939F4AF8C5F19B8DEEB8EBC0 SSTORE PUSH3 0x2FD PUSH8 0xDE0B6B3A7640000 PUSH1 0x28 PUSH3 0x75D JUMP JUMPDEST PUSH1 0x4 PUSH1 0x0 MSTORE PUSH1 0x5 PUSH1 0x20 MSTORE PUSH32 0x3EEC716F11BA9E820C81CA75EB978FFB45831EF8B7A53E5E422C26008E1CA6D5 SSTORE PUSH3 0x33E PUSH8 0xDE0B6B3A7640000 PUSH1 0x14 PUSH3 0x75D JUMP JUMPDEST PUSH1 0x5 PUSH1 0x0 DUP2 SWAP1 MSTORE PUSH1 0x20 MSTORE PUSH32 0x458B30C2D72BFD2C6317304A4594ECBAFE5F729D3111B65FDC3A33BD48E5432D SSTORE PUSH3 0x37F PUSH8 0xDE0B6B3A7640000 PUSH1 0x23 PUSH3 0x75D JUMP JUMPDEST PUSH1 0x6 PUSH1 0x0 MSTORE PUSH1 0x5 PUSH1 0x20 MSTORE PUSH32 0x69400F22B28C6C362558D92F66163CEC5671CBA50B61ABD2EECFCD0EAEAC518 SSTORE PUSH3 0x3B5 PUSH3 0x446 JUMP JUMPDEST POP POP PUSH3 0x7CA JUMP JUMPDEST PUSH3 0x3C9 DUP3 DUP3 PUSH3 0x650 JUMP JUMPDEST PUSH3 0x442 JUMPI PUSH1 0x0 DUP3 DUP2 MSTORE PUSH1 0x20 DUP2 DUP2 MSTORE PUSH1 0x40 DUP1 DUP4 KECCAK256 PUSH1 0x1 PUSH1 0x1 PUSH1 0xA0 SHL SUB DUP6 AND DUP5 MSTORE SWAP1 SWAP2 MSTORE SWAP1 KECCAK256 DUP1 SLOAD PUSH1 0xFF NOT AND PUSH1 0x1 OR SWAP1 SSTORE PUSH3 0x401 CALLER SWAP1 JUMP JUMPDEST PUSH1 0x1 PUSH1 0x1 PUSH1 0xA0 SHL SUB AND DUP2 PUSH1 0x1 PUSH1 0x1 PUSH1 0xA0 SHL SUB AND DUP4 PUSH32 0x2F8788117E7EFF1D82E926EC794901D17C78024A50270940304540A733656F0D PUSH1 0x40 MLOAD PUSH1 0x40 MLOAD DUP1 SWAP2 SUB SWAP1 LOG4 JUMPDEST POP POP JUMP JUMPDEST PUSH1 0x40 DUP1 MLOAD DUP1 DUP3 ADD SWAP1 SWAP2 MSTORE PUSH1 0xA DUP2 MSTORE PUSH10 0x11585C9B1E48109A5C99 PUSH1 0xB2 SHL PUSH1 0x20 DUP3 ADD MSTORE PUSH3 0x474 SWAP1 PUSH1 0xC PUSH3 0x67B JUMP JUMPDEST PUSH1 0x40 DUP1 MLOAD DUP1 DUP3 ADD SWAP1 SWAP2 MSTORE PUSH1 0x9 DUP2 MSTORE PUSH9 0x139A59DA1D0813DDDB PUSH1 0xBA SHL PUSH1 0x20 DUP3 ADD MSTORE PUSH3 0x4A1 SWAP1 PUSH1 0xC PUSH3 0x67B JUMP JUMPDEST PUSH1 0x40 DUP1 MLOAD DUP1 DUP3 ADD SWAP1 SWAP2 MSTORE PUSH1 0xD DUP2 MSTORE PUSH13 0x29BA3932B0B59026B0B9BA32B9 PUSH1 0x99 SHL PUSH1 0x20 DUP3 ADD MSTORE PUSH3 0x4D2 SWAP1 PUSH1 0xA PUSH3 0x67B JUMP JUMPDEST PUSH1 0x40 DUP1 MLOAD DUP1 DUP3 ADD SWAP1 SWAP2 MSTORE PUSH1 0xD DUP2 MSTORE PUSH13 0x47726F7570204669746E657373 PUSH1 0x98 SHL PUSH1 0x20 DUP3 ADD MSTORE PUSH3 0x503 SWAP1 PUSH1 0x8 PUSH3 0x67B JUMP JUMPDEST PUSH3 0x53D PUSH1 0x40 MLOAD DUP1 PUSH1 0x40 ADD PUSH1 0x40 MSTORE DUP1 PUSH1 0xF DUP2 MSTORE PUSH1 0x20 ADD PUSH15 0x456E647572616E636520456C697465 PUSH1 0x88 SHL DUP2 MSTORE POP PUSH1 0xF PUSH3 0x67B PUSH1 0x20 SHL PUSH1 0x20 SHR JUMP JUMPDEST PUSH1 0x40 DUP1 MLOAD DUP1 DUP3 ADD SWAP1 SWAP2 MSTORE PUSH1 0xF DUP2 MSTORE PUSH15 0x149958DBDD995C9E48115E1C195C9D PUSH1 0x8A SHL PUSH1 0x20 DUP3 ADD MSTORE PUSH3 0x570 SWAP1 PUSH1 0xA PUSH3 0x67B JUMP JUMPDEST PUSH1 0x40 DUP1 MLOAD DUP1 DUP3 ADD SWAP1 SWAP2 MSTORE PUSH1 0x11 DUP2 MSTORE PUSH17 0x4D656E74616C20526573696C69656E6365 PUSH1 0x78 SHL PUSH1 0x20 DUP3 ADD MSTORE PUSH3 0x5A5 SWAP1 PUSH1 0xC PUSH3 0x67B JUMP JUMPDEST PUSH1 0x40 DUP1 MLOAD DUP1 DUP3 ADD SWAP1 SWAP2 MSTORE PUSH1 0x13 DUP2 MSTORE PUSH32 0x4E7574726974696F6E204F7074696D697A657200000000000000000000000000 PUSH1 0x20 DUP3 ADD MSTORE PUSH3 0x5E6 SWAP1 PUSH1 0x8 PUSH3 0x67B JUMP JUMPDEST PUSH1 0x40 DUP1 MLOAD DUP1 DUP3 ADD SWAP1 SWAP2 MSTORE PUSH1 0x10 DUP2 MSTORE PUSH16 0x536F6369616C20427574746572666C79 PUSH1 0x80 SHL PUSH1 0x20 DUP3 ADD MSTORE PUSH3 0x61A SWAP1 PUSH1 0xA PUSH3 0x67B JUMP JUMPDEST PUSH1 0x40 DUP1 MLOAD DUP1 DUP3 ADD SWAP1 SWAP2 MSTORE PUSH1 0x10 DUP2 MSTORE PUSH16 0x436F6E73697374656E6379204B696E67 PUSH1 0x80 SHL PUSH1 0x20 DUP3 ADD MSTORE PUSH3 0x64E SWAP1 PUSH1 0xF PUSH3 0x67B JUMP JUMPDEST JUMP JUMPDEST PUSH1 0x0 DUP3 DUP2 MSTORE PUSH1 0x20 DUP2 DUP2 MSTORE PUSH1 0x40 DUP1 DUP4 KECCAK256 PUSH1 0x1 PUSH1 0x1 PUSH1 0xA0 SHL SUB DUP6 AND DUP5 MSTORE SWAP1 SWAP2 MSTORE SWAP1 KECCAK256 SLOAD PUSH1 0xFF AND JUMPDEST SWAP3 SWAP2 POP POP JUMP JUMPDEST PUSH1 0xC DUP1 SLOAD PUSH1 0xFF AND SWAP1 PUSH1 0x0 PUSH3 0x690 DUP4 PUSH3 0x777 JUMP JUMPDEST SWAP2 SWAP1 PUSH2 0x100 EXP DUP2 SLOAD DUP2 PUSH1 0xFF MUL NOT AND SWAP1 DUP4 PUSH1 0xFF AND MUL OR SWAP1 SSTORE POP POP PUSH1 0xC PUSH1 0x0 SWAP1 SLOAD SWAP1 PUSH2 0x100 EXP SWAP1 DIV PUSH1 0xFF AND PUSH1 0xB DUP4 PUSH1 0x40 MLOAD PUSH3 0x6CB SWAP2 SWAP1 PUSH3 0x799 JUMP JUMPDEST SWAP1 DUP2 MSTORE PUSH1 0x40 MLOAD SWAP1 DUP2 SWAP1 SUB PUSH1 0x20 ADD SWAP1 KECCAK256 DUP1 SLOAD PUSH1 0xFF SWAP3 SWAP1 SWAP3 AND PUSH1 0xFF NOT SWAP1 SWAP3 AND SWAP2 SWAP1 SWAP2 OR SWAP1 SSTORE POP POP JUMP JUMPDEST DUP1 MLOAD PUSH1 0x1 PUSH1 0x1 PUSH1 0xA0 SHL SUB DUP2 AND DUP2 EQ PUSH3 0x70A JUMPI PUSH1 0x0 DUP1 REVERT JUMPDEST SWAP2 SWAP1 POP JUMP JUMPDEST PUSH1 0x0 DUP1 PUSH1 0x40 DUP4 DUP6 SUB SLT ISZERO PUSH3 0x723 JUMPI PUSH1 0x0 DUP1 REVERT JUMPDEST PUSH3 0x72E DUP4 PUSH3 0x6F2 JUMP JUMPDEST SWAP2 POP PUSH3 0x73E PUSH1 0x20 DUP5 ADD PUSH3 0x6F2 JUMP JUMPDEST SWAP1 POP SWAP3 POP SWAP3 SWAP1 POP JUMP JUMPDEST PUSH4 0x4E487B71 PUSH1 0xE0 SHL PUSH1 0x0 MSTORE PUSH1 0x11 PUSH1 0x4 MSTORE PUSH1 0x24 PUSH1 0x0 REVERT JUMPDEST DUP1 DUP3 MUL DUP2 ISZERO DUP3 DUP3 DIV DUP5 EQ OR PUSH3 0x675 JUMPI PUSH3 0x675 PUSH3 0x747 JUMP JUMPDEST PUSH1 0x0 PUSH1 0xFF DUP3 AND PUSH1 0xFF DUP2 SUB PUSH3 0x790 JUMPI PUSH3 0x790 PUSH3 0x747 JUMP JUMPDEST PUSH1 0x1 ADD SWAP3 SWAP2 POP POP JUMP JUMPDEST PUSH1 0x0 DUP3 MLOAD PUSH1 0x0 JUMPDEST DUP2 DUP2 LT ISZERO PUSH3 0x7BC JUMPI PUSH1 0x20 DUP2 DUP7 ADD DUP2 ADD MLOAD DUP6 DUP4 ADD MSTORE ADD PUSH3 0x7A0 JUMP JUMPDEST POP PUSH1 0x0 SWAP3 ADD SWAP2 DUP3 MSTORE POP SWAP2 SWAP1 POP JUMP JUMPDEST PUSH2 0x29EA DUP1 PUSH3 0x7DA PUSH1 0x0 CODECOPY PUSH1 0x0 RETURN INVALID PUSH1 0x80 PUSH1 0x40 MSTORE CALLVALUE DUP1 ISZERO PUSH2 0x10 JUMPI PUSH1 0x0 DUP1 REVERT JUMPDEST POP PUSH1 0x4 CALLDATASIZE LT PUSH2 0x1FB JUMPI PUSH1 0x0 CALLDATALOAD PUSH1 0xE0 SHR DUP1 PUSH4 0x91D14854 GT PUSH2 0x11A JUMPI DUP1 PUSH4 0xAFF97A31 GT PUSH2 0xAD JUMPI DUP1 PUSH4 0xC385D2F3 GT PUSH2 0x7C JUMPI DUP1 PUSH4 0xC385D2F3 EQ PUSH2 0x506 JUMPI DUP1 PUSH4 0xCB8CD719 EQ PUSH2 0x519 JUMPI DUP1 PUSH4 0xD547741F EQ PUSH2 0x539 JUMPI DUP1 PUSH4 0xE7705DB6 EQ PUSH2 0x54C JUMPI DUP1 PUSH4 0xF68F224A EQ PUSH2 0x573 JUMPI PUSH1 0x0 DUP1 REVERT JUMPDEST DUP1 PUSH4 0xAFF97A31 EQ PUSH2 0x475 JUMPI DUP1 PUSH4 0xB1E3C1A9 EQ PUSH2 0x498 JUMPI DUP1 PUSH4 0xBA7C8DF6 EQ PUSH2 0x4C6 JUMPI DUP1 PUSH4 0xBB453B32 EQ PUSH2 0x4E6 JUMPI PUSH1 0x0 DUP1 REVERT JUMPDEST DUP1 PUSH4 0xA99D6405 GT PUSH2 0xE9 JUMPI DUP1 PUSH4 0xA99D6405 EQ PUSH2 0x41C JUMPI DUP1 PUSH4 0xA9ADCAA1 EQ PUSH2 0x43C JUMPI DUP1 PUSH4 0xAAA0E518 EQ PUSH2 0x44F JUMPI DUP1 PUSH4 0xAD3915C8 EQ PUSH2 0x462 JUMPI PUSH1 0x0 DUP1 REVERT JUMPDEST DUP1 PUSH4 0x91D14854 EQ PUSH2 0x3BE JUMPI DUP1 PUSH4 0x931433FD EQ PUSH2 0x3D1 JUMPI DUP1 PUSH4 0xA217FDDF EQ PUSH2 0x3F1 JUMPI DUP1 PUSH4 0xA6C4CCE9 EQ PUSH2 0x3F9 JUMPI PUSH1 0x0 DUP1 REVERT JUMPDEST DUP1 PUSH4 0x36568ABE GT PUSH2 0x192 JUMPI DUP1 PUSH4 0x674E9147 GT PUSH2 0x161 JUMPI DUP1 PUSH4 0x674E9147 EQ PUSH2 0x36E JUMPI DUP1 PUSH4 0x7ECD66F8 EQ PUSH2 0x38E JUMPI DUP1 PUSH4 0x83FD49A7 EQ PUSH2 0x3A3 JUMPI DUP1 PUSH4 0x8456CB59 EQ PUSH2 0x3B6 JUMPI PUSH1 0x0 DUP1 REVERT JUMPDEST DUP1 PUSH4 0x36568ABE EQ PUSH2 0x33B JUMPI DUP1 PUSH4 0x3F4BA83A EQ PUSH2 0x34E JUMPI DUP1 PUSH4 0x5C975ABB EQ PUSH2 0x356 JUMPI DUP1 PUSH4 0x6275F8A3 EQ PUSH2 0x361 JUMPI PUSH1 0x0 DUP1 REVERT JUMPDEST DUP1 PUSH4 0x16DC8062 GT PUSH2 0x1CE JUMPI DUP1 PUSH4 0x16DC8062 EQ PUSH2 0x2A0 JUMPI DUP1 PUSH4 0x248A9CA3 EQ PUSH2 0x2C3 JUMPI DUP1 PUSH4 0x2F2FF15D EQ PUSH2 0x2E6 JUMPI DUP1 PUSH4 0x33D66609 EQ PUSH2 0x2FB JUMPI PUSH1 0x0 DUP1 REVERT JUMPDEST DUP1 PUSH4 0x1FFC9A7 EQ PUSH2 0x200 JUMPI DUP1 PUSH4 0x7E2CEA5 EQ PUSH2 0x228 JUMPI DUP1 PUSH4 0x141C5728 EQ PUSH2 0x25D JUMPI DUP1 PUSH4 0x151E6AA5 EQ PUSH2 0x28D JUMPI JUMPDEST PUSH1 0x0 DUP1 REVERT JUMPDEST PUSH2 0x213 PUSH2 0x20E CALLDATASIZE PUSH1 0x4 PUSH2 0x21CB JUMP JUMPDEST PUSH2 0x586 JUMP JUMPDEST PUSH1 0x40 MLOAD SWAP1 ISZERO ISZERO DUP2 MSTORE PUSH1 0x20 ADD JUMPDEST PUSH1 0x40 MLOAD DUP1 SWAP2 SUB SWAP1 RETURN JUMPDEST PUSH2 0x24F PUSH32 0x68E79A7BF1E0BC45D0A330C573BC367F9CF464FD326078812F301165FBDA4EF1 DUP2 JUMP JUMPDEST PUSH1 0x40 MLOAD SWAP1 DUP2 MSTORE PUSH1 0x20 ADD PUSH2 0x21F JUMP JUMPDEST PUSH1 0x2 SLOAD PUSH2 0x275 SWAP1 PUSH2 0x100 SWAP1 DIV PUSH1 0x1 PUSH1 0x1 PUSH1 0xA0 SHL SUB AND DUP2 JUMP JUMPDEST PUSH1 0x40 MLOAD PUSH1 0x1 PUSH1 0x1 PUSH1 0xA0 SHL SUB SWAP1 SWAP2 AND DUP2 MSTORE PUSH1 0x20 ADD PUSH2 0x21F JUMP JUMPDEST PUSH1 0x3 SLOAD PUSH2 0x275 SWAP1 PUSH1 0x1 PUSH1 0x1 PUSH1 0xA0 SHL SUB AND DUP2 JUMP JUMPDEST PUSH2 0x2B3 PUSH2 0x2AE CALLDATASIZE PUSH1 0x4 PUSH2 0x2206 JUMP JUMPDEST PUSH2 0x5BD JUMP JUMPDEST PUSH1 0x40 MLOAD PUSH2 0x21F SWAP5 SWAP4 SWAP3 SWAP2 SWAP1 PUSH2 0x2282 JUMP JUMPDEST PUSH2 0x24F PUSH2 0x2D1 CALLDATASIZE PUSH1 0x4 PUSH2 0x22B3 JUMP JUMPDEST PUSH1 0x0 SWAP1 DUP2 MSTORE PUSH1 0x20 DUP2 SWAP1 MSTORE PUSH1 0x40 SWAP1 KECCAK256 PUSH1 0x1 ADD SLOAD SWAP1 JUMP JUMPDEST PUSH2 0x2F9 PUSH2 0x2F4 CALLDATASIZE PUSH1 0x4 PUSH2 0x22E3 JUMP JUMPDEST PUSH2 0x67D JUMP JUMPDEST STOP JUMPDEST PUSH2 0x329 PUSH2 0x309 CALLDATASIZE PUSH1 0x4 PUSH2 0x231C JUMP JUMPDEST DUP1 MLOAD PUSH1 0x20 DUP2 DUP4 ADD DUP2 ADD DUP1 MLOAD PUSH1 0xB DUP3 MSTORE SWAP3 DUP3 ADD SWAP2 SWAP1 SWAP4 ADD KECCAK256 SWAP2 MSTORE SLOAD PUSH1 0xFF AND DUP2 JUMP JUMPDEST PUSH1 0x40 MLOAD PUSH1 0xFF SWAP1 SWAP2 AND DUP2 MSTORE PUSH1 0x20 ADD PUSH2 0x21F JUMP JUMPDEST PUSH2 0x2F9 PUSH2 0x349 CALLDATASIZE PUSH1 0x4 PUSH2 0x22E3 JUMP JUMPDEST PUSH2 0x6A7 JUMP JUMPDEST PUSH2 0x2F9 PUSH2 0x72A JUMP JUMPDEST PUSH1 0x2 SLOAD PUSH1 0xFF AND PUSH2 0x213 JUMP JUMPDEST PUSH1 0xC SLOAD PUSH2 0x329 SWAP1 PUSH1 0xFF AND DUP2 JUMP JUMPDEST PUSH2 0x24F PUSH2 0x37C CALLDATASIZE PUSH1 0x4 PUSH2 0x23CD JUMP JUMPDEST PUSH1 0xF PUSH1 0x20 MSTORE PUSH1 0x0 SWAP1 DUP2 MSTORE PUSH1 0x40 SWAP1 KECCAK256 SLOAD DUP2 JUMP JUMPDEST PUSH2 0x24F PUSH1 0x0 DUP1 MLOAD PUSH1 0x20 PUSH2 0x2995 DUP4 CODECOPY DUP2 MLOAD SWAP2 MSTORE DUP2 JUMP JUMPDEST PUSH2 0x24F PUSH2 0x3B1 CALLDATASIZE PUSH1 0x4 PUSH2 0x23E8 JUMP JUMPDEST PUSH2 0x740 JUMP JUMPDEST PUSH2 0x2F9 PUSH2 0x9CC JUMP JUMPDEST PUSH2 0x213 PUSH2 0x3CC CALLDATASIZE PUSH1 0x4 PUSH2 0x22E3 JUMP JUMPDEST PUSH2 0x9DF JUMP JUMPDEST PUSH2 0x24F PUSH2 0x3DF CALLDATASIZE PUSH1 0x4 PUSH2 0x23CD JUMP JUMPDEST PUSH1 0xE PUSH1 0x20 MSTORE PUSH1 0x0 SWAP1 DUP2 MSTORE PUSH1 0x40 SWAP1 KECCAK256 SLOAD DUP2 JUMP JUMPDEST PUSH2 0x24F PUSH1 0x0 DUP2 JUMP JUMPDEST PUSH2 0x213 PUSH2 0x407 CALLDATASIZE PUSH1 0x4 PUSH2 0x23CD JUMP JUMPDEST PUSH1 0xD PUSH1 0x20 MSTORE PUSH1 0x0 SWAP1 DUP2 MSTORE PUSH1 0x40 SWAP1 KECCAK256 SLOAD PUSH1 0xFF AND DUP2 JUMP JUMPDEST PUSH2 0x24F PUSH2 0x42A CALLDATASIZE PUSH1 0x4 PUSH2 0x2432 JUMP JUMPDEST PUSH1 0x5 PUSH1 0x20 MSTORE PUSH1 0x0 SWAP1 DUP2 MSTORE PUSH1 0x40 SWAP1 KECCAK256 SLOAD DUP2 JUMP JUMPDEST PUSH2 0x2F9 PUSH2 0x44A CALLDATASIZE PUSH1 0x4 PUSH2 0x2496 JUMP JUMPDEST PUSH2 0xA08 JUMP JUMPDEST PUSH2 0x2F9 PUSH2 0x45D CALLDATASIZE PUSH1 0x4 PUSH2 0x24E9 JUMP JUMPDEST PUSH2 0xC83 JUMP JUMPDEST PUSH2 0x2F9 PUSH2 0x470 CALLDATASIZE PUSH1 0x4 PUSH2 0x22B3 JUMP JUMPDEST PUSH2 0xF55 JUMP JUMPDEST PUSH2 0x329 PUSH2 0x483 CALLDATASIZE PUSH1 0x4 PUSH2 0x2432 JUMP JUMPDEST PUSH1 0x4 PUSH1 0x20 MSTORE PUSH1 0x0 SWAP1 DUP2 MSTORE PUSH1 0x40 SWAP1 KECCAK256 SLOAD PUSH1 0xFF AND DUP2 JUMP JUMPDEST PUSH2 0x213 PUSH2 0x4A6 CALLDATASIZE PUSH1 0x4 PUSH2 0x2206 JUMP JUMPDEST PUSH1 0x8 PUSH1 0x20 SWAP1 DUP2 MSTORE PUSH1 0x0 SWAP3 DUP4 MSTORE PUSH1 0x40 DUP1 DUP5 KECCAK256 SWAP1 SWAP2 MSTORE SWAP1 DUP3 MSTORE SWAP1 KECCAK256 SLOAD PUSH1 0xFF AND DUP2 JUMP JUMPDEST PUSH2 0x24F PUSH2 0x4D4 CALLDATASIZE PUSH1 0x4 PUSH2 0x22B3 JUMP JUMPDEST PUSH1 0x6 PUSH1 0x20 MSTORE PUSH1 0x0 SWAP1 DUP2 MSTORE PUSH1 0x40 SWAP1 KECCAK256 SLOAD DUP2 JUMP JUMPDEST PUSH2 0x24F PUSH2 0x4F4 CALLDATASIZE PUSH1 0x4 PUSH2 0x22B3 JUMP JUMPDEST PUSH1 0x9 PUSH1 0x20 MSTORE PUSH1 0x0 SWAP1 DUP2 MSTORE PUSH1 0x40 SWAP1 KECCAK256 SLOAD DUP2 JUMP JUMPDEST PUSH2 0x2F9 PUSH2 0x514 CALLDATASIZE PUSH1 0x4 PUSH2 0x251C JUMP JUMPDEST PUSH2 0x10EB JUMP JUMPDEST PUSH2 0x24F PUSH2 0x527 CALLDATASIZE PUSH1 0x4 PUSH2 0x22B3 JUMP JUMPDEST PUSH1 0x7 PUSH1 0x20 MSTORE PUSH1 0x0 SWAP1 DUP2 MSTORE PUSH1 0x40 SWAP1 KECCAK256 SLOAD DUP2 JUMP JUMPDEST PUSH2 0x2F9 PUSH2 0x547 CALLDATASIZE PUSH1 0x4 PUSH2 0x22E3 JUMP JUMPDEST PUSH2 0x1153 JUMP JUMPDEST PUSH2 0x24F PUSH32 0xCE23C3E399818CFEE81A7AB0880F714E53D7672B08DF0FA62F2843416E1EA09 DUP2 JUMP JUMPDEST PUSH2 0x24F PUSH2 0x581 CALLDATASIZE PUSH1 0x4 PUSH2 0x2546 JUMP JUMPDEST PUSH2 0x1178 JUMP JUMPDEST PUSH1 0x0 PUSH1 0x1 PUSH1 0x1 PUSH1 0xE0 SHL SUB NOT DUP3 AND PUSH4 0x7965DB0B PUSH1 0xE0 SHL EQ DUP1 PUSH2 0x5B7 JUMPI POP PUSH4 0x1FFC9A7 PUSH1 0xE0 SHL PUSH1 0x1 PUSH1 0x1 PUSH1 0xE0 SHL SUB NOT DUP4 AND EQ JUMPDEST SWAP3 SWAP2 POP POP JUMP JUMPDEST PUSH1 0xA PUSH1 0x20 SWAP1 DUP2 MSTORE PUSH1 0x0 SWAP3 DUP4 MSTORE PUSH1 0x40 DUP1 DUP5 KECCAK256 SWAP1 SWAP2 MSTORE SWAP1 DUP3 MSTORE SWAP1 KECCAK256 DUP1 SLOAD DUP2 SWAP1 PUSH2 0x5E3 SWAP1 PUSH2 0x25BB JUMP JUMPDEST DUP1 PUSH1 0x1F ADD PUSH1 0x20 DUP1 SWAP2 DIV MUL PUSH1 0x20 ADD PUSH1 0x40 MLOAD SWAP1 DUP2 ADD PUSH1 0x40 MSTORE DUP1 SWAP3 SWAP2 SWAP1 DUP2 DUP2 MSTORE PUSH1 0x20 ADD DUP3 DUP1 SLOAD PUSH2 0x60F SWAP1 PUSH2 0x25BB JUMP JUMPDEST DUP1 ISZERO PUSH2 0x65C JUMPI DUP1 PUSH1 0x1F LT PUSH2 0x631 JUMPI PUSH2 0x100 DUP1 DUP4 SLOAD DIV MUL DUP4 MSTORE SWAP2 PUSH1 0x20 ADD SWAP2 PUSH2 0x65C JUMP JUMPDEST DUP3 ADD SWAP2 SWAP1 PUSH1 0x0 MSTORE PUSH1 0x20 PUSH1 0x0 KECCAK256 SWAP1 JUMPDEST DUP2 SLOAD DUP2 MSTORE SWAP1 PUSH1 0x1 ADD SWAP1 PUSH1 0x20 ADD DUP1 DUP4 GT PUSH2 0x63F JUMPI DUP3 SWAP1 SUB PUSH1 0x1F AND DUP3 ADD SWAP2 JUMPDEST POP POP POP POP PUSH1 0x1 DUP4 ADD SLOAD PUSH1 0x2 DUP5 ADD SLOAD PUSH1 0x3 SWAP1 SWAP5 ADD SLOAD SWAP3 SWAP4 SWAP1 SWAP3 SWAP1 SWAP2 POP PUSH1 0xFF AND DUP5 JUMP JUMPDEST PUSH1 0x0 DUP3 DUP2 MSTORE PUSH1 0x20 DUP2 SWAP1 MSTORE PUSH1 0x40 SWAP1 KECCAK256 PUSH1 0x1 ADD SLOAD PUSH2 0x698 DUP2 PUSH2 0x1342 JUMP JUMPDEST PUSH2 0x6A2 DUP4 DUP4 PUSH2 0x134C JUMP JUMPDEST POP POP POP JUMP JUMPDEST PUSH1 0x1 PUSH1 0x1 PUSH1 0xA0 SHL SUB DUP2 AND CALLER EQ PUSH2 0x71C JUMPI PUSH1 0x40 MLOAD PUSH3 0x461BCD PUSH1 0xE5 SHL DUP2 MSTORE PUSH1 0x20 PUSH1 0x4 DUP3 ADD MSTORE PUSH1 0x2F PUSH1 0x24 DUP3 ADD MSTORE PUSH32 0x416363657373436F6E74726F6C3A2063616E206F6E6C792072656E6F756E6365 PUSH1 0x44 DUP3 ADD MSTORE PUSH15 0x103937B632B9903337B91039B2B633 PUSH1 0x89 SHL PUSH1 0x64 DUP3 ADD MSTORE PUSH1 0x84 ADD JUMPDEST PUSH1 0x40 MLOAD DUP1 SWAP2 SUB SWAP1 REVERT JUMPDEST PUSH2 0x726 DUP3 DUP3 PUSH2 0x13D0 JUMP JUMPDEST POP POP JUMP JUMPDEST PUSH1 0x0 PUSH2 0x735 DUP2 PUSH2 0x1342 JUMP JUMPDEST PUSH2 0x73D PUSH2 0x1435 JUMP JUMPDEST POP JUMP JUMPDEST PUSH1 0x0 PUSH2 0x74A PUSH2 0x1487 JUMP JUMPDEST PUSH2 0x752 PUSH2 0x14E0 JUMP JUMPDEST PUSH1 0x0 DUP1 MLOAD PUSH1 0x20 PUSH2 0x2995 DUP4 CODECOPY DUP2 MLOAD SWAP2 MSTORE PUSH2 0x76A DUP2 PUSH2 0x1342 JUMP JUMPDEST PUSH2 0x773 DUP4 PUSH2 0x1528 JUMP JUMPDEST PUSH2 0x7AF JUMPI PUSH1 0x40 MLOAD PUSH3 0x461BCD PUSH1 0xE5 SHL DUP2 MSTORE PUSH1 0x20 PUSH1 0x4 DUP3 ADD MSTORE PUSH1 0xD PUSH1 0x24 DUP3 ADD MSTORE PUSH13 0x24B73B30B634B210383937B7B3 PUSH1 0x99 SHL PUSH1 0x44 DUP3 ADD MSTORE PUSH1 0x64 ADD PUSH2 0x713 JUMP JUMPDEST PUSH1 0x80 DUP4 ADD CALLDATALOAD PUSH1 0x0 SWAP1 DUP2 MSTORE PUSH1 0x6 PUSH1 0x20 MSTORE PUSH1 0x40 SWAP1 KECCAK256 SLOAD PUSH2 0x7CF SWAP1 PUSH2 0xE10 PUSH2 0x260B JUMP JUMPDEST TIMESTAMP GT PUSH2 0x81D JUMPI PUSH1 0x40 MLOAD PUSH3 0x461BCD PUSH1 0xE5 SHL DUP2 MSTORE PUSH1 0x20 PUSH1 0x4 DUP3 ADD MSTORE PUSH1 0x1C PUSH1 0x24 DUP3 ADD MSTORE PUSH32 0x546F6F20736F6F6E2073696E6365206C61737420616374697669747900000000 PUSH1 0x44 DUP3 ADD MSTORE PUSH1 0x64 ADD PUSH2 0x713 JUMP JUMPDEST PUSH1 0x0 PUSH2 0x828 DUP5 PUSH2 0x1576 JUMP JUMPDEST SWAP1 POP PUSH1 0x0 PUSH2 0x835 DUP6 PUSH2 0x162B JUMP JUMPDEST SWAP1 POP PUSH1 0x0 PUSH2 0x842 DUP3 PUSH2 0x182A JUMP JUMPDEST SWAP1 POP PUSH2 0x84D DUP2 PUSH2 0x190F JUMP JUMPDEST SWAP1 POP PUSH8 0xDE0B6B3A7640000 PUSH2 0x862 DUP3 DUP6 PUSH2 0x261E JUMP JUMPDEST PUSH2 0x86C SWAP2 SWAP1 PUSH2 0x264B JUMP JUMPDEST SWAP5 POP PUSH2 0x877 DUP7 PUSH2 0x1987 JUMP JUMPDEST PUSH1 0x0 PUSH1 0x4 DUP2 PUSH2 0x88C PUSH1 0x40 DUP11 ADD PUSH1 0x20 DUP12 ADD PUSH2 0x265F JUMP JUMPDEST PUSH1 0xFF AND PUSH1 0x6 DUP2 GT ISZERO PUSH2 0x8A0 JUMPI PUSH2 0x8A0 PUSH2 0x267A JUMP JUMPDEST PUSH1 0x6 DUP2 GT ISZERO PUSH2 0x8B1 JUMPI PUSH2 0x8B1 PUSH2 0x267A JUMP JUMPDEST PUSH1 0x6 DUP2 GT ISZERO PUSH2 0x8C2 JUMPI PUSH2 0x8C2 PUSH2 0x267A JUMP JUMPDEST DUP2 MSTORE PUSH1 0x20 DUP2 ADD SWAP2 SWAP1 SWAP2 MSTORE PUSH1 0x40 ADD PUSH1 0x0 KECCAK256 SLOAD PUSH1 0x2 SLOAD PUSH1 0xFF SWAP1 SWAP2 AND SWAP2 POP PUSH2 0x100 SWAP1 DIV PUSH1 0x1 PUSH1 0x1 PUSH1 0xA0 SHL SUB AND PUSH4 0x4ED387B2 PUSH1 0x80 DUP10 ADD CALLDATALOAD PUSH1 0x40 MLOAD PUSH1 0x1 PUSH1 0x1 PUSH1 0xE0 SHL SUB NOT PUSH1 0xE0 DUP5 SWAP1 SHL AND DUP2 MSTORE PUSH1 0x1 PUSH1 0x1 PUSH1 0xA0 SHL SUB SWAP1 SWAP2 AND PUSH1 0x4 DUP3 ADD MSTORE PUSH1 0xFF DUP5 AND PUSH1 0x24 DUP3 ADD MSTORE PUSH1 0x44 DUP2 ADD DUP10 SWAP1 MSTORE PUSH1 0x64 ADD PUSH1 0x0 PUSH1 0x40 MLOAD DUP1 DUP4 SUB DUP2 PUSH1 0x0 DUP8 DUP1 EXTCODESIZE ISZERO DUP1 ISZERO PUSH2 0x946 JUMPI PUSH1 0x0 DUP1 REVERT JUMPDEST POP GAS CALL ISZERO DUP1 ISZERO PUSH2 0x95A JUMPI RETURNDATASIZE PUSH1 0x0 DUP1 RETURNDATACOPY RETURNDATASIZE PUSH1 0x0 REVERT JUMPDEST POP PUSH2 0x96F SWAP3 POP POP POP PUSH1 0x40 DUP9 ADD PUSH1 0x20 DUP10 ADD PUSH2 0x265F JUMP JUMPDEST PUSH1 0xFF AND DUP8 PUSH1 0x80 ADD CALLDATALOAD PUSH32 0xE1AEF7C7BD671E633C5732CE5A3B2ACE78DE3182B6DF7BABAB76E3A5279056D2 DUP9 DUP6 PUSH1 0x40 MLOAD PUSH2 0x9B1 SWAP3 SWAP2 SWAP1 SWAP2 DUP3 MSTORE PUSH1 0x20 DUP3 ADD MSTORE PUSH1 0x40 ADD SWAP1 JUMP JUMPDEST PUSH1 0x40 MLOAD DUP1 SWAP2 SUB SWAP1 LOG3 POP POP POP POP POP PUSH2 0x9C7 PUSH1 0x1 DUP1 SSTORE JUMP JUMPDEST SWAP2 SWAP1 POP JUMP JUMPDEST PUSH1 0x0 PUSH2 0x9D7 DUP2 PUSH2 0x1342 JUMP JUMPDEST PUSH2 0x73D PUSH2 0x1A72 JUMP JUMPDEST PUSH1 0x0 SWAP2 DUP3 MSTORE PUSH1 0x20 DUP3 DUP2 MSTORE PUSH1 0x40 DUP1 DUP5 KECCAK256 PUSH1 0x1 PUSH1 0x1 PUSH1 0xA0 SHL SUB SWAP4 SWAP1 SWAP4 AND DUP5 MSTORE SWAP2 SWAP1 MSTORE SWAP1 KECCAK256 SLOAD PUSH1 0xFF AND SWAP1 JUMP JUMPDEST PUSH32 0x68E79A7BF1E0BC45D0A330C573BC367F9CF464FD326078812F301165FBDA4EF1 PUSH2 0xA32 DUP2 PUSH2 0x1342 JUMP JUMPDEST PUSH1 0x1 PUSH1 0x1 PUSH1 0xA0 SHL SUB DUP5 AND PUSH1 0x0 SWAP1 DUP2 MSTORE PUSH1 0xD PUSH1 0x20 MSTORE PUSH1 0x40 SWAP1 KECCAK256 SLOAD PUSH1 0xFF AND PUSH2 0xA8F JUMPI PUSH1 0x40 MLOAD PUSH3 0x461BCD PUSH1 0xE5 SHL DUP2 MSTORE PUSH1 0x20 PUSH1 0x4 DUP3 ADD MSTORE PUSH1 0x12 PUSH1 0x24 DUP3 ADD MSTORE PUSH18 0x105C1C081B9BDD081C9959DA5CDD195C9959 PUSH1 0x72 SHL PUSH1 0x44 DUP3 ADD MSTORE PUSH1 0x64 ADD PUSH2 0x713 JUMP JUMPDEST PUSH1 0x1 PUSH1 0x1 PUSH1 0xA0 SHL SUB DUP5 AND PUSH1 0x0 SWAP1 DUP2 MSTORE PUSH1 0xF PUSH1 0x20 MSTORE PUSH1 0x40 DUP2 KECCAK256 DUP1 SLOAD SWAP2 PUSH2 0xAB3 DUP4 PUSH2 0x2690 JUMP JUMPDEST SWAP2 SWAP1 POP SSTORE POP PUSH1 0x0 PUSH2 0xAC3 DUP6 PUSH2 0x1AAF JUMP JUMPDEST PUSH1 0x1 PUSH1 0x1 PUSH1 0xA0 SHL SUB DUP7 AND PUSH1 0x0 SWAP1 DUP2 MSTORE PUSH1 0xE PUSH1 0x20 MSTORE PUSH1 0x40 SWAP1 KECCAK256 SLOAD SWAP1 SWAP2 POP DUP2 LT PUSH2 0xBA3 JUMPI PUSH1 0x3 SLOAD PUSH1 0x1 PUSH1 0x1 PUSH1 0xA0 SHL SUB DUP7 DUP2 AND PUSH1 0x0 DUP2 DUP2 MSTORE PUSH1 0xE PUSH1 0x20 MSTORE PUSH1 0x40 SWAP1 DUP2 SWAP1 KECCAK256 SLOAD SWAP1 MLOAD PUSH4 0x131A38B5 PUSH1 0xE3 SHL DUP2 MSTORE PUSH1 0x4 DUP2 ADD SWAP3 SWAP1 SWAP3 MSTORE PUSH1 0x24 DUP3 ADD MSTORE SWAP2 AND SWAP1 PUSH4 0x98D1C5A8 SWAP1 PUSH1 0x44 ADD PUSH1 0x0 PUSH1 0x40 MLOAD DUP1 DUP4 SUB DUP2 PUSH1 0x0 DUP8 DUP1 EXTCODESIZE ISZERO DUP1 ISZERO PUSH2 0xB43 JUMPI PUSH1 0x0 DUP1 REVERT JUMPDEST POP GAS CALL ISZERO DUP1 ISZERO PUSH2 0xB57 JUMPI RETURNDATASIZE PUSH1 0x0 DUP1 RETURNDATACOPY RETURNDATASIZE PUSH1 0x0 REVERT JUMPDEST POP POP POP PUSH1 0x1 PUSH1 0x1 PUSH1 0xA0 SHL SUB DUP7 AND PUSH1 0x0 SWAP1 DUP2 MSTORE PUSH1 0xD PUSH1 0x20 SWAP1 DUP2 MSTORE PUSH1 0x40 DUP1 DUP4 KECCAK256 DUP1 SLOAD PUSH1 0xFF NOT AND SWAP1 SSTORE PUSH1 0xE SWAP1 SWAP2 MSTORE DUP2 KECCAK256 SSTORE POP PUSH2 0xB9E PUSH1 0x0 DUP1 MLOAD PUSH1 0x20 PUSH2 0x2995 DUP4 CODECOPY DUP2 MLOAD SWAP2 MSTORE DUP7 PUSH2 0x13D0 JUMP JUMPDEST PUSH2 0xC37 JUMP JUMPDEST PUSH1 0x3 SLOAD PUSH1 0x40 MLOAD PUSH4 0x131A38B5 PUSH1 0xE3 SHL DUP2 MSTORE PUSH1 0x1 PUSH1 0x1 PUSH1 0xA0 SHL SUB DUP8 DUP2 AND PUSH1 0x4 DUP4 ADD MSTORE PUSH1 0x24 DUP3 ADD DUP5 SWAP1 MSTORE SWAP1 SWAP2 AND SWAP1 PUSH4 0x98D1C5A8 SWAP1 PUSH1 0x44 ADD PUSH1 0x0 PUSH1 0x40 MLOAD DUP1 DUP4 SUB DUP2 PUSH1 0x0 DUP8 DUP1 EXTCODESIZE ISZERO DUP1 ISZERO PUSH2 0xBF1 JUMPI PUSH1 0x0 DUP1 REVERT JUMPDEST POP GAS CALL ISZERO DUP1 ISZERO PUSH2 0xC05 JUMPI RETURNDATASIZE PUSH1 0x0 DUP1 RETURNDATACOPY RETURNDATASIZE PUSH1 0x0 REVERT JUMPDEST POP POP POP POP PUSH1 0x1 PUSH1 0x1 PUSH1 0xA0 SHL SUB DUP6 AND PUSH1 0x0 SWAP1 DUP2 MSTORE PUSH1 0xE PUSH1 0x20 MSTORE PUSH1 0x40 DUP2 KECCAK256 DUP1 SLOAD DUP4 SWAP3 SWAP1 PUSH2 0xC31 SWAP1 DUP5 SWAP1 PUSH2 0x26A9 JUMP JUMPDEST SWAP1 SWAP2 SSTORE POP POP JUMPDEST DUP5 PUSH1 0x1 PUSH1 0x1 PUSH1 0xA0 SHL SUB AND PUSH32 0xB090B5AAD42B59CF0A8521FAEAF4C01CACE742461ABE4F9BD4726294E452244A DUP3 DUP7 DUP7 PUSH1 0x40 MLOAD PUSH2 0xC74 SWAP4 SWAP3 SWAP2 SWAP1 PUSH2 0x26E5 JUMP JUMPDEST PUSH1 0x40 MLOAD DUP1 SWAP2 SUB SWAP1 LOG2 POP POP POP POP POP JUMP JUMPDEST PUSH2 0xC8B PUSH2 0x1487 JUMP JUMPDEST PUSH2 0xC93 PUSH2 0x14E0 JUMP JUMPDEST CALLER PUSH1 0x1 PUSH1 0x1 PUSH1 0xA0 SHL SUB DUP5 AND EQ PUSH2 0xCDF JUMPI PUSH1 0x40 MLOAD PUSH3 0x461BCD PUSH1 0xE5 SHL DUP2 MSTORE PUSH1 0x20 PUSH1 0x4 DUP3 ADD MSTORE PUSH1 0x11 PUSH1 0x24 DUP3 ADD MSTORE PUSH17 0x2737BA10383937B334B6329037BBB732B9 PUSH1 0x79 SHL PUSH1 0x44 DUP3 ADD MSTORE PUSH1 0x64 ADD PUSH2 0x713 JUMP JUMPDEST PUSH1 0x0 PUSH1 0xB DUP4 DUP4 PUSH1 0x40 MLOAD PUSH2 0xCF3 SWAP3 SWAP2 SWAP1 PUSH2 0x2708 JUMP JUMPDEST SWAP1 DUP2 MSTORE PUSH1 0x40 MLOAD SWAP1 DUP2 SWAP1 SUB PUSH1 0x20 ADD SWAP1 KECCAK256 SLOAD PUSH1 0xFF AND SWAP1 POP DUP1 PUSH2 0xD45 JUMPI PUSH1 0x40 MLOAD PUSH3 0x461BCD PUSH1 0xE5 SHL DUP2 MSTORE PUSH1 0x20 PUSH1 0x4 DUP3 ADD MSTORE PUSH1 0xD PUSH1 0x24 DUP3 ADD MSTORE PUSH13 0x125B9D985B1A59081D1C985A5D PUSH1 0x9A SHL PUSH1 0x44 DUP3 ADD MSTORE PUSH1 0x64 ADD PUSH2 0x713 JUMP JUMPDEST PUSH1 0x0 DUP5 DUP2 MSTORE PUSH1 0xA PUSH1 0x20 SWAP1 DUP2 MSTORE PUSH1 0x40 DUP1 DUP4 KECCAK256 PUSH1 0xFF DUP1 DUP7 AND DUP6 MSTORE SWAP3 MSTORE SWAP1 SWAP2 KECCAK256 PUSH1 0x3 DUP2 ADD SLOAD SWAP1 SWAP2 AND ISZERO PUSH2 0xDAE JUMPI PUSH1 0x40 MLOAD PUSH3 0x461BCD PUSH1 0xE5 SHL DUP2 MSTORE PUSH1 0x20 PUSH1 0x4 DUP3 ADD MSTORE PUSH1 0x14 PUSH1 0x24 DUP3 ADD MSTORE PUSH20 0x547261697420616C726561647920616374697665 PUSH1 0x60 SHL PUSH1 0x44 DUP3 ADD MSTORE PUSH1 0x64 ADD PUSH2 0x713 JUMP JUMPDEST PUSH1 0x0 DUP6 DUP2 MSTORE PUSH1 0x9 PUSH1 0x20 MSTORE PUSH1 0x40 SWAP1 KECCAK256 SLOAD PUSH1 0xA GT PUSH2 0xE01 JUMPI PUSH1 0x40 MLOAD PUSH3 0x461BCD PUSH1 0xE5 SHL DUP2 MSTORE PUSH1 0x20 PUSH1 0x4 DUP3 ADD MSTORE PUSH1 0x12 PUSH1 0x24 DUP3 ADD MSTORE PUSH18 0x13585E081D1C985A5D1CC81C995858DA1959 PUSH1 0x72 SHL PUSH1 0x44 DUP3 ADD MSTORE PUSH1 0x64 ADD PUSH2 0x713 JUMP JUMPDEST PUSH1 0x0 PUSH2 0xE17 PUSH8 0xDE0B6B3A7640000 PUSH2 0x3E8 PUSH2 0x261E JUMP JUMPDEST PUSH1 0x0 DUP8 DUP2 MSTORE PUSH1 0x9 PUSH1 0x20 MSTORE PUSH1 0x40 DUP2 KECCAK256 SLOAD SWAP2 SWAP3 POP SWAP1 PUSH2 0xE35 SWAP1 PUSH1 0xA PUSH2 0x27FC JUMP JUMPDEST PUSH1 0x0 DUP9 DUP2 MSTORE PUSH1 0x9 PUSH1 0x20 MSTORE PUSH1 0x40 SWAP1 KECCAK256 SLOAD PUSH2 0xE4F SWAP1 PUSH1 0x19 PUSH2 0x27FC JUMP JUMPDEST PUSH2 0xE59 SWAP1 DUP5 PUSH2 0x261E JUMP JUMPDEST PUSH2 0xE63 SWAP2 SWAP1 PUSH2 0x264B JUMP JUMPDEST PUSH1 0x2 DUP1 SLOAD PUSH1 0x40 MLOAD PUSH4 0xA29B3F5B PUSH1 0xE0 SHL DUP2 MSTORE CALLER PUSH1 0x4 DUP3 ADD MSTORE PUSH1 0x24 DUP2 ADD SWAP3 SWAP1 SWAP3 MSTORE PUSH1 0x44 DUP3 ADD DUP4 SWAP1 MSTORE SWAP2 SWAP3 POP PUSH2 0x100 SWAP1 SWAP2 DIV PUSH1 0x1 PUSH1 0x1 PUSH1 0xA0 SHL SUB AND SWAP1 PUSH4 0xA29B3F5B SWAP1 PUSH1 0x64 ADD PUSH1 0x0 PUSH1 0x40 MLOAD DUP1 DUP4 SUB DUP2 PUSH1 0x0 DUP8 DUP1 EXTCODESIZE ISZERO DUP1 ISZERO PUSH2 0xEBF JUMPI PUSH1 0x0 DUP1 REVERT JUMPDEST POP GAS CALL ISZERO DUP1 ISZERO PUSH2 0xED3 JUMPI RETURNDATASIZE PUSH1 0x0 DUP1 RETURNDATACOPY RETURNDATASIZE PUSH1 0x0 REVERT JUMPDEST POP POP POP PUSH1 0x3 DUP5 ADD DUP1 SLOAD PUSH1 0xFF NOT AND PUSH1 0x1 OR SWAP1 SSTORE POP PUSH1 0x2 DUP4 ADD DUP2 SWAP1 SSTORE PUSH1 0x0 DUP8 DUP2 MSTORE PUSH1 0x9 PUSH1 0x20 MSTORE PUSH1 0x40 DUP2 KECCAK256 DUP1 SLOAD SWAP2 PUSH2 0xF07 DUP4 PUSH2 0x2690 JUMP JUMPDEST SWAP2 SWAP1 POP SSTORE POP DUP7 PUSH32 0xC5E2258FAFC54F5C6BC61750ED415420EA06489A8424DB56E223AE2E7D6CCB10 DUP8 DUP8 DUP5 PUSH1 0x40 MLOAD PUSH2 0xF40 SWAP4 SWAP3 SWAP2 SWAP1 PUSH2 0x2808 JUMP JUMPDEST PUSH1 0x40 MLOAD DUP1 SWAP2 SUB SWAP1 LOG2 POP POP POP POP PUSH2 0x6A2 PUSH1 0x1 DUP1 SSTORE JUMP JUMPDEST PUSH2 0xF5D PUSH2 0x1487 JUMP JUMPDEST PUSH2 0xF71 PUSH8 0xDE0B6B3A7640000 PUSH2 0x2710 PUSH2 0x261E JUMP JUMPDEST DUP2 LT ISZERO PUSH2 0xFB5 JUMPI PUSH1 0x40 MLOAD PUSH3 0x461BCD PUSH1 0xE5 SHL DUP2 MSTORE PUSH1 0x20 PUSH1 0x4 DUP3 ADD MSTORE PUSH1 0x12 PUSH1 0x24 DUP3 ADD MSTORE PUSH18 0x496E73756666696369656E74207374616B65 PUSH1 0x70 SHL PUSH1 0x44 DUP3 ADD MSTORE PUSH1 0x64 ADD PUSH2 0x713 JUMP JUMPDEST CALLER PUSH1 0x0 SWAP1 DUP2 MSTORE PUSH1 0xD PUSH1 0x20 MSTORE PUSH1 0x40 SWAP1 KECCAK256 SLOAD PUSH1 0xFF AND ISZERO PUSH2 0x100A JUMPI PUSH1 0x40 MLOAD PUSH3 0x461BCD PUSH1 0xE5 SHL DUP2 MSTORE PUSH1 0x20 PUSH1 0x4 DUP3 ADD MSTORE PUSH1 0x12 PUSH1 0x24 DUP3 ADD MSTORE PUSH18 0x105B1C9958591E481C9959DA5CDD195C9959 PUSH1 0x72 SHL PUSH1 0x44 DUP3 ADD MSTORE PUSH1 0x64 ADD PUSH2 0x713 JUMP JUMPDEST PUSH1 0x3 SLOAD PUSH1 0x40 MLOAD PUSH3 0x2B0067 PUSH1 0xE8 SHL DUP2 MSTORE CALLER PUSH1 0x4 DUP3 ADD MSTORE PUSH1 0x24 DUP2 ADD DUP4 SWAP1 MSTORE PUSH1 0x1 PUSH1 0x1 PUSH1 0xA0 SHL SUB SWAP1 SWAP2 AND SWAP1 PUSH4 0x2B006700 SWAP1 PUSH1 0x44 ADD PUSH1 0x0 PUSH1 0x40 MLOAD DUP1 DUP4 SUB DUP2 PUSH1 0x0 DUP8 DUP1 EXTCODESIZE ISZERO DUP1 ISZERO PUSH2 0x1055 JUMPI PUSH1 0x0 DUP1 REVERT JUMPDEST POP GAS CALL ISZERO DUP1 ISZERO PUSH2 0x1069 JUMPI RETURNDATASIZE PUSH1 0x0 DUP1 RETURNDATACOPY RETURNDATASIZE PUSH1 0x0 REVERT JUMPDEST POP POP CALLER PUSH1 0x0 DUP2 DUP2 MSTORE PUSH1 0xD PUSH1 0x20 SWAP1 DUP2 MSTORE PUSH1 0x40 DUP1 DUP4 KECCAK256 DUP1 SLOAD PUSH1 0xFF NOT AND PUSH1 0x1 OR SWAP1 SSTORE PUSH1 0xE SWAP1 SWAP2 MSTORE SWAP1 KECCAK256 DUP5 SWAP1 SSTORE PUSH2 0x10AD SWAP3 POP PUSH1 0x0 DUP1 MLOAD PUSH1 0x20 PUSH2 0x2995 DUP4 CODECOPY DUP2 MLOAD SWAP2 MSTORE SWAP2 POP PUSH2 0x134C JUMP JUMPDEST PUSH1 0x40 MLOAD DUP2 DUP2 MSTORE CALLER SWAP1 PUSH32 0x2D2C3CDA96327D29A77F74FCF6444053FAF409786E4DCAE6CABA837E5375EBBF SWAP1 PUSH1 0x20 ADD PUSH1 0x40 MLOAD DUP1 SWAP2 SUB SWAP1 LOG2 PUSH2 0x73D PUSH1 0x1 DUP1 SSTORE JUMP JUMPDEST PUSH32 0x68E79A7BF1E0BC45D0A330C573BC367F9CF464FD326078812F301165FBDA4EF1 PUSH2 0x1115 DUP2 PUSH2 0x1342 JUMP JUMPDEST DUP2 PUSH1 0x5 PUSH1 0x0 DUP6 PUSH1 0x6 DUP2 GT ISZERO PUSH2 0x112C JUMPI PUSH2 0x112C PUSH2 0x267A JUMP JUMPDEST PUSH1 0x6 DUP2 GT ISZERO PUSH2 0x113D JUMPI PUSH2 0x113D PUSH2 0x267A JUMP JUMPDEST DUP2 MSTORE PUSH1 0x20 DUP2 ADD SWAP2 SWAP1 SWAP2 MSTORE PUSH1 0x40 ADD PUSH1 0x0 KECCAK256 SSTORE POP POP POP JUMP JUMPDEST PUSH1 0x0 DUP3 DUP2 MSTORE PUSH1 0x20 DUP2 SWAP1 MSTORE PUSH1 0x40 SWAP1 KECCAK256 PUSH1 0x1 ADD SLOAD PUSH2 0x116E DUP2 PUSH2 0x1342 JUMP JUMPDEST PUSH2 0x6A2 DUP4 DUP4 PUSH2 0x13D0 JUMP JUMPDEST PUSH1 0x0 PUSH2 0x1182 PUSH2 0x1487 JUMP JUMPDEST PUSH2 0x118A PUSH2 0x14E0 JUMP JUMPDEST PUSH1 0x0 DUP1 MLOAD PUSH1 0x20 PUSH2 0x2995 DUP4 CODECOPY DUP2 MLOAD SWAP2 MSTORE PUSH2 0x11A2 DUP2 PUSH2 0x1342 JUMP JUMPDEST PUSH1 0x64 DUP4 GT ISZERO PUSH2 0x11E5 JUMPI PUSH1 0x40 MLOAD PUSH3 0x461BCD PUSH1 0xE5 SHL DUP2 MSTORE PUSH1 0x20 PUSH1 0x4 DUP3 ADD MSTORE PUSH1 0xF PUSH1 0x24 DUP3 ADD MSTORE PUSH15 0x426174636820746F6F206C61726765 PUSH1 0x88 SHL PUSH1 0x44 DUP3 ADD MSTORE PUSH1 0x64 ADD PUSH2 0x713 JUMP JUMPDEST DUP3 PUSH2 0x1220 JUMPI PUSH1 0x40 MLOAD PUSH3 0x461BCD PUSH1 0xE5 SHL DUP2 MSTORE PUSH1 0x20 PUSH1 0x4 DUP3 ADD MSTORE PUSH1 0xB PUSH1 0x24 DUP3 ADD MSTORE PUSH11 0x8ADAE0E8F240C4C2E8C6D PUSH1 0xAB SHL PUSH1 0x44 DUP3 ADD MSTORE PUSH1 0x64 ADD PUSH2 0x713 JUMP JUMPDEST PUSH1 0x0 JUMPDEST DUP4 DUP2 LT ISZERO PUSH2 0x12FE JUMPI PUSH2 0x1257 DUP6 DUP6 DUP4 DUP2 DUP2 LT PUSH2 0x1240 JUMPI PUSH2 0x1240 PUSH2 0x282C JUMP JUMPDEST SWAP1 POP PUSH1 0x20 MUL DUP2 ADD SWAP1 PUSH2 0x1252 SWAP2 SWAP1 PUSH2 0x2842 JUMP JUMPDEST PUSH2 0x1528 JUMP JUMPDEST ISZERO DUP1 PUSH2 0x12AA JUMPI POP PUSH1 0x6 PUSH1 0x0 DUP7 DUP7 DUP5 DUP2 DUP2 LT PUSH2 0x1274 JUMPI PUSH2 0x1274 PUSH2 0x282C JUMP JUMPDEST SWAP1 POP PUSH1 0x20 MUL DUP2 ADD SWAP1 PUSH2 0x1286 SWAP2 SWAP1 PUSH2 0x2842 JUMP JUMPDEST PUSH1 0x80 ADD CALLDATALOAD DUP2 MSTORE PUSH1 0x20 ADD SWAP1 DUP2 MSTORE PUSH1 0x20 ADD PUSH1 0x0 KECCAK256 SLOAD PUSH2 0xE10 PUSH2 0x12A6 SWAP2 SWAP1 PUSH2 0x260B JUMP JUMPDEST TIMESTAMP GT ISZERO JUMPDEST PUSH2 0x12EC JUMPI PUSH1 0x0 PUSH2 0x12DC DUP7 DUP7 DUP5 DUP2 DUP2 LT PUSH2 0x12C5 JUMPI PUSH2 0x12C5 PUSH2 0x282C JUMP JUMPDEST SWAP1 POP PUSH1 0x20 MUL DUP2 ADD SWAP1 PUSH2 0x12D7 SWAP2 SWAP1 PUSH2 0x2842 JUMP JUMPDEST PUSH2 0x1B63 JUMP JUMPDEST SWAP1 POP PUSH2 0x12E8 DUP2 DUP6 PUSH2 0x260B JUMP JUMPDEST SWAP4 POP POP JUMPDEST DUP1 PUSH2 0x12F6 DUP2 PUSH2 0x2690 JUMP JUMPDEST SWAP2 POP POP PUSH2 0x1223 JUMP JUMPDEST POP PUSH1 0x40 DUP1 MLOAD DUP5 DUP2 MSTORE PUSH1 0x20 DUP2 ADD DUP5 SWAP1 MSTORE PUSH32 0x7DC133219B0C7FC08E64C767C1387C34BA1ED1DA56FBBD864D1FB4A458D2AB2C SWAP2 ADD PUSH1 0x40 MLOAD DUP1 SWAP2 SUB SWAP1 LOG1 POP PUSH2 0x5B7 PUSH1 0x1 DUP1 SSTORE JUMP JUMPDEST PUSH2 0x73D DUP2 CALLER PUSH2 0x1D09 JUMP JUMPDEST PUSH2 0x1356 DUP3 DUP3 PUSH2 0x9DF JUMP JUMPDEST PUSH2 0x726 JUMPI PUSH1 0x0 DUP3 DUP2 MSTORE PUSH1 0x20 DUP2 DUP2 MSTORE PUSH1 0x40 DUP1 DUP4 KECCAK256 PUSH1 0x1 PUSH1 0x1 PUSH1 0xA0 SHL SUB DUP6 AND DUP5 MSTORE SWAP1 SWAP2 MSTORE SWAP1 KECCAK256 DUP1 SLOAD PUSH1 0xFF NOT AND PUSH1 0x1 OR SWAP1 SSTORE PUSH2 0x138C CALLER SWAP1 JUMP JUMPDEST PUSH1 0x1 PUSH1 0x1 PUSH1 0xA0 SHL SUB AND DUP2 PUSH1 0x1 PUSH1 0x1 PUSH1 0xA0 SHL SUB AND DUP4 PUSH32 0x2F8788117E7EFF1D82E926EC794901D17C78024A50270940304540A733656F0D PUSH1 0x40 MLOAD PUSH1 0x40 MLOAD DUP1 SWAP2 SUB SWAP1 LOG4 POP POP JUMP JUMPDEST PUSH2 0x13DA DUP3 DUP3 PUSH2 0x9DF JUMP JUMPDEST ISZERO PUSH2 0x726 JUMPI PUSH1 0x0 DUP3 DUP2 MSTORE PUSH1 0x20 DUP2 DUP2 MSTORE PUSH1 0x40 DUP1 DUP4 KECCAK256 PUSH1 0x1 PUSH1 0x1 PUSH1 0xA0 SHL SUB DUP6 AND DUP1 DUP6 MSTORE SWAP3 MSTORE DUP1 DUP4 KECCAK256 DUP1 SLOAD PUSH1 0xFF NOT AND SWAP1 SSTORE MLOAD CALLER SWAP3 DUP6 SWAP2 PUSH32 0xF6391F5C32D9C69D2A47EA670B442974B53935D1EDC7FD64EB21E047A839171B SWAP2 SWAP1 LOG4 POP POP JUMP JUMPDEST PUSH2 0x143D PUSH2 0x1D62 JUMP JUMPDEST PUSH1 0x2 DUP1 SLOAD PUSH1 0xFF NOT AND SWAP1 SSTORE PUSH32 0x5DB9EE0A495BF2E6FF9C91A7834C1BA4FDD244A5E8AA4E537BD38AEAE4B073AA CALLER JUMPDEST PUSH1 0x40 MLOAD PUSH1 0x1 PUSH1 0x1 PUSH1 0xA0 SHL SUB SWAP1 SWAP2 AND DUP2 MSTORE PUSH1 0x20 ADD PUSH1 0x40 MLOAD DUP1 SWAP2 SUB SWAP1 LOG1 JUMP JUMPDEST PUSH1 0x2 PUSH1 0x1 SLOAD SUB PUSH2 0x14D9 JUMPI PUSH1 0x40 MLOAD PUSH3 0x461BCD PUSH1 0xE5 SHL DUP2 MSTORE PUSH1 0x20 PUSH1 0x4 DUP3 ADD MSTORE PUSH1 0x1F PUSH1 0x24 DUP3 ADD MSTORE PUSH32 0x5265656E7472616E637947756172643A207265656E7472616E742063616C6C00 PUSH1 0x44 DUP3 ADD MSTORE PUSH1 0x64 ADD PUSH2 0x713 JUMP JUMPDEST PUSH1 0x2 PUSH1 0x1 SSTORE JUMP JUMPDEST PUSH1 0x2 SLOAD PUSH1 0xFF AND ISZERO PUSH2 0x1526 JUMPI PUSH1 0x40 MLOAD PUSH3 0x461BCD PUSH1 0xE5 SHL DUP2 MSTORE PUSH1 0x20 PUSH1 0x4 DUP3 ADD MSTORE PUSH1 0x10 PUSH1 0x24 DUP3 ADD MSTORE PUSH16 0x14185D5CD8589B194E881C185D5CD959 PUSH1 0x82 SHL PUSH1 0x44 DUP3 ADD MSTORE PUSH1 0x64 ADD PUSH2 0x713 JUMP JUMPDEST JUMP JUMPDEST PUSH1 0x0 DUP1 PUSH2 0x1538 PUSH1 0xA0 DUP5 ADD DUP5 PUSH2 0x2862 JUMP JUMPDEST SWAP1 POP GT DUP1 ISZERO PUSH2 0x1547 JUMPI POP DUP2 CALLDATALOAD ISZERO ISZERO JUMPDEST DUP1 ISZERO PUSH2 0x1556 JUMPI POP TIMESTAMP DUP3 PUSH1 0x60 ADD CALLDATALOAD LT JUMPDEST DUP1 ISZERO PUSH2 0x5B7 JUMPI POP PUSH2 0x156A PUSH3 0x15180 TIMESTAMP PUSH2 0x26A9 JUMP JUMPDEST DUP3 PUSH1 0x60 ADD CALLDATALOAD GT SWAP3 SWAP2 POP POP JUMP JUMPDEST PUSH1 0x0 DUP1 PUSH1 0x5 DUP2 PUSH2 0x158C PUSH1 0x40 DUP7 ADD PUSH1 0x20 DUP8 ADD PUSH2 0x265F JUMP JUMPDEST PUSH1 0xFF AND PUSH1 0x6 DUP2 GT ISZERO PUSH2 0x15A0 JUMPI PUSH2 0x15A0 PUSH2 0x267A JUMP JUMPDEST PUSH1 0x6 DUP2 GT ISZERO PUSH2 0x15B1 JUMPI PUSH2 0x15B1 PUSH2 0x267A JUMP JUMPDEST PUSH1 0x6 DUP2 GT ISZERO PUSH2 0x15C2 JUMPI PUSH2 0x15C2 PUSH2 0x267A JUMP JUMPDEST DUP2 MSTORE PUSH1 0x20 ADD SWAP1 DUP2 MSTORE PUSH1 0x20 ADD PUSH1 0x0 KECCAK256 SLOAD SWAP1 POP PUSH1 0x0 DUP4 PUSH1 0x40 ADD CALLDATALOAD GT ISZERO PUSH2 0x5B7 JUMPI PUSH1 0x0 PUSH1 0x64 PUSH2 0x15FA PUSH8 0xDE0B6B3A7640000 PUSH1 0x40 DUP8 ADD CALLDATALOAD PUSH2 0x261E JUMP JUMPDEST PUSH2 0x1604 SWAP2 SWAP1 PUSH2 0x264B JUMP JUMPDEST SWAP1 POP PUSH8 0xDE0B6B3A7640000 PUSH2 0x1619 DUP3 DUP5 PUSH2 0x261E JUMP JUMPDEST PUSH2 0x1623 SWAP2 SWAP1 PUSH2 0x264B JUMP JUMPDEST SWAP5 SWAP4 POP POP POP POP JUMP JUMPDEST PUSH2 0x1664 PUSH1 0x40 MLOAD DUP1 PUSH1 0xC0 ADD PUSH1 0x40 MSTORE DUP1 PUSH1 0x0 DUP2 MSTORE PUSH1 0x20 ADD PUSH1 0x0 DUP2 MSTORE PUSH1 0x20 ADD PUSH1 0x0 DUP2 MSTORE PUSH1 0x20 ADD PUSH1 0x0 DUP2 MSTORE PUSH1 0x20 ADD PUSH1 0x0 DUP2 MSTORE PUSH1 0x20 ADD PUSH1 0x0 DUP2 MSTORE POP SWAP1 JUMP JUMPDEST PUSH2 0x169D PUSH1 0x40 MLOAD DUP1 PUSH1 0xC0 ADD PUSH1 0x40 MSTORE DUP1 PUSH1 0x0 DUP2 MSTORE PUSH1 0x20 ADD PUSH1 0x0 DUP2 MSTORE PUSH1 0x20 ADD PUSH1 0x0 DUP2 MSTORE PUSH1 0x20 ADD PUSH1 0x0 DUP2 MSTORE PUSH1 0x20 ADD PUSH1 0x0 DUP2 MSTORE PUSH1 0x20 ADD PUSH1 0x0 DUP2 MSTORE POP SWAP1 JUMP JUMPDEST PUSH1 0x80 DUP4 ADD CALLDATALOAD PUSH1 0x0 SWAP1 DUP2 MSTORE PUSH1 0x7 PUSH1 0x20 MSTORE PUSH1 0x40 SWAP1 KECCAK256 SLOAD DUP1 ISZERO PUSH2 0x1701 JUMPI PUSH1 0xA PUSH2 0x16CC PUSH2 0x16C7 DUP4 PUSH1 0x1 PUSH2 0x260B JUMP JUMPDEST PUSH2 0x1DAB JUMP JUMPDEST PUSH2 0x16DE SWAP1 PUSH8 0xDE0B6B3A7640000 PUSH2 0x261E JUMP JUMPDEST PUSH2 0x16E8 SWAP2 SWAP1 PUSH2 0x264B JUMP JUMPDEST PUSH2 0x16FA SWAP1 PUSH8 0xDE0B6B3A7640000 PUSH2 0x260B JUMP JUMPDEST DUP3 MSTORE PUSH2 0x170D JUMP JUMPDEST PUSH8 0xDE0B6B3A7640000 DUP3 MSTORE JUMPDEST PUSH1 0x0 PUSH2 0xE10 PUSH2 0x1723 PUSH3 0x15180 PUSH1 0x60 DUP9 ADD CALLDATALOAD PUSH2 0x28A9 JUMP JUMPDEST PUSH2 0x172D SWAP2 SWAP1 PUSH2 0x264B JUMP JUMPDEST SWAP1 POP PUSH2 0x1738 DUP2 PUSH2 0x1E1B JUMP JUMPDEST PUSH1 0x40 DUP5 ADD MSTORE PUSH2 0x174A PUSH1 0x80 DUP7 ADD CALLDATALOAD PUSH2 0x1E84 JUMP JUMPDEST PUSH1 0x60 DUP5 ADD MSTORE PUSH1 0x0 PUSH2 0x175E PUSH1 0xC0 DUP8 ADD DUP8 PUSH2 0x2862 JUMP JUMPDEST SWAP1 POP GT ISZERO PUSH2 0x17A1 JUMPI PUSH1 0xA PUSH2 0x177B PUSH8 0xDE0B6B3A7640000 PUSH1 0x5 PUSH2 0x261E JUMP JUMPDEST PUSH2 0x1785 SWAP2 SWAP1 PUSH2 0x264B JUMP JUMPDEST PUSH2 0x1797 SWAP1 PUSH8 0xDE0B6B3A7640000 PUSH2 0x260B JUMP JUMPDEST PUSH1 0x20 DUP5 ADD MSTORE PUSH2 0x17B0 JUMP JUMPDEST PUSH8 0xDE0B6B3A7640000 PUSH1 0x20 DUP5 ADD MSTORE JUMPDEST PUSH1 0x0 PUSH2 0x17BF DUP7 PUSH1 0x80 ADD CALLDATALOAD PUSH2 0x1FC8 JUMP JUMPDEST SWAP1 POP PUSH1 0x1 DUP2 GT ISZERO PUSH2 0x1804 JUMPI PUSH1 0xA PUSH2 0x17DE DUP3 PUSH8 0xDE0B6B3A7640000 PUSH2 0x261E JUMP JUMPDEST PUSH2 0x17E8 SWAP2 SWAP1 PUSH2 0x264B JUMP JUMPDEST PUSH2 0x17FA SWAP1 PUSH8 0xDE0B6B3A7640000 PUSH2 0x260B JUMP JUMPDEST PUSH1 0x80 DUP6 ADD MSTORE PUSH2 0x1813 JUMP JUMPDEST PUSH8 0xDE0B6B3A7640000 PUSH1 0x80 DUP6 ADD MSTORE JUMPDEST POP POP PUSH8 0xDE0B6B3A7640000 PUSH1 0xA0 DUP4 ADD MSTORE POP SWAP3 SWAP2 POP POP JUMP JUMPDEST DUP1 MLOAD PUSH1 0x0 SWAP1 PUSH8 0xDE0B6B3A7640000 SWAP1 DUP2 SWAP1 PUSH2 0x1845 SWAP1 DUP3 PUSH2 0x261E JUMP JUMPDEST PUSH2 0x184F SWAP2 SWAP1 PUSH2 0x264B JUMP JUMPDEST SWAP1 POP PUSH8 0xDE0B6B3A7640000 DUP4 PUSH1 0x20 ADD MLOAD DUP3 PUSH2 0x186A SWAP2 SWAP1 PUSH2 0x261E JUMP JUMPDEST PUSH2 0x1874 SWAP2 SWAP1 PUSH2 0x264B JUMP JUMPDEST SWAP1 POP PUSH8 0xDE0B6B3A7640000 DUP4 PUSH1 0x40 ADD MLOAD DUP3 PUSH2 0x188F SWAP2 SWAP1 PUSH2 0x261E JUMP JUMPDEST PUSH2 0x1899 SWAP2 SWAP1 PUSH2 0x264B JUMP JUMPDEST SWAP1 POP PUSH8 0xDE0B6B3A7640000 DUP4 PUSH1 0x60 ADD MLOAD DUP3 PUSH2 0x18B4 SWAP2 SWAP1 PUSH2 0x261E JUMP JUMPDEST PUSH2 0x18BE SWAP2 SWAP1 PUSH2 0x264B JUMP JUMPDEST SWAP1 POP PUSH8 0xDE0B6B3A7640000 DUP4 PUSH1 0x80 ADD MLOAD DUP3 PUSH2 0x18D9 SWAP2 SWAP1 PUSH2 0x261E JUMP JUMPDEST PUSH2 0x18E3 SWAP2 SWAP1 PUSH2 0x264B JUMP JUMPDEST SWAP1 POP PUSH8 0xDE0B6B3A7640000 DUP4 PUSH1 0xA0 ADD MLOAD DUP3 PUSH2 0x18FE SWAP2 SWAP1 PUSH2 0x261E JUMP JUMPDEST PUSH2 0x1908 SWAP2 SWAP1 PUSH2 0x264B JUMP JUMPDEST SWAP4 SWAP3 POP POP POP JUMP JUMPDEST PUSH1 0x0 PUSH2 0x1924 PUSH8 0xDE0B6B3A7640000 PUSH1 0x14 PUSH2 0x261E JUMP JUMPDEST DUP3 GT ISZERO PUSH2 0x193E JUMPI PUSH2 0x5B7 PUSH8 0xDE0B6B3A7640000 PUSH1 0x14 PUSH2 0x261E JUMP JUMPDEST PUSH1 0xA PUSH2 0x1953 PUSH8 0xDE0B6B3A7640000 PUSH1 0x3 PUSH2 0x261E JUMP JUMPDEST PUSH2 0x195D SWAP2 SWAP1 PUSH2 0x264B JUMP JUMPDEST DUP3 LT ISZERO PUSH2 0x1983 JUMPI PUSH1 0xA PUSH2 0x1979 PUSH8 0xDE0B6B3A7640000 PUSH1 0x3 PUSH2 0x261E JUMP JUMPDEST PUSH2 0x5B7 SWAP2 SWAP1 PUSH2 0x264B JUMP JUMPDEST POP SWAP1 JUMP JUMPDEST PUSH1 0x80 DUP2 ADD CALLDATALOAD PUSH1 0x0 PUSH2 0x199B PUSH3 0x15180 TIMESTAMP PUSH2 0x264B JUMP JUMPDEST PUSH1 0x0 DUP4 DUP2 MSTORE PUSH1 0x6 PUSH1 0x20 MSTORE PUSH1 0x40 DUP2 KECCAK256 SLOAD SWAP2 SWAP3 POP SWAP1 PUSH2 0x19BC SWAP1 PUSH3 0x15180 SWAP1 PUSH2 0x264B JUMP JUMPDEST SWAP1 POP PUSH2 0x19C9 DUP2 PUSH1 0x1 PUSH2 0x260B JUMP JUMPDEST DUP3 SUB PUSH2 0x19F3 JUMPI PUSH1 0x0 DUP4 DUP2 MSTORE PUSH1 0x7 PUSH1 0x20 MSTORE PUSH1 0x40 DUP2 KECCAK256 DUP1 SLOAD SWAP2 PUSH2 0x19E9 DUP4 PUSH2 0x2690 JUMP JUMPDEST SWAP2 SWAP1 POP SSTORE POP PUSH2 0x1A0D JUMP JUMPDEST DUP1 DUP3 EQ PUSH2 0x1A0D JUMPI PUSH1 0x0 DUP4 DUP2 MSTORE PUSH1 0x7 PUSH1 0x20 MSTORE PUSH1 0x40 SWAP1 KECCAK256 PUSH1 0x1 SWAP1 SSTORE JUMPDEST PUSH1 0x1 PUSH1 0x8 PUSH1 0x0 DUP6 DUP2 MSTORE PUSH1 0x20 ADD SWAP1 DUP2 MSTORE PUSH1 0x20 ADD PUSH1 0x0 KECCAK256 PUSH1 0x0 DUP7 PUSH1 0x20 ADD PUSH1 0x20 DUP2 ADD SWAP1 PUSH2 0x1A37 SWAP2 SWAP1 PUSH2 0x265F JUMP JUMPDEST PUSH1 0xFF AND DUP2 MSTORE PUSH1 0x20 DUP1 DUP3 ADD SWAP3 SWAP1 SWAP3 MSTORE PUSH1 0x40 SWAP1 DUP2 ADD PUSH1 0x0 SWAP1 DUP2 KECCAK256 DUP1 SLOAD PUSH1 0xFF NOT AND SWAP5 ISZERO ISZERO SWAP5 SWAP1 SWAP5 OR SWAP1 SWAP4 SSTORE SWAP5 DUP3 MSTORE PUSH1 0x6 SWAP1 MSTORE SWAP3 SWAP1 SWAP3 KECCAK256 TIMESTAMP SWAP1 SSTORE POP POP POP JUMP JUMPDEST PUSH2 0x1A7A PUSH2 0x14E0 JUMP JUMPDEST PUSH1 0x2 DUP1 SLOAD PUSH1 0xFF NOT AND PUSH1 0x1 OR SWAP1 SSTORE PUSH32 0x62E78CEA01BEE320CD4E420270B5EA74000D11B0C9F74754EBDBFC544B05A258 PUSH2 0x146A CALLER SWAP1 JUMP JUMPDEST PUSH1 0x1 PUSH1 0x1 PUSH1 0xA0 SHL SUB DUP2 AND PUSH1 0x0 SWAP1 DUP2 MSTORE PUSH1 0xF PUSH1 0x20 SWAP1 DUP2 MSTORE PUSH1 0x40 DUP1 DUP4 KECCAK256 SLOAD PUSH1 0xE SWAP1 SWAP3 MSTORE DUP3 KECCAK256 SLOAD DUP3 SWAP1 PUSH2 0x1AE1 SWAP1 PUSH1 0xA SWAP1 PUSH2 0x264B JUMP JUMPDEST SWAP1 POP PUSH1 0x4 DUP3 LT PUSH2 0x1B09 JUMPI POP POP POP PUSH1 0x1 PUSH1 0x1 PUSH1 0xA0 SHL SUB AND PUSH1 0x0 SWAP1 DUP2 MSTORE PUSH1 0xE PUSH1 0x20 MSTORE PUSH1 0x40 SWAP1 KECCAK256 SLOAD SWAP1 JUMP JUMPDEST DUP2 PUSH1 0x3 SUB PUSH2 0x1B36 JUMPI PUSH1 0x1 PUSH1 0x1 PUSH1 0xA0 SHL SUB DUP5 AND PUSH1 0x0 SWAP1 DUP2 MSTORE PUSH1 0xE PUSH1 0x20 MSTORE PUSH1 0x40 SWAP1 KECCAK256 SLOAD PUSH2 0x1623 SWAP1 PUSH1 0x2 SWAP1 PUSH2 0x264B JUMP JUMPDEST DUP2 PUSH1 0x2 SUB PUSH2 0x1908 JUMPI PUSH1 0x1 PUSH1 0x1 PUSH1 0xA0 SHL SUB DUP5 AND PUSH1 0x0 SWAP1 DUP2 MSTORE PUSH1 0xE PUSH1 0x20 MSTORE PUSH1 0x40 SWAP1 KECCAK256 SLOAD PUSH2 0x1623 SWAP1 PUSH1 0x4 SWAP1 PUSH2 0x264B JUMP JUMPDEST PUSH1 0x0 DUP1 PUSH2 0x1B6F DUP4 PUSH2 0x1576 JUMP JUMPDEST SWAP1 POP PUSH1 0x0 PUSH2 0x1B7C DUP5 PUSH2 0x162B JUMP JUMPDEST SWAP1 POP PUSH1 0x0 PUSH2 0x1B91 PUSH2 0x1B8C DUP4 PUSH2 0x182A JUMP JUMPDEST PUSH2 0x190F JUMP JUMPDEST SWAP1 POP PUSH1 0x0 PUSH8 0xDE0B6B3A7640000 PUSH2 0x1BA8 DUP4 DUP7 PUSH2 0x261E JUMP JUMPDEST PUSH2 0x1BB2 SWAP2 SWAP1 PUSH2 0x264B JUMP JUMPDEST SWAP1 POP PUSH2 0x1BBD DUP7 PUSH2 0x1987 JUMP JUMPDEST PUSH1 0x0 PUSH1 0x4 DUP2 PUSH2 0x1BD2 PUSH1 0x40 DUP11 ADD PUSH1 0x20 DUP12 ADD PUSH2 0x265F JUMP JUMPDEST PUSH1 0xFF AND PUSH1 0x6 DUP2 GT ISZERO PUSH2 0x1BE6 JUMPI PUSH2 0x1BE6 PUSH2 0x267A JUMP JUMPDEST PUSH1 0x6 DUP2 GT ISZERO PUSH2 0x1BF7 JUMPI PUSH2 0x1BF7 PUSH2 0x267A JUMP JUMPDEST PUSH1 0x6 DUP2 GT ISZERO PUSH2 0x1C08 JUMPI PUSH2 0x1C08 PUSH2 0x267A JUMP JUMPDEST DUP2 MSTORE PUSH1 0x20 DUP2 ADD SWAP2 SWAP1 SWAP2 MSTORE PUSH1 0x40 ADD PUSH1 0x0 KECCAK256 SLOAD PUSH1 0x2 SLOAD PUSH1 0xFF SWAP1 SWAP2 AND SWAP2 POP PUSH2 0x100 SWAP1 DIV PUSH1 0x1 PUSH1 0x1 PUSH1 0xA0 SHL SUB AND PUSH4 0x4ED387B2 PUSH1 0x80 DUP10 ADD CALLDATALOAD PUSH1 0x40 MLOAD PUSH1 0x1 PUSH1 0x1 PUSH1 0xE0 SHL SUB NOT PUSH1 0xE0 DUP5 SWAP1 SHL AND DUP2 MSTORE PUSH1 0x1 PUSH1 0x1 PUSH1 0xA0 SHL SUB SWAP1 SWAP2 AND PUSH1 0x4 DUP3 ADD MSTORE PUSH1 0xFF DUP5 AND PUSH1 0x24 DUP3 ADD MSTORE PUSH1 0x44 DUP2 ADD DUP6 SWAP1 MSTORE PUSH1 0x64 ADD PUSH1 0x0 PUSH1 0x40 MLOAD DUP1 DUP4 SUB DUP2 PUSH1 0x0 DUP8 DUP1 EXTCODESIZE ISZERO DUP1 ISZERO PUSH2 0x1C8C JUMPI PUSH1 0x0 DUP1 REVERT JUMPDEST POP GAS CALL ISZERO DUP1 ISZERO PUSH2 0x1CA0 JUMPI RETURNDATASIZE PUSH1 0x0 DUP1 RETURNDATACOPY RETURNDATASIZE PUSH1 0x0 REVERT JUMPDEST POP PUSH2 0x1CB5 SWAP3 POP POP POP PUSH1 0x40 DUP9 ADD PUSH1 0x20 DUP10 ADD PUSH2 0x265F JUMP JUMPDEST PUSH1 0xFF AND DUP8 PUSH1 0x80 ADD CALLDATALOAD PUSH32 0xE1AEF7C7BD671E633C5732CE5A3B2ACE78DE3182B6DF7BABAB76E3A5279056D2 DUP5 DUP7 PUSH1 0x40 MLOAD PUSH2 0x1CF7 SWAP3 SWAP2 SWAP1 SWAP2 DUP3 MSTORE PUSH1 0x20 DUP3 ADD MSTORE PUSH1 0x40 ADD SWAP1 JUMP JUMPDEST PUSH1 0x40 MLOAD DUP1 SWAP2 SUB SWAP1 LOG3 POP SWAP6 SWAP5 POP POP POP POP POP JUMP JUMPDEST PUSH2 0x1D13 DUP3 DUP3 PUSH2 0x9DF JUMP JUMPDEST PUSH2 0x726 JUMPI PUSH2 0x1D20 DUP2 PUSH2 0x201D JUMP JUMPDEST PUSH2 0x1D2B DUP4 PUSH1 0x20 PUSH2 0x202F JUMP JUMPDEST PUSH1 0x40 MLOAD PUSH1 0x20 ADD PUSH2 0x1D3C SWAP3 SWAP2 SWAP1 PUSH2 0x28BD JUMP JUMPDEST PUSH1 0x40 DUP1 MLOAD PUSH1 0x1F NOT DUP2 DUP5 SUB ADD DUP2 MSTORE SWAP1 DUP3 SWAP1 MSTORE PUSH3 0x461BCD PUSH1 0xE5 SHL DUP3 MSTORE PUSH2 0x713 SWAP2 PUSH1 0x4 ADD PUSH2 0x2932 JUMP JUMPDEST PUSH1 0x2 SLOAD PUSH1 0xFF AND PUSH2 0x1526 JUMPI PUSH1 0x40 MLOAD PUSH3 0x461BCD PUSH1 0xE5 SHL DUP2 MSTORE PUSH1 0x20 PUSH1 0x4 DUP3 ADD MSTORE PUSH1 0x14 PUSH1 0x24 DUP3 ADD MSTORE PUSH20 0x14185D5CD8589B194E881B9BDD081C185D5CD959 PUSH1 0x62 SHL PUSH1 0x44 DUP3 ADD MSTORE PUSH1 0x64 ADD PUSH2 0x713 JUMP JUMPDEST PUSH1 0x0 PUSH3 0xF4240 DUP3 LT PUSH2 0x1DBF JUMPI POP PUSH1 0x6 SWAP2 SWAP1 POP JUMP JUMPDEST PUSH3 0x186A0 DUP3 LT PUSH2 0x1DD1 JUMPI POP PUSH1 0x5 SWAP2 SWAP1 POP JUMP JUMPDEST PUSH2 0x2710 DUP3 LT PUSH2 0x1DE2 JUMPI POP PUSH1 0x4 SWAP2 SWAP1 POP JUMP JUMPDEST PUSH2 0x3E8 DUP3 LT PUSH2 0x1DF3 JUMPI POP PUSH1 0x3 SWAP2 SWAP1 POP JUMP JUMPDEST PUSH1 0x64 DUP3 LT PUSH2 0x1E03 JUMPI POP PUSH1 0x2 SWAP2 SWAP1 POP JUMP JUMPDEST PUSH1 0xA DUP3 LT PUSH2 0x1E13 JUMPI POP PUSH1 0x1 SWAP2 SWAP1 POP JUMP JUMPDEST POP PUSH1 0x0 SWAP2 SWAP1 POP JUMP JUMPDEST PUSH1 0x0 PUSH1 0x4 DUP3 LT ISZERO DUP1 ISZERO PUSH2 0x1E2F JUMPI POP PUSH1 0x8 DUP3 GT ISZERO JUMPDEST ISZERO PUSH2 0x1E49 JUMPI PUSH1 0xA PUSH2 0x1979 PUSH8 0xDE0B6B3A7640000 PUSH1 0xD PUSH2 0x261E JUMP JUMPDEST PUSH1 0x10 DUP3 LT ISZERO DUP1 ISZERO PUSH2 0x1E5B JUMPI POP PUSH1 0x14 DUP3 GT ISZERO JUMPDEST ISZERO PUSH2 0x1E75 JUMPI PUSH1 0xA PUSH2 0x1979 PUSH8 0xDE0B6B3A7640000 PUSH1 0x7 PUSH2 0x261E JUMP JUMPDEST POP PUSH8 0xDE0B6B3A7640000 SWAP2 SWAP1 POP JUMP JUMPDEST PUSH1 0x0 DUP2 DUP2 MSTORE PUSH1 0x9 PUSH1 0x20 MSTORE PUSH1 0x40 DUP2 KECCAK256 SLOAD PUSH8 0xDE0B6B3A7640000 SWAP1 DUP1 DUP4 SUB PUSH2 0x1EAB JUMPI POP SWAP3 SWAP2 POP POP JUMP JUMPDEST PUSH1 0x1 JUMPDEST PUSH1 0xC SLOAD PUSH1 0xFF SWAP1 DUP2 AND SWAP1 DUP3 AND GT PUSH2 0x1F85 JUMPI PUSH1 0x0 DUP6 DUP2 MSTORE PUSH1 0xA PUSH1 0x20 SWAP1 DUP2 MSTORE PUSH1 0x40 DUP1 DUP4 KECCAK256 PUSH1 0xFF DUP1 DUP7 AND DUP6 MSTORE SWAP3 MSTORE SWAP1 SWAP2 KECCAK256 PUSH1 0x3 ADD SLOAD AND ISZERO PUSH2 0x1F73 JUMPI PUSH1 0x0 DUP6 DUP2 MSTORE PUSH1 0xA PUSH1 0x20 DUP2 DUP2 MSTORE PUSH1 0x40 DUP1 DUP5 KECCAK256 PUSH1 0xFF DUP7 AND DUP6 MSTORE SWAP1 SWAP2 MSTORE DUP3 KECCAK256 PUSH1 0x1 SWAP1 DUP2 ADD SLOAD SWAP3 SWAP2 SWAP1 PUSH2 0x1F14 SWAP1 DUP6 PUSH2 0x2945 JUMP JUMPDEST PUSH2 0x1F29 SWAP1 PUSH1 0xFF AND PUSH8 0xDE0B6B3A7640000 PUSH2 0x261E JUMP JUMPDEST PUSH2 0x1F33 SWAP2 SWAP1 PUSH2 0x264B JUMP JUMPDEST PUSH2 0x1F45 SWAP1 PUSH8 0xDE0B6B3A7640000 PUSH2 0x26A9 JUMP JUMPDEST SWAP1 POP PUSH8 0xDE0B6B3A7640000 PUSH2 0x1F5A DUP3 DUP5 PUSH2 0x261E JUMP JUMPDEST PUSH2 0x1F64 SWAP2 SWAP1 PUSH2 0x264B JUMP JUMPDEST PUSH2 0x1F6E SWAP1 DUP7 PUSH2 0x260B JUMP JUMPDEST SWAP5 POP POP POP JUMPDEST DUP1 PUSH2 0x1F7D DUP2 PUSH2 0x295E JUMP JUMPDEST SWAP2 POP POP PUSH2 0x1EAE JUMP JUMPDEST POP PUSH1 0xA PUSH2 0x1F9B PUSH8 0xDE0B6B3A7640000 PUSH1 0xF PUSH2 0x261E JUMP JUMPDEST PUSH2 0x1FA5 SWAP2 SWAP1 PUSH2 0x264B JUMP JUMPDEST DUP3 GT ISZERO PUSH2 0x1FC1 JUMPI PUSH1 0xA PUSH2 0x1619 PUSH8 0xDE0B6B3A7640000 PUSH1 0xF PUSH2 0x261E JUMP JUMPDEST POP SWAP3 SWAP2 POP POP JUMP JUMPDEST PUSH1 0x0 DUP1 DUP1 JUMPDEST PUSH1 0x7 DUP2 PUSH1 0xFF AND LT ISZERO PUSH2 0x1FC1 JUMPI PUSH1 0x0 DUP5 DUP2 MSTORE PUSH1 0x8 PUSH1 0x20 SWAP1 DUP2 MSTORE PUSH1 0x40 DUP1 DUP4 KECCAK256 PUSH1 0xFF DUP1 DUP7 AND DUP6 MSTORE SWAP3 MSTORE SWAP1 SWAP2 KECCAK256 SLOAD AND ISZERO PUSH2 0x200B JUMPI DUP2 PUSH2 0x2007 DUP2 PUSH2 0x2690 JUMP JUMPDEST SWAP3 POP POP JUMPDEST DUP1 PUSH2 0x2015 DUP2 PUSH2 0x295E JUMP JUMPDEST SWAP2 POP POP PUSH2 0x1FCD JUMP JUMPDEST PUSH1 0x60 PUSH2 0x5B7 PUSH1 0x1 PUSH1 0x1 PUSH1 0xA0 SHL SUB DUP4 AND PUSH1 0x14 JUMPDEST PUSH1 0x60 PUSH1 0x0 PUSH2 0x203E DUP4 PUSH1 0x2 PUSH2 0x261E JUMP JUMPDEST PUSH2 0x2049 SWAP1 PUSH1 0x2 PUSH2 0x260B JUMP JUMPDEST PUSH8 0xFFFFFFFFFFFFFFFF DUP2 GT ISZERO PUSH2 0x2061 JUMPI PUSH2 0x2061 PUSH2 0x2306 JUMP JUMPDEST PUSH1 0x40 MLOAD SWAP1 DUP1 DUP3 MSTORE DUP1 PUSH1 0x1F ADD PUSH1 0x1F NOT AND PUSH1 0x20 ADD DUP3 ADD PUSH1 0x40 MSTORE DUP1 ISZERO PUSH2 0x208B JUMPI PUSH1 0x20 DUP3 ADD DUP2 DUP1 CALLDATASIZE DUP4 CALLDATACOPY ADD SWAP1 POP JUMPDEST POP SWAP1 POP PUSH1 0x3 PUSH1 0xFC SHL DUP2 PUSH1 0x0 DUP2 MLOAD DUP2 LT PUSH2 0x20A6 JUMPI PUSH2 0x20A6 PUSH2 0x282C JUMP JUMPDEST PUSH1 0x20 ADD ADD SWAP1 PUSH1 0x1 PUSH1 0x1 PUSH1 0xF8 SHL SUB NOT AND SWAP1 DUP2 PUSH1 0x0 BYTE SWAP1 MSTORE8 POP PUSH1 0xF PUSH1 0xFB SHL DUP2 PUSH1 0x1 DUP2 MLOAD DUP2 LT PUSH2 0x20D5 JUMPI PUSH2 0x20D5 PUSH2 0x282C JUMP JUMPDEST PUSH1 0x20 ADD ADD SWAP1 PUSH1 0x1 PUSH1 0x1 PUSH1 0xF8 SHL SUB NOT AND SWAP1 DUP2 PUSH1 0x0 BYTE SWAP1 MSTORE8 POP PUSH1 0x0 PUSH2 0x20F9 DUP5 PUSH1 0x2 PUSH2 0x261E JUMP JUMPDEST PUSH2 0x2104 SWAP1 PUSH1 0x1 PUSH2 0x260B JUMP JUMPDEST SWAP1 POP JUMPDEST PUSH1 0x1 DUP2 GT ISZERO PUSH2 0x217C JUMPI PUSH16 0x181899199A1A9B1B9C1CB0B131B232B3 PUSH1 0x81 SHL DUP6 PUSH1 0xF AND PUSH1 0x10 DUP2 LT PUSH2 0x2138 JUMPI PUSH2 0x2138 PUSH2 0x282C JUMP JUMPDEST BYTE PUSH1 0xF8 SHL DUP3 DUP3 DUP2 MLOAD DUP2 LT PUSH2 0x214E JUMPI PUSH2 0x214E PUSH2 0x282C JUMP JUMPDEST PUSH1 0x20 ADD ADD SWAP1 PUSH1 0x1 PUSH1 0x1 PUSH1 0xF8 SHL SUB NOT AND SWAP1 DUP2 PUSH1 0x0 BYTE SWAP1 MSTORE8 POP PUSH1 0x4 SWAP5 SWAP1 SWAP5 SHR SWAP4 PUSH2 0x2175 DUP2 PUSH2 0x297D JUMP JUMPDEST SWAP1 POP PUSH2 0x2107 JUMP JUMPDEST POP DUP4 ISZERO PUSH2 0x1908 JUMPI PUSH1 0x40 MLOAD PUSH3 0x461BCD PUSH1 0xE5 SHL DUP2 MSTORE PUSH1 0x20 PUSH1 0x4 DUP3 ADD DUP2 SWAP1 MSTORE PUSH1 0x24 DUP3 ADD MSTORE PUSH32 0x537472696E67733A20686578206C656E67746820696E73756666696369656E74 PUSH1 0x44 DUP3 ADD MSTORE PUSH1 0x64 ADD PUSH2 0x713 JUMP JUMPDEST PUSH1 0x0 PUSH1 0x20 DUP3 DUP5 SUB SLT ISZERO PUSH2 0x21DD JUMPI PUSH1 0x0 DUP1 REVERT JUMPDEST DUP2 CALLDATALOAD PUSH1 0x1 PUSH1 0x1 PUSH1 0xE0 SHL SUB NOT DUP2 AND DUP2 EQ PUSH2 0x1908 JUMPI PUSH1 0x0 DUP1 REVERT JUMPDEST DUP1 CALLDATALOAD PUSH1 0xFF DUP2 AND DUP2 EQ PUSH2 0x9C7 JUMPI PUSH1 0x0 DUP1 REVERT JUMPDEST PUSH1 0x0 DUP1 PUSH1 0x40 DUP4 DUP6 SUB SLT ISZERO PUSH2 0x2219 JUMPI PUSH1 0x0 DUP1 REVERT JUMPDEST DUP3 CALLDATALOAD SWAP2 POP PUSH2 0x2229 PUSH1 0x20 DUP5 ADD PUSH2 0x21F5 JUMP JUMPDEST SWAP1 POP SWAP3 POP SWAP3 SWAP1 POP JUMP JUMPDEST PUSH1 0x0 JUMPDEST DUP4 DUP2 LT ISZERO PUSH2 0x224D JUMPI DUP2 DUP2 ADD MLOAD DUP4 DUP3 ADD MSTORE PUSH1 0x20 ADD PUSH2 0x2235 JUMP JUMPDEST POP POP PUSH1 0x0 SWAP2 ADD MSTORE JUMP JUMPDEST PUSH1 0x0 DUP2 MLOAD DUP1 DUP5 MSTORE PUSH2 0x226E DUP2 PUSH1 0x20 DUP7 ADD PUSH1 0x20 DUP7 ADD PUSH2 0x2232 JUMP JUMPDEST PUSH1 0x1F ADD PUSH1 0x1F NOT AND SWAP3 SWAP1 SWAP3 ADD PUSH1 0x20 ADD SWAP3 SWAP2 POP POP JUMP JUMPDEST PUSH1 0x80 DUP2 MSTORE PUSH1 0x0 PUSH2 0x2295 PUSH1 0x80 DUP4 ADD DUP8 PUSH2 0x2256 JUMP JUMPDEST PUSH1 0x20 DUP4 ADD SWAP6 SWAP1 SWAP6 MSTORE POP PUSH1 0x40 DUP2 ADD SWAP3 SWAP1 SWAP3 MSTORE ISZERO ISZERO PUSH1 0x60 SWAP1 SWAP2 ADD MSTORE SWAP2 SWAP1 POP JUMP JUMPDEST PUSH1 0x0 PUSH1 0x20 DUP3 DUP5 SUB SLT ISZERO PUSH2 0x22C5 JUMPI PUSH1 0x0 DUP1 REVERT JUMPDEST POP CALLDATALOAD SWAP2 SWAP1 POP JUMP JUMPDEST DUP1 CALLDATALOAD PUSH1 0x1 PUSH1 0x1 PUSH1 0xA0 SHL SUB DUP2 AND DUP2 EQ PUSH2 0x9C7 JUMPI PUSH1 0x0 DUP1 REVERT JUMPDEST PUSH1 0x0 DUP1 PUSH1 0x40 DUP4 DUP6 SUB SLT ISZERO PUSH2 0x22F6 JUMPI PUSH1 0x0 DUP1 REVERT JUMPDEST DUP3 CALLDATALOAD SWAP2 POP PUSH2 0x2229 PUSH1 0x20 DUP5 ADD PUSH2 0x22CC JUMP JUMPDEST PUSH4 0x4E487B71 PUSH1 0xE0 SHL PUSH1 0x0 MSTORE PUSH1 0x41 PUSH1 0x4 MSTORE PUSH1 0x24 PUSH1 0x0 REVERT JUMPDEST PUSH1 0x0 PUSH1 0x20 DUP3 DUP5 SUB SLT ISZERO PUSH2 0x232E JUMPI PUSH1 0x0 DUP1 REVERT JUMPDEST DUP2 CALLDATALOAD PUSH8 0xFFFFFFFFFFFFFFFF DUP1 DUP3 GT ISZERO PUSH2 0x2346 JUMPI PUSH1 0x0 DUP1 REVERT JUMPDEST DUP2 DUP5 ADD SWAP2 POP DUP5 PUSH1 0x1F DUP4 ADD SLT PUSH2 0x235A JUMPI PUSH1 0x0 DUP1 REVERT JUMPDEST DUP2 CALLDATALOAD DUP2 DUP2 GT ISZERO PUSH2 0x236C JUMPI PUSH2 0x236C PUSH2 0x2306 JUMP JUMPDEST PUSH1 0x40 MLOAD PUSH1 0x1F DUP3 ADD PUSH1 0x1F NOT SWAP1 DUP2 AND PUSH1 0x3F ADD AND DUP2 ADD SWAP1 DUP4 DUP3 GT DUP2 DUP4 LT OR ISZERO PUSH2 0x2394 JUMPI PUSH2 0x2394 PUSH2 0x2306 JUMP JUMPDEST DUP2 PUSH1 0x40 MSTORE DUP3 DUP2 MSTORE DUP8 PUSH1 0x20 DUP5 DUP8 ADD ADD GT ISZERO PUSH2 0x23AD JUMPI PUSH1 0x0 DUP1 REVERT JUMPDEST DUP3 PUSH1 0x20 DUP7 ADD PUSH1 0x20 DUP4 ADD CALLDATACOPY PUSH1 0x0 SWAP3 DUP2 ADD PUSH1 0x20 ADD SWAP3 SWAP1 SWAP3 MSTORE POP SWAP6 SWAP5 POP POP POP POP POP JUMP JUMPDEST PUSH1 0x0 PUSH1 0x20 DUP3 DUP5 SUB SLT ISZERO PUSH2 0x23DF JUMPI PUSH1 0x0 DUP1 REVERT JUMPDEST PUSH2 0x1908 DUP3 PUSH2 0x22CC JUMP JUMPDEST PUSH1 0x0 PUSH1 0x20 DUP3 DUP5 SUB SLT ISZERO PUSH2 0x23FA JUMPI PUSH1 0x0 DUP1 REVERT JUMPDEST DUP2 CALLDATALOAD PUSH8 0xFFFFFFFFFFFFFFFF DUP2 GT ISZERO PUSH2 0x2411 JUMPI PUSH1 0x0 DUP1 REVERT JUMPDEST DUP3 ADD PUSH1 0xE0 DUP2 DUP6 SUB SLT ISZERO PUSH2 0x1908 JUMPI PUSH1 0x0 DUP1 REVERT JUMPDEST DUP1 CALLDATALOAD PUSH1 0x7 DUP2 LT PUSH2 0x9C7 JUMPI PUSH1 0x0 DUP1 REVERT JUMPDEST PUSH1 0x0 PUSH1 0x20 DUP3 DUP5 SUB SLT ISZERO PUSH2 0x2444 JUMPI PUSH1 0x0 DUP1 REVERT JUMPDEST PUSH2 0x1908 DUP3 PUSH2 0x2423 JUMP JUMPDEST PUSH1 0x0 DUP1 DUP4 PUSH1 0x1F DUP5 ADD SLT PUSH2 0x245F JUMPI PUSH1 0x0 DUP1 REVERT JUMPDEST POP DUP2 CALLDATALOAD PUSH8 0xFFFFFFFFFFFFFFFF DUP2 GT ISZERO PUSH2 0x2477 JUMPI PUSH1 0x0 DUP1 REVERT JUMPDEST PUSH1 0x20 DUP4 ADD SWAP2 POP DUP4 PUSH1 0x20 DUP3 DUP6 ADD ADD GT ISZERO PUSH2 0x248F JUMPI PUSH1 0x0 DUP1 REVERT JUMPDEST SWAP3 POP SWAP3 SWAP1 POP JUMP JUMPDEST PUSH1 0x0 DUP1 PUSH1 0x0 PUSH1 0x40 DUP5 DUP7 SUB SLT ISZERO PUSH2 0x24AB JUMPI PUSH1 0x0 DUP1 REVERT JUMPDEST PUSH2 0x24B4 DUP5 PUSH2 0x22CC JUMP JUMPDEST SWAP3 POP PUSH1 0x20 DUP5 ADD CALLDATALOAD PUSH8 0xFFFFFFFFFFFFFFFF DUP2 GT ISZERO PUSH2 0x24D0 JUMPI PUSH1 0x0 DUP1 REVERT JUMPDEST PUSH2 0x24DC DUP7 DUP3 DUP8 ADD PUSH2 0x244D JUMP JUMPDEST SWAP5 SWAP8 SWAP1 SWAP7 POP SWAP4 SWAP5 POP POP POP POP JUMP JUMPDEST PUSH1 0x0 DUP1 PUSH1 0x0 PUSH1 0x40 DUP5 DUP7 SUB SLT ISZERO PUSH2 0x24FE JUMPI PUSH1 0x0 DUP1 REVERT JUMPDEST DUP4 CALLDATALOAD SWAP3 POP PUSH1 0x20 DUP5 ADD CALLDATALOAD PUSH8 0xFFFFFFFFFFFFFFFF DUP2 GT ISZERO PUSH2 0x24D0 JUMPI PUSH1 0x0 DUP1 REVERT JUMPDEST PUSH1 0x0 DUP1 PUSH1 0x40 DUP4 DUP6 SUB SLT ISZERO PUSH2 0x252F JUMPI PUSH1 0x0 DUP1 REVERT JUMPDEST PUSH2 0x2538 DUP4 PUSH2 0x2423 JUMP JUMPDEST SWAP5 PUSH1 0x20 SWAP4 SWAP1 SWAP4 ADD CALLDATALOAD SWAP4 POP POP POP JUMP JUMPDEST PUSH1 0x0 DUP1 PUSH1 0x20 DUP4 DUP6 SUB SLT ISZERO PUSH2 0x2559 JUMPI PUSH1 0x0 DUP1 REVERT JUMPDEST DUP3 CALLDATALOAD PUSH8 0xFFFFFFFFFFFFFFFF DUP1 DUP3 GT ISZERO PUSH2 0x2571 JUMPI PUSH1 0x0 DUP1 REVERT JUMPDEST DUP2 DUP6 ADD SWAP2 POP DUP6 PUSH1 0x1F DUP4 ADD SLT PUSH2 0x2585 JUMPI PUSH1 0x0 DUP1 REVERT JUMPDEST DUP2 CALLDATALOAD DUP2 DUP2 GT ISZERO PUSH2 0x2594 JUMPI PUSH1 0x0 DUP1 REVERT JUMPDEST DUP7 PUSH1 0x20 DUP3 PUSH1 0x5 SHL DUP6 ADD ADD GT ISZERO PUSH2 0x25A9 JUMPI PUSH1 0x0 DUP1 REVERT JUMPDEST PUSH1 0x20 SWAP3 SWAP1 SWAP3 ADD SWAP7 SWAP2 SWAP6 POP SWAP1 SWAP4 POP POP POP POP JUMP JUMPDEST PUSH1 0x1 DUP2 DUP2 SHR SWAP1 DUP3 AND DUP1 PUSH2 0x25CF JUMPI PUSH1 0x7F DUP3 AND SWAP2 POP JUMPDEST PUSH1 0x20 DUP3 LT DUP2 SUB PUSH2 0x25EF JUMPI PUSH4 0x4E487B71 PUSH1 0xE0 SHL PUSH1 0x0 MSTORE PUSH1 0x22 PUSH1 0x4 MSTORE PUSH1 0x24 PUSH1 0x0 REVERT JUMPDEST POP SWAP2 SWAP1 POP JUMP JUMPDEST PUSH4 0x4E487B71 PUSH1 0xE0 SHL PUSH1 0x0 MSTORE PUSH1 0x11 PUSH1 0x4 MSTORE PUSH1 0x24 PUSH1 0x0 REVERT JUMPDEST DUP1 DUP3 ADD DUP1 DUP3 GT ISZERO PUSH2 0x5B7 JUMPI PUSH2 0x5B7 PUSH2 0x25F5 JUMP JUMPDEST DUP1 DUP3 MUL DUP2 ISZERO DUP3 DUP3 DIV DUP5 EQ OR PUSH2 0x5B7 JUMPI PUSH2 0x5B7 PUSH2 0x25F5 JUMP JUMPDEST PUSH4 0x4E487B71 PUSH1 0xE0 SHL PUSH1 0x0 MSTORE PUSH1 0x12 PUSH1 0x4 MSTORE PUSH1 0x24 PUSH1 0x0 REVERT JUMPDEST PUSH1 0x0 DUP3 PUSH2 0x265A JUMPI PUSH2 0x265A PUSH2 0x2635 JUMP JUMPDEST POP DIV SWAP1 JUMP JUMPDEST PUSH1 0x0 PUSH1 0x20 DUP3 DUP5 SUB SLT ISZERO PUSH2 0x2671 JUMPI PUSH1 0x0 DUP1 REVERT JUMPDEST PUSH2 0x1908 DUP3 PUSH2 0x21F5 JUMP JUMPDEST PUSH4 0x4E487B71 PUSH1 0xE0 SHL PUSH1 0x0 MSTORE PUSH1 0x21 PUSH1 0x4 MSTORE PUSH1 0x24 PUSH1 0x0 REVERT JUMPDEST PUSH1 0x0 PUSH1 0x1 DUP3 ADD PUSH2 0x26A2 JUMPI PUSH2 0x26A2 PUSH2 0x25F5 JUMP JUMPDEST POP PUSH1 0x1 ADD SWAP1 JUMP JUMPDEST DUP2 DUP2 SUB DUP2 DUP2 GT ISZERO PUSH2 0x5B7 JUMPI PUSH2 0x5B7 PUSH2 0x25F5 JUMP JUMPDEST DUP2 DUP4 MSTORE DUP2 DUP2 PUSH1 0x20 DUP6 ADD CALLDATACOPY POP PUSH1 0x0 DUP3 DUP3 ADD PUSH1 0x20 SWAP1 DUP2 ADD SWAP2 SWAP1 SWAP2 MSTORE PUSH1 0x1F SWAP1 SWAP2 ADD PUSH1 0x1F NOT AND SWAP1 SWAP2 ADD ADD SWAP1 JUMP JUMPDEST DUP4 DUP2 MSTORE PUSH1 0x40 PUSH1 0x20 DUP3 ADD MSTORE PUSH1 0x0 PUSH2 0x26FF PUSH1 0x40 DUP4 ADD DUP5 DUP7 PUSH2 0x26BC JUMP JUMPDEST SWAP6 SWAP5 POP POP POP POP POP JUMP JUMPDEST DUP2 DUP4 DUP3 CALLDATACOPY PUSH1 0x0 SWAP2 ADD SWAP1 DUP2 MSTORE SWAP2 SWAP1 POP JUMP JUMPDEST PUSH1 0x1 DUP2 DUP2 JUMPDEST DUP1 DUP6 GT ISZERO PUSH2 0x2753 JUMPI DUP2 PUSH1 0x0 NOT DIV DUP3 GT ISZERO PUSH2 0x2739 JUMPI PUSH2 0x2739 PUSH2 0x25F5 JUMP JUMPDEST DUP1 DUP6 AND ISZERO PUSH2 0x2746 JUMPI SWAP2 DUP2 MUL SWAP2 JUMPDEST SWAP4 DUP5 SHR SWAP4 SWAP1 DUP1 MUL SWAP1 PUSH2 0x271D JUMP JUMPDEST POP SWAP3 POP SWAP3 SWAP1 POP JUMP JUMPDEST PUSH1 0x0 DUP3 PUSH2 0x276A JUMPI POP PUSH1 0x1 PUSH2 0x5B7 JUMP JUMPDEST DUP2 PUSH2 0x2777 JUMPI POP PUSH1 0x0 PUSH2 0x5B7 JUMP JUMPDEST DUP2 PUSH1 0x1 DUP2 EQ PUSH2 0x278D JUMPI PUSH1 0x2 DUP2 EQ PUSH2 0x2797 JUMPI PUSH2 0x27B3 JUMP JUMPDEST PUSH1 0x1 SWAP2 POP POP PUSH2 0x5B7 JUMP JUMPDEST PUSH1 0xFF DUP5 GT ISZERO PUSH2 0x27A8 JUMPI PUSH2 0x27A8 PUSH2 0x25F5 JUMP JUMPDEST POP POP PUSH1 0x1 DUP3 SHL PUSH2 0x5B7 JUMP JUMPDEST POP PUSH1 0x20 DUP4 LT PUSH2 0x133 DUP4 LT AND PUSH1 0x4E DUP5 LT PUSH1 0xB DUP5 LT AND OR ISZERO PUSH2 0x27D6 JUMPI POP DUP2 DUP2 EXP PUSH2 0x5B7 JUMP JUMPDEST PUSH2 0x27E0 DUP4 DUP4 PUSH2 0x2718 JUMP JUMPDEST DUP1 PUSH1 0x0 NOT DIV DUP3 GT ISZERO PUSH2 0x27F4 JUMPI PUSH2 0x27F4 PUSH2 0x25F5 JUMP JUMPDEST MUL SWAP4 SWAP3 POP POP POP JUMP JUMPDEST PUSH1 0x0 PUSH2 0x1908 DUP4 DUP4 PUSH2 0x275B JUMP JUMPDEST PUSH1 0x40 DUP2 MSTORE PUSH1 0x0 PUSH2 0x281C PUSH1 0x40 DUP4 ADD DUP6 DUP8 PUSH2 0x26BC JUMP JUMPDEST SWAP1 POP DUP3 PUSH1 0x20 DUP4 ADD MSTORE SWAP5 SWAP4 POP POP POP POP JUMP JUMPDEST PUSH4 0x4E487B71 PUSH1 0xE0 SHL PUSH1 0x0 MSTORE PUSH1 0x32 PUSH1 0x4 MSTORE PUSH1 0x24 PUSH1 0x0 REVERT JUMPDEST PUSH1 0x0 DUP3 CALLDATALOAD PUSH1 0xDE NOT DUP4 CALLDATASIZE SUB ADD DUP2 SLT PUSH2 0x2858 JUMPI PUSH1 0x0 DUP1 REVERT JUMPDEST SWAP2 SWAP1 SWAP2 ADD SWAP3 SWAP2 POP POP JUMP JUMPDEST PUSH1 0x0 DUP1 DUP4 CALLDATALOAD PUSH1 0x1E NOT DUP5 CALLDATASIZE SUB ADD DUP2 SLT PUSH2 0x2879 JUMPI PUSH1 0x0 DUP1 REVERT JUMPDEST DUP4 ADD DUP1 CALLDATALOAD SWAP2 POP PUSH8 0xFFFFFFFFFFFFFFFF DUP3 GT ISZERO PUSH2 0x2894 JUMPI PUSH1 0x0 DUP1 REVERT JUMPDEST PUSH1 0x20 ADD SWAP2 POP CALLDATASIZE DUP2 SWAP1 SUB DUP3 SGT ISZERO PUSH2 0x248F JUMPI PUSH1 0x0 DUP1 REVERT JUMPDEST PUSH1 0x0 DUP3 PUSH2 0x28B8 JUMPI PUSH2 0x28B8 PUSH2 0x2635 JUMP JUMPDEST POP MOD SWAP1 JUMP JUMPDEST PUSH32 0x416363657373436F6E74726F6C3A206163636F756E7420000000000000000000 DUP2 MSTORE PUSH1 0x0 DUP4 MLOAD PUSH2 0x28F5 DUP2 PUSH1 0x17 DUP6 ADD PUSH1 0x20 DUP9 ADD PUSH2 0x2232 JUMP JUMPDEST PUSH17 0x1034B99036B4B9B9B4B733903937B6329 PUSH1 0x7D SHL PUSH1 0x17 SWAP2 DUP5 ADD SWAP2 DUP3 ADD MSTORE DUP4 MLOAD PUSH2 0x2926 DUP2 PUSH1 0x28 DUP5 ADD PUSH1 0x20 DUP9 ADD PUSH2 0x2232 JUMP JUMPDEST ADD PUSH1 0x28 ADD SWAP5 SWAP4 POP POP POP POP JUMP JUMPDEST PUSH1 0x20 DUP2 MSTORE PUSH1 0x0 PUSH2 0x1908 PUSH1 0x20 DUP4 ADD DUP5 PUSH2 0x2256 JUMP JUMPDEST PUSH1 0xFF DUP3 DUP2 AND DUP3 DUP3 AND SUB SWAP1 DUP2 GT ISZERO PUSH2 0x5B7 JUMPI PUSH2 0x5B7 PUSH2 0x25F5 JUMP JUMPDEST PUSH1 0x0 PUSH1 0xFF DUP3 AND PUSH1 0xFF DUP2 SUB PUSH2 0x2974 JUMPI PUSH2 0x2974 PUSH2 0x25F5 JUMP JUMPDEST PUSH1 0x1 ADD SWAP3 SWAP2 POP POP JUMP JUMPDEST PUSH1 0x0 DUP2 PUSH2 0x298C JUMPI PUSH2 0x298C PUSH2 0x25F5 JUMP JUMPDEST POP PUSH1 0x0 NOT ADD SWAP1 JUMP INVALID PUSH28 0x98B41C1B69918066115C47A3FABEA25B5765269638096B0143B9EE26 CALLDATACOPY CALLDATACOPY 0xBE LOG2 PUSH5 0x6970667358 0x22 SLT KECCAK256 SLT 0xBE 0xE 0xE6 0xC1 DUP7 0xA9 0xAC CALLDATALOAD PUSH25 0xE6535B56138C6FF41265FECC213F60BDC5F1C778D99A64736F PUSH13 0x63430008130033000000000000 "},"methodIdentifiers":{"APP_ROLE()":"7ecd66f8","DEFAULT_ADMIN_ROLE()":"a217fddf","ORACLE_ROLE()":"07e2cea5","VERIFIER_ROLE()":"e7705db6","activityToSpecies(uint8)":"aff97a31","appStakes(address)":"931433fd","appViolations(address)":"674e9147","autophageToken()":"141c5728","baseRewards(uint8)":"a99d6405","batchVerifyAndMint((bytes32,uint8,uint256,uint256,bytes32,bytes,bytes)[])":"f68f224a","dailyActivities(bytes32,uint8)":"b1e3c1a9","evolveGeneticTrait(bytes32,string)":"aaa0e518","geneticTraitCount(bytes32)":"bb453b32","getRoleAdmin(bytes32)":"248a9ca3","grantRole(bytes32,address)":"2f2ff15d","hasRole(bytes32,address)":"91d14854","lastActivityTimestamp(bytes32)":"ba7c8df6","nextTraitId()":"6275f8a3","pause()":"8456cb59","paused()":"5c975abb","registerApp(uint256)":"ad3915c8","registeredApps(address)":"a6c4cce9","renounceRole(bytes32,address)":"36568abe","reservoir()":"151e6aa5","revokeRole(bytes32,address)":"d547741f","slashApp(address,string)":"a9adcaa1","streakCount(bytes32)":"cb8cd719","supportsInterface(bytes4)":"01ffc9a7","traitNameToId(string)":"33d66609","unpause()":"3f4ba83a","updateBaseReward(uint8,uint256)":"c385d2f3","userTraits(bytes32,uint8)":"16dc8062","verifyAndMint((bytes32,uint8,uint256,uint256,bytes32,bytes,bytes))":"83fd49a7"}}}}}