{"contracts/ReservoirContract.sol":{"ReservoirContract":{"abi":[{"inputs":[{"internalType":"address","name":"_token","type":"address"},{"internalType":"address","name":"_usdc","type":"address"}],"stateMutability":"nonpayable","type":"constructor"},{"anonymous":false,"inputs":[{"indexed":true,"internalType":"uint256","name":"claimId","type":"uint256"},{"indexed":false,"internalType":"uint256","name":"amount","type":"uint256"}],"name":"HealthcareClaimProcessed","type":"event"},{"anonymous":false,"inputs":[{"indexed":true,"internalType":"uint256","name":"claimId","type":"uint256"},{"indexed":true,"internalType":"address","name":"claimant","type":"address"},{"indexed":false,"internalType":"uint256","name":"amount","type":"uint256"}],"name":"HealthcareClaimSubmitted","type":"event"},{"anonymous":false,"inputs":[{"indexed":false,"internalType":"uint256","name":"newPrice","type":"uint256"}],"name":"MetabolicPriceUpdate","type":"event"},{"anonymous":false,"inputs":[{"indexed":true,"internalType":"bytes32","name":"role","type":"bytes32"},{"indexed":true,"internalType":"bytes32","name":"previousAdminRole","type":"bytes32"},{"indexed":true,"internalType":"bytes32","name":"newAdminRole","type":"bytes32"}],"name":"RoleAdminChanged","type":"event"},{"anonymous":false,"inputs":[{"indexed":true,"internalType":"bytes32","name":"role","type":"bytes32"},{"indexed":true,"internalType":"address","name":"account","type":"address"},{"indexed":true,"internalType":"address","name":"sender","type":"address"}],"name":"RoleGranted","type":"event"},{"anonymous":false,"inputs":[{"indexed":true,"internalType":"bytes32","name":"role","type":"bytes32"},{"indexed":true,"internalType":"address","name":"account","type":"address"},{"indexed":true,"internalType":"address","name":"sender","type":"address"}],"name":"RoleRevoked","type":"event"},{"anonymous":false,"inputs":[{"indexed":false,"internalType":"uint256","name":"required","type":"uint256"},{"indexed":false,"internalType":"uint256","name":"available","type":"uint256"}],"name":"SolvencyWarning","type":"event"},{"anonymous":false,"inputs":[{"indexed":true,"internalType":"uint8","name":"species","type":"uint8"},{"indexed":false,"internalType":"uint256","name":"amount","type":"uint256"}],"name":"TokensCollected","type":"event"},{"anonymous":false,"inputs":[{"indexed":true,"internalType":"uint8","name":"species","type":"uint8"},{"indexed":true,"internalType":"address","name":"recipient","type":"address"},{"indexed":false,"internalType":"uint256","name":"amount","type":"uint256"}],"name":"TokensDistributed","type":"event"},{"anonymous":false,"inputs":[{"indexed":true,"internalType":"address","name":"depositor","type":"address"},{"indexed":false,"internalType":"uint256","name":"amount","type":"uint256"}],"name":"USDCDeposited","type":"event"},{"inputs":[],"name":"DEFAULT_ADMIN_ROLE","outputs":[{"internalType":"bytes32","name":"","type":"bytes32"}],"stateMutability":"view","type":"function"},{"inputs":[],"name":"ORACLE_ROLE","outputs":[{"internalType":"bytes32","name":"","type":"bytes32"}],"stateMutability":"view","type":"function"},{"inputs":[],"name":"SETTLEMENT_ROLE","outputs":[{"internalType":"bytes32","name":"","type":"bytes32"}],"stateMutability":"view","type":"function"},{"inputs":[],"name":"TREASURY_ROLE","outputs":[{"internalType":"bytes32","name":"","type":"bytes32"}],"stateMutability":"view","type":"function"},{"inputs":[],"name":"annualRevenue","outputs":[{"internalType":"uint256","name":"","type":"uint256"}],"stateMutability":"view","type":"function"},{"inputs":[],"name":"autophageToken","outputs":[{"internalType":"contract IAutophageToken","name":"","type":"address"}],"stateMutability":"view","type":"function"},{"inputs":[],"name":"calculateMetabolicPrice","outputs":[{"internalType":"uint256","name":"","type":"uint256"}],"stateMutability":"view","type":"function"},{"inputs":[{"internalType":"uint256","name":"","type":"uint256"}],"name":"claims","outputs":[{"internalType":"address","name":"claimant","type":"address"},{"internalType":"uint256","name":"amount","type":"uint256"},{"internalType":"uint8","name":"urgencyScore","type":"uint8"},{"internalType":"uint256","name":"timestamp","type":"uint256"},{"internalType":"string","name":"claimType","type":"string"},{"internalType":"bytes32","name":"verificationHash","type":"bytes32"},{"internalType":"bool","name":"processed","type":"bool"}],"stateMutability":"view","type":"function"},{"inputs":[{"internalType":"address[]","name":"users","type":"address[]"},{"internalType":"uint8[]","name":"species","type":"uint8[]"}],"name":"collectDecayedTokens","outputs":[],"stateMutability":"nonpayable","type":"function"},{"inputs":[],"name":"currentDayIndex","outputs":[{"internalType":"uint8","name":"","type":"uint8"}],"stateMutability":"view","type":"function"},{"inputs":[{"internalType":"uint256","name":"","type":"uint256"}],"name":"dailyHealthcareSpending","outputs":[{"internalType":"uint256","name":"","type":"uint256"}],"stateMutability":"view","type":"function"},{"inputs":[{"internalType":"uint256","name":"amount","type":"uint256"}],"name":"depositUSDC","outputs":[],"stateMutability":"nonpayable","type":"function"},{"inputs":[{"internalType":"address","name":"recipient","type":"address"},{"internalType":"uint8","name":"species","type":"uint8"},{"internalType":"uint256","name":"amount","type":"uint256"}],"name":"distributeReward","outputs":[],"stateMutability":"nonpayable","type":"function"},{"inputs":[{"internalType":"address","name":"token","type":"address"},{"internalType":"uint256","name":"amount","type":"uint256"}],"name":"emergencyWithdraw","outputs":[],"stateMutability":"nonpayable","type":"function"},{"inputs":[],"name":"getReservoirStats","outputs":[{"internalType":"uint256[4]","name":"tokenBalances","type":"uint256[4]"},{"internalType":"uint256","name":"usdcReserve","type":"uint256"},{"internalType":"uint256","name":"pendingClaims","type":"uint256"},{"internalType":"uint256","name":"monthlySpending","type":"uint256"},{"internalType":"bool","name":"isSolvent","type":"bool"}],"stateMutability":"view","type":"function"},{"inputs":[{"internalType":"bytes32","name":"role","type":"bytes32"}],"name":"getRoleAdmin","outputs":[{"internalType":"bytes32","name":"","type":"bytes32"}],"stateMutability":"view","type":"function"},{"inputs":[{"internalType":"bytes32","name":"role","type":"bytes32"},{"internalType":"address","name":"account","type":"address"}],"name":"grantRole","outputs":[],"stateMutability":"nonpayable","type":"function"},{"inputs":[{"internalType":"bytes32","name":"role","type":"bytes32"},{"internalType":"address","name":"account","type":"address"}],"name":"hasRole","outputs":[{"internalType":"bool","name":"","type":"bool"}],"stateMutability":"view","type":"function"},{"inputs":[],"name":"lastSolvencyCheck","outputs":[{"internalType":"uint256","name":"","type":"uint256"}],"stateMutability":"view","type":"function"},{"inputs":[],"name":"monthlyHealthcareSpending","outputs":[{"internalType":"uint256","name":"","type":"uint256"}],"stateMutability":"view","type":"function"},{"inputs":[],"name":"nextClaimId","outputs":[{"internalType":"uint256","name":"","type":"uint256"}],"stateMutability":"view","type":"function"},{"inputs":[{"internalType":"uint256","name":"","type":"uint256"}],"name":"pendingClaimIds","outputs":[{"internalType":"uint256","name":"","type":"uint256"}],"stateMutability":"view","type":"function"},{"inputs":[{"internalType":"uint256","name":"maxClaims","type":"uint256"}],"name":"processHealthcareClaims","outputs":[],"stateMutability":"nonpayable","type":"function"},{"inputs":[{"internalType":"bytes32","name":"role","type":"bytes32"},{"internalType":"address","name":"account","type":"address"}],"name":"renounceRole","outputs":[],"stateMutability":"nonpayable","type":"function"},{"inputs":[{"internalType":"bytes32","name":"role","type":"bytes32"},{"internalType":"address","name":"account","type":"address"}],"name":"revokeRole","outputs":[],"stateMutability":"nonpayable","type":"function"},{"inputs":[{"internalType":"uint256","name":"amount","type":"uint256"},{"internalType":"uint8","name":"urgencyScore","type":"uint8"},{"internalType":"string","name":"claimType","type":"string"},{"internalType":"bytes32","name":"verificationHash","type":"bytes32"}],"name":"submitHealthcareClaim","outputs":[{"internalType":"uint256","name":"claimId","type":"uint256"}],"stateMutability":"nonpayable","type":"function"},{"inputs":[{"internalType":"bytes4","name":"interfaceId","type":"bytes4"}],"name":"supportsInterface","outputs":[{"internalType":"bool","name":"","type":"bool"}],"stateMutability":"view","type":"function"},{"inputs":[{"internalType":"uint8","name":"","type":"uint8"}],"name":"tokenChamber","outputs":[{"internalType":"uint256","name":"collected","type":"uint256"},{"internalType":"uint256","name":"distributed","type":"uint256"},{"internalType":"uint256","name":"current","type":"uint256"}],"stateMutability":"view","type":"function"},{"inputs":[],"name":"totalDeposits","outputs":[{"internalType":"uint256","name":"","type":"uint256"}],"stateMutability":"view","type":"function"},{"inputs":[{"internalType":"uint256","name":"_revenue","type":"uint256"}],"name":"updateAnnualRevenue","outputs":[],"stateMutability":"nonpayable","type":"function"},{"inputs":[],"name":"usdc","outputs":[{"internalType":"contract IERC20","name":"","type":"address"}],"stateMutability":"view","type":"function"},{"inputs":[],"name":"usdcBalance","outputs":[{"internalType":"uint256","name":"","type":"uint256"}],"stateMutability":"view","type":"function"}],"evm":{"bytecode":{"linkReferences":{},"object":"60806040523480156200001157600080fd5b5060405162002a4e38038062002a4e833981016040819052620000349162000167565b60018055600280546001600160a01b038085166001600160a01b031992831617909255600380549284169290911691909117905562000075600033620000a9565b620000a17fe1dcbdb91df27212a29bc27177c840cf2f819ecf2187432e1fac86c2dd5dfca933620000a9565b50506200019f565b6000828152602081815260408083206001600160a01b038516845290915290205460ff1662000146576000828152602081815260408083206001600160a01b03851684529091529020805460ff19166001179055620001053390565b6001600160a01b0316816001600160a01b0316837f2f8788117e7eff1d82e926ec794901d17c78024a50270940304540a733656f0d60405160405180910390a45b5050565b80516001600160a01b03811681146200016257600080fd5b919050565b600080604083850312156200017b57600080fd5b62000186836200014a565b915062000196602084016200014a565b90509250929050565b61289f80620001af6000396000f3fe608060405234801561001057600080fd5b50600436106101f05760003560e01c806395ccea671161010f578063ba9cf01d116100a2578063d547741f11610071578063d547741f14610490578063dbb8cc46146104a3578063e2ea3b45146104c2578063f688bcfb146104d557600080fd5b8063ba9cf01d14610427578063c77dcc0a1461044e578063c9b8ce6014610461578063d11a57ec1461046957600080fd5b8063a888c2cd116100de578063a888c2cd146103cc578063aff221b1146103f2578063b3367959146103fb578063b3bdf4851461040e57600080fd5b806395ccea671461035e578063a0021cf114610371578063a217fddf1461037a578063a24a161b1461038257600080fd5b80633d187ec51161018757806368ea5a931161015657806368ea5a931461033057806373688e56146103395780637d8820971461034257806391d148541461034b57600080fd5b80633d187ec5146102ee5780633e413bee146103015780635a650da31461031457806366b2320a1461032757600080fd5b80631a45faaf116101c35780631a45faaf14610290578063248a9ca3146102a55780632f2ff15d146102c857806336568abe146102db57600080fd5b806301ffc9a7146101f557806307e2cea51461021d5780631045d4ab14610252578063141c572814610265575b600080fd5b6102086102033660046121b4565b6104e8565b60405190151581526020015b60405180910390f35b6102447f68e79a7bf1e0bc45d0a330c573bc367f9cf464fd326078812f301165fbda4ef181565b604051908152602001610214565b6102446102603660046121de565b61051f565b600254610278906001600160a01b031681565b6040516001600160a01b039091168152602001610214565b6102a361029e366004612243565b610536565b005b6102446102b33660046121de565b60009081526020819052604090206001015490565b6102a36102d63660046122cb565b610879565b6102a36102e93660046122cb565b6108a3565b6102a36102fc3660046121de565b610921565b600354610278906001600160a01b031681565b6102a36103223660046121de565b610a6e565b61024460085481565b610244600c5481565b61024460055481565b61024460065481565b6102086103593660046122cb565b610a9e565b6102a361036c3660046122f7565b610ac7565b610244600a5481565b610244600081565b6103b1610390366004612332565b60046020526000908152604090208054600182015460029092015490919083565b60408051938452602084019290925290820152606001610214565b6103df6103da3660046121de565b610b5a565b604051610214979695949392919061239d565b61024460075481565b6102a36104093660046123ee565b610c31565b610416610dc6565b60405161021495949392919061242a565b6102447f300f9ae985dc711960f7a4d1dd013f9c19ecf40bff149522ab7523b2187a384681565b61024461045c36600461247a565b610ea4565b6102446110fa565b6102447fe1dcbdb91df27212a29bc27177c840cf2f819ecf2187432e1fac86c2dd5dfca981565b6102a361049e3660046122cb565b61120e565b602b546104b09060ff1681565b60405160ff9091168152602001610214565b6102446104d03660046121de565b611233565b6102a36104e33660046121de565b611254565b60006001600160e01b03198216637965db0b60e01b148061051957506301ffc9a760e01b6001600160e01b03198316145b92915050565b600d81601e811061052f57600080fd5b0154905081565b7f68e79a7bf1e0bc45d0a330c573bc367f9cf464fd326078812f301165fbda4ef16105608161132e565b8382146105a55760405162461bcd60e51b815260206004820152600e60248201526d082e4e4c2f240dad2e6dac2e8c6d60931b60448201526064015b60405180910390fd5b60005b84811015610871576002546000906001600160a01b0316635bcb4bf28888858181106105d6576105d6612509565b90506020020160208101906105eb919061251f565b8787868181106105fd576105fd612509565b90506020020160208101906106129190612332565b6040516001600160e01b031960e085901b1681526001600160a01b03909216600483015260ff166024820152604401602060405180830381865afa15801561065e573d6000803e3d6000fd5b505050506040513d601f19601f82011682018060405250810190610682919061253a565b9050801561085e576002546001600160a01b03166350e1a3bc8888858181106106ad576106ad612509565b90506020020160208101906106c2919061251f565b8787868181106106d4576106d4612509565b90506020020160208101906106e99190612332565b6040516001600160e01b031960e085901b1681526001600160a01b03909216600483015260ff166024820152604401600060405180830381600087803b15801561073257600080fd5b505af1158015610746573d6000803e3d6000fd5b50505050806004600087878681811061076157610761612509565b90506020020160208101906107769190612332565b60ff1660ff168152602001908152602001600020600001600082825461079c9190612569565b90915550819050600460008787868181106107b9576107b9612509565b90506020020160208101906107ce9190612332565b60ff1660ff16815260200190815260200160002060020160008282546107f49190612569565b90915550859050848381811061080c5761080c612509565b90506020020160208101906108219190612332565b60ff167f8061b28e7414f7fe236db788aa0d448b5760a3ca21dc4c3cfd1cedea4b5bc36c8260405161085591815260200190565b60405180910390a25b50806108698161257c565b9150506105a8565b505050505050565b6000828152602081905260409020600101546108948161132e565b61089e8383611338565b505050565b6001600160a01b03811633146109135760405162461bcd60e51b815260206004820152602f60248201527f416363657373436f6e74726f6c3a2063616e206f6e6c792072656e6f756e636560448201526e103937b632b9903337b91039b2b63360891b606482015260840161059c565b61091d82826113bc565b5050565b7f300f9ae985dc711960f7a4d1dd013f9c19ecf40bff149522ab7523b2187a384661094b8161132e565b60005b828110801561095e5750600b5415155b801561096d575061096d611421565b15610a6657600061097c611434565b600081815260096020526040902060068101549192509060ff161580156109a95750806001015460055410155b15610a565760068101805460ff19166001908117909155810154600580546000906109d5908490612595565b909155505060018101546109e89061149e565b80546001820154600354610a0a926001600160a01b0391821692911690611567565b817f645247e420898f823df59f2ab6cefc9ef3d8e8477b58b3a3a26b83197938fb858260010154604051610a4091815260200190565b60405180910390a282610a528161257c565b9350505b610a5f826115ca565b505061094e565b61089e611694565b7fe1dcbdb91df27212a29bc27177c840cf2f819ecf2187432e1fac86c2dd5dfca9610a988161132e565b50600855565b6000918252602082815260408084206001600160a01b0393909316845291905290205460ff1690565b6000610ad28161132e565b6003546001600160a01b038481169116141580610b035750610af26116e7565b82600554610b009190612595565b10155b610b465760405162461bcd60e51b8152602060048201526014602482015273576f756c6420627265616b20736f6c76656e637960601b604482015260640161059c565b61089e6001600160a01b0384163384611567565b600960205260009081526040902080546001820154600283015460038401546004850180546001600160a01b0390951695939460ff909316939192610b9e906125a8565b80601f0160208091040260200160405190810160405280929190818152602001828054610bca906125a8565b8015610c175780601f10610bec57610100808354040283529160200191610c17565b820191906000526020600020905b815481529060010190602001808311610bfa57829003601f168201915b50505050600583015460069093015491929160ff16905087565b7f68e79a7bf1e0bc45d0a330c573bc367f9cf464fd326078812f301165fbda4ef1610c5b8161132e565b60ff8316600090815260046020526040902060020154821115610cb65760405162461bcd60e51b8152602060048201526013602482015272496e73756666696369656e7420746f6b656e7360681b604482015260640161059c565b60ff831660009081526004602052604081206002018054849290610cdb908490612595565b909155505060ff831660009081526004602052604081206001018054849290610d05908490612569565b9091555050600254604051632769c3d960e11b81526001600160a01b03868116600483015260ff861660248301526044820185905290911690634ed387b290606401600060405180830381600087803b158015610d6157600080fd5b505af1158015610d75573d6000803e3d6000fd5b50505050836001600160a01b03168360ff167f8c2d36d9a6ec91a08ad1c7346cb4a7057854f5699e46dd7e110a87c71f21535484604051610db891815260200190565b60405180910390a350505050565b610dce612196565b50604080516080810182527f17ef568e3e12ab5b9c7254a8d58478811de00f9e6eb34345acd53bf8fd09d3ee5481527fabd6e7cb50984ff9c2f3e18a2660c3353dadf4e3291deeb275dae2cd1e44fe07546020808301919091527f91da3fd0782e51c6b3986e9e672fd566868e71f3dbc2d6c2cd6fbb3e361af2a954928201929092526003600090815260049092527f2e174c10e159ea99b867ce3205125c24a42d128804e4070ed6fcc8cc98166aa2546060820152600554600b54600754929391929091610e9b611758565b90509091929394565b6000610eae61176c565b60008611610eef5760405162461bcd60e51b815260206004820152600e60248201526d125b9d985b1a5908185b5bdd5b9d60921b604482015260640161059c565b60018560ff1610158015610f075750600a8560ff1611155b610f455760405162461bcd60e51b815260206004820152600f60248201526e496e76616c696420757267656e637960881b604482015260640161059c565b82610f875760405162461bcd60e51b8152602060048201526012602482015271496e76616c696420636c61696d207479706560701b604482015260640161059c565b600a8054906000610f978361257c565b9190505590506040518060e00160405280336001600160a01b031681526020018781526020018660ff16815260200142815260200185858080601f0160208091040260200160405190810160405280939291908181526020018383808284376000920182905250938552505050602080830186905260409283018290528482526009815290829020835181546001600160a01b0319166001600160a01b039091161781559083015160018201559082015160028201805460ff191660ff909216919091179055606082015160038201556080820151600482019061107b908261263e565b5060a0820151600582015560c0909101516006909101805460ff19169115159190911790556110a9816117c5565b604051868152339082907f5b4f60eb286a5feaa1750946835885a36f688c2c576685b66daca877b88d065c9060200160405180910390a36110e86118f8565b6110f160018055565b95945050505050565b6000620f424081611109611a26565b90506000611115611a42565b90506000611121611a59565b90506703311fc80a5700006000670de0b6b3a76400006111428360026126fe565b61115490670de0b6b3a7640000612569565b61115e90886126fe565b611168919061272b565b90506000670de0b6b3a764000061117f8482612595565b61118990886126fe565b611193919061272b565b905060006111a18284612569565b90506000670de0b6b3a76400006111c067058d15e17628000082612569565b6111ca888a6126fe565b6111d491906126fe565b6111de919061272b565b90506000816111f5670de0b6b3a7640000856126fe565b6111ff919061272b565b9b9a5050505050505050505050565b6000828152602081905260409020600101546112298161132e565b61089e83836113bc565b600b818154811061124357600080fd5b600091825260209091200154905081565b61125c61176c565b6000811161129d5760405162461bcd60e51b815260206004820152600e60248201526d125b9d985b1a5908185b5bdd5b9d60921b604482015260640161059c565b6003546112b5906001600160a01b0316333084611a7a565b80600560008282546112c79190612569565b9250508190555080600660008282546112e09190612569565b909155505060405181815233907f80ecc532cf2e08856601df42646970d676a686d8eeacbfd2038fae4ff288da569060200160405180910390a26113226118f8565b61132b60018055565b50565b61132b8133611ab8565b6113428282610a9e565b61091d576000828152602081815260408083206001600160a01b03851684529091529020805460ff191660011790556113783390565b6001600160a01b0316816001600160a01b0316837f2f8788117e7eff1d82e926ec794901d17c78024a50270940304540a733656f0d60405160405180910390a45050565b6113c68282610a9e565b1561091d576000828152602081815260408083206001600160a01b0385168085529252808320805460ff1916905551339285917ff6391f5c32d9c69d2a47ea670b442974b53935d1edc7fd64eb21e047a839171b9190a45050565b600061142b6116e7565b60055411905090565b600b5460009061147a5760405162461bcd60e51b81526020600482015260116024820152704e6f2070656e64696e6720636c61696d7360781b604482015260640161059c565b600b60008154811061148e5761148e612509565b9060005260206000200154905090565b6000601e6114af620151804261272b565b6114b9919061273f565b602b5490915060ff1681146114ef576000600d82601e81106114dd576114dd612509565b0155602b805460ff191660ff83161790555b81600d82601e811061150357611503612509565b0160008282546115139190612569565b9091555050600060078190555b601e81101561089e57600d81601e811061153c5761153c612509565b01546007600082825461154f9190612569565b9091555081905061155f8161257c565b915050611520565b6040516001600160a01b03831660248201526044810182905261089e90849063a9059cbb60e01b906064015b60408051601f198184030181529190526020810180516001600160e01b03166001600160e01b031990931692909217909152611b11565b60005b600b5481101561091d5781600b82815481106115eb576115eb612509565b90600052602060002001540361168257600b805461160b90600190612595565b8154811061161b5761161b612509565b9060005260206000200154600b828154811061163957611639612509565b600091825260209091200155600b80548061165657611656612753565b60019003818190600052602060002001600090559055600b8054905081101561091d5761091d81611be6565b8061168c8161257c565b9150506115cd565b61169c611758565b6116e5577fd6b3dfac3e11b7be3b63871ab9b0fda1f0c0fd252cf44c0115b91e13ede988b26116c96116e7565b6005546040805192835260208301919091520160405180910390a15b565b600080606460286006546116fb91906126fe565b611705919061272b565b90506000600360075461171891906126fe565b905060006064601660085461172d91906126fe565b611737919061272b565b905082808311156117455750815b808211156117505750805b949350505050565b60006117626116e7565b6005541015905090565b6002600154036117be5760405162461bcd60e51b815260206004820152601f60248201527f5265656e7472616e637947756172643a207265656e7472616e742063616c6c00604482015260640161059c565b6002600155565b600b80546001818101835560008381527f0175b7a638427703f0dbe7bb9bbf987a2551717b34e79f33b5b1008d1fa01db99092018490559154909161180991612595565b90505b801561091d5760006002611821600184612595565b61182b919061272b565b9050611853600b828154811061184357611843612509565b9060005260206000200154611d3f565b611869600b848154811061184357611843612509565b111561089e57600b818154811061188257611882612509565b9060005260206000200154600b83815481106118a0576118a0612509565b9060005260206000200154600b84815481106118be576118be612509565b906000526020600020016000600b85815481106118dd576118dd612509565b6000918252602090912001929092559190915550905061180c565b60005b600a8110801561190c5750600b5415155b801561191b575061191b611421565b1561132b57600061192a611434565b600081815260096020526040902060068101549192509060ff1615801561196957506119546116e7565b81600101546119639190612569565b60055410155b15611a165760068101805460ff1916600190811790915581015460058054600090611995908490612595565b909155505060018101546119a89061149e565b805460018201546003546119ca926001600160a01b0391821692911690611567565b817f645247e420898f823df59f2ab6cefc9ef3d8e8477b58b3a3a26b83197938fb858260010154604051611a0091815260200190565b60405180910390a282611a128161257c565b9350505b611a1f826115ca565b50506118fb565b6000611a3d670de0b6b3a7640000620249f06126fe565b905090565b6000611a3d670de0b6b3a7640000629896806126fe565b6000601e611a70670de0b6b3a7640000600f6126fe565b611a3d919061272b565b6040516001600160a01b0380851660248301528316604482015260648101829052611ab29085906323b872dd60e01b90608401611593565b50505050565b611ac28282610a9e565b61091d57611acf81611ebe565b611ada836020611ed0565b604051602001611aeb929190612769565b60408051601f198184030181529082905262461bcd60e51b825261059c916004016127de565b6000611b66826040518060400160405280602081526020017f5361666545524332303a206c6f772d6c6576656c2063616c6c206661696c6564815250856001600160a01b03166120739092919063ffffffff16565b9050805160001480611b87575080806020019051810190611b8791906127f1565b61089e5760405162461bcd60e51b815260206004820152602a60248201527f5361666545524332303a204552433230206f7065726174696f6e20646964206e6044820152691bdd081cdd58d8d9595960b21b606482015260840161059c565b600b545b6000611bf78360026126fe565b611c02906001612569565b90506000611c118460026126fe565b611c1c906002612569565b9050838383108015611c575750611c3f600b828154811061184357611843612509565b611c55600b858154811061184357611843612509565b115b15611c5f5750815b8382108015611c975750611c7f600b828154811061184357611843612509565b611c95600b848154811061184357611843612509565b115b15611c9f5750805b848114611d3057600b8181548110611cb957611cb9612509565b9060005260206000200154600b8681548110611cd757611cd7612509565b9060005260206000200154600b8781548110611cf557611cf5612509565b906000526020600020016000600b8581548110611d1457611d14612509565b6000918252602090912001929092559190915550935083611d37565b5050505050565b505050611bea565b6000818152600960209081526040808320815160e08101835281546001600160a01b03168152600182015493810193909352600281015460ff169183019190915260038101546060830152600481018054849392916080840191611da2906125a8565b80601f0160208091040260200160405190810160405280929190818152602001828054611dce906125a8565b8015611e1b5780601f10611df057610100808354040283529160200191611e1b565b820191906000526020600020905b815481529060010190602001808311611dfe57829003601f168201915b50505091835250506005820154602082015260069091015460ff161515604091820152810151909150600090611e52906046612813565b60ff1690506000610e10836060015142611e6c9190612595565b611e76919061272b565b611e819060026126fe565b60a0840151909150600090611e97576000611e9a565b600a5b60ff16905080611eaa8385612569565b611eb49190612569565b9695505050505050565b60606105196001600160a01b03831660145b60606000611edf8360026126fe565b611eea906002612569565b67ffffffffffffffff811115611f0257611f026125e2565b6040519080825280601f01601f191660200182016040528015611f2c576020820181803683370190505b509050600360fc1b81600081518110611f4757611f47612509565b60200101906001600160f81b031916908160001a905350600f60fb1b81600181518110611f7657611f76612509565b60200101906001600160f81b031916908160001a9053506000611f9a8460026126fe565b611fa5906001612569565b90505b600181111561201d576f181899199a1a9b1b9c1cb0b131b232b360811b85600f1660108110611fd957611fd9612509565b1a60f81b828281518110611fef57611fef612509565b60200101906001600160f81b031916908160001a90535060049490941c9361201681612836565b9050611fa8565b50831561206c5760405162461bcd60e51b815260206004820181905260248201527f537472696e67733a20686578206c656e67746820696e73756666696369656e74604482015260640161059c565b9392505050565b6060611750848460008585600080866001600160a01b0316858760405161209a919061284d565b60006040518083038185875af1925050503d80600081146120d7576040519150601f19603f3d011682016040523d82523d6000602084013e6120dc565b606091505b50915091506120ed878383876120f8565b979650505050505050565b60608315612167578251600003612160576001600160a01b0385163b6121605760405162461bcd60e51b815260206004820152601d60248201527f416464726573733a2063616c6c20746f206e6f6e2d636f6e7472616374000000604482015260640161059c565b5081611750565b611750838381511561217c5781518083602001fd5b8060405162461bcd60e51b815260040161059c91906127de565b60405180608001604052806004906020820280368337509192915050565b6000602082840312156121c657600080fd5b81356001600160e01b03198116811461206c57600080fd5b6000602082840312156121f057600080fd5b5035919050565b60008083601f84011261220957600080fd5b50813567ffffffffffffffff81111561222157600080fd5b6020830191508360208260051b850101111561223c57600080fd5b9250929050565b6000806000806040858703121561225957600080fd5b843567ffffffffffffffff8082111561227157600080fd5b61227d888389016121f7565b9096509450602087013591508082111561229657600080fd5b506122a3878288016121f7565b95989497509550505050565b80356001600160a01b03811681146122c657600080fd5b919050565b600080604083850312156122de57600080fd5b823591506122ee602084016122af565b90509250929050565b6000806040838503121561230a57600080fd5b612313836122af565b946020939093013593505050565b803560ff811681146122c657600080fd5b60006020828403121561234457600080fd5b61206c82612321565b60005b83811015612368578181015183820152602001612350565b50506000910152565b6000815180845261238981602086016020860161234d565b601f01601f19169290920160200192915050565b60018060a01b038816815286602082015260ff8616604082015284606082015260e0608082015260006123d360e0830186612371565b60a08301949094525090151560c09091015295945050505050565b60008060006060848603121561240357600080fd5b61240c846122af565b925061241a60208501612321565b9150604084013590509250925092565b6101008101818760005b6004811015612453578151835260209283019290910190600101612434565b5050508560808301528460a08301528360c083015282151560e08301529695505050505050565b60008060008060006080868803121561249257600080fd5b853594506124a260208701612321565b9350604086013567ffffffffffffffff808211156124bf57600080fd5b818801915088601f8301126124d357600080fd5b8135818111156124e257600080fd5b8960208285010111156124f457600080fd5b96999598505060200195606001359392505050565b634e487b7160e01b600052603260045260246000fd5b60006020828403121561253157600080fd5b61206c826122af565b60006020828403121561254c57600080fd5b5051919050565b634e487b7160e01b600052601160045260246000fd5b8082018082111561051957610519612553565b60006001820161258e5761258e612553565b5060010190565b8181038181111561051957610519612553565b600181811c908216806125bc57607f821691505b6020821081036125dc57634e487b7160e01b600052602260045260246000fd5b50919050565b634e487b7160e01b600052604160045260246000fd5b601f82111561089e57600081815260208120601f850160051c8101602086101561261f5750805b601f850160051c820191505b818110156108715782815560010161262b565b815167ffffffffffffffff811115612658576126586125e2565b61266c8161266684546125a8565b846125f8565b602080601f8311600181146126a157600084156126895750858301515b600019600386901b1c1916600185901b178555610871565b600085815260208120601f198616915b828110156126d0578886015182559484019460019091019084016126b1565b50858210156126ee5787850151600019600388901b60f8161c191681555b5050505050600190811b01905550565b808202811582820484141761051957610519612553565b634e487b7160e01b600052601260045260246000fd5b60008261273a5761273a612715565b500490565b60008261274e5761274e612715565b500690565b634e487b7160e01b600052603160045260246000fd5b7f416363657373436f6e74726f6c3a206163636f756e74200000000000000000008152600083516127a181601785016020880161234d565b7001034b99036b4b9b9b4b733903937b6329607d1b60179184019182015283516127d281602884016020880161234d565b01602801949350505050565b60208152600061206c6020830184612371565b60006020828403121561280357600080fd5b8151801515811461206c57600080fd5b60ff818116838216029081169081811461282f5761282f612553565b5092915050565b60008161284557612845612553565b506000190190565b6000825161285f81846020870161234d565b919091019291505056fea26469706673582212204a44427a8348014c5419b741f6f93f9f9389bcbed06304bb61685db5bc732b1a64736f6c63430008130033","opcodes":"PUSH1 0x80 PUSH1 0x40 MSTORE CALLVALUE DUP1 ISZERO PUSH3 0x11 JUMPI PUSH1 0x0 DUP1 REVERT JUMPDEST POP PUSH1 0x40 MLOAD PUSH3 0x2A4E CODESIZE SUB DUP1 PUSH3 0x2A4E DUP4 CODECOPY DUP2 ADD PUSH1 0x40 DUP2 SWAP1 MSTORE PUSH3 0x34 SWAP2 PUSH3 0x167 JUMP JUMPDEST PUSH1 0x1 DUP1 SSTORE PUSH1 0x2 DUP1 SLOAD PUSH1 0x1 PUSH1 0x1 PUSH1 0xA0 SHL SUB DUP1 DUP6 AND PUSH1 0x1 PUSH1 0x1 PUSH1 0xA0 SHL SUB NOT SWAP3 DUP4 AND OR SWAP1 SWAP3 SSTORE PUSH1 0x3 DUP1 SLOAD SWAP3 DUP5 AND SWAP3 SWAP1 SWAP2 AND SWAP2 SWAP1 SWAP2 OR SWAP1 SSTORE PUSH3 0x75 PUSH1 0x0 CALLER PUSH3 0xA9 JUMP JUMPDEST PUSH3 0xA1 PUSH32 0xE1DCBDB91DF27212A29BC27177C840CF2F819ECF2187432E1FAC86C2DD5DFCA9 CALLER PUSH3 0xA9 JUMP JUMPDEST POP POP PUSH3 0x19F JUMP JUMPDEST PUSH1 0x0 DUP3 DUP2 MSTORE PUSH1 0x20 DUP2 DUP2 MSTORE PUSH1 0x40 DUP1 DUP4 KECCAK256 PUSH1 0x1 PUSH1 0x1 PUSH1 0xA0 SHL SUB DUP6 AND DUP5 MSTORE SWAP1 SWAP2 MSTORE SWAP1 KECCAK256 SLOAD PUSH1 0xFF AND PUSH3 0x146 JUMPI PUSH1 0x0 DUP3 DUP2 MSTORE PUSH1 0x20 DUP2 DUP2 MSTORE PUSH1 0x40 DUP1 DUP4 KECCAK256 PUSH1 0x1 PUSH1 0x1 PUSH1 0xA0 SHL SUB DUP6 AND DUP5 MSTORE SWAP1 SWAP2 MSTORE SWAP1 KECCAK256 DUP1 SLOAD PUSH1 0xFF NOT AND PUSH1 0x1 OR SWAP1 SSTORE PUSH3 0x105 CALLER SWAP1 JUMP JUMPDEST PUSH1 0x1 PUSH1 0x1 PUSH1 0xA0 SHL SUB AND DUP2 PUSH1 0x1 PUSH1 0x1 PUSH1 0xA0 SHL SUB AND DUP4 PUSH32 0x2F8788117E7EFF1D82E926EC794901D17C78024A50270940304540A733656F0D PUSH1 0x40 MLOAD PUSH1 0x40 MLOAD DUP1 SWAP2 SUB SWAP1 LOG4 JUMPDEST POP POP JUMP JUMPDEST DUP1 MLOAD PUSH1 0x1 PUSH1 0x1 PUSH1 0xA0 SHL SUB DUP2 AND DUP2 EQ PUSH3 0x162 JUMPI PUSH1 0x0 DUP1 REVERT JUMPDEST SWAP2 SWAP1 POP JUMP JUMPDEST PUSH1 0x0 DUP1 PUSH1 0x40 DUP4 DUP6 SUB SLT ISZERO PUSH3 0x17B JUMPI PUSH1 0x0 DUP1 REVERT JUMPDEST PUSH3 0x186 DUP4 PUSH3 0x14A JUMP JUMPDEST SWAP2 POP PUSH3 0x196 PUSH1 0x20 DUP5 ADD PUSH3 0x14A JUMP JUMPDEST SWAP1 POP SWAP3 POP SWAP3 SWAP1 POP JUMP JUMPDEST PUSH2 0x289F DUP1 PUSH3 0x1AF PUSH1 0x0 CODECOPY PUSH1 0x0 RETURN INVALID PUSH1 0x80 PUSH1 0x40 MSTORE CALLVALUE DUP1 ISZERO PUSH2 0x10 JUMPI PUSH1 0x0 DUP1 REVERT JUMPDEST POP PUSH1 0x4 CALLDATASIZE LT PUSH2 0x1F0 JUMPI PUSH1 0x0 CALLDATALOAD PUSH1 0xE0 SHR DUP1 PUSH4 0x95CCEA67 GT PUSH2 0x10F JUMPI DUP1 PUSH4 0xBA9CF01D GT PUSH2 0xA2 JUMPI DUP1 PUSH4 0xD547741F GT PUSH2 0x71 JUMPI DUP1 PUSH4 0xD547741F EQ PUSH2 0x490 JUMPI DUP1 PUSH4 0xDBB8CC46 EQ PUSH2 0x4A3 JUMPI DUP1 PUSH4 0xE2EA3B45 EQ PUSH2 0x4C2 JUMPI DUP1 PUSH4 0xF688BCFB EQ PUSH2 0x4D5 JUMPI PUSH1 0x0 DUP1 REVERT JUMPDEST DUP1 PUSH4 0xBA9CF01D EQ PUSH2 0x427 JUMPI DUP1 PUSH4 0xC77DCC0A EQ PUSH2 0x44E JUMPI DUP1 PUSH4 0xC9B8CE60 EQ PUSH2 0x461 JUMPI DUP1 PUSH4 0xD11A57EC EQ PUSH2 0x469 JUMPI PUSH1 0x0 DUP1 REVERT JUMPDEST DUP1 PUSH4 0xA888C2CD GT PUSH2 0xDE JUMPI DUP1 PUSH4 0xA888C2CD EQ PUSH2 0x3CC JUMPI DUP1 PUSH4 0xAFF221B1 EQ PUSH2 0x3F2 JUMPI DUP1 PUSH4 0xB3367959 EQ PUSH2 0x3FB JUMPI DUP1 PUSH4 0xB3BDF485 EQ PUSH2 0x40E JUMPI PUSH1 0x0 DUP1 REVERT JUMPDEST DUP1 PUSH4 0x95CCEA67 EQ PUSH2 0x35E JUMPI DUP1 PUSH4 0xA0021CF1 EQ PUSH2 0x371 JUMPI DUP1 PUSH4 0xA217FDDF EQ PUSH2 0x37A JUMPI DUP1 PUSH4 0xA24A161B EQ PUSH2 0x382 JUMPI PUSH1 0x0 DUP1 REVERT JUMPDEST DUP1 PUSH4 0x3D187EC5 GT PUSH2 0x187 JUMPI DUP1 PUSH4 0x68EA5A93 GT PUSH2 0x156 JUMPI DUP1 PUSH4 0x68EA5A93 EQ PUSH2 0x330 JUMPI DUP1 PUSH4 0x73688E56 EQ PUSH2 0x339 JUMPI DUP1 PUSH4 0x7D882097 EQ PUSH2 0x342 JUMPI DUP1 PUSH4 0x91D14854 EQ PUSH2 0x34B JUMPI PUSH1 0x0 DUP1 REVERT JUMPDEST DUP1 PUSH4 0x3D187EC5 EQ PUSH2 0x2EE JUMPI DUP1 PUSH4 0x3E413BEE EQ PUSH2 0x301 JUMPI DUP1 PUSH4 0x5A650DA3 EQ PUSH2 0x314 JUMPI DUP1 PUSH4 0x66B2320A EQ PUSH2 0x327 JUMPI PUSH1 0x0 DUP1 REVERT JUMPDEST DUP1 PUSH4 0x1A45FAAF GT PUSH2 0x1C3 JUMPI DUP1 PUSH4 0x1A45FAAF EQ PUSH2 0x290 JUMPI DUP1 PUSH4 0x248A9CA3 EQ PUSH2 0x2A5 JUMPI DUP1 PUSH4 0x2F2FF15D EQ PUSH2 0x2C8 JUMPI DUP1 PUSH4 0x36568ABE EQ PUSH2 0x2DB JUMPI PUSH1 0x0 DUP1 REVERT JUMPDEST DUP1 PUSH4 0x1FFC9A7 EQ PUSH2 0x1F5 JUMPI DUP1 PUSH4 0x7E2CEA5 EQ PUSH2 0x21D JUMPI DUP1 PUSH4 0x1045D4AB EQ PUSH2 0x252 JUMPI DUP1 PUSH4 0x141C5728 EQ PUSH2 0x265 JUMPI JUMPDEST PUSH1 0x0 DUP1 REVERT JUMPDEST PUSH2 0x208 PUSH2 0x203 CALLDATASIZE PUSH1 0x4 PUSH2 0x21B4 JUMP JUMPDEST PUSH2 0x4E8 JUMP JUMPDEST PUSH1 0x40 MLOAD SWAP1 ISZERO ISZERO DUP2 MSTORE PUSH1 0x20 ADD JUMPDEST PUSH1 0x40 MLOAD DUP1 SWAP2 SUB SWAP1 RETURN JUMPDEST PUSH2 0x244 PUSH32 0x68E79A7BF1E0BC45D0A330C573BC367F9CF464FD326078812F301165FBDA4EF1 DUP2 JUMP JUMPDEST PUSH1 0x40 MLOAD SWAP1 DUP2 MSTORE PUSH1 0x20 ADD PUSH2 0x214 JUMP JUMPDEST PUSH2 0x244 PUSH2 0x260 CALLDATASIZE PUSH1 0x4 PUSH2 0x21DE JUMP JUMPDEST PUSH2 0x51F JUMP JUMPDEST PUSH1 0x2 SLOAD PUSH2 0x278 SWAP1 PUSH1 0x1 PUSH1 0x1 PUSH1 0xA0 SHL SUB AND DUP2 JUMP JUMPDEST PUSH1 0x40 MLOAD PUSH1 0x1 PUSH1 0x1 PUSH1 0xA0 SHL SUB SWAP1 SWAP2 AND DUP2 MSTORE PUSH1 0x20 ADD PUSH2 0x214 JUMP JUMPDEST PUSH2 0x2A3 PUSH2 0x29E CALLDATASIZE PUSH1 0x4 PUSH2 0x2243 JUMP JUMPDEST PUSH2 0x536 JUMP JUMPDEST STOP JUMPDEST PUSH2 0x244 PUSH2 0x2B3 CALLDATASIZE PUSH1 0x4 PUSH2 0x21DE JUMP JUMPDEST PUSH1 0x0 SWAP1 DUP2 MSTORE PUSH1 0x20 DUP2 SWAP1 MSTORE PUSH1 0x40 SWAP1 KECCAK256 PUSH1 0x1 ADD SLOAD SWAP1 JUMP JUMPDEST PUSH2 0x2A3 PUSH2 0x2D6 CALLDATASIZE PUSH1 0x4 PUSH2 0x22CB JUMP JUMPDEST PUSH2 0x879 JUMP JUMPDEST PUSH2 0x2A3 PUSH2 0x2E9 CALLDATASIZE PUSH1 0x4 PUSH2 0x22CB JUMP JUMPDEST PUSH2 0x8A3 JUMP JUMPDEST PUSH2 0x2A3 PUSH2 0x2FC CALLDATASIZE PUSH1 0x4 PUSH2 0x21DE JUMP JUMPDEST PUSH2 0x921 JUMP JUMPDEST PUSH1 0x3 SLOAD PUSH2 0x278 SWAP1 PUSH1 0x1 PUSH1 0x1 PUSH1 0xA0 SHL SUB AND DUP2 JUMP JUMPDEST PUSH2 0x2A3 PUSH2 0x322 CALLDATASIZE PUSH1 0x4 PUSH2 0x21DE JUMP JUMPDEST PUSH2 0xA6E JUMP JUMPDEST PUSH2 0x244 PUSH1 0x8 SLOAD DUP2 JUMP JUMPDEST PUSH2 0x244 PUSH1 0xC SLOAD DUP2 JUMP JUMPDEST PUSH2 0x244 PUSH1 0x5 SLOAD DUP2 JUMP JUMPDEST PUSH2 0x244 PUSH1 0x6 SLOAD DUP2 JUMP JUMPDEST PUSH2 0x208 PUSH2 0x359 CALLDATASIZE PUSH1 0x4 PUSH2 0x22CB JUMP JUMPDEST PUSH2 0xA9E JUMP JUMPDEST PUSH2 0x2A3 PUSH2 0x36C CALLDATASIZE PUSH1 0x4 PUSH2 0x22F7 JUMP JUMPDEST PUSH2 0xAC7 JUMP JUMPDEST PUSH2 0x244 PUSH1 0xA SLOAD DUP2 JUMP JUMPDEST PUSH2 0x244 PUSH1 0x0 DUP2 JUMP JUMPDEST PUSH2 0x3B1 PUSH2 0x390 CALLDATASIZE PUSH1 0x4 PUSH2 0x2332 JUMP JUMPDEST PUSH1 0x4 PUSH1 0x20 MSTORE PUSH1 0x0 SWAP1 DUP2 MSTORE PUSH1 0x40 SWAP1 KECCAK256 DUP1 SLOAD PUSH1 0x1 DUP3 ADD SLOAD PUSH1 0x2 SWAP1 SWAP3 ADD SLOAD SWAP1 SWAP2 SWAP1 DUP4 JUMP JUMPDEST PUSH1 0x40 DUP1 MLOAD SWAP4 DUP5 MSTORE PUSH1 0x20 DUP5 ADD SWAP3 SWAP1 SWAP3 MSTORE SWAP1 DUP3 ADD MSTORE PUSH1 0x60 ADD PUSH2 0x214 JUMP JUMPDEST PUSH2 0x3DF PUSH2 0x3DA CALLDATASIZE PUSH1 0x4 PUSH2 0x21DE JUMP JUMPDEST PUSH2 0xB5A JUMP JUMPDEST PUSH1 0x40 MLOAD PUSH2 0x214 SWAP8 SWAP7 SWAP6 SWAP5 SWAP4 SWAP3 SWAP2 SWAP1 PUSH2 0x239D JUMP JUMPDEST PUSH2 0x244 PUSH1 0x7 SLOAD DUP2 JUMP JUMPDEST PUSH2 0x2A3 PUSH2 0x409 CALLDATASIZE PUSH1 0x4 PUSH2 0x23EE JUMP JUMPDEST PUSH2 0xC31 JUMP JUMPDEST PUSH2 0x416 PUSH2 0xDC6 JUMP JUMPDEST PUSH1 0x40 MLOAD PUSH2 0x214 SWAP6 SWAP5 SWAP4 SWAP3 SWAP2 SWAP1 PUSH2 0x242A JUMP JUMPDEST PUSH2 0x244 PUSH32 0x300F9AE985DC711960F7A4D1DD013F9C19ECF40BFF149522AB7523B2187A3846 DUP2 JUMP JUMPDEST PUSH2 0x244 PUSH2 0x45C CALLDATASIZE PUSH1 0x4 PUSH2 0x247A JUMP JUMPDEST PUSH2 0xEA4 JUMP JUMPDEST PUSH2 0x244 PUSH2 0x10FA JUMP JUMPDEST PUSH2 0x244 PUSH32 0xE1DCBDB91DF27212A29BC27177C840CF2F819ECF2187432E1FAC86C2DD5DFCA9 DUP2 JUMP JUMPDEST PUSH2 0x2A3 PUSH2 0x49E CALLDATASIZE PUSH1 0x4 PUSH2 0x22CB JUMP JUMPDEST PUSH2 0x120E JUMP JUMPDEST PUSH1 0x2B SLOAD PUSH2 0x4B0 SWAP1 PUSH1 0xFF AND DUP2 JUMP JUMPDEST PUSH1 0x40 MLOAD PUSH1 0xFF SWAP1 SWAP2 AND DUP2 MSTORE PUSH1 0x20 ADD PUSH2 0x214 JUMP JUMPDEST PUSH2 0x244 PUSH2 0x4D0 CALLDATASIZE PUSH1 0x4 PUSH2 0x21DE JUMP JUMPDEST PUSH2 0x1233 JUMP JUMPDEST PUSH2 0x2A3 PUSH2 0x4E3 CALLDATASIZE PUSH1 0x4 PUSH2 0x21DE JUMP JUMPDEST PUSH2 0x1254 JUMP JUMPDEST PUSH1 0x0 PUSH1 0x1 PUSH1 0x1 PUSH1 0xE0 SHL SUB NOT DUP3 AND PUSH4 0x7965DB0B PUSH1 0xE0 SHL EQ DUP1 PUSH2 0x519 JUMPI POP PUSH4 0x1FFC9A7 PUSH1 0xE0 SHL PUSH1 0x1 PUSH1 0x1 PUSH1 0xE0 SHL SUB NOT DUP4 AND EQ JUMPDEST SWAP3 SWAP2 POP POP JUMP JUMPDEST PUSH1 0xD DUP2 PUSH1 0x1E DUP2 LT PUSH2 0x52F JUMPI PUSH1 0x0 DUP1 REVERT JUMPDEST ADD SLOAD SWAP1 POP DUP2 JUMP JUMPDEST PUSH32 0x68E79A7BF1E0BC45D0A330C573BC367F9CF464FD326078812F301165FBDA4EF1 PUSH2 0x560 DUP2 PUSH2 0x132E JUMP JUMPDEST DUP4 DUP3 EQ PUSH2 0x5A5 JUMPI PUSH1 0x40 MLOAD PUSH3 0x461BCD PUSH1 0xE5 SHL DUP2 MSTORE PUSH1 0x20 PUSH1 0x4 DUP3 ADD MSTORE PUSH1 0xE PUSH1 0x24 DUP3 ADD MSTORE PUSH14 0x82E4E4C2F240DAD2E6DAC2E8C6D PUSH1 0x93 SHL PUSH1 0x44 DUP3 ADD MSTORE PUSH1 0x64 ADD JUMPDEST PUSH1 0x40 MLOAD DUP1 SWAP2 SUB SWAP1 REVERT JUMPDEST PUSH1 0x0 JUMPDEST DUP5 DUP2 LT ISZERO PUSH2 0x871 JUMPI PUSH1 0x2 SLOAD PUSH1 0x0 SWAP1 PUSH1 0x1 PUSH1 0x1 PUSH1 0xA0 SHL SUB AND PUSH4 0x5BCB4BF2 DUP9 DUP9 DUP6 DUP2 DUP2 LT PUSH2 0x5D6 JUMPI PUSH2 0x5D6 PUSH2 0x2509 JUMP JUMPDEST SWAP1 POP PUSH1 0x20 MUL ADD PUSH1 0x20 DUP2 ADD SWAP1 PUSH2 0x5EB SWAP2 SWAP1 PUSH2 0x251F JUMP JUMPDEST DUP8 DUP8 DUP7 DUP2 DUP2 LT PUSH2 0x5FD JUMPI PUSH2 0x5FD PUSH2 0x2509 JUMP JUMPDEST SWAP1 POP PUSH1 0x20 MUL ADD PUSH1 0x20 DUP2 ADD SWAP1 PUSH2 0x612 SWAP2 SWAP1 PUSH2 0x2332 JUMP JUMPDEST PUSH1 0x40 MLOAD PUSH1 0x1 PUSH1 0x1 PUSH1 0xE0 SHL SUB NOT PUSH1 0xE0 DUP6 SWAP1 SHL AND DUP2 MSTORE PUSH1 0x1 PUSH1 0x1 PUSH1 0xA0 SHL SUB SWAP1 SWAP3 AND PUSH1 0x4 DUP4 ADD MSTORE PUSH1 0xFF AND PUSH1 0x24 DUP3 ADD MSTORE PUSH1 0x44 ADD PUSH1 0x20 PUSH1 0x40 MLOAD DUP1 DUP4 SUB DUP2 DUP7 GAS STATICCALL ISZERO DUP1 ISZERO PUSH2 0x65E JUMPI RETURNDATASIZE PUSH1 0x0 DUP1 RETURNDATACOPY RETURNDATASIZE PUSH1 0x0 REVERT JUMPDEST POP POP POP POP PUSH1 0x40 MLOAD RETURNDATASIZE PUSH1 0x1F NOT PUSH1 0x1F DUP3 ADD AND DUP3 ADD DUP1 PUSH1 0x40 MSTORE POP DUP2 ADD SWAP1 PUSH2 0x682 SWAP2 SWAP1 PUSH2 0x253A JUMP JUMPDEST SWAP1 POP DUP1 ISZERO PUSH2 0x85E JUMPI PUSH1 0x2 SLOAD PUSH1 0x1 PUSH1 0x1 PUSH1 0xA0 SHL SUB AND PUSH4 0x50E1A3BC DUP9 DUP9 DUP6 DUP2 DUP2 LT PUSH2 0x6AD JUMPI PUSH2 0x6AD PUSH2 0x2509 JUMP JUMPDEST SWAP1 POP PUSH1 0x20 MUL ADD PUSH1 0x20 DUP2 ADD SWAP1 PUSH2 0x6C2 SWAP2 SWAP1 PUSH2 0x251F JUMP JUMPDEST DUP8 DUP8 DUP7 DUP2 DUP2 LT PUSH2 0x6D4 JUMPI PUSH2 0x6D4 PUSH2 0x2509 JUMP JUMPDEST SWAP1 POP PUSH1 0x20 MUL ADD PUSH1 0x20 DUP2 ADD SWAP1 PUSH2 0x6E9 SWAP2 SWAP1 PUSH2 0x2332 JUMP JUMPDEST PUSH1 0x40 MLOAD PUSH1 0x1 PUSH1 0x1 PUSH1 0xE0 SHL SUB NOT PUSH1 0xE0 DUP6 SWAP1 SHL AND DUP2 MSTORE PUSH1 0x1 PUSH1 0x1 PUSH1 0xA0 SHL SUB SWAP1 SWAP3 AND PUSH1 0x4 DUP4 ADD MSTORE PUSH1 0xFF AND PUSH1 0x24 DUP3 ADD MSTORE PUSH1 0x44 ADD PUSH1 0x0 PUSH1 0x40 MLOAD DUP1 DUP4 SUB DUP2 PUSH1 0x0 DUP8 DUP1 EXTCODESIZE ISZERO DUP1 ISZERO PUSH2 0x732 JUMPI PUSH1 0x0 DUP1 REVERT JUMPDEST POP GAS CALL ISZERO DUP1 ISZERO PUSH2 0x746 JUMPI RETURNDATASIZE PUSH1 0x0 DUP1 RETURNDATACOPY RETURNDATASIZE PUSH1 0x0 REVERT JUMPDEST POP POP POP POP DUP1 PUSH1 0x4 PUSH1 0x0 DUP8 DUP8 DUP7 DUP2 DUP2 LT PUSH2 0x761 JUMPI PUSH2 0x761 PUSH2 0x2509 JUMP JUMPDEST SWAP1 POP PUSH1 0x20 MUL ADD PUSH1 0x20 DUP2 ADD SWAP1 PUSH2 0x776 SWAP2 SWAP1 PUSH2 0x2332 JUMP JUMPDEST PUSH1 0xFF AND PUSH1 0xFF AND DUP2 MSTORE PUSH1 0x20 ADD SWAP1 DUP2 MSTORE PUSH1 0x20 ADD PUSH1 0x0 KECCAK256 PUSH1 0x0 ADD PUSH1 0x0 DUP3 DUP3 SLOAD PUSH2 0x79C SWAP2 SWAP1 PUSH2 0x2569 JUMP JUMPDEST SWAP1 SWAP2 SSTORE POP DUP2 SWAP1 POP PUSH1 0x4 PUSH1 0x0 DUP8 DUP8 DUP7 DUP2 DUP2 LT PUSH2 0x7B9 JUMPI PUSH2 0x7B9 PUSH2 0x2509 JUMP JUMPDEST SWAP1 POP PUSH1 0x20 MUL ADD PUSH1 0x20 DUP2 ADD SWAP1 PUSH2 0x7CE SWAP2 SWAP1 PUSH2 0x2332 JUMP JUMPDEST PUSH1 0xFF AND PUSH1 0xFF AND DUP2 MSTORE PUSH1 0x20 ADD SWAP1 DUP2 MSTORE PUSH1 0x20 ADD PUSH1 0x0 KECCAK256 PUSH1 0x2 ADD PUSH1 0x0 DUP3 DUP3 SLOAD PUSH2 0x7F4 SWAP2 SWAP1 PUSH2 0x2569 JUMP JUMPDEST SWAP1 SWAP2 SSTORE POP DUP6 SWAP1 POP DUP5 DUP4 DUP2 DUP2 LT PUSH2 0x80C JUMPI PUSH2 0x80C PUSH2 0x2509 JUMP JUMPDEST SWAP1 POP PUSH1 0x20 MUL ADD PUSH1 0x20 DUP2 ADD SWAP1 PUSH2 0x821 SWAP2 SWAP1 PUSH2 0x2332 JUMP JUMPDEST PUSH1 0xFF AND PUSH32 0x8061B28E7414F7FE236DB788AA0D448B5760A3CA21DC4C3CFD1CEDEA4B5BC36C DUP3 PUSH1 0x40 MLOAD PUSH2 0x855 SWAP2 DUP2 MSTORE PUSH1 0x20 ADD SWAP1 JUMP JUMPDEST PUSH1 0x40 MLOAD DUP1 SWAP2 SUB SWAP1 LOG2 JUMPDEST POP DUP1 PUSH2 0x869 DUP2 PUSH2 0x257C JUMP JUMPDEST SWAP2 POP POP PUSH2 0x5A8 JUMP JUMPDEST POP POP POP POP POP POP JUMP JUMPDEST PUSH1 0x0 DUP3 DUP2 MSTORE PUSH1 0x20 DUP2 SWAP1 MSTORE PUSH1 0x40 SWAP1 KECCAK256 PUSH1 0x1 ADD SLOAD PUSH2 0x894 DUP2 PUSH2 0x132E JUMP JUMPDEST PUSH2 0x89E DUP4 DUP4 PUSH2 0x1338 JUMP JUMPDEST POP POP POP JUMP JUMPDEST PUSH1 0x1 PUSH1 0x1 PUSH1 0xA0 SHL SUB DUP2 AND CALLER EQ PUSH2 0x913 JUMPI PUSH1 0x40 MLOAD PUSH3 0x461BCD PUSH1 0xE5 SHL DUP2 MSTORE PUSH1 0x20 PUSH1 0x4 DUP3 ADD MSTORE PUSH1 0x2F PUSH1 0x24 DUP3 ADD MSTORE PUSH32 0x416363657373436F6E74726F6C3A2063616E206F6E6C792072656E6F756E6365 PUSH1 0x44 DUP3 ADD MSTORE PUSH15 0x103937B632B9903337B91039B2B633 PUSH1 0x89 SHL PUSH1 0x64 DUP3 ADD MSTORE PUSH1 0x84 ADD PUSH2 0x59C JUMP JUMPDEST PUSH2 0x91D DUP3 DUP3 PUSH2 0x13BC JUMP JUMPDEST POP POP JUMP JUMPDEST PUSH32 0x300F9AE985DC711960F7A4D1DD013F9C19ECF40BFF149522AB7523B2187A3846 PUSH2 0x94B DUP2 PUSH2 0x132E JUMP JUMPDEST PUSH1 0x0 JUMPDEST DUP3 DUP2 LT DUP1 ISZERO PUSH2 0x95E JUMPI POP PUSH1 0xB SLOAD ISZERO ISZERO JUMPDEST DUP1 ISZERO PUSH2 0x96D JUMPI POP PUSH2 0x96D PUSH2 0x1421 JUMP JUMPDEST ISZERO PUSH2 0xA66 JUMPI PUSH1 0x0 PUSH2 0x97C PUSH2 0x1434 JUMP JUMPDEST PUSH1 0x0 DUP2 DUP2 MSTORE PUSH1 0x9 PUSH1 0x20 MSTORE PUSH1 0x40 SWAP1 KECCAK256 PUSH1 0x6 DUP2 ADD SLOAD SWAP2 SWAP3 POP SWAP1 PUSH1 0xFF AND ISZERO DUP1 ISZERO PUSH2 0x9A9 JUMPI POP DUP1 PUSH1 0x1 ADD SLOAD PUSH1 0x5 SLOAD LT ISZERO JUMPDEST ISZERO PUSH2 0xA56 JUMPI PUSH1 0x6 DUP2 ADD DUP1 SLOAD PUSH1 0xFF NOT AND PUSH1 0x1 SWAP1 DUP2 OR SWAP1 SWAP2 SSTORE DUP2 ADD SLOAD PUSH1 0x5 DUP1 SLOAD PUSH1 0x0 SWAP1 PUSH2 0x9D5 SWAP1 DUP5 SWAP1 PUSH2 0x2595 JUMP JUMPDEST SWAP1 SWAP2 SSTORE POP POP PUSH1 0x1 DUP2 ADD SLOAD PUSH2 0x9E8 SWAP1 PUSH2 0x149E JUMP JUMPDEST DUP1 SLOAD PUSH1 0x1 DUP3 ADD SLOAD PUSH1 0x3 SLOAD PUSH2 0xA0A SWAP3 PUSH1 0x1 PUSH1 0x1 PUSH1 0xA0 SHL SUB SWAP2 DUP3 AND SWAP3 SWAP2 AND SWAP1 PUSH2 0x1567 JUMP JUMPDEST DUP2 PUSH32 0x645247E420898F823DF59F2AB6CEFC9EF3D8E8477B58B3A3A26B83197938FB85 DUP3 PUSH1 0x1 ADD SLOAD PUSH1 0x40 MLOAD PUSH2 0xA40 SWAP2 DUP2 MSTORE PUSH1 0x20 ADD SWAP1 JUMP JUMPDEST PUSH1 0x40 MLOAD DUP1 SWAP2 SUB SWAP1 LOG2 DUP3 PUSH2 0xA52 DUP2 PUSH2 0x257C JUMP JUMPDEST SWAP4 POP POP JUMPDEST PUSH2 0xA5F DUP3 PUSH2 0x15CA JUMP JUMPDEST POP POP PUSH2 0x94E JUMP JUMPDEST PUSH2 0x89E PUSH2 0x1694 JUMP JUMPDEST PUSH32 0xE1DCBDB91DF27212A29BC27177C840CF2F819ECF2187432E1FAC86C2DD5DFCA9 PUSH2 0xA98 DUP2 PUSH2 0x132E JUMP JUMPDEST POP PUSH1 0x8 SSTORE JUMP JUMPDEST PUSH1 0x0 SWAP2 DUP3 MSTORE PUSH1 0x20 DUP3 DUP2 MSTORE PUSH1 0x40 DUP1 DUP5 KECCAK256 PUSH1 0x1 PUSH1 0x1 PUSH1 0xA0 SHL SUB SWAP4 SWAP1 SWAP4 AND DUP5 MSTORE SWAP2 SWAP1 MSTORE SWAP1 KECCAK256 SLOAD PUSH1 0xFF AND SWAP1 JUMP JUMPDEST PUSH1 0x0 PUSH2 0xAD2 DUP2 PUSH2 0x132E JUMP JUMPDEST PUSH1 0x3 SLOAD PUSH1 0x1 PUSH1 0x1 PUSH1 0xA0 SHL SUB DUP5 DUP2 AND SWAP2 AND EQ ISZERO DUP1 PUSH2 0xB03 JUMPI POP PUSH2 0xAF2 PUSH2 0x16E7 JUMP JUMPDEST DUP3 PUSH1 0x5 SLOAD PUSH2 0xB00 SWAP2 SWAP1 PUSH2 0x2595 JUMP JUMPDEST LT ISZERO JUMPDEST PUSH2 0xB46 JUMPI PUSH1 0x40 MLOAD PUSH3 0x461BCD PUSH1 0xE5 SHL DUP2 MSTORE PUSH1 0x20 PUSH1 0x4 DUP3 ADD MSTORE PUSH1 0x14 PUSH1 0x24 DUP3 ADD MSTORE PUSH20 0x576F756C6420627265616B20736F6C76656E6379 PUSH1 0x60 SHL PUSH1 0x44 DUP3 ADD MSTORE PUSH1 0x64 ADD PUSH2 0x59C JUMP JUMPDEST PUSH2 0x89E PUSH1 0x1 PUSH1 0x1 PUSH1 0xA0 SHL SUB DUP5 AND CALLER DUP5 PUSH2 0x1567 JUMP JUMPDEST PUSH1 0x9 PUSH1 0x20 MSTORE PUSH1 0x0 SWAP1 DUP2 MSTORE PUSH1 0x40 SWAP1 KECCAK256 DUP1 SLOAD PUSH1 0x1 DUP3 ADD SLOAD PUSH1 0x2 DUP4 ADD SLOAD PUSH1 0x3 DUP5 ADD SLOAD PUSH1 0x4 DUP6 ADD DUP1 SLOAD PUSH1 0x1 PUSH1 0x1 PUSH1 0xA0 SHL SUB SWAP1 SWAP6 AND SWAP6 SWAP4 SWAP5 PUSH1 0xFF SWAP1 SWAP4 AND SWAP4 SWAP2 SWAP3 PUSH2 0xB9E SWAP1 PUSH2 0x25A8 JUMP JUMPDEST DUP1 PUSH1 0x1F ADD PUSH1 0x20 DUP1 SWAP2 DIV MUL PUSH1 0x20 ADD PUSH1 0x40 MLOAD SWAP1 DUP2 ADD PUSH1 0x40 MSTORE DUP1 SWAP3 SWAP2 SWAP1 DUP2 DUP2 MSTORE PUSH1 0x20 ADD DUP3 DUP1 SLOAD PUSH2 0xBCA SWAP1 PUSH2 0x25A8 JUMP JUMPDEST DUP1 ISZERO PUSH2 0xC17 JUMPI DUP1 PUSH1 0x1F LT PUSH2 0xBEC JUMPI PUSH2 0x100 DUP1 DUP4 SLOAD DIV MUL DUP4 MSTORE SWAP2 PUSH1 0x20 ADD SWAP2 PUSH2 0xC17 JUMP JUMPDEST DUP3 ADD SWAP2 SWAP1 PUSH1 0x0 MSTORE PUSH1 0x20 PUSH1 0x0 KECCAK256 SWAP1 JUMPDEST DUP2 SLOAD DUP2 MSTORE SWAP1 PUSH1 0x1 ADD SWAP1 PUSH1 0x20 ADD DUP1 DUP4 GT PUSH2 0xBFA JUMPI DUP3 SWAP1 SUB PUSH1 0x1F AND DUP3 ADD SWAP2 JUMPDEST POP POP POP POP PUSH1 0x5 DUP4 ADD SLOAD PUSH1 0x6 SWAP1 SWAP4 ADD SLOAD SWAP2 SWAP3 SWAP2 PUSH1 0xFF AND SWAP1 POP DUP8 JUMP JUMPDEST PUSH32 0x68E79A7BF1E0BC45D0A330C573BC367F9CF464FD326078812F301165FBDA4EF1 PUSH2 0xC5B DUP2 PUSH2 0x132E JUMP JUMPDEST PUSH1 0xFF DUP4 AND PUSH1 0x0 SWAP1 DUP2 MSTORE PUSH1 0x4 PUSH1 0x20 MSTORE PUSH1 0x40 SWAP1 KECCAK256 PUSH1 0x2 ADD SLOAD DUP3 GT ISZERO PUSH2 0xCB6 JUMPI PUSH1 0x40 MLOAD PUSH3 0x461BCD PUSH1 0xE5 SHL DUP2 MSTORE PUSH1 0x20 PUSH1 0x4 DUP3 ADD MSTORE PUSH1 0x13 PUSH1 0x24 DUP3 ADD MSTORE PUSH19 0x496E73756666696369656E7420746F6B656E73 PUSH1 0x68 SHL PUSH1 0x44 DUP3 ADD MSTORE PUSH1 0x64 ADD PUSH2 0x59C JUMP JUMPDEST PUSH1 0xFF DUP4 AND PUSH1 0x0 SWAP1 DUP2 MSTORE PUSH1 0x4 PUSH1 0x20 MSTORE PUSH1 0x40 DUP2 KECCAK256 PUSH1 0x2 ADD DUP1 SLOAD DUP5 SWAP3 SWAP1 PUSH2 0xCDB SWAP1 DUP5 SWAP1 PUSH2 0x2595 JUMP JUMPDEST SWAP1 SWAP2 SSTORE POP POP PUSH1 0xFF DUP4 AND PUSH1 0x0 SWAP1 DUP2 MSTORE PUSH1 0x4 PUSH1 0x20 MSTORE PUSH1 0x40 DUP2 KECCAK256 PUSH1 0x1 ADD DUP1 SLOAD DUP5 SWAP3 SWAP1 PUSH2 0xD05 SWAP1 DUP5 SWAP1 PUSH2 0x2569 JUMP JUMPDEST SWAP1 SWAP2 SSTORE POP POP PUSH1 0x2 SLOAD PUSH1 0x40 MLOAD PUSH4 0x2769C3D9 PUSH1 0xE1 SHL DUP2 MSTORE PUSH1 0x1 PUSH1 0x1 PUSH1 0xA0 SHL SUB DUP7 DUP2 AND PUSH1 0x4 DUP4 ADD MSTORE PUSH1 0xFF DUP7 AND PUSH1 0x24 DUP4 ADD MSTORE PUSH1 0x44 DUP3 ADD DUP6 SWAP1 MSTORE SWAP1 SWAP2 AND SWAP1 PUSH4 0x4ED387B2 SWAP1 PUSH1 0x64 ADD PUSH1 0x0 PUSH1 0x40 MLOAD DUP1 DUP4 SUB DUP2 PUSH1 0x0 DUP8 DUP1 EXTCODESIZE ISZERO DUP1 ISZERO PUSH2 0xD61 JUMPI PUSH1 0x0 DUP1 REVERT JUMPDEST POP GAS CALL ISZERO DUP1 ISZERO PUSH2 0xD75 JUMPI RETURNDATASIZE PUSH1 0x0 DUP1 RETURNDATACOPY RETURNDATASIZE PUSH1 0x0 REVERT JUMPDEST POP POP POP POP DUP4 PUSH1 0x1 PUSH1 0x1 PUSH1 0xA0 SHL SUB AND DUP4 PUSH1 0xFF AND PUSH32 0x8C2D36D9A6EC91A08AD1C7346CB4A7057854F5699E46DD7E110A87C71F215354 DUP5 PUSH1 0x40 MLOAD PUSH2 0xDB8 SWAP2 DUP2 MSTORE PUSH1 0x20 ADD SWAP1 JUMP JUMPDEST PUSH1 0x40 MLOAD DUP1 SWAP2 SUB SWAP1 LOG3 POP POP POP POP JUMP JUMPDEST PUSH2 0xDCE PUSH2 0x2196 JUMP JUMPDEST POP PUSH1 0x40 DUP1 MLOAD PUSH1 0x80 DUP2 ADD DUP3 MSTORE PUSH32 0x17EF568E3E12AB5B9C7254A8D58478811DE00F9E6EB34345ACD53BF8FD09D3EE SLOAD DUP2 MSTORE PUSH32 0xABD6E7CB50984FF9C2F3E18A2660C3353DADF4E3291DEEB275DAE2CD1E44FE07 SLOAD PUSH1 0x20 DUP1 DUP4 ADD SWAP2 SWAP1 SWAP2 MSTORE PUSH32 0x91DA3FD0782E51C6B3986E9E672FD566868E71F3DBC2D6C2CD6FBB3E361AF2A9 SLOAD SWAP3 DUP3 ADD SWAP3 SWAP1 SWAP3 MSTORE PUSH1 0x3 PUSH1 0x0 SWAP1 DUP2 MSTORE PUSH1 0x4 SWAP1 SWAP3 MSTORE PUSH32 0x2E174C10E159EA99B867CE3205125C24A42D128804E4070ED6FCC8CC98166AA2 SLOAD PUSH1 0x60 DUP3 ADD MSTORE PUSH1 0x5 SLOAD PUSH1 0xB SLOAD PUSH1 0x7 SLOAD SWAP3 SWAP4 SWAP2 SWAP3 SWAP1 SWAP2 PUSH2 0xE9B PUSH2 0x1758 JUMP JUMPDEST SWAP1 POP SWAP1 SWAP2 SWAP3 SWAP4 SWAP5 JUMP JUMPDEST PUSH1 0x0 PUSH2 0xEAE PUSH2 0x176C JUMP JUMPDEST PUSH1 0x0 DUP7 GT PUSH2 0xEEF JUMPI PUSH1 0x40 MLOAD PUSH3 0x461BCD PUSH1 0xE5 SHL DUP2 MSTORE PUSH1 0x20 PUSH1 0x4 DUP3 ADD MSTORE PUSH1 0xE PUSH1 0x24 DUP3 ADD MSTORE PUSH14 0x125B9D985B1A5908185B5BDD5B9D PUSH1 0x92 SHL PUSH1 0x44 DUP3 ADD MSTORE PUSH1 0x64 ADD PUSH2 0x59C JUMP JUMPDEST PUSH1 0x1 DUP6 PUSH1 0xFF AND LT ISZERO DUP1 ISZERO PUSH2 0xF07 JUMPI POP PUSH1 0xA DUP6 PUSH1 0xFF AND GT ISZERO JUMPDEST PUSH2 0xF45 JUMPI PUSH1 0x40 MLOAD PUSH3 0x461BCD PUSH1 0xE5 SHL DUP2 MSTORE PUSH1 0x20 PUSH1 0x4 DUP3 ADD MSTORE PUSH1 0xF PUSH1 0x24 DUP3 ADD MSTORE PUSH15 0x496E76616C696420757267656E6379 PUSH1 0x88 SHL PUSH1 0x44 DUP3 ADD MSTORE PUSH1 0x64 ADD PUSH2 0x59C JUMP JUMPDEST DUP3 PUSH2 0xF87 JUMPI PUSH1 0x40 MLOAD PUSH3 0x461BCD PUSH1 0xE5 SHL DUP2 MSTORE PUSH1 0x20 PUSH1 0x4 DUP3 ADD MSTORE PUSH1 0x12 PUSH1 0x24 DUP3 ADD MSTORE PUSH18 0x496E76616C696420636C61696D2074797065 PUSH1 0x70 SHL PUSH1 0x44 DUP3 ADD MSTORE PUSH1 0x64 ADD PUSH2 0x59C JUMP JUMPDEST PUSH1 0xA DUP1 SLOAD SWAP1 PUSH1 0x0 PUSH2 0xF97 DUP4 PUSH2 0x257C JUMP JUMPDEST SWAP2 SWAP1 POP SSTORE SWAP1 POP PUSH1 0x40 MLOAD DUP1 PUSH1 0xE0 ADD PUSH1 0x40 MSTORE DUP1 CALLER PUSH1 0x1 PUSH1 0x1 PUSH1 0xA0 SHL SUB AND DUP2 MSTORE PUSH1 0x20 ADD DUP8 DUP2 MSTORE PUSH1 0x20 ADD DUP7 PUSH1 0xFF AND DUP2 MSTORE PUSH1 0x20 ADD TIMESTAMP DUP2 MSTORE PUSH1 0x20 ADD DUP6 DUP6 DUP1 DUP1 PUSH1 0x1F ADD PUSH1 0x20 DUP1 SWAP2 DIV MUL PUSH1 0x20 ADD PUSH1 0x40 MLOAD SWAP1 DUP2 ADD PUSH1 0x40 MSTORE DUP1 SWAP4 SWAP3 SWAP2 SWAP1 DUP2 DUP2 MSTORE PUSH1 0x20 ADD DUP4 DUP4 DUP1 DUP3 DUP5 CALLDATACOPY PUSH1 0x0 SWAP3 ADD DUP3 SWAP1 MSTORE POP SWAP4 DUP6 MSTORE POP POP POP PUSH1 0x20 DUP1 DUP4 ADD DUP7 SWAP1 MSTORE PUSH1 0x40 SWAP3 DUP4 ADD DUP3 SWAP1 MSTORE DUP5 DUP3 MSTORE PUSH1 0x9 DUP2 MSTORE SWAP1 DUP3 SWAP1 KECCAK256 DUP4 MLOAD DUP2 SLOAD PUSH1 0x1 PUSH1 0x1 PUSH1 0xA0 SHL SUB NOT AND PUSH1 0x1 PUSH1 0x1 PUSH1 0xA0 SHL SUB SWAP1 SWAP2 AND OR DUP2 SSTORE SWAP1 DUP4 ADD MLOAD PUSH1 0x1 DUP3 ADD SSTORE SWAP1 DUP3 ADD MLOAD PUSH1 0x2 DUP3 ADD DUP1 SLOAD PUSH1 0xFF NOT AND PUSH1 0xFF SWAP1 SWAP3 AND SWAP2 SWAP1 SWAP2 OR SWAP1 SSTORE PUSH1 0x60 DUP3 ADD MLOAD PUSH1 0x3 DUP3 ADD SSTORE PUSH1 0x80 DUP3 ADD MLOAD PUSH1 0x4 DUP3 ADD SWAP1 PUSH2 0x107B SWAP1 DUP3 PUSH2 0x263E JUMP JUMPDEST POP PUSH1 0xA0 DUP3 ADD MLOAD PUSH1 0x5 DUP3 ADD SSTORE PUSH1 0xC0 SWAP1 SWAP2 ADD MLOAD PUSH1 0x6 SWAP1 SWAP2 ADD DUP1 SLOAD PUSH1 0xFF NOT AND SWAP2 ISZERO ISZERO SWAP2 SWAP1 SWAP2 OR SWAP1 SSTORE PUSH2 0x10A9 DUP2 PUSH2 0x17C5 JUMP JUMPDEST PUSH1 0x40 MLOAD DUP7 DUP2 MSTORE CALLER SWAP1 DUP3 SWAP1 PUSH32 0x5B4F60EB286A5FEAA1750946835885A36F688C2C576685B66DACA877B88D065C SWAP1 PUSH1 0x20 ADD PUSH1 0x40 MLOAD DUP1 SWAP2 SUB SWAP1 LOG3 PUSH2 0x10E8 PUSH2 0x18F8 JUMP JUMPDEST PUSH2 0x10F1 PUSH1 0x1 DUP1 SSTORE JUMP JUMPDEST SWAP6 SWAP5 POP POP POP POP POP JUMP JUMPDEST PUSH1 0x0 PUSH3 0xF4240 DUP2 PUSH2 0x1109 PUSH2 0x1A26 JUMP JUMPDEST SWAP1 POP PUSH1 0x0 PUSH2 0x1115 PUSH2 0x1A42 JUMP JUMPDEST SWAP1 POP PUSH1 0x0 PUSH2 0x1121 PUSH2 0x1A59 JUMP JUMPDEST SWAP1 POP PUSH8 0x3311FC80A570000 PUSH1 0x0 PUSH8 0xDE0B6B3A7640000 PUSH2 0x1142 DUP4 PUSH1 0x2 PUSH2 0x26FE JUMP JUMPDEST PUSH2 0x1154 SWAP1 PUSH8 0xDE0B6B3A7640000 PUSH2 0x2569 JUMP JUMPDEST PUSH2 0x115E SWAP1 DUP9 PUSH2 0x26FE JUMP JUMPDEST PUSH2 0x1168 SWAP2 SWAP1 PUSH2 0x272B JUMP JUMPDEST SWAP1 POP PUSH1 0x0 PUSH8 0xDE0B6B3A7640000 PUSH2 0x117F DUP5 DUP3 PUSH2 0x2595 JUMP JUMPDEST PUSH2 0x1189 SWAP1 DUP9 PUSH2 0x26FE JUMP JUMPDEST PUSH2 0x1193 SWAP2 SWAP1 PUSH2 0x272B JUMP JUMPDEST SWAP1 POP PUSH1 0x0 PUSH2 0x11A1 DUP3 DUP5 PUSH2 0x2569 JUMP JUMPDEST SWAP1 POP PUSH1 0x0 PUSH8 0xDE0B6B3A7640000 PUSH2 0x11C0 PUSH8 0x58D15E176280000 DUP3 PUSH2 0x2569 JUMP JUMPDEST PUSH2 0x11CA DUP9 DUP11 PUSH2 0x26FE JUMP JUMPDEST PUSH2 0x11D4 SWAP2 SWAP1 PUSH2 0x26FE JUMP JUMPDEST PUSH2 0x11DE SWAP2 SWAP1 PUSH2 0x272B JUMP JUMPDEST SWAP1 POP PUSH1 0x0 DUP2 PUSH2 0x11F5 PUSH8 0xDE0B6B3A7640000 DUP6 PUSH2 0x26FE JUMP JUMPDEST PUSH2 0x11FF SWAP2 SWAP1 PUSH2 0x272B JUMP JUMPDEST SWAP12 SWAP11 POP POP POP POP POP POP POP POP POP POP POP JUMP JUMPDEST PUSH1 0x0 DUP3 DUP2 MSTORE PUSH1 0x20 DUP2 SWAP1 MSTORE PUSH1 0x40 SWAP1 KECCAK256 PUSH1 0x1 ADD SLOAD PUSH2 0x1229 DUP2 PUSH2 0x132E JUMP JUMPDEST PUSH2 0x89E DUP4 DUP4 PUSH2 0x13BC JUMP JUMPDEST PUSH1 0xB DUP2 DUP2 SLOAD DUP2 LT PUSH2 0x1243 JUMPI PUSH1 0x0 DUP1 REVERT JUMPDEST PUSH1 0x0 SWAP2 DUP3 MSTORE PUSH1 0x20 SWAP1 SWAP2 KECCAK256 ADD SLOAD SWAP1 POP DUP2 JUMP JUMPDEST PUSH2 0x125C PUSH2 0x176C JUMP JUMPDEST PUSH1 0x0 DUP2 GT PUSH2 0x129D JUMPI PUSH1 0x40 MLOAD PUSH3 0x461BCD PUSH1 0xE5 SHL DUP2 MSTORE PUSH1 0x20 PUSH1 0x4 DUP3 ADD MSTORE PUSH1 0xE PUSH1 0x24 DUP3 ADD MSTORE PUSH14 0x125B9D985B1A5908185B5BDD5B9D PUSH1 0x92 SHL PUSH1 0x44 DUP3 ADD MSTORE PUSH1 0x64 ADD PUSH2 0x59C JUMP JUMPDEST PUSH1 0x3 SLOAD PUSH2 0x12B5 SWAP1 PUSH1 0x1 PUSH1 0x1 PUSH1 0xA0 SHL SUB AND CALLER ADDRESS DUP5 PUSH2 0x1A7A JUMP JUMPDEST DUP1 PUSH1 0x5 PUSH1 0x0 DUP3 DUP3 SLOAD PUSH2 0x12C7 SWAP2 SWAP1 PUSH2 0x2569 JUMP JUMPDEST SWAP3 POP POP DUP2 SWAP1 SSTORE POP DUP1 PUSH1 0x6 PUSH1 0x0 DUP3 DUP3 SLOAD PUSH2 0x12E0 SWAP2 SWAP1 PUSH2 0x2569 JUMP JUMPDEST SWAP1 SWAP2 SSTORE POP POP PUSH1 0x40 MLOAD DUP2 DUP2 MSTORE CALLER SWAP1 PUSH32 0x80ECC532CF2E08856601DF42646970D676A686D8EEACBFD2038FAE4FF288DA56 SWAP1 PUSH1 0x20 ADD PUSH1 0x40 MLOAD DUP1 SWAP2 SUB SWAP1 LOG2 PUSH2 0x1322 PUSH2 0x18F8 JUMP JUMPDEST PUSH2 0x132B PUSH1 0x1 DUP1 SSTORE JUMP JUMPDEST POP JUMP JUMPDEST PUSH2 0x132B DUP2 CALLER PUSH2 0x1AB8 JUMP JUMPDEST PUSH2 0x1342 DUP3 DUP3 PUSH2 0xA9E JUMP JUMPDEST PUSH2 0x91D JUMPI PUSH1 0x0 DUP3 DUP2 MSTORE PUSH1 0x20 DUP2 DUP2 MSTORE PUSH1 0x40 DUP1 DUP4 KECCAK256 PUSH1 0x1 PUSH1 0x1 PUSH1 0xA0 SHL SUB DUP6 AND DUP5 MSTORE SWAP1 SWAP2 MSTORE SWAP1 KECCAK256 DUP1 SLOAD PUSH1 0xFF NOT AND PUSH1 0x1 OR SWAP1 SSTORE PUSH2 0x1378 CALLER SWAP1 JUMP JUMPDEST PUSH1 0x1 PUSH1 0x1 PUSH1 0xA0 SHL SUB AND DUP2 PUSH1 0x1 PUSH1 0x1 PUSH1 0xA0 SHL SUB AND DUP4 PUSH32 0x2F8788117E7EFF1D82E926EC794901D17C78024A50270940304540A733656F0D PUSH1 0x40 MLOAD PUSH1 0x40 MLOAD DUP1 SWAP2 SUB SWAP1 LOG4 POP POP JUMP JUMPDEST PUSH2 0x13C6 DUP3 DUP3 PUSH2 0xA9E JUMP JUMPDEST ISZERO PUSH2 0x91D JUMPI PUSH1 0x0 DUP3 DUP2 MSTORE PUSH1 0x20 DUP2 DUP2 MSTORE PUSH1 0x40 DUP1 DUP4 KECCAK256 PUSH1 0x1 PUSH1 0x1 PUSH1 0xA0 SHL SUB DUP6 AND DUP1 DUP6 MSTORE SWAP3 MSTORE DUP1 DUP4 KECCAK256 DUP1 SLOAD PUSH1 0xFF NOT AND SWAP1 SSTORE MLOAD CALLER SWAP3 DUP6 SWAP2 PUSH32 0xF6391F5C32D9C69D2A47EA670B442974B53935D1EDC7FD64EB21E047A839171B SWAP2 SWAP1 LOG4 POP POP JUMP JUMPDEST PUSH1 0x0 PUSH2 0x142B PUSH2 0x16E7 JUMP JUMPDEST PUSH1 0x5 SLOAD GT SWAP1 POP SWAP1 JUMP JUMPDEST PUSH1 0xB SLOAD PUSH1 0x0 SWAP1 PUSH2 0x147A JUMPI PUSH1 0x40 MLOAD PUSH3 0x461BCD PUSH1 0xE5 SHL DUP2 MSTORE PUSH1 0x20 PUSH1 0x4 DUP3 ADD MSTORE PUSH1 0x11 PUSH1 0x24 DUP3 ADD MSTORE PUSH17 0x4E6F2070656E64696E6720636C61696D73 PUSH1 0x78 SHL PUSH1 0x44 DUP3 ADD MSTORE PUSH1 0x64 ADD PUSH2 0x59C JUMP JUMPDEST PUSH1 0xB PUSH1 0x0 DUP2 SLOAD DUP2 LT PUSH2 0x148E JUMPI PUSH2 0x148E PUSH2 0x2509 JUMP JUMPDEST SWAP1 PUSH1 0x0 MSTORE PUSH1 0x20 PUSH1 0x0 KECCAK256 ADD SLOAD SWAP1 POP SWAP1 JUMP JUMPDEST PUSH1 0x0 PUSH1 0x1E PUSH2 0x14AF PUSH3 0x15180 TIMESTAMP PUSH2 0x272B JUMP JUMPDEST PUSH2 0x14B9 SWAP2 SWAP1 PUSH2 0x273F JUMP JUMPDEST PUSH1 0x2B SLOAD SWAP1 SWAP2 POP PUSH1 0xFF AND DUP2 EQ PUSH2 0x14EF JUMPI PUSH1 0x0 PUSH1 0xD DUP3 PUSH1 0x1E DUP2 LT PUSH2 0x14DD JUMPI PUSH2 0x14DD PUSH2 0x2509 JUMP JUMPDEST ADD SSTORE PUSH1 0x2B DUP1 SLOAD PUSH1 0xFF NOT AND PUSH1 0xFF DUP4 AND OR SWAP1 SSTORE JUMPDEST DUP2 PUSH1 0xD DUP3 PUSH1 0x1E DUP2 LT PUSH2 0x1503 JUMPI PUSH2 0x1503 PUSH2 0x2509 JUMP JUMPDEST ADD PUSH1 0x0 DUP3 DUP3 SLOAD PUSH2 0x1513 SWAP2 SWAP1 PUSH2 0x2569 JUMP JUMPDEST SWAP1 SWAP2 SSTORE POP POP PUSH1 0x0 PUSH1 0x7 DUP2 SWAP1 SSTORE JUMPDEST PUSH1 0x1E DUP2 LT ISZERO PUSH2 0x89E JUMPI PUSH1 0xD DUP2 PUSH1 0x1E DUP2 LT PUSH2 0x153C JUMPI PUSH2 0x153C PUSH2 0x2509 JUMP JUMPDEST ADD SLOAD PUSH1 0x7 PUSH1 0x0 DUP3 DUP3 SLOAD PUSH2 0x154F SWAP2 SWAP1 PUSH2 0x2569 JUMP JUMPDEST SWAP1 SWAP2 SSTORE POP DUP2 SWAP1 POP PUSH2 0x155F DUP2 PUSH2 0x257C JUMP JUMPDEST SWAP2 POP POP PUSH2 0x1520 JUMP JUMPDEST PUSH1 0x40 MLOAD PUSH1 0x1 PUSH1 0x1 PUSH1 0xA0 SHL SUB DUP4 AND PUSH1 0x24 DUP3 ADD MSTORE PUSH1 0x44 DUP2 ADD DUP3 SWAP1 MSTORE PUSH2 0x89E SWAP1 DUP5 SWAP1 PUSH4 0xA9059CBB PUSH1 0xE0 SHL SWAP1 PUSH1 0x64 ADD JUMPDEST PUSH1 0x40 DUP1 MLOAD PUSH1 0x1F NOT DUP2 DUP5 SUB ADD DUP2 MSTORE SWAP2 SWAP1 MSTORE PUSH1 0x20 DUP2 ADD DUP1 MLOAD PUSH1 0x1 PUSH1 0x1 PUSH1 0xE0 SHL SUB AND PUSH1 0x1 PUSH1 0x1 PUSH1 0xE0 SHL SUB NOT SWAP1 SWAP4 AND SWAP3 SWAP1 SWAP3 OR SWAP1 SWAP2 MSTORE PUSH2 0x1B11 JUMP JUMPDEST PUSH1 0x0 JUMPDEST PUSH1 0xB SLOAD DUP2 LT ISZERO PUSH2 0x91D JUMPI DUP2 PUSH1 0xB DUP3 DUP2 SLOAD DUP2 LT PUSH2 0x15EB JUMPI PUSH2 0x15EB PUSH2 0x2509 JUMP JUMPDEST SWAP1 PUSH1 0x0 MSTORE PUSH1 0x20 PUSH1 0x0 KECCAK256 ADD SLOAD SUB PUSH2 0x1682 JUMPI PUSH1 0xB DUP1 SLOAD PUSH2 0x160B SWAP1 PUSH1 0x1 SWAP1 PUSH2 0x2595 JUMP JUMPDEST DUP2 SLOAD DUP2 LT PUSH2 0x161B JUMPI PUSH2 0x161B PUSH2 0x2509 JUMP JUMPDEST SWAP1 PUSH1 0x0 MSTORE PUSH1 0x20 PUSH1 0x0 KECCAK256 ADD SLOAD PUSH1 0xB DUP3 DUP2 SLOAD DUP2 LT PUSH2 0x1639 JUMPI PUSH2 0x1639 PUSH2 0x2509 JUMP JUMPDEST PUSH1 0x0 SWAP2 DUP3 MSTORE PUSH1 0x20 SWAP1 SWAP2 KECCAK256 ADD SSTORE PUSH1 0xB DUP1 SLOAD DUP1 PUSH2 0x1656 JUMPI PUSH2 0x1656 PUSH2 0x2753 JUMP JUMPDEST PUSH1 0x1 SWAP1 SUB DUP2 DUP2 SWAP1 PUSH1 0x0 MSTORE PUSH1 0x20 PUSH1 0x0 KECCAK256 ADD PUSH1 0x0 SWAP1 SSTORE SWAP1 SSTORE PUSH1 0xB DUP1 SLOAD SWAP1 POP DUP2 LT ISZERO PUSH2 0x91D JUMPI PUSH2 0x91D DUP2 PUSH2 0x1BE6 JUMP JUMPDEST DUP1 PUSH2 0x168C DUP2 PUSH2 0x257C JUMP JUMPDEST SWAP2 POP POP PUSH2 0x15CD JUMP JUMPDEST PUSH2 0x169C PUSH2 0x1758 JUMP JUMPDEST PUSH2 0x16E5 JUMPI PUSH32 0xD6B3DFAC3E11B7BE3B63871AB9B0FDA1F0C0FD252CF44C0115B91E13EDE988B2 PUSH2 0x16C9 PUSH2 0x16E7 JUMP JUMPDEST PUSH1 0x5 SLOAD PUSH1 0x40 DUP1 MLOAD SWAP3 DUP4 MSTORE PUSH1 0x20 DUP4 ADD SWAP2 SWAP1 SWAP2 MSTORE ADD PUSH1 0x40 MLOAD DUP1 SWAP2 SUB SWAP1 LOG1 JUMPDEST JUMP JUMPDEST PUSH1 0x0 DUP1 PUSH1 0x64 PUSH1 0x28 PUSH1 0x6 SLOAD PUSH2 0x16FB SWAP2 SWAP1 PUSH2 0x26FE JUMP JUMPDEST PUSH2 0x1705 SWAP2 SWAP1 PUSH2 0x272B JUMP JUMPDEST SWAP1 POP PUSH1 0x0 PUSH1 0x3 PUSH1 0x7 SLOAD PUSH2 0x1718 SWAP2 SWAP1 PUSH2 0x26FE JUMP JUMPDEST SWAP1 POP PUSH1 0x0 PUSH1 0x64 PUSH1 0x16 PUSH1 0x8 SLOAD PUSH2 0x172D SWAP2 SWAP1 PUSH2 0x26FE JUMP JUMPDEST PUSH2 0x1737 SWAP2 SWAP1 PUSH2 0x272B JUMP JUMPDEST SWAP1 POP DUP3 DUP1 DUP4 GT ISZERO PUSH2 0x1745 JUMPI POP DUP2 JUMPDEST DUP1 DUP3 GT ISZERO PUSH2 0x1750 JUMPI POP DUP1 JUMPDEST SWAP5 SWAP4 POP POP POP POP JUMP JUMPDEST PUSH1 0x0 PUSH2 0x1762 PUSH2 0x16E7 JUMP JUMPDEST PUSH1 0x5 SLOAD LT ISZERO SWAP1 POP SWAP1 JUMP JUMPDEST PUSH1 0x2 PUSH1 0x1 SLOAD SUB PUSH2 0x17BE JUMPI PUSH1 0x40 MLOAD PUSH3 0x461BCD PUSH1 0xE5 SHL DUP2 MSTORE PUSH1 0x20 PUSH1 0x4 DUP3 ADD MSTORE PUSH1 0x1F PUSH1 0x24 DUP3 ADD MSTORE PUSH32 0x5265656E7472616E637947756172643A207265656E7472616E742063616C6C00 PUSH1 0x44 DUP3 ADD MSTORE PUSH1 0x64 ADD PUSH2 0x59C JUMP JUMPDEST PUSH1 0x2 PUSH1 0x1 SSTORE JUMP JUMPDEST PUSH1 0xB DUP1 SLOAD PUSH1 0x1 DUP2 DUP2 ADD DUP4 SSTORE PUSH1 0x0 DUP4 DUP2 MSTORE PUSH32 0x175B7A638427703F0DBE7BB9BBF987A2551717B34E79F33B5B1008D1FA01DB9 SWAP1 SWAP3 ADD DUP5 SWAP1 SSTORE SWAP2 SLOAD SWAP1 SWAP2 PUSH2 0x1809 SWAP2 PUSH2 0x2595 JUMP JUMPDEST SWAP1 POP JUMPDEST DUP1 ISZERO PUSH2 0x91D JUMPI PUSH1 0x0 PUSH1 0x2 PUSH2 0x1821 PUSH1 0x1 DUP5 PUSH2 0x2595 JUMP JUMPDEST PUSH2 0x182B SWAP2 SWAP1 PUSH2 0x272B JUMP JUMPDEST SWAP1 POP PUSH2 0x1853 PUSH1 0xB DUP3 DUP2 SLOAD DUP2 LT PUSH2 0x1843 JUMPI PUSH2 0x1843 PUSH2 0x2509 JUMP JUMPDEST SWAP1 PUSH1 0x0 MSTORE PUSH1 0x20 PUSH1 0x0 KECCAK256 ADD SLOAD PUSH2 0x1D3F JUMP JUMPDEST PUSH2 0x1869 PUSH1 0xB DUP5 DUP2 SLOAD DUP2 LT PUSH2 0x1843 JUMPI PUSH2 0x1843 PUSH2 0x2509 JUMP JUMPDEST GT ISZERO PUSH2 0x89E JUMPI PUSH1 0xB DUP2 DUP2 SLOAD DUP2 LT PUSH2 0x1882 JUMPI PUSH2 0x1882 PUSH2 0x2509 JUMP JUMPDEST SWAP1 PUSH1 0x0 MSTORE PUSH1 0x20 PUSH1 0x0 KECCAK256 ADD SLOAD PUSH1 0xB DUP4 DUP2 SLOAD DUP2 LT PUSH2 0x18A0 JUMPI PUSH2 0x18A0 PUSH2 0x2509 JUMP JUMPDEST SWAP1 PUSH1 0x0 MSTORE PUSH1 0x20 PUSH1 0x0 KECCAK256 ADD SLOAD PUSH1 0xB DUP5 DUP2 SLOAD DUP2 LT PUSH2 0x18BE JUMPI PUSH2 0x18BE PUSH2 0x2509 JUMP JUMPDEST SWAP1 PUSH1 0x0 MSTORE PUSH1 0x20 PUSH1 0x0 KECCAK256 ADD PUSH1 0x0 PUSH1 0xB DUP6 DUP2 SLOAD DUP2 LT PUSH2 0x18DD JUMPI PUSH2 0x18DD PUSH2 0x2509 JUMP JUMPDEST PUSH1 0x0 SWAP2 DUP3 MSTORE PUSH1 0x20 SWAP1 SWAP2 KECCAK256 ADD SWAP3 SWAP1 SWAP3 SSTORE SWAP2 SWAP1 SWAP2 SSTORE POP SWAP1 POP PUSH2 0x180C JUMP JUMPDEST PUSH1 0x0 JUMPDEST PUSH1 0xA DUP2 LT DUP1 ISZERO PUSH2 0x190C JUMPI POP PUSH1 0xB SLOAD ISZERO ISZERO JUMPDEST DUP1 ISZERO PUSH2 0x191B JUMPI POP PUSH2 0x191B PUSH2 0x1421 JUMP JUMPDEST ISZERO PUSH2 0x132B JUMPI PUSH1 0x0 PUSH2 0x192A PUSH2 0x1434 JUMP JUMPDEST PUSH1 0x0 DUP2 DUP2 MSTORE PUSH1 0x9 PUSH1 0x20 MSTORE PUSH1 0x40 SWAP1 KECCAK256 PUSH1 0x6 DUP2 ADD SLOAD SWAP2 SWAP3 POP SWAP1 PUSH1 0xFF AND ISZERO DUP1 ISZERO PUSH2 0x1969 JUMPI POP PUSH2 0x1954 PUSH2 0x16E7 JUMP JUMPDEST DUP2 PUSH1 0x1 ADD SLOAD PUSH2 0x1963 SWAP2 SWAP1 PUSH2 0x2569 JUMP JUMPDEST PUSH1 0x5 SLOAD LT ISZERO JUMPDEST ISZERO PUSH2 0x1A16 JUMPI PUSH1 0x6 DUP2 ADD DUP1 SLOAD PUSH1 0xFF NOT AND PUSH1 0x1 SWAP1 DUP2 OR SWAP1 SWAP2 SSTORE DUP2 ADD SLOAD PUSH1 0x5 DUP1 SLOAD PUSH1 0x0 SWAP1 PUSH2 0x1995 SWAP1 DUP5 SWAP1 PUSH2 0x2595 JUMP JUMPDEST SWAP1 SWAP2 SSTORE POP POP PUSH1 0x1 DUP2 ADD SLOAD PUSH2 0x19A8 SWAP1 PUSH2 0x149E JUMP JUMPDEST DUP1 SLOAD PUSH1 0x1 DUP3 ADD SLOAD PUSH1 0x3 SLOAD PUSH2 0x19CA SWAP3 PUSH1 0x1 PUSH1 0x1 PUSH1 0xA0 SHL SUB SWAP2 DUP3 AND SWAP3 SWAP2 AND SWAP1 PUSH2 0x1567 JUMP JUMPDEST DUP2 PUSH32 0x645247E420898F823DF59F2AB6CEFC9EF3D8E8477B58B3A3A26B83197938FB85 DUP3 PUSH1 0x1 ADD SLOAD PUSH1 0x40 MLOAD PUSH2 0x1A00 SWAP2 DUP2 MSTORE PUSH1 0x20 ADD SWAP1 JUMP JUMPDEST PUSH1 0x40 MLOAD DUP1 SWAP2 SUB SWAP1 LOG2 DUP3 PUSH2 0x1A12 DUP2 PUSH2 0x257C JUMP JUMPDEST SWAP4 POP POP JUMPDEST PUSH2 0x1A1F DUP3 PUSH2 0x15CA JUMP JUMPDEST POP POP PUSH2 0x18FB JUMP JUMPDEST PUSH1 0x0 PUSH2 0x1A3D PUSH8 0xDE0B6B3A7640000 PUSH3 0x249F0 PUSH2 0x26FE JUMP JUMPDEST SWAP1 POP SWAP1 JUMP JUMPDEST PUSH1 0x0 PUSH2 0x1A3D PUSH8 0xDE0B6B3A7640000 PUSH3 0x989680 PUSH2 0x26FE JUMP JUMPDEST PUSH1 0x0 PUSH1 0x1E PUSH2 0x1A70 PUSH8 0xDE0B6B3A7640000 PUSH1 0xF PUSH2 0x26FE JUMP JUMPDEST PUSH2 0x1A3D SWAP2 SWAP1 PUSH2 0x272B JUMP JUMPDEST PUSH1 0x40 MLOAD PUSH1 0x1 PUSH1 0x1 PUSH1 0xA0 SHL SUB DUP1 DUP6 AND PUSH1 0x24 DUP4 ADD MSTORE DUP4 AND PUSH1 0x44 DUP3 ADD MSTORE PUSH1 0x64 DUP2 ADD DUP3 SWAP1 MSTORE PUSH2 0x1AB2 SWAP1 DUP6 SWAP1 PUSH4 0x23B872DD PUSH1 0xE0 SHL SWAP1 PUSH1 0x84 ADD PUSH2 0x1593 JUMP JUMPDEST POP POP POP POP JUMP JUMPDEST PUSH2 0x1AC2 DUP3 DUP3 PUSH2 0xA9E JUMP JUMPDEST PUSH2 0x91D JUMPI PUSH2 0x1ACF DUP2 PUSH2 0x1EBE JUMP JUMPDEST PUSH2 0x1ADA DUP4 PUSH1 0x20 PUSH2 0x1ED0 JUMP JUMPDEST PUSH1 0x40 MLOAD PUSH1 0x20 ADD PUSH2 0x1AEB SWAP3 SWAP2 SWAP1 PUSH2 0x2769 JUMP JUMPDEST PUSH1 0x40 DUP1 MLOAD PUSH1 0x1F NOT DUP2 DUP5 SUB ADD DUP2 MSTORE SWAP1 DUP3 SWAP1 MSTORE PUSH3 0x461BCD PUSH1 0xE5 SHL DUP3 MSTORE PUSH2 0x59C SWAP2 PUSH1 0x4 ADD PUSH2 0x27DE JUMP JUMPDEST PUSH1 0x0 PUSH2 0x1B66 DUP3 PUSH1 0x40 MLOAD DUP1 PUSH1 0x40 ADD PUSH1 0x40 MSTORE DUP1 PUSH1 0x20 DUP2 MSTORE PUSH1 0x20 ADD PUSH32 0x5361666545524332303A206C6F772D6C6576656C2063616C6C206661696C6564 DUP2 MSTORE POP DUP6 PUSH1 0x1 PUSH1 0x1 PUSH1 0xA0 SHL SUB AND PUSH2 0x2073 SWAP1 SWAP3 SWAP2 SWAP1 PUSH4 0xFFFFFFFF AND JUMP JUMPDEST SWAP1 POP DUP1 MLOAD PUSH1 0x0 EQ DUP1 PUSH2 0x1B87 JUMPI POP DUP1 DUP1 PUSH1 0x20 ADD SWAP1 MLOAD DUP2 ADD SWAP1 PUSH2 0x1B87 SWAP2 SWAP1 PUSH2 0x27F1 JUMP JUMPDEST PUSH2 0x89E JUMPI PUSH1 0x40 MLOAD PUSH3 0x461BCD PUSH1 0xE5 SHL DUP2 MSTORE PUSH1 0x20 PUSH1 0x4 DUP3 ADD MSTORE PUSH1 0x2A PUSH1 0x24 DUP3 ADD MSTORE PUSH32 0x5361666545524332303A204552433230206F7065726174696F6E20646964206E PUSH1 0x44 DUP3 ADD MSTORE PUSH10 0x1BDD081CDD58D8D95959 PUSH1 0xB2 SHL PUSH1 0x64 DUP3 ADD MSTORE PUSH1 0x84 ADD PUSH2 0x59C JUMP JUMPDEST PUSH1 0xB SLOAD JUMPDEST PUSH1 0x0 PUSH2 0x1BF7 DUP4 PUSH1 0x2 PUSH2 0x26FE JUMP JUMPDEST PUSH2 0x1C02 SWAP1 PUSH1 0x1 PUSH2 0x2569 JUMP JUMPDEST SWAP1 POP PUSH1 0x0 PUSH2 0x1C11 DUP5 PUSH1 0x2 PUSH2 0x26FE JUMP JUMPDEST PUSH2 0x1C1C SWAP1 PUSH1 0x2 PUSH2 0x2569 JUMP JUMPDEST SWAP1 POP DUP4 DUP4 DUP4 LT DUP1 ISZERO PUSH2 0x1C57 JUMPI POP PUSH2 0x1C3F PUSH1 0xB DUP3 DUP2 SLOAD DUP2 LT PUSH2 0x1843 JUMPI PUSH2 0x1843 PUSH2 0x2509 JUMP JUMPDEST PUSH2 0x1C55 PUSH1 0xB DUP6 DUP2 SLOAD DUP2 LT PUSH2 0x1843 JUMPI PUSH2 0x1843 PUSH2 0x2509 JUMP JUMPDEST GT JUMPDEST ISZERO PUSH2 0x1C5F JUMPI POP DUP2 JUMPDEST DUP4 DUP3 LT DUP1 ISZERO PUSH2 0x1C97 JUMPI POP PUSH2 0x1C7F PUSH1 0xB DUP3 DUP2 SLOAD DUP2 LT PUSH2 0x1843 JUMPI PUSH2 0x1843 PUSH2 0x2509 JUMP JUMPDEST PUSH2 0x1C95 PUSH1 0xB DUP5 DUP2 SLOAD DUP2 LT PUSH2 0x1843 JUMPI PUSH2 0x1843 PUSH2 0x2509 JUMP JUMPDEST GT JUMPDEST ISZERO PUSH2 0x1C9F JUMPI POP DUP1 JUMPDEST DUP5 DUP2 EQ PUSH2 0x1D30 JUMPI PUSH1 0xB DUP2 DUP2 SLOAD DUP2 LT PUSH2 0x1CB9 JUMPI PUSH2 0x1CB9 PUSH2 0x2509 JUMP JUMPDEST SWAP1 PUSH1 0x0 MSTORE PUSH1 0x20 PUSH1 0x0 KECCAK256 ADD SLOAD PUSH1 0xB DUP7 DUP2 SLOAD DUP2 LT PUSH2 0x1CD7 JUMPI PUSH2 0x1CD7 PUSH2 0x2509 JUMP JUMPDEST SWAP1 PUSH1 0x0 MSTORE PUSH1 0x20 PUSH1 0x0 KECCAK256 ADD SLOAD PUSH1 0xB DUP8 DUP2 SLOAD DUP2 LT PUSH2 0x1CF5 JUMPI PUSH2 0x1CF5 PUSH2 0x2509 JUMP JUMPDEST SWAP1 PUSH1 0x0 MSTORE PUSH1 0x20 PUSH1 0x0 KECCAK256 ADD PUSH1 0x0 PUSH1 0xB DUP6 DUP2 SLOAD DUP2 LT PUSH2 0x1D14 JUMPI PUSH2 0x1D14 PUSH2 0x2509 JUMP JUMPDEST PUSH1 0x0 SWAP2 DUP3 MSTORE PUSH1 0x20 SWAP1 SWAP2 KECCAK256 ADD SWAP3 SWAP1 SWAP3 SSTORE SWAP2 SWAP1 SWAP2 SSTORE POP SWAP4 POP DUP4 PUSH2 0x1D37 JUMP JUMPDEST POP POP POP POP POP JUMP JUMPDEST POP POP POP PUSH2 0x1BEA JUMP JUMPDEST PUSH1 0x0 DUP2 DUP2 MSTORE PUSH1 0x9 PUSH1 0x20 SWAP1 DUP2 MSTORE PUSH1 0x40 DUP1 DUP4 KECCAK256 DUP2 MLOAD PUSH1 0xE0 DUP2 ADD DUP4 MSTORE DUP2 SLOAD PUSH1 0x1 PUSH1 0x1 PUSH1 0xA0 SHL SUB AND DUP2 MSTORE PUSH1 0x1 DUP3 ADD SLOAD SWAP4 DUP2 ADD SWAP4 SWAP1 SWAP4 MSTORE PUSH1 0x2 DUP2 ADD SLOAD PUSH1 0xFF AND SWAP2 DUP4 ADD SWAP2 SWAP1 SWAP2 MSTORE PUSH1 0x3 DUP2 ADD SLOAD PUSH1 0x60 DUP4 ADD MSTORE PUSH1 0x4 DUP2 ADD DUP1 SLOAD DUP5 SWAP4 SWAP3 SWAP2 PUSH1 0x80 DUP5 ADD SWAP2 PUSH2 0x1DA2 SWAP1 PUSH2 0x25A8 JUMP JUMPDEST DUP1 PUSH1 0x1F ADD PUSH1 0x20 DUP1 SWAP2 DIV MUL PUSH1 0x20 ADD PUSH1 0x40 MLOAD SWAP1 DUP2 ADD PUSH1 0x40 MSTORE DUP1 SWAP3 SWAP2 SWAP1 DUP2 DUP2 MSTORE PUSH1 0x20 ADD DUP3 DUP1 SLOAD PUSH2 0x1DCE SWAP1 PUSH2 0x25A8 JUMP JUMPDEST DUP1 ISZERO PUSH2 0x1E1B JUMPI DUP1 PUSH1 0x1F LT PUSH2 0x1DF0 JUMPI PUSH2 0x100 DUP1 DUP4 SLOAD DIV MUL DUP4 MSTORE SWAP2 PUSH1 0x20 ADD SWAP2 PUSH2 0x1E1B JUMP JUMPDEST DUP3 ADD SWAP2 SWAP1 PUSH1 0x0 MSTORE PUSH1 0x20 PUSH1 0x0 KECCAK256 SWAP1 JUMPDEST DUP2 SLOAD DUP2 MSTORE SWAP1 PUSH1 0x1 ADD SWAP1 PUSH1 0x20 ADD DUP1 DUP4 GT PUSH2 0x1DFE JUMPI DUP3 SWAP1 SUB PUSH1 0x1F AND DUP3 ADD SWAP2 JUMPDEST POP POP POP SWAP2 DUP4 MSTORE POP POP PUSH1 0x5 DUP3 ADD SLOAD PUSH1 0x20 DUP3 ADD MSTORE PUSH1 0x6 SWAP1 SWAP2 ADD SLOAD PUSH1 0xFF AND ISZERO ISZERO PUSH1 0x40 SWAP2 DUP3 ADD MSTORE DUP2 ADD MLOAD SWAP1 SWAP2 POP PUSH1 0x0 SWAP1 PUSH2 0x1E52 SWAP1 PUSH1 0x46 PUSH2 0x2813 JUMP JUMPDEST PUSH1 0xFF AND SWAP1 POP PUSH1 0x0 PUSH2 0xE10 DUP4 PUSH1 0x60 ADD MLOAD TIMESTAMP PUSH2 0x1E6C SWAP2 SWAP1 PUSH2 0x2595 JUMP JUMPDEST PUSH2 0x1E76 SWAP2 SWAP1 PUSH2 0x272B JUMP JUMPDEST PUSH2 0x1E81 SWAP1 PUSH1 0x2 PUSH2 0x26FE JUMP JUMPDEST PUSH1 0xA0 DUP5 ADD MLOAD SWAP1 SWAP2 POP PUSH1 0x0 SWAP1 PUSH2 0x1E97 JUMPI PUSH1 0x0 PUSH2 0x1E9A JUMP JUMPDEST PUSH1 0xA JUMPDEST PUSH1 0xFF AND SWAP1 POP DUP1 PUSH2 0x1EAA DUP4 DUP6 PUSH2 0x2569 JUMP JUMPDEST PUSH2 0x1EB4 SWAP2 SWAP1 PUSH2 0x2569 JUMP JUMPDEST SWAP7 SWAP6 POP POP POP POP POP POP JUMP JUMPDEST PUSH1 0x60 PUSH2 0x519 PUSH1 0x1 PUSH1 0x1 PUSH1 0xA0 SHL SUB DUP4 AND PUSH1 0x14 JUMPDEST PUSH1 0x60 PUSH1 0x0 PUSH2 0x1EDF DUP4 PUSH1 0x2 PUSH2 0x26FE JUMP JUMPDEST PUSH2 0x1EEA SWAP1 PUSH1 0x2 PUSH2 0x2569 JUMP JUMPDEST PUSH8 0xFFFFFFFFFFFFFFFF DUP2 GT ISZERO PUSH2 0x1F02 JUMPI PUSH2 0x1F02 PUSH2 0x25E2 JUMP JUMPDEST PUSH1 0x40 MLOAD SWAP1 DUP1 DUP3 MSTORE DUP1 PUSH1 0x1F ADD PUSH1 0x1F NOT AND PUSH1 0x20 ADD DUP3 ADD PUSH1 0x40 MSTORE DUP1 ISZERO PUSH2 0x1F2C JUMPI PUSH1 0x20 DUP3 ADD DUP2 DUP1 CALLDATASIZE DUP4 CALLDATACOPY ADD SWAP1 POP JUMPDEST POP SWAP1 POP PUSH1 0x3 PUSH1 0xFC SHL DUP2 PUSH1 0x0 DUP2 MLOAD DUP2 LT PUSH2 0x1F47 JUMPI PUSH2 0x1F47 PUSH2 0x2509 JUMP JUMPDEST PUSH1 0x20 ADD ADD SWAP1 PUSH1 0x1 PUSH1 0x1 PUSH1 0xF8 SHL SUB NOT AND SWAP1 DUP2 PUSH1 0x0 BYTE SWAP1 MSTORE8 POP PUSH1 0xF PUSH1 0xFB SHL DUP2 PUSH1 0x1 DUP2 MLOAD DUP2 LT PUSH2 0x1F76 JUMPI PUSH2 0x1F76 PUSH2 0x2509 JUMP JUMPDEST PUSH1 0x20 ADD ADD SWAP1 PUSH1 0x1 PUSH1 0x1 PUSH1 0xF8 SHL SUB NOT AND SWAP1 DUP2 PUSH1 0x0 BYTE SWAP1 MSTORE8 POP PUSH1 0x0 PUSH2 0x1F9A DUP5 PUSH1 0x2 PUSH2 0x26FE JUMP JUMPDEST PUSH2 0x1FA5 SWAP1 PUSH1 0x1 PUSH2 0x2569 JUMP JUMPDEST SWAP1 POP JUMPDEST PUSH1 0x1 DUP2 GT ISZERO PUSH2 0x201D JUMPI PUSH16 0x181899199A1A9B1B9C1CB0B131B232B3 PUSH1 0x81 SHL DUP6 PUSH1 0xF AND PUSH1 0x10 DUP2 LT PUSH2 0x1FD9 JUMPI PUSH2 0x1FD9 PUSH2 0x2509 JUMP JUMPDEST BYTE PUSH1 0xF8 SHL DUP3 DUP3 DUP2 MLOAD DUP2 LT PUSH2 0x1FEF JUMPI PUSH2 0x1FEF PUSH2 0x2509 JUMP JUMPDEST PUSH1 0x20 ADD ADD SWAP1 PUSH1 0x1 PUSH1 0x1 PUSH1 0xF8 SHL SUB NOT AND SWAP1 DUP2 PUSH1 0x0 BYTE SWAP1 MSTORE8 POP PUSH1 0x4 SWAP5 SWAP1 SWAP5 SHR SWAP4 PUSH2 0x2016 DUP2 PUSH2 0x2836 JUMP JUMPDEST SWAP1 POP PUSH2 0x1FA8 JUMP JUMPDEST POP DUP4 ISZERO PUSH2 0x206C JUMPI PUSH1 0x40 MLOAD PUSH3 0x461BCD PUSH1 0xE5 SHL DUP2 MSTORE PUSH1 0x20 PUSH1 0x4 DUP3 ADD DUP2 SWAP1 MSTORE PUSH1 0x24 DUP3 ADD MSTORE PUSH32 0x537472696E67733A20686578206C656E67746820696E73756666696369656E74 PUSH1 0x44 DUP3 ADD MSTORE PUSH1 0x64 ADD PUSH2 0x59C JUMP JUMPDEST SWAP4 SWAP3 POP POP POP JUMP JUMPDEST PUSH1 0x60 PUSH2 0x1750 DUP5 DUP5 PUSH1 0x0 DUP6 DUP6 PUSH1 0x0 DUP1 DUP7 PUSH1 0x1 PUSH1 0x1 PUSH1 0xA0 SHL SUB AND DUP6 DUP8 PUSH1 0x40 MLOAD PUSH2 0x209A SWAP2 SWAP1 PUSH2 0x284D JUMP JUMPDEST PUSH1 0x0 PUSH1 0x40 MLOAD DUP1 DUP4 SUB DUP2 DUP6 DUP8 GAS CALL SWAP3 POP POP POP RETURNDATASIZE DUP1 PUSH1 0x0 DUP2 EQ PUSH2 0x20D7 JUMPI PUSH1 0x40 MLOAD SWAP2 POP PUSH1 0x1F NOT PUSH1 0x3F RETURNDATASIZE ADD AND DUP3 ADD PUSH1 0x40 MSTORE RETURNDATASIZE DUP3 MSTORE RETURNDATASIZE PUSH1 0x0 PUSH1 0x20 DUP5 ADD RETURNDATACOPY PUSH2 0x20DC JUMP JUMPDEST PUSH1 0x60 SWAP2 POP JUMPDEST POP SWAP2 POP SWAP2 POP PUSH2 0x20ED DUP8 DUP4 DUP4 DUP8 PUSH2 0x20F8 JUMP JUMPDEST SWAP8 SWAP7 POP POP POP POP POP POP POP JUMP JUMPDEST PUSH1 0x60 DUP4 ISZERO PUSH2 0x2167 JUMPI DUP3 MLOAD PUSH1 0x0 SUB PUSH2 0x2160 JUMPI PUSH1 0x1 PUSH1 0x1 PUSH1 0xA0 SHL SUB DUP6 AND EXTCODESIZE PUSH2 0x2160 JUMPI PUSH1 0x40 MLOAD PUSH3 0x461BCD PUSH1 0xE5 SHL DUP2 MSTORE PUSH1 0x20 PUSH1 0x4 DUP3 ADD MSTORE PUSH1 0x1D PUSH1 0x24 DUP3 ADD MSTORE PUSH32 0x416464726573733A2063616C6C20746F206E6F6E2D636F6E7472616374000000 PUSH1 0x44 DUP3 ADD MSTORE PUSH1 0x64 ADD PUSH2 0x59C JUMP JUMPDEST POP DUP2 PUSH2 0x1750 JUMP JUMPDEST PUSH2 0x1750 DUP4 DUP4 DUP2 MLOAD ISZERO PUSH2 0x217C JUMPI DUP2 MLOAD DUP1 DUP4 PUSH1 0x20 ADD REVERT JUMPDEST DUP1 PUSH1 0x40 MLOAD PUSH3 0x461BCD PUSH1 0xE5 SHL DUP2 MSTORE PUSH1 0x4 ADD PUSH2 0x59C SWAP2 SWAP1 PUSH2 0x27DE JUMP JUMPDEST PUSH1 0x40 MLOAD DUP1 PUSH1 0x80 ADD PUSH1 0x40 MSTORE DUP1 PUSH1 0x4 SWAP1 PUSH1 0x20 DUP3 MUL DUP1 CALLDATASIZE DUP4 CALLDATACOPY POP SWAP2 SWAP3 SWAP2 POP POP JUMP JUMPDEST PUSH1 0x0 PUSH1 0x20 DUP3 DUP5 SUB SLT ISZERO PUSH2 0x21C6 JUMPI PUSH1 0x0 DUP1 REVERT JUMPDEST DUP2 CALLDATALOAD PUSH1 0x1 PUSH1 0x1 PUSH1 0xE0 SHL SUB NOT DUP2 AND DUP2 EQ PUSH2 0x206C JUMPI PUSH1 0x0 DUP1 REVERT JUMPDEST PUSH1 0x0 PUSH1 0x20 DUP3 DUP5 SUB SLT ISZERO PUSH2 0x21F0 JUMPI PUSH1 0x0 DUP1 REVERT JUMPDEST POP CALLDATALOAD SWAP2 SWAP1 POP JUMP JUMPDEST PUSH1 0x0 DUP1 DUP4 PUSH1 0x1F DUP5 ADD SLT PUSH2 0x2209 JUMPI PUSH1 0x0 DUP1 REVERT JUMPDEST POP DUP2 CALLDATALOAD PUSH8 0xFFFFFFFFFFFFFFFF DUP2 GT ISZERO PUSH2 0x2221 JUMPI PUSH1 0x0 DUP1 REVERT JUMPDEST PUSH1 0x20 DUP4 ADD SWAP2 POP DUP4 PUSH1 0x20 DUP3 PUSH1 0x5 SHL DUP6 ADD ADD GT ISZERO PUSH2 0x223C JUMPI PUSH1 0x0 DUP1 REVERT JUMPDEST SWAP3 POP SWAP3 SWAP1 POP JUMP JUMPDEST PUSH1 0x0 DUP1 PUSH1 0x0 DUP1 PUSH1 0x40 DUP6 DUP8 SUB SLT ISZERO PUSH2 0x2259 JUMPI PUSH1 0x0 DUP1 REVERT JUMPDEST DUP5 CALLDATALOAD PUSH8 0xFFFFFFFFFFFFFFFF DUP1 DUP3 GT ISZERO PUSH2 0x2271 JUMPI PUSH1 0x0 DUP1 REVERT JUMPDEST PUSH2 0x227D DUP9 DUP4 DUP10 ADD PUSH2 0x21F7 JUMP JUMPDEST SWAP1 SWAP7 POP SWAP5 POP PUSH1 0x20 DUP8 ADD CALLDATALOAD SWAP2 POP DUP1 DUP3 GT ISZERO PUSH2 0x2296 JUMPI PUSH1 0x0 DUP1 REVERT JUMPDEST POP PUSH2 0x22A3 DUP8 DUP3 DUP9 ADD PUSH2 0x21F7 JUMP JUMPDEST SWAP6 SWAP9 SWAP5 SWAP8 POP SWAP6 POP POP POP POP JUMP JUMPDEST DUP1 CALLDATALOAD PUSH1 0x1 PUSH1 0x1 PUSH1 0xA0 SHL SUB DUP2 AND DUP2 EQ PUSH2 0x22C6 JUMPI PUSH1 0x0 DUP1 REVERT JUMPDEST SWAP2 SWAP1 POP JUMP JUMPDEST PUSH1 0x0 DUP1 PUSH1 0x40 DUP4 DUP6 SUB SLT ISZERO PUSH2 0x22DE JUMPI PUSH1 0x0 DUP1 REVERT JUMPDEST DUP3 CALLDATALOAD SWAP2 POP PUSH2 0x22EE PUSH1 0x20 DUP5 ADD PUSH2 0x22AF JUMP JUMPDEST SWAP1 POP SWAP3 POP SWAP3 SWAP1 POP JUMP JUMPDEST PUSH1 0x0 DUP1 PUSH1 0x40 DUP4 DUP6 SUB SLT ISZERO PUSH2 0x230A JUMPI PUSH1 0x0 DUP1 REVERT JUMPDEST PUSH2 0x2313 DUP4 PUSH2 0x22AF JUMP JUMPDEST SWAP5 PUSH1 0x20 SWAP4 SWAP1 SWAP4 ADD CALLDATALOAD SWAP4 POP POP POP JUMP JUMPDEST DUP1 CALLDATALOAD PUSH1 0xFF DUP2 AND DUP2 EQ PUSH2 0x22C6 JUMPI PUSH1 0x0 DUP1 REVERT JUMPDEST PUSH1 0x0 PUSH1 0x20 DUP3 DUP5 SUB SLT ISZERO PUSH2 0x2344 JUMPI PUSH1 0x0 DUP1 REVERT JUMPDEST PUSH2 0x206C DUP3 PUSH2 0x2321 JUMP JUMPDEST PUSH1 0x0 JUMPDEST DUP4 DUP2 LT ISZERO PUSH2 0x2368 JUMPI DUP2 DUP2 ADD MLOAD DUP4 DUP3 ADD MSTORE PUSH1 0x20 ADD PUSH2 0x2350 JUMP JUMPDEST POP POP PUSH1 0x0 SWAP2 ADD MSTORE JUMP JUMPDEST PUSH1 0x0 DUP2 MLOAD DUP1 DUP5 MSTORE PUSH2 0x2389 DUP2 PUSH1 0x20 DUP7 ADD PUSH1 0x20 DUP7 ADD PUSH2 0x234D JUMP JUMPDEST PUSH1 0x1F ADD PUSH1 0x1F NOT AND SWAP3 SWAP1 SWAP3 ADD PUSH1 0x20 ADD SWAP3 SWAP2 POP POP JUMP JUMPDEST PUSH1 0x1 DUP1 PUSH1 0xA0 SHL SUB DUP9 AND DUP2 MSTORE DUP7 PUSH1 0x20 DUP3 ADD MSTORE PUSH1 0xFF DUP7 AND PUSH1 0x40 DUP3 ADD MSTORE DUP5 PUSH1 0x60 DUP3 ADD MSTORE PUSH1 0xE0 PUSH1 0x80 DUP3 ADD MSTORE PUSH1 0x0 PUSH2 0x23D3 PUSH1 0xE0 DUP4 ADD DUP7 PUSH2 0x2371 JUMP JUMPDEST PUSH1 0xA0 DUP4 ADD SWAP5 SWAP1 SWAP5 MSTORE POP SWAP1 ISZERO ISZERO PUSH1 0xC0 SWAP1 SWAP2 ADD MSTORE SWAP6 SWAP5 POP POP POP POP POP JUMP JUMPDEST PUSH1 0x0 DUP1 PUSH1 0x0 PUSH1 0x60 DUP5 DUP7 SUB SLT ISZERO PUSH2 0x2403 JUMPI PUSH1 0x0 DUP1 REVERT JUMPDEST PUSH2 0x240C DUP5 PUSH2 0x22AF JUMP JUMPDEST SWAP3 POP PUSH2 0x241A PUSH1 0x20 DUP6 ADD PUSH2 0x2321 JUMP JUMPDEST SWAP2 POP PUSH1 0x40 DUP5 ADD CALLDATALOAD SWAP1 POP SWAP3 POP SWAP3 POP SWAP3 JUMP JUMPDEST PUSH2 0x100 DUP2 ADD DUP2 DUP8 PUSH1 0x0 JUMPDEST PUSH1 0x4 DUP2 LT ISZERO PUSH2 0x2453 JUMPI DUP2 MLOAD DUP4 MSTORE PUSH1 0x20 SWAP3 DUP4 ADD SWAP3 SWAP1 SWAP2 ADD SWAP1 PUSH1 0x1 ADD PUSH2 0x2434 JUMP JUMPDEST POP POP POP DUP6 PUSH1 0x80 DUP4 ADD MSTORE DUP5 PUSH1 0xA0 DUP4 ADD MSTORE DUP4 PUSH1 0xC0 DUP4 ADD MSTORE DUP3 ISZERO ISZERO PUSH1 0xE0 DUP4 ADD MSTORE SWAP7 SWAP6 POP POP POP POP POP POP JUMP JUMPDEST PUSH1 0x0 DUP1 PUSH1 0x0 DUP1 PUSH1 0x0 PUSH1 0x80 DUP7 DUP9 SUB SLT ISZERO PUSH2 0x2492 JUMPI PUSH1 0x0 DUP1 REVERT JUMPDEST DUP6 CALLDATALOAD SWAP5 POP PUSH2 0x24A2 PUSH1 0x20 DUP8 ADD PUSH2 0x2321 JUMP JUMPDEST SWAP4 POP PUSH1 0x40 DUP7 ADD CALLDATALOAD PUSH8 0xFFFFFFFFFFFFFFFF DUP1 DUP3 GT ISZERO PUSH2 0x24BF JUMPI PUSH1 0x0 DUP1 REVERT JUMPDEST DUP2 DUP9 ADD SWAP2 POP DUP9 PUSH1 0x1F DUP4 ADD SLT PUSH2 0x24D3 JUMPI PUSH1 0x0 DUP1 REVERT JUMPDEST DUP2 CALLDATALOAD DUP2 DUP2 GT ISZERO PUSH2 0x24E2 JUMPI PUSH1 0x0 DUP1 REVERT JUMPDEST DUP10 PUSH1 0x20 DUP3 DUP6 ADD ADD GT ISZERO PUSH2 0x24F4 JUMPI PUSH1 0x0 DUP1 REVERT JUMPDEST SWAP7 SWAP10 SWAP6 SWAP9 POP POP PUSH1 0x20 ADD SWAP6 PUSH1 0x60 ADD CALLDATALOAD SWAP4 SWAP3 POP POP POP JUMP JUMPDEST PUSH4 0x4E487B71 PUSH1 0xE0 SHL PUSH1 0x0 MSTORE PUSH1 0x32 PUSH1 0x4 MSTORE PUSH1 0x24 PUSH1 0x0 REVERT JUMPDEST PUSH1 0x0 PUSH1 0x20 DUP3 DUP5 SUB SLT ISZERO PUSH2 0x2531 JUMPI PUSH1 0x0 DUP1 REVERT JUMPDEST PUSH2 0x206C DUP3 PUSH2 0x22AF JUMP JUMPDEST PUSH1 0x0 PUSH1 0x20 DUP3 DUP5 SUB SLT ISZERO PUSH2 0x254C JUMPI PUSH1 0x0 DUP1 REVERT JUMPDEST POP MLOAD SWAP2 SWAP1 POP JUMP JUMPDEST PUSH4 0x4E487B71 PUSH1 0xE0 SHL PUSH1 0x0 MSTORE PUSH1 0x11 PUSH1 0x4 MSTORE PUSH1 0x24 PUSH1 0x0 REVERT JUMPDEST DUP1 DUP3 ADD DUP1 DUP3 GT ISZERO PUSH2 0x519 JUMPI PUSH2 0x519 PUSH2 0x2553 JUMP JUMPDEST PUSH1 0x0 PUSH1 0x1 DUP3 ADD PUSH2 0x258E JUMPI PUSH2 0x258E PUSH2 0x2553 JUMP JUMPDEST POP PUSH1 0x1 ADD SWAP1 JUMP JUMPDEST DUP2 DUP2 SUB DUP2 DUP2 GT ISZERO PUSH2 0x519 JUMPI PUSH2 0x519 PUSH2 0x2553 JUMP JUMPDEST PUSH1 0x1 DUP2 DUP2 SHR SWAP1 DUP3 AND DUP1 PUSH2 0x25BC JUMPI PUSH1 0x7F DUP3 AND SWAP2 POP JUMPDEST PUSH1 0x20 DUP3 LT DUP2 SUB PUSH2 0x25DC JUMPI PUSH4 0x4E487B71 PUSH1 0xE0 SHL PUSH1 0x0 MSTORE PUSH1 0x22 PUSH1 0x4 MSTORE PUSH1 0x24 PUSH1 0x0 REVERT JUMPDEST POP SWAP2 SWAP1 POP JUMP JUMPDEST PUSH4 0x4E487B71 PUSH1 0xE0 SHL PUSH1 0x0 MSTORE PUSH1 0x41 PUSH1 0x4 MSTORE PUSH1 0x24 PUSH1 0x0 REVERT JUMPDEST PUSH1 0x1F DUP3 GT ISZERO PUSH2 0x89E JUMPI PUSH1 0x0 DUP2 DUP2 MSTORE PUSH1 0x20 DUP2 KECCAK256 PUSH1 0x1F DUP6 ADD PUSH1 0x5 SHR DUP2 ADD PUSH1 0x20 DUP7 LT ISZERO PUSH2 0x261F JUMPI POP DUP1 JUMPDEST PUSH1 0x1F DUP6 ADD PUSH1 0x5 SHR DUP3 ADD SWAP2 POP JUMPDEST DUP2 DUP2 LT ISZERO PUSH2 0x871 JUMPI DUP3 DUP2 SSTORE PUSH1 0x1 ADD PUSH2 0x262B JUMP JUMPDEST DUP2 MLOAD PUSH8 0xFFFFFFFFFFFFFFFF DUP2 GT ISZERO PUSH2 0x2658 JUMPI PUSH2 0x2658 PUSH2 0x25E2 JUMP JUMPDEST PUSH2 0x266C DUP2 PUSH2 0x2666 DUP5 SLOAD PUSH2 0x25A8 JUMP JUMPDEST DUP5 PUSH2 0x25F8 JUMP JUMPDEST PUSH1 0x20 DUP1 PUSH1 0x1F DUP4 GT PUSH1 0x1 DUP2 EQ PUSH2 0x26A1 JUMPI PUSH1 0x0 DUP5 ISZERO PUSH2 0x2689 JUMPI POP DUP6 DUP4 ADD MLOAD JUMPDEST PUSH1 0x0 NOT PUSH1 0x3 DUP7 SWAP1 SHL SHR NOT AND PUSH1 0x1 DUP6 SWAP1 SHL OR DUP6 SSTORE PUSH2 0x871 JUMP JUMPDEST PUSH1 0x0 DUP6 DUP2 MSTORE PUSH1 0x20 DUP2 KECCAK256 PUSH1 0x1F NOT DUP7 AND SWAP2 JUMPDEST DUP3 DUP2 LT ISZERO PUSH2 0x26D0 JUMPI DUP9 DUP7 ADD MLOAD DUP3 SSTORE SWAP5 DUP5 ADD SWAP5 PUSH1 0x1 SWAP1 SWAP2 ADD SWAP1 DUP5 ADD PUSH2 0x26B1 JUMP JUMPDEST POP DUP6 DUP3 LT ISZERO PUSH2 0x26EE JUMPI DUP8 DUP6 ADD MLOAD PUSH1 0x0 NOT PUSH1 0x3 DUP9 SWAP1 SHL PUSH1 0xF8 AND SHR NOT AND DUP2 SSTORE JUMPDEST POP POP POP POP POP PUSH1 0x1 SWAP1 DUP2 SHL ADD SWAP1 SSTORE POP JUMP JUMPDEST DUP1 DUP3 MUL DUP2 ISZERO DUP3 DUP3 DIV DUP5 EQ OR PUSH2 0x519 JUMPI PUSH2 0x519 PUSH2 0x2553 JUMP JUMPDEST PUSH4 0x4E487B71 PUSH1 0xE0 SHL PUSH1 0x0 MSTORE PUSH1 0x12 PUSH1 0x4 MSTORE PUSH1 0x24 PUSH1 0x0 REVERT JUMPDEST PUSH1 0x0 DUP3 PUSH2 0x273A JUMPI PUSH2 0x273A PUSH2 0x2715 JUMP JUMPDEST POP DIV SWAP1 JUMP JUMPDEST PUSH1 0x0 DUP3 PUSH2 0x274E JUMPI PUSH2 0x274E PUSH2 0x2715 JUMP JUMPDEST POP MOD SWAP1 JUMP JUMPDEST PUSH4 0x4E487B71 PUSH1 0xE0 SHL PUSH1 0x0 MSTORE PUSH1 0x31 PUSH1 0x4 MSTORE PUSH1 0x24 PUSH1 0x0 REVERT JUMPDEST PUSH32 0x416363657373436F6E74726F6C3A206163636F756E7420000000000000000000 DUP2 MSTORE PUSH1 0x0 DUP4 MLOAD PUSH2 0x27A1 DUP2 PUSH1 0x17 DUP6 ADD PUSH1 0x20 DUP9 ADD PUSH2 0x234D JUMP JUMPDEST PUSH17 0x1034B99036B4B9B9B4B733903937B6329 PUSH1 0x7D SHL PUSH1 0x17 SWAP2 DUP5 ADD SWAP2 DUP3 ADD MSTORE DUP4 MLOAD PUSH2 0x27D2 DUP2 PUSH1 0x28 DUP5 ADD PUSH1 0x20 DUP9 ADD PUSH2 0x234D JUMP JUMPDEST ADD PUSH1 0x28 ADD SWAP5 SWAP4 POP POP POP POP JUMP JUMPDEST PUSH1 0x20 DUP2 MSTORE PUSH1 0x0 PUSH2 0x206C PUSH1 0x20 DUP4 ADD DUP5 PUSH2 0x2371 JUMP JUMPDEST PUSH1 0x0 PUSH1 0x20 DUP3 DUP5 SUB SLT ISZERO PUSH2 0x2803 JUMPI PUSH1 0x0 DUP1 REVERT JUMPDEST DUP2 MLOAD DUP1 ISZERO ISZERO DUP2 EQ PUSH2 0x206C JUMPI PUSH1 0x0 DUP1 REVERT JUMPDEST PUSH1 0xFF DUP2 DUP2 AND DUP4 DUP3 AND MUL SWAP1 DUP2 AND SWAP1 DUP2 DUP2 EQ PUSH2 0x282F JUMPI PUSH2 0x282F PUSH2 0x2553 JUMP JUMPDEST POP SWAP3 SWAP2 POP POP JUMP JUMPDEST PUSH1 0x0 DUP2 PUSH2 0x2845 JUMPI PUSH2 0x2845 PUSH2 0x2553 JUMP JUMPDEST POP PUSH1 0x0 NOT ADD SWAP1 JUMP JUMPDEST PUSH1 0x0 DUP3 MLOAD PUSH2 0x285F DUP2 DUP5 PUSH1 0x20 DUP8 ADD PUSH2 0x234D JUMP JUMPDEST SWAP2 SWAP1 SWAP2 ADD SWAP3 SWAP2 POP POP JUMP INVALID LOG2 PUSH5 0x6970667358 0x22 SLT KECCAK256 0x4A PREVRANDAO TIMESTAMP PUSH27 0x8348014C5419B741F6F93F9F9389BCBED06304BB61685DB5BC732B BYTE PUSH5 0x736F6C6343 STOP ADDMOD SGT STOP CALLER "},"methodIdentifiers":{"DEFAULT_ADMIN_ROLE()":"a217fddf","ORACLE_ROLE()":"07e2cea5","SETTLEMENT_ROLE()":"ba9cf01d","TREASURY_ROLE()":"d11a57ec","annualRevenue()":"66b2320a","autophageToken()":"141c5728","calculateMetabolicPrice()":"c9b8ce60","claims(uint256)":"a888c2cd","collectDecayedTokens(address[],uint8[])":"1a45faaf","currentDayIndex()":"dbb8cc46","dailyHealthcareSpending(uint256)":"1045d4ab","depositUSDC(uint256)":"f688bcfb","distributeReward(address,uint8,uint256)":"b3367959","emergencyWithdraw(address,uint256)":"95ccea67","getReservoirStats()":"b3bdf485","getRoleAdmin(bytes32)":"248a9ca3","grantRole(bytes32,address)":"2f2ff15d","hasRole(bytes32,address)":"91d14854","lastSolvencyCheck()":"68ea5a93","monthlyHealthcareSpending()":"aff221b1","nextClaimId()":"a0021cf1","pendingClaimIds(uint256)":"e2ea3b45","processHealthcareClaims(uint256)":"3d187ec5","renounceRole(bytes32,address)":"36568abe","revokeRole(bytes32,address)":"d547741f","submitHealthcareClaim(uint256,uint8,string,bytes32)":"c77dcc0a","supportsInterface(bytes4)":"01ffc9a7","tokenChamber(uint8)":"a24a161b","totalDeposits()":"7d882097","updateAnnualRevenue(uint256)":"5a650da3","usdc()":"3e413bee","usdcBalance()":"73688e56"}}}}}