{"contracts/GovernanceContract.sol":{"GovernanceContract":{"abi":[{"inputs":[{"internalType":"address","name":"_token","type":"address"},{"internalType":"address","name":"_catalyst","type":"address"}],"stateMutability":"nonpayable","type":"constructor"},{"anonymous":false,"inputs":[{"indexed":true,"internalType":"uint256","name":"experimentId","type":"uint256"},{"indexed":false,"internalType":"bool","name":"success","type":"bool"},{"indexed":false,"internalType":"uint256","name":"improvement","type":"uint256"},{"indexed":false,"internalType":"uint256","name":"pValue","type":"uint256"}],"name":"ExperimentCompleted","type":"event"},{"anonymous":false,"inputs":[{"indexed":true,"internalType":"uint256","name":"experimentId","type":"uint256"},{"indexed":true,"internalType":"uint256","name":"proposalId","type":"uint256"},{"indexed":false,"internalType":"uint256","name":"duration","type":"uint256"}],"name":"ExperimentStarted","type":"event"},{"anonymous":false,"inputs":[{"indexed":true,"internalType":"bytes32","name":"featureId","type":"bytes32"},{"indexed":false,"internalType":"uint256","name":"lastUsed","type":"uint256"}],"name":"FeatureSunset","type":"event"},{"anonymous":false,"inputs":[{"indexed":true,"internalType":"uint256","name":"proposalId","type":"uint256"},{"indexed":true,"internalType":"address","name":"proposer","type":"address"},{"indexed":false,"internalType":"enum GovernanceContract.ProposalType","name":"proposalType","type":"uint8"},{"indexed":false,"internalType":"string","name":"title","type":"string"}],"name":"ProposalCreated","type":"event"},{"anonymous":false,"inputs":[{"indexed":true,"internalType":"uint256","name":"proposalId","type":"uint256"},{"indexed":false,"internalType":"bool","name":"success","type":"bool"}],"name":"ProposalExecuted","type":"event"},{"anonymous":false,"inputs":[{"indexed":true,"internalType":"bytes32","name":"role","type":"bytes32"},{"indexed":true,"internalType":"bytes32","name":"previousAdminRole","type":"bytes32"},{"indexed":true,"internalType":"bytes32","name":"newAdminRole","type":"bytes32"}],"name":"RoleAdminChanged","type":"event"},{"anonymous":false,"inputs":[{"indexed":true,"internalType":"bytes32","name":"role","type":"bytes32"},{"indexed":true,"internalType":"address","name":"account","type":"address"},{"indexed":true,"internalType":"address","name":"sender","type":"address"}],"name":"RoleGranted","type":"event"},{"anonymous":false,"inputs":[{"indexed":true,"internalType":"bytes32","name":"role","type":"bytes32"},{"indexed":true,"internalType":"address","name":"account","type":"address"},{"indexed":true,"internalType":"address","name":"sender","type":"address"}],"name":"RoleRevoked","type":"event"},{"anonymous":false,"inputs":[{"indexed":true,"internalType":"uint256","name":"proposalId","type":"uint256"},{"indexed":true,"internalType":"address","name":"voter","type":"address"},{"indexed":false,"internalType":"bool","name":"support","type":"bool"},{"indexed":false,"internalType":"uint256","name":"weight","type":"uint256"}],"name":"VoteCast","type":"event"},{"inputs":[],"name":"DEFAULT_ADMIN_ROLE","outputs":[{"internalType":"bytes32","name":"","type":"bytes32"}],"stateMutability":"view","type":"function"},{"inputs":[],"name":"EXPERIMENT_ROLE","outputs":[{"internalType":"bytes32","name":"","type":"bytes32"}],"stateMutability":"view","type":"function"},{"inputs":[],"name":"ORACLE_ROLE","outputs":[{"internalType":"bytes32","name":"","type":"bytes32"}],"stateMutability":"view","type":"function"},{"inputs":[{"internalType":"uint256","name":"experimentId","type":"uint256"},{"internalType":"address[]","name":"users","type":"address[]"},{"internalType":"bool[]","name":"treatment","type":"bool[]"}],"name":"assignToExperiment","outputs":[],"stateMutability":"nonpayable","type":"function"},{"inputs":[],"name":"autophageToken","outputs":[{"internalType":"contract IAutophageToken","name":"","type":"address"}],"stateMutability":"view","type":"function"},{"inputs":[],"name":"catalystToken","outputs":[{"internalType":"contract IERC20","name":"","type":"address"}],"stateMutability":"view","type":"function"},{"inputs":[{"internalType":"uint256","name":"experimentId","type":"uint256"},{"internalType":"uint256","name":"controlMetric","type":"uint256"},{"internalType":"uint256","name":"treatmentMetric","type":"uint256"},{"internalType":"uint256","name":"pValue","type":"uint256"}],"name":"completeExperiment","outputs":[],"stateMutability":"nonpayable","type":"function"},{"inputs":[{"internalType":"address","name":"","type":"address"}],"name":"contributionScores","outputs":[{"internalType":"uint256","name":"lifetimeReservoirContribution","type":"uint256"},{"internalType":"uint256","name":"verificationAccuracy","type":"uint256"},{"internalType":"uint256","name":"governanceParticipation","type":"uint256"},{"internalType":"uint256","name":"lastUpdated","type":"uint256"}],"stateMutability":"view","type":"function"},{"inputs":[{"internalType":"enum GovernanceContract.ProposalType","name":"proposalType","type":"uint8"},{"internalType":"string","name":"title","type":"string"},{"internalType":"string","name":"description","type":"string"},{"internalType":"bytes","name":"callData","type":"bytes"}],"name":"createProposal","outputs":[{"internalType":"uint256","name":"proposalId","type":"uint256"}],"stateMutability":"nonpayable","type":"function"},{"inputs":[{"internalType":"uint256","name":"proposalId","type":"uint256"}],"name":"emergencyExecute","outputs":[],"stateMutability":"nonpayable","type":"function"},{"inputs":[{"internalType":"uint256","name":"","type":"uint256"}],"name":"experiments","outputs":[{"internalType":"uint256","name":"proposalId","type":"uint256"},{"internalType":"uint256","name":"startTime","type":"uint256"},{"internalType":"uint256","name":"endTime","type":"uint256"},{"internalType":"uint256","name":"controlGroup","type":"uint256"},{"internalType":"uint256","name":"treatmentGroup","type":"uint256"},{"internalType":"bytes32","name":"hypothesis","type":"bytes32"},{"internalType":"bytes32","name":"metricHash","type":"bytes32"},{"internalType":"bool","name":"isActive","type":"bool"}],"stateMutability":"view","type":"function"},{"inputs":[{"internalType":"bytes32","name":"","type":"bytes32"}],"name":"featureLastUsed","outputs":[{"internalType":"uint256","name":"","type":"uint256"}],"stateMutability":"view","type":"function"},{"inputs":[{"internalType":"bytes32","name":"","type":"bytes32"}],"name":"featureUsageCount","outputs":[{"internalType":"uint256","name":"","type":"uint256"}],"stateMutability":"view","type":"function"},{"inputs":[{"internalType":"uint256","name":"experimentId","type":"uint256"}],"name":"getExperiment","outputs":[{"internalType":"uint256","name":"proposalId","type":"uint256"},{"internalType":"uint256","name":"startTime","type":"uint256"},{"internalType":"uint256","name":"endTime","type":"uint256"},{"internalType":"uint256","name":"controlGroup","type":"uint256"},{"internalType":"uint256","name":"treatmentGroup","type":"uint256"},{"internalType":"bool","name":"isActive","type":"bool"}],"stateMutability":"view","type":"function"},{"inputs":[{"internalType":"uint256","name":"proposalId","type":"uint256"}],"name":"getProposal","outputs":[{"internalType":"address","name":"proposer","type":"address"},{"internalType":"enum GovernanceContract.ProposalType","name":"proposalType","type":"uint8"},{"internalType":"string","name":"title","type":"string"},{"internalType":"uint256","name":"votesFor","type":"uint256"},{"internalType":"uint256","name":"votesAgainst","type":"uint256"},{"internalType":"bool","name":"executed","type":"bool"},{"internalType":"bool","name":"cancelled","type":"bool"}],"stateMutability":"view","type":"function"},{"inputs":[{"internalType":"bytes32","name":"role","type":"bytes32"}],"name":"getRoleAdmin","outputs":[{"internalType":"bytes32","name":"","type":"bytes32"}],"stateMutability":"view","type":"function"},{"inputs":[{"internalType":"address","name":"user","type":"address"}],"name":"getUserVotingPower","outputs":[{"internalType":"uint256","name":"","type":"uint256"}],"stateMutability":"view","type":"function"},{"inputs":[{"internalType":"bytes32","name":"role","type":"bytes32"},{"internalType":"address","name":"account","type":"address"}],"name":"grantRole","outputs":[],"stateMutability":"nonpayable","type":"function"},{"inputs":[{"internalType":"bytes32","name":"role","type":"bytes32"},{"internalType":"address","name":"account","type":"address"}],"name":"hasRole","outputs":[{"internalType":"bool","name":"","type":"bool"}],"stateMutability":"view","type":"function"},{"inputs":[{"internalType":"address","name":"","type":"address"},{"internalType":"uint256","name":"","type":"uint256"}],"name":"hasVoted","outputs":[{"internalType":"bool","name":"","type":"bool"}],"stateMutability":"view","type":"function"},{"inputs":[],"name":"nextExperimentId","outputs":[{"internalType":"uint256","name":"","type":"uint256"}],"stateMutability":"view","type":"function"},{"inputs":[],"name":"nextProposalId","outputs":[{"internalType":"uint256","name":"","type":"uint256"}],"stateMutability":"view","type":"function"},{"inputs":[{"internalType":"uint256","name":"","type":"uint256"}],"name":"proposals","outputs":[{"internalType":"address","name":"proposer","type":"address"},{"internalType":"enum GovernanceContract.ProposalType","name":"proposalType","type":"uint8"},{"internalType":"string","name":"title","type":"string"},{"internalType":"string","name":"description","type":"string"},{"internalType":"bytes","name":"callData","type":"bytes"},{"internalType":"uint256","name":"stakeAmount","type":"uint256"},{"internalType":"uint256","name":"votesFor","type":"uint256"},{"internalType":"uint256","name":"votesAgainst","type":"uint256"},{"internalType":"uint256","name":"experimentId","type":"uint256"},{"internalType":"bool","name":"executed","type":"bool"},{"internalType":"bool","name":"cancelled","type":"bool"},{"internalType":"uint256","name":"createdAt","type":"uint256"},{"internalType":"uint256","name":"executedAt","type":"uint256"}],"stateMutability":"view","type":"function"},{"inputs":[{"internalType":"bytes32","name":"role","type":"bytes32"},{"internalType":"address","name":"account","type":"address"}],"name":"renounceRole","outputs":[],"stateMutability":"nonpayable","type":"function"},{"inputs":[{"internalType":"bytes32","name":"role","type":"bytes32"},{"internalType":"address","name":"account","type":"address"}],"name":"revokeRole","outputs":[],"stateMutability":"nonpayable","type":"function"},{"inputs":[{"internalType":"uint256","name":"proposalId","type":"uint256"},{"internalType":"uint256","name":"duration","type":"uint256"},{"internalType":"bytes32","name":"hypothesis","type":"bytes32"},{"internalType":"bytes32","name":"metricHash","type":"bytes32"}],"name":"startExperiment","outputs":[],"stateMutability":"nonpayable","type":"function"},{"inputs":[{"internalType":"bytes32[]","name":"featureIds","type":"bytes32[]"}],"name":"sunsetUnusedFeatures","outputs":[],"stateMutability":"nonpayable","type":"function"},{"inputs":[{"internalType":"bytes4","name":"interfaceId","type":"bytes4"}],"name":"supportsInterface","outputs":[{"internalType":"bool","name":"","type":"bool"}],"stateMutability":"view","type":"function"},{"inputs":[],"name":"totalContributions","outputs":[{"internalType":"uint256","name":"","type":"uint256"}],"stateMutability":"view","type":"function"},{"inputs":[{"internalType":"bytes32","name":"featureId","type":"bytes32"}],"name":"trackFeatureUsage","outputs":[],"stateMutability":"nonpayable","type":"function"},{"inputs":[{"internalType":"address","name":"user","type":"address"},{"internalType":"uint256","name":"reservoirContribution","type":"uint256"},{"internalType":"uint256","name":"verificationAccuracy","type":"uint256"},{"internalType":"uint256","name":"governanceParticipation","type":"uint256"}],"name":"updateContributionScore","outputs":[],"stateMutability":"nonpayable","type":"function"},{"inputs":[{"internalType":"uint256","name":"proposalId","type":"uint256"},{"internalType":"bool","name":"support","type":"bool"}],"name":"vote","outputs":[],"stateMutability":"nonpayable","type":"function"},{"inputs":[{"internalType":"uint256","name":"","type":"uint256"},{"internalType":"address","name":"","type":"address"}],"name":"voteWeight","outputs":[{"internalType":"uint256","name":"","type":"uint256"}],"stateMutability":"view","type":"function"}],"evm":{"bytecode":{"linkReferences":{},"object":"60806040523480156200001157600080fd5b5060405162002c1c38038062002c1c833981016040819052620000349162000167565b60018055600280546001600160a01b038085166001600160a01b031992831617909255600380549284169290911691909117905562000075600033620000a9565b620000a17f68e79a7bf1e0bc45d0a330c573bc367f9cf464fd326078812f301165fbda4ef133620000a9565b50506200019f565b6000828152602081815260408083206001600160a01b038516845290915290205460ff1662000146576000828152602081815260408083206001600160a01b03851684529091529020805460ff19166001179055620001053390565b6001600160a01b0316816001600160a01b0316837f2f8788117e7eff1d82e926ec794901d17c78024a50270940304540a733656f0d60405160405180910390a45b5050565b80516001600160a01b03811681146200016257600080fd5b919050565b600080604083850312156200017b57600080fd5b62000186836200014a565b915062000196602084016200014a565b90509250929050565b612a6d80620001af6000396000f3fe608060405234801561001057600080fd5b50600436106101fb5760003560e01c806363cfa9871161011a578063c7f758a8116100ad578063e40b1e311161007c578063e40b1e311461057b578063e8d9510a14610584578063eb4706b514610597578063faa537c714610629578063ff3243241461063c57600080fd5b8063c7f758a81461051c578063c9d27afe14610542578063d155aecd14610555578063d547741f1461056857600080fd5b806391d14854116100e957806391d14854146104ce57806394ac26e5146104e1578063a217fddf146104f4578063a7fcfb81146104fc57600080fd5b806363cfa9871461042c57806368d03d691461043f5780636a3f1e6f146104665780636c55b0a71461047957600080fd5b80632b0a999d116101925780633504d6a5116101615780633504d6a5146103cf57806336568abe146103e257806337c08923146103f557806342545825146103fe57600080fd5b80632b0a999d146103055780632f2ff15d1461033057806331591fb81461034557806334ae9b231461035857600080fd5b8063141c5728116101ce578063141c57281461028e578063248a9ca3146102b9578063254899ab146102dc5780632ab09d14146102fc57600080fd5b8063013cf08b1461020057806301ffc9a71461023557806307e2cea5146102585780630baca2e51461027b575b600080fd5b61021361020e366004612171565b61064f565b60405161022c9d9c9b9a99989796959493929190612212565b60405180910390f35b6102486102433660046122ba565b61085f565b604051901515815260200161022c565b61026d600080516020612a1883398151915281565b60405190815260200161022c565b61026d610289366004612300565b610896565b6002546102a1906001600160a01b031681565b6040516001600160a01b03909116815260200161022c565b61026d6102c7366004612171565b60009081526020819052604090206001015490565b61026d6102ea366004612171565b600d6020526000908152604090205481565b61026d60095481565b61026d61031336600461231b565b600860209081526000928352604080842090915290825290205481565b61034361033e36600461231b565b6108a1565b005b610343610353366004612393565b6108cb565b6103a0610366366004612171565b600090815260056020526040902080546001820154600283015460038401546004850154600790950154939592949193909260ff90911690565b6040805196875260208701959095529385019290925260608401526080830152151560a082015260c00161022c565b6103436103dd3660046123d5565b6109bc565b6103436103f036600461231b565b610bad565b61026d600b5481565b61024861040c366004612407565b600760209081526000928352604080842090915290825290205460ff1681565b61034361043a3660046123d5565b610c2b565b61026d7f169924e2c929407f694f5233a52e70102a6858a339b9a2bc70c1ac07817f255d81565b6003546102a1906001600160a01b031681565b6104ae610487366004612300565b60066020526000908152604090208054600182015460028301546003909301549192909184565b60408051948552602085019390935291830152606082015260800161022c565b6102486104dc36600461231b565b610e58565b6103436104ef366004612431565b610e81565b61026d600081565b61026d61050a366004612171565b600c6020526000908152604090205481565b61052f61052a366004612171565b61104e565b60405161022c97969594939291906124ab565b610343610550366004612510565b611151565b61026d610563366004612582565b611374565b61034361057636600461231b565b61153f565b61026d600a5481565b610343610592366004612171565b611564565b6105ec6105a5366004612171565b600560208190526000918252604090912080546001820154600283015460038401546004850154958501546006860154600790960154949693959294919392909160ff1688565b604080519889526020890197909752958701949094526060860192909252608085015260a084015260c0830152151560e08201526101000161022c565b610343610637366004612633565b61162c565b61034361064a366004612171565b6116db565b600460205260009081526040902080546001820180546001600160a01b03831693600160a01b90930460ff169291906106879061266c565b80601f01602080910402602001604051908101604052809291908181526020018280546106b39061266c565b80156107005780601f106106d557610100808354040283529160200191610700565b820191906000526020600020905b8154815290600101906020018083116106e357829003601f168201915b5050505050908060020180546107159061266c565b80601f01602080910402602001604051908101604052809291908181526020018280546107419061266c565b801561078e5780601f106107635761010080835404028352916020019161078e565b820191906000526020600020905b81548152906001019060200180831161077157829003601f168201915b5050505050908060030180546107a39061266c565b80601f01602080910402602001604051908101604052809291908181526020018280546107cf9061266c565b801561081c5780601f106107f15761010080835404028352916020019161081c565b820191906000526020600020905b8154815290600101906020018083116107ff57829003601f168201915b505050600484015460058501546006860154600787015460088801546009890154600a90990154979894979396509194509260ff8083169361010090930416918d565b60006001600160e01b03198216637965db0b60e01b148061089057506301ffc9a760e01b6001600160e01b03198316145b92915050565b60006108908261170a565b6000828152602081905260409020600101546108bc81611813565b6108c68383611820565b505050565b60005b818110156108c65760008383838181106108ea576108ea6126a6565b9050602002013590506000600c60008381526020019081526020016000205411801561093057506000818152600c602052604090205461092d9062ed4e006126d2565b42115b156109a9576000818152600d6020526040902054620f4240806109548360646126e5565b10156109a6576000838152600c60205260408082208290555184917f28e116f48add0f7cac7d9ff1464080ba22addb5565453572947bf7a11a99a7fe9161099d91815260200190565b60405180910390a25b50505b50806109b4816126fc565b9150506108ce565b600080516020612a188339815191526109d481611813565b6000858152600560205260409020600781015460ff16610a335760405162461bcd60e51b81526020600482015260156024820152744578706572696d656e74206e6f742061637469766560581b60448201526064015b60405180910390fd5b8060020154421015610a7e5760405162461bcd60e51b8152602060048201526014602482015273115e1c195c9a5b595b9d081b9bdd08195b99195960621b6044820152606401610a2a565b60078101805460ff1916905560008585118015610a9b5750600086115b15610ac35785610aab8187612715565b610ab69060646126e5565b610ac09190612728565b90505b600060058210158015610ad65750600585105b6040805182151581526020810185905290810187905290915088907f5754c43ee3ff1781cbf569af884ddc950dcae95b682119b4de6d8cdd1c6775219060600160405180910390a28015610b34578254610b2f906118a4565b610ba3565b82546000908152600460208190526040822090810154909190610b5990600a90612728565b82546004840154919250610b91916001600160a01b0390911690610b7e908490612715565b6003546001600160a01b031691906119ec565b50600801805461ff0019166101001790555b5050505050505050565b6001600160a01b0381163314610c1d5760405162461bcd60e51b815260206004820152602f60248201527f416363657373436f6e74726f6c3a2063616e206f6e6c792072656e6f756e636560448201526e103937b632b9903337b91039b2b63360891b6064820152608401610a2a565b610c278282611a4f565b5050565b7f169924e2c929407f694f5233a52e70102a6858a339b9a2bc70c1ac07817f255d610c5581611813565b60008581526004602052604090206009810154610ca75760405162461bcd60e51b815260206004820152601060248201526f125b9d985b1a59081c1c9bdc1bdcd85b60821b6044820152606401610a2a565b600881015460ff16158015610cc657506008810154610100900460ff16155b610d075760405162461bcd60e51b8152602060048201526012602482015271141c9bdc1bdcd85b08199a5b985b1a5e995960721b6044820152606401610a2a565b8060060154816005015411610d555760405162461bcd60e51b8152602060048201526014602482015273125b9cdd59999a58da595b9d081cdd5c1c1bdc9d60621b6044820152606401610a2a565b62093a808510158015610d6b57506276a7008511155b610daa5760405162461bcd60e51b815260206004820152601060248201526f24b73b30b634b210323ab930ba34b7b760811b6044820152606401610a2a565b600a805460009182610dbb836126fc565b90915550600783018190556000818152600560205260409020888155426001820181905591925090610dee9088906126d2565b6002820155600581018690556006810185905560078101805460ff19166001179055604051889083907fcfaf70f82c006f9b6d42d8d4bd4df7b62745c2909ad1bf57d742c11aea1d7c7b90610e46908b815260200190565b60405180910390a35050505050505050565b6000918252602082815260408084206001600160a01b0393909316845291905290205460ff1690565b600080516020612a18833981519152610e9981611813565b838214610ed95760405162461bcd60e51b815260206004820152600e60248201526d082e4e4c2f240dad2e6dac2e8c6d60931b6044820152606401610a2a565b6000868152600560205260409020600781015460ff16610f335760405162461bcd60e51b81526020600482015260156024820152744578706572696d656e74206e6f742061637469766560581b6044820152606401610a2a565b80600201544210610f795760405162461bcd60e51b815260206004820152601060248201526f115e1c195c9a5b595b9d08195b99195960821b6044820152606401610a2a565b60005b85811015610ba357848482818110610f9657610f966126a6565b9050602002016020810190610fab919061274a565b15611024576001826008016000898985818110610fca57610fca6126a6565b9050602002016020810190610fdf9190612300565b6001600160a01b0316815260208101919091526040016000908120805460ff1916921515929092179091556004830180549161101a836126fc565b919050555061103c565b600382018054906000611036836126fc565b91905055505b80611046816126fc565b915050610f7c565b600081815260046020526040812080546005820154600683015460088401546001850180548796606096889687968796879694956001600160a01b0385169560ff600160a01b90960486169590949392808216926101009091049091169085906110b79061266c565b80601f01602080910402602001604051908101604052809291908181526020018280546110e39061266c565b80156111305780601f1061110557610100808354040283529160200191611130565b820191906000526020600020905b81548152906001019060200180831161111357829003601f168201915b50505050509450975097509750975097509750975050919395979092949650565b611159611ab4565b600082815260046020526040902060098101546111ab5760405162461bcd60e51b815260206004820152601060248201526f125b9d985b1a59081c1c9bdc1bdcd85b60821b6044820152606401610a2a565b600881015460ff161580156111ca57506008810154610100900460ff16155b61120b5760405162461bcd60e51b8152602060048201526012602482015271141c9bdc1bdcd85b08199a5b985b1a5e995960721b6044820152606401610a2a565b33600090815260076020908152604080832086845290915290205460ff16156112665760405162461bcd60e51b815260206004820152600d60248201526c105b1c9958591e481d9bdd1959609a1b6044820152606401610a2a565b60006112713361170a565b9050600081116112b55760405162461bcd60e51b815260206004820152600f60248201526e2737903b37ba34b733903837bbb2b960891b6044820152606401610a2a565b3360008181526007602090815260408083208884528252808320805460ff1916600117905560088252808320938352929052208190558215611310578082600501600082825461130591906126d2565b9091555061132a9050565b8082600601600082825461132491906126d2565b90915550505b60408051841515815260208101839052339186917fcbdf6214089cba887ecbf35a0b6a734589959c9763342c756bb2a80ca2bc9f6e910160405180910390a35050610c2760018055565b600061137e611ab4565b856113b95760405162461bcd60e51b815260206004820152600b60248201526a456d707479207469746c6560a81b6044820152606401610a2a565b836113fa5760405162461bcd60e51b815260206004820152601160248201527022b6b83a3c903232b9b1b934b83a34b7b760791b6044820152606401610a2a565b6114273330611413670de0b6b3a76400006101f46126e5565b6003546001600160a01b0316929190611b0d565b60098054906000611437836126fc565b9091555060008181526004602081905260409091208054336001600160a01b031982168117835593945090928b9284926001600160a81b03191660ff60a01b199092169190911790600160a01b9084908111156114965761149661218a565b0217905550600181016114aa888a836127cb565b50600281016114ba8688836127cb565b50600381016114ca8486836127cb565b506114df670de0b6b3a76400006101f46126e5565b6004820155426009820155604051339083907f8356bc5007056a642094f44da4e8e22469db3e8a36b5811c0f91f735f1491c7990611522908d908d908d9061288c565b60405180910390a35061153460018055565b979650505050505050565b60008281526020819052604090206001015461155a81611813565b6108c68383611a4f565b600061156f81611813565b6000828152600460208190526040909120908154600160a01b900460ff16600481111561159e5761159e61218a565b146115db5760405162461bcd60e51b815260206004820152600d60248201526c4e6f7420656d657267656e637960981b6044820152606401610a2a565b600881015460ff16156116235760405162461bcd60e51b815260206004820152601060248201526f105b1c9958591e48195e1958dd5d195960821b6044820152606401610a2a565b6108c6836118a4565b600080516020612a1883398151915261164481611813565b6001600160a01b03851660009081526006602052604081208054909186918391906116709084906126d2565b909155505060018101546002906116889086906126d2565b6116929190612728565b8160010181905550828160020160008282546116ae91906126d2565b9091555050426003820155600b80548691906000906116ce9084906126d2565b9091555050505050505050565b6000818152600c60209081526040808320429055600d9091528120805491611702836126fc565b919050555050565b6001600160a01b03811660009081526006602090815260408083208151608081018352815480825260018301549482019490945260028083015493820193909352600391820154606082015292600592908590600a9061177c9061177790670de0b6b3a7640000906126d2565b611b45565b61178690866126e5565b6117909190612728565b9050600060648660200151856117a691906126e5565b6117b09190612728565b90506000600a8760400151856117c691906126e5565b6117d09190612728565b90506000816117df84866126d2565b6117e991906126d2565b9050611805611800670de0b6b3a7640000836126e5565b611cad565b9a9950505050505050505050565b61181d8133611d15565b50565b61182a8282610e58565b610c27576000828152602081815260408083206001600160a01b03851684529091529020805460ff191660011790556118603390565b6001600160a01b0316816001600160a01b0316837f2f8788117e7eff1d82e926ec794901d17c78024a50270940304540a733656f0d60405160405180910390a45050565b6000818152600460205260409020600881015460ff16156118fa5760405162461bcd60e51b815260206004820152601060248201526f105b1c9958591e48195e1958dd5d195960821b6044820152606401610a2a565b60088101805460ff1916600117905542600a82015560405160009030906119259060038501906128c9565b6000604051808303816000865af19150503d8060008114611962576040519150601f19603f3d011682016040523d82523d6000602084013e611967565b606091505b50509050827f948f4a9cd986f1118c3fbd459f7a22b23c0693e1ca3ef06a6a8be5aa7d39cc038260405161199f911515815260200190565b60405180910390a280156108c65760006119c2670de0b6b3a764000060646126e5565b835460048501546003549293506119e6926001600160a01b039081169216906119ec565b50505050565b6040516001600160a01b0383166024820152604481018290526108c690849063a9059cbb60e01b906064015b60408051601f198184030181529190526020810180516001600160e01b03166001600160e01b031990931692909217909152611d6e565b611a598282610e58565b15610c27576000828152602081815260408083206001600160a01b0385168085529252808320805460ff1916905551339285917ff6391f5c32d9c69d2a47ea670b442974b53935d1edc7fd64eb21e047a839171b9190a45050565b600260015403611b065760405162461bcd60e51b815260206004820152601f60248201527f5265656e7472616e637947756172643a207265656e7472616e742063616c6c006044820152606401610a2a565b6002600155565b6040516001600160a01b03808516602483015283166044820152606481018290526119e69085906323b872dd60e01b90608401611a18565b6000670de0b6b3a76400008210611b5e57506012919050565b67016345785d8a00008210611b7557506011919050565b662386f26fc100008210611b8b57506010919050565b66038d7ea4c680008210611ba15750600f919050565b655af3107a40008210611bb65750600e919050565b6509184e72a0008210611bcb5750600d919050565b64e8d4a510008210611bdf5750600c919050565b64174876e8008210611bf35750600b919050565b6402540be4008210611c075750600a919050565b633b9aca008210611c1a57506009919050565b6305f5e1008210611c2d57506008919050565b629896808210611c3f57506007919050565b620f42408210611c5157506006919050565b620186a08210611c6357506005919050565b6127108210611c7457506004919050565b6103e88210611c8557506003919050565b60648210611c9557506002919050565b600a8210611ca557506001919050565b506000919050565b600081600003611cbf57506000919050565b60006002611cce8460016126d2565b611cd89190612728565b9050825b80821015611d0e575080600281611cf38187612728565b611cfd91906126d2565b611d079190612728565b9150611cdc565b9392505050565b611d1f8282610e58565b610c2757611d2c81611e43565b611d37836020611e55565b604051602001611d4892919061293f565b60408051601f198184030181529082905262461bcd60e51b8252610a2a916004016129b4565b6000611dc3826040518060400160405280602081526020017f5361666545524332303a206c6f772d6c6576656c2063616c6c206661696c6564815250856001600160a01b0316611ff19092919063ffffffff16565b9050805160001480611de4575080806020019051810190611de491906129c7565b6108c65760405162461bcd60e51b815260206004820152602a60248201527f5361666545524332303a204552433230206f7065726174696f6e20646964206e6044820152691bdd081cdd58d8d9595960b21b6064820152608401610a2a565b60606108906001600160a01b03831660145b60606000611e648360026126e5565b611e6f9060026126d2565b67ffffffffffffffff811115611e8757611e87612767565b6040519080825280601f01601f191660200182016040528015611eb1576020820181803683370190505b509050600360fc1b81600081518110611ecc57611ecc6126a6565b60200101906001600160f81b031916908160001a905350600f60fb1b81600181518110611efb57611efb6126a6565b60200101906001600160f81b031916908160001a9053506000611f1f8460026126e5565b611f2a9060016126d2565b90505b6001811115611fa2576f181899199a1a9b1b9c1cb0b131b232b360811b85600f1660108110611f5e57611f5e6126a6565b1a60f81b828281518110611f7457611f746126a6565b60200101906001600160f81b031916908160001a90535060049490941c93611f9b816129e4565b9050611f2d565b508315611d0e5760405162461bcd60e51b815260206004820181905260248201527f537472696e67733a20686578206c656e67746820696e73756666696369656e746044820152606401610a2a565b60606120008484600085612008565b949350505050565b6060824710156120695760405162461bcd60e51b815260206004820152602660248201527f416464726573733a20696e73756666696369656e742062616c616e636520666f6044820152651c8818d85b1b60d21b6064820152608401610a2a565b600080866001600160a01b0316858760405161208591906129fb565b60006040518083038185875af1925050503d80600081146120c2576040519150601f19603f3d011682016040523d82523d6000602084013e6120c7565b606091505b5091509150611534878383876060831561214257825160000361213b576001600160a01b0385163b61213b5760405162461bcd60e51b815260206004820152601d60248201527f416464726573733a2063616c6c20746f206e6f6e2d636f6e74726163740000006044820152606401610a2a565b5081612000565b61200083838151156121575781518083602001fd5b8060405162461bcd60e51b8152600401610a2a91906129b4565b60006020828403121561218357600080fd5b5035919050565b634e487b7160e01b600052602160045260246000fd5b600581106121be57634e487b7160e01b600052602160045260246000fd5b9052565b60005b838110156121dd5781810151838201526020016121c5565b50506000910152565b600081518084526121fe8160208601602086016121c2565b601f01601f19169290920160200192915050565b6001600160a01b038e16815261222b602082018e6121a0565b6101a0604082015260006122436101a083018e6121e6565b8281036060840152612255818e6121e6565b90508281036080840152612269818d6121e6565b9150508960a08301528860c08301528760e08301528661010083015261229461012083018715159052565b84151561014083015261016082019390935261018001529b9a5050505050505050505050565b6000602082840312156122cc57600080fd5b81356001600160e01b031981168114611d0e57600080fd5b80356001600160a01b03811681146122fb57600080fd5b919050565b60006020828403121561231257600080fd5b611d0e826122e4565b6000806040838503121561232e57600080fd5b8235915061233e602084016122e4565b90509250929050565b60008083601f84011261235957600080fd5b50813567ffffffffffffffff81111561237157600080fd5b6020830191508360208260051b850101111561238c57600080fd5b9250929050565b600080602083850312156123a657600080fd5b823567ffffffffffffffff8111156123bd57600080fd5b6123c985828601612347565b90969095509350505050565b600080600080608085870312156123eb57600080fd5b5050823594602084013594506040840135936060013592509050565b6000806040838503121561241a57600080fd5b612423836122e4565b946020939093013593505050565b60008060008060006060868803121561244957600080fd5b85359450602086013567ffffffffffffffff8082111561246857600080fd5b61247489838a01612347565b9096509450604088013591508082111561248d57600080fd5b5061249a88828901612347565b969995985093965092949392505050565b6001600160a01b03881681526124c460208201886121a0565b60e0604082015260006124da60e08301886121e6565b606083019690965250608081019390935290151560a0830152151560c0909101529392505050565b801515811461181d57600080fd5b6000806040838503121561252357600080fd5b82359150602083013561253581612502565b809150509250929050565b60008083601f84011261255257600080fd5b50813567ffffffffffffffff81111561256a57600080fd5b60208301915083602082850101111561238c57600080fd5b60008060008060008060006080888a03121561259d57600080fd5b8735600581106125ac57600080fd5b9650602088013567ffffffffffffffff808211156125c957600080fd5b6125d58b838c01612540565b909850965060408a01359150808211156125ee57600080fd5b6125fa8b838c01612540565b909650945060608a013591508082111561261357600080fd5b506126208a828b01612540565b989b979a50959850939692959293505050565b6000806000806080858703121561264957600080fd5b612652856122e4565b966020860135965060408601359560600135945092505050565b600181811c9082168061268057607f821691505b6020821081036126a057634e487b7160e01b600052602260045260246000fd5b50919050565b634e487b7160e01b600052603260045260246000fd5b634e487b7160e01b600052601160045260246000fd5b80820180821115610890576108906126bc565b8082028115828204841417610890576108906126bc565b60006001820161270e5761270e6126bc565b5060010190565b81810381811115610890576108906126bc565b60008261274557634e487b7160e01b600052601260045260246000fd5b500490565b60006020828403121561275c57600080fd5b8135611d0e81612502565b634e487b7160e01b600052604160045260246000fd5b601f8211156108c657600081815260208120601f850160051c810160208610156127a45750805b601f850160051c820191505b818110156127c3578281556001016127b0565b505050505050565b67ffffffffffffffff8311156127e3576127e3612767565b6127f7836127f1835461266c565b8361277d565b6000601f84116001811461282b57600085156128135750838201355b600019600387901b1c1916600186901b178355612885565b600083815260209020601f19861690835b8281101561285c578685013582556020948501946001909201910161283c565b50868210156128795760001960f88860031b161c19848701351681555b505060018560011b0183555b5050505050565b61289681856121a0565b60406020820152816040820152818360608301376000818301606090810191909152601f909201601f1916010192915050565b60008083546128d78161266c565b600182811680156128ef576001811461290457612933565b60ff1984168752821515830287019450612933565b8760005260208060002060005b8581101561292a5781548a820152908401908201612911565b50505082870194505b50929695505050505050565b7f416363657373436f6e74726f6c3a206163636f756e74200000000000000000008152600083516129778160178501602088016121c2565b7001034b99036b4b9b9b4b733903937b6329607d1b60179184019182015283516129a88160288401602088016121c2565b01602801949350505050565b602081526000611d0e60208301846121e6565b6000602082840312156129d957600080fd5b8151611d0e81612502565b6000816129f3576129f36126bc565b506000190190565b60008251612a0d8184602087016121c2565b919091019291505056fe68e79a7bf1e0bc45d0a330c573bc367f9cf464fd326078812f301165fbda4ef1a264697066735822122004a01b048ff45671b671629632394743ba6822b1c1b6b0966a9c96ef2485d47564736f6c63430008130033","opcodes":"PUSH1 0x80 PUSH1 0x40 MSTORE CALLVALUE DUP1 ISZERO PUSH3 0x11 JUMPI PUSH1 0x0 DUP1 REVERT JUMPDEST POP PUSH1 0x40 MLOAD PUSH3 0x2C1C CODESIZE SUB DUP1 PUSH3 0x2C1C DUP4 CODECOPY DUP2 ADD PUSH1 0x40 DUP2 SWAP1 MSTORE PUSH3 0x34 SWAP2 PUSH3 0x167 JUMP JUMPDEST PUSH1 0x1 DUP1 SSTORE PUSH1 0x2 DUP1 SLOAD PUSH1 0x1 PUSH1 0x1 PUSH1 0xA0 SHL SUB DUP1 DUP6 AND PUSH1 0x1 PUSH1 0x1 PUSH1 0xA0 SHL SUB NOT SWAP3 DUP4 AND OR SWAP1 SWAP3 SSTORE PUSH1 0x3 DUP1 SLOAD SWAP3 DUP5 AND SWAP3 SWAP1 SWAP2 AND SWAP2 SWAP1 SWAP2 OR SWAP1 SSTORE PUSH3 0x75 PUSH1 0x0 CALLER PUSH3 0xA9 JUMP JUMPDEST PUSH3 0xA1 PUSH32 0x68E79A7BF1E0BC45D0A330C573BC367F9CF464FD326078812F301165FBDA4EF1 CALLER PUSH3 0xA9 JUMP JUMPDEST POP POP PUSH3 0x19F JUMP JUMPDEST PUSH1 0x0 DUP3 DUP2 MSTORE PUSH1 0x20 DUP2 DUP2 MSTORE PUSH1 0x40 DUP1 DUP4 KECCAK256 PUSH1 0x1 PUSH1 0x1 PUSH1 0xA0 SHL SUB DUP6 AND DUP5 MSTORE SWAP1 SWAP2 MSTORE SWAP1 KECCAK256 SLOAD PUSH1 0xFF AND PUSH3 0x146 JUMPI PUSH1 0x0 DUP3 DUP2 MSTORE PUSH1 0x20 DUP2 DUP2 MSTORE PUSH1 0x40 DUP1 DUP4 KECCAK256 PUSH1 0x1 PUSH1 0x1 PUSH1 0xA0 SHL SUB DUP6 AND DUP5 MSTORE SWAP1 SWAP2 MSTORE SWAP1 KECCAK256 DUP1 SLOAD PUSH1 0xFF NOT AND PUSH1 0x1 OR SWAP1 SSTORE PUSH3 0x105 CALLER SWAP1 JUMP JUMPDEST PUSH1 0x1 PUSH1 0x1 PUSH1 0xA0 SHL SUB AND DUP2 PUSH1 0x1 PUSH1 0x1 PUSH1 0xA0 SHL SUB AND DUP4 PUSH32 0x2F8788117E7EFF1D82E926EC794901D17C78024A50270940304540A733656F0D PUSH1 0x40 MLOAD PUSH1 0x40 MLOAD DUP1 SWAP2 SUB SWAP1 LOG4 JUMPDEST POP POP JUMP JUMPDEST DUP1 MLOAD PUSH1 0x1 PUSH1 0x1 PUSH1 0xA0 SHL SUB DUP2 AND DUP2 EQ PUSH3 0x162 JUMPI PUSH1 0x0 DUP1 REVERT JUMPDEST SWAP2 SWAP1 POP JUMP JUMPDEST PUSH1 0x0 DUP1 PUSH1 0x40 DUP4 DUP6 SUB SLT ISZERO PUSH3 0x17B JUMPI PUSH1 0x0 DUP1 REVERT JUMPDEST PUSH3 0x186 DUP4 PUSH3 0x14A JUMP JUMPDEST SWAP2 POP PUSH3 0x196 PUSH1 0x20 DUP5 ADD PUSH3 0x14A JUMP JUMPDEST SWAP1 POP SWAP3 POP SWAP3 SWAP1 POP JUMP JUMPDEST PUSH2 0x2A6D DUP1 PUSH3 0x1AF PUSH1 0x0 CODECOPY PUSH1 0x0 RETURN INVALID PUSH1 0x80 PUSH1 0x40 MSTORE CALLVALUE DUP1 ISZERO PUSH2 0x10 JUMPI PUSH1 0x0 DUP1 REVERT JUMPDEST POP PUSH1 0x4 CALLDATASIZE LT PUSH2 0x1FB JUMPI PUSH1 0x0 CALLDATALOAD PUSH1 0xE0 SHR DUP1 PUSH4 0x63CFA987 GT PUSH2 0x11A JUMPI DUP1 PUSH4 0xC7F758A8 GT PUSH2 0xAD JUMPI DUP1 PUSH4 0xE40B1E31 GT PUSH2 0x7C JUMPI DUP1 PUSH4 0xE40B1E31 EQ PUSH2 0x57B JUMPI DUP1 PUSH4 0xE8D9510A EQ PUSH2 0x584 JUMPI DUP1 PUSH4 0xEB4706B5 EQ PUSH2 0x597 JUMPI DUP1 PUSH4 0xFAA537C7 EQ PUSH2 0x629 JUMPI DUP1 PUSH4 0xFF324324 EQ PUSH2 0x63C JUMPI PUSH1 0x0 DUP1 REVERT JUMPDEST DUP1 PUSH4 0xC7F758A8 EQ PUSH2 0x51C JUMPI DUP1 PUSH4 0xC9D27AFE EQ PUSH2 0x542 JUMPI DUP1 PUSH4 0xD155AECD EQ PUSH2 0x555 JUMPI DUP1 PUSH4 0xD547741F EQ PUSH2 0x568 JUMPI PUSH1 0x0 DUP1 REVERT JUMPDEST DUP1 PUSH4 0x91D14854 GT PUSH2 0xE9 JUMPI DUP1 PUSH4 0x91D14854 EQ PUSH2 0x4CE JUMPI DUP1 PUSH4 0x94AC26E5 EQ PUSH2 0x4E1 JUMPI DUP1 PUSH4 0xA217FDDF EQ PUSH2 0x4F4 JUMPI DUP1 PUSH4 0xA7FCFB81 EQ PUSH2 0x4FC JUMPI PUSH1 0x0 DUP1 REVERT JUMPDEST DUP1 PUSH4 0x63CFA987 EQ PUSH2 0x42C JUMPI DUP1 PUSH4 0x68D03D69 EQ PUSH2 0x43F JUMPI DUP1 PUSH4 0x6A3F1E6F EQ PUSH2 0x466 JUMPI DUP1 PUSH4 0x6C55B0A7 EQ PUSH2 0x479 JUMPI PUSH1 0x0 DUP1 REVERT JUMPDEST DUP1 PUSH4 0x2B0A999D GT PUSH2 0x192 JUMPI DUP1 PUSH4 0x3504D6A5 GT PUSH2 0x161 JUMPI DUP1 PUSH4 0x3504D6A5 EQ PUSH2 0x3CF JUMPI DUP1 PUSH4 0x36568ABE EQ PUSH2 0x3E2 JUMPI DUP1 PUSH4 0x37C08923 EQ PUSH2 0x3F5 JUMPI DUP1 PUSH4 0x42545825 EQ PUSH2 0x3FE JUMPI PUSH1 0x0 DUP1 REVERT JUMPDEST DUP1 PUSH4 0x2B0A999D EQ PUSH2 0x305 JUMPI DUP1 PUSH4 0x2F2FF15D EQ PUSH2 0x330 JUMPI DUP1 PUSH4 0x31591FB8 EQ PUSH2 0x345 JUMPI DUP1 PUSH4 0x34AE9B23 EQ PUSH2 0x358 JUMPI PUSH1 0x0 DUP1 REVERT JUMPDEST DUP1 PUSH4 0x141C5728 GT PUSH2 0x1CE JUMPI DUP1 PUSH4 0x141C5728 EQ PUSH2 0x28E JUMPI DUP1 PUSH4 0x248A9CA3 EQ PUSH2 0x2B9 JUMPI DUP1 PUSH4 0x254899AB EQ PUSH2 0x2DC JUMPI DUP1 PUSH4 0x2AB09D14 EQ PUSH2 0x2FC JUMPI PUSH1 0x0 DUP1 REVERT JUMPDEST DUP1 PUSH4 0x13CF08B EQ PUSH2 0x200 JUMPI DUP1 PUSH4 0x1FFC9A7 EQ PUSH2 0x235 JUMPI DUP1 PUSH4 0x7E2CEA5 EQ PUSH2 0x258 JUMPI DUP1 PUSH4 0xBACA2E5 EQ PUSH2 0x27B JUMPI JUMPDEST PUSH1 0x0 DUP1 REVERT JUMPDEST PUSH2 0x213 PUSH2 0x20E CALLDATASIZE PUSH1 0x4 PUSH2 0x2171 JUMP JUMPDEST PUSH2 0x64F JUMP JUMPDEST PUSH1 0x40 MLOAD PUSH2 0x22C SWAP14 SWAP13 SWAP12 SWAP11 SWAP10 SWAP9 SWAP8 SWAP7 SWAP6 SWAP5 SWAP4 SWAP3 SWAP2 SWAP1 PUSH2 0x2212 JUMP JUMPDEST PUSH1 0x40 MLOAD DUP1 SWAP2 SUB SWAP1 RETURN JUMPDEST PUSH2 0x248 PUSH2 0x243 CALLDATASIZE PUSH1 0x4 PUSH2 0x22BA JUMP JUMPDEST PUSH2 0x85F JUMP JUMPDEST PUSH1 0x40 MLOAD SWAP1 ISZERO ISZERO DUP2 MSTORE PUSH1 0x20 ADD PUSH2 0x22C JUMP JUMPDEST PUSH2 0x26D PUSH1 0x0 DUP1 MLOAD PUSH1 0x20 PUSH2 0x2A18 DUP4 CODECOPY DUP2 MLOAD SWAP2 MSTORE DUP2 JUMP JUMPDEST PUSH1 0x40 MLOAD SWAP1 DUP2 MSTORE PUSH1 0x20 ADD PUSH2 0x22C JUMP JUMPDEST PUSH2 0x26D PUSH2 0x289 CALLDATASIZE PUSH1 0x4 PUSH2 0x2300 JUMP JUMPDEST PUSH2 0x896 JUMP JUMPDEST PUSH1 0x2 SLOAD PUSH2 0x2A1 SWAP1 PUSH1 0x1 PUSH1 0x1 PUSH1 0xA0 SHL SUB AND DUP2 JUMP JUMPDEST PUSH1 0x40 MLOAD PUSH1 0x1 PUSH1 0x1 PUSH1 0xA0 SHL SUB SWAP1 SWAP2 AND DUP2 MSTORE PUSH1 0x20 ADD PUSH2 0x22C JUMP JUMPDEST PUSH2 0x26D PUSH2 0x2C7 CALLDATASIZE PUSH1 0x4 PUSH2 0x2171 JUMP JUMPDEST PUSH1 0x0 SWAP1 DUP2 MSTORE PUSH1 0x20 DUP2 SWAP1 MSTORE PUSH1 0x40 SWAP1 KECCAK256 PUSH1 0x1 ADD SLOAD SWAP1 JUMP JUMPDEST PUSH2 0x26D PUSH2 0x2EA CALLDATASIZE PUSH1 0x4 PUSH2 0x2171 JUMP JUMPDEST PUSH1 0xD PUSH1 0x20 MSTORE PUSH1 0x0 SWAP1 DUP2 MSTORE PUSH1 0x40 SWAP1 KECCAK256 SLOAD DUP2 JUMP JUMPDEST PUSH2 0x26D PUSH1 0x9 SLOAD DUP2 JUMP JUMPDEST PUSH2 0x26D PUSH2 0x313 CALLDATASIZE PUSH1 0x4 PUSH2 0x231B JUMP JUMPDEST PUSH1 0x8 PUSH1 0x20 SWAP1 DUP2 MSTORE PUSH1 0x0 SWAP3 DUP4 MSTORE PUSH1 0x40 DUP1 DUP5 KECCAK256 SWAP1 SWAP2 MSTORE SWAP1 DUP3 MSTORE SWAP1 KECCAK256 SLOAD DUP2 JUMP JUMPDEST PUSH2 0x343 PUSH2 0x33E CALLDATASIZE PUSH1 0x4 PUSH2 0x231B JUMP JUMPDEST PUSH2 0x8A1 JUMP JUMPDEST STOP JUMPDEST PUSH2 0x343 PUSH2 0x353 CALLDATASIZE PUSH1 0x4 PUSH2 0x2393 JUMP JUMPDEST PUSH2 0x8CB JUMP JUMPDEST PUSH2 0x3A0 PUSH2 0x366 CALLDATASIZE PUSH1 0x4 PUSH2 0x2171 JUMP JUMPDEST PUSH1 0x0 SWAP1 DUP2 MSTORE PUSH1 0x5 PUSH1 0x20 MSTORE PUSH1 0x40 SWAP1 KECCAK256 DUP1 SLOAD PUSH1 0x1 DUP3 ADD SLOAD PUSH1 0x2 DUP4 ADD SLOAD PUSH1 0x3 DUP5 ADD SLOAD PUSH1 0x4 DUP6 ADD SLOAD PUSH1 0x7 SWAP1 SWAP6 ADD SLOAD SWAP4 SWAP6 SWAP3 SWAP5 SWAP2 SWAP4 SWAP1 SWAP3 PUSH1 0xFF SWAP1 SWAP2 AND SWAP1 JUMP JUMPDEST PUSH1 0x40 DUP1 MLOAD SWAP7 DUP8 MSTORE PUSH1 0x20 DUP8 ADD SWAP6 SWAP1 SWAP6 MSTORE SWAP4 DUP6 ADD SWAP3 SWAP1 SWAP3 MSTORE PUSH1 0x60 DUP5 ADD MSTORE PUSH1 0x80 DUP4 ADD MSTORE ISZERO ISZERO PUSH1 0xA0 DUP3 ADD MSTORE PUSH1 0xC0 ADD PUSH2 0x22C JUMP JUMPDEST PUSH2 0x343 PUSH2 0x3DD CALLDATASIZE PUSH1 0x4 PUSH2 0x23D5 JUMP JUMPDEST PUSH2 0x9BC JUMP JUMPDEST PUSH2 0x343 PUSH2 0x3F0 CALLDATASIZE PUSH1 0x4 PUSH2 0x231B JUMP JUMPDEST PUSH2 0xBAD JUMP JUMPDEST PUSH2 0x26D PUSH1 0xB SLOAD DUP2 JUMP JUMPDEST PUSH2 0x248 PUSH2 0x40C CALLDATASIZE PUSH1 0x4 PUSH2 0x2407 JUMP JUMPDEST PUSH1 0x7 PUSH1 0x20 SWAP1 DUP2 MSTORE PUSH1 0x0 SWAP3 DUP4 MSTORE PUSH1 0x40 DUP1 DUP5 KECCAK256 SWAP1 SWAP2 MSTORE SWAP1 DUP3 MSTORE SWAP1 KECCAK256 SLOAD PUSH1 0xFF AND DUP2 JUMP JUMPDEST PUSH2 0x343 PUSH2 0x43A CALLDATASIZE PUSH1 0x4 PUSH2 0x23D5 JUMP JUMPDEST PUSH2 0xC2B JUMP JUMPDEST PUSH2 0x26D PUSH32 0x169924E2C929407F694F5233A52E70102A6858A339B9A2BC70C1AC07817F255D DUP2 JUMP JUMPDEST PUSH1 0x3 SLOAD PUSH2 0x2A1 SWAP1 PUSH1 0x1 PUSH1 0x1 PUSH1 0xA0 SHL SUB AND DUP2 JUMP JUMPDEST PUSH2 0x4AE PUSH2 0x487 CALLDATASIZE PUSH1 0x4 PUSH2 0x2300 JUMP JUMPDEST PUSH1 0x6 PUSH1 0x20 MSTORE PUSH1 0x0 SWAP1 DUP2 MSTORE PUSH1 0x40 SWAP1 KECCAK256 DUP1 SLOAD PUSH1 0x1 DUP3 ADD SLOAD PUSH1 0x2 DUP4 ADD SLOAD PUSH1 0x3 SWAP1 SWAP4 ADD SLOAD SWAP2 SWAP3 SWAP1 SWAP2 DUP5 JUMP JUMPDEST PUSH1 0x40 DUP1 MLOAD SWAP5 DUP6 MSTORE PUSH1 0x20 DUP6 ADD SWAP4 SWAP1 SWAP4 MSTORE SWAP2 DUP4 ADD MSTORE PUSH1 0x60 DUP3 ADD MSTORE PUSH1 0x80 ADD PUSH2 0x22C JUMP JUMPDEST PUSH2 0x248 PUSH2 0x4DC CALLDATASIZE PUSH1 0x4 PUSH2 0x231B JUMP JUMPDEST PUSH2 0xE58 JUMP JUMPDEST PUSH2 0x343 PUSH2 0x4EF CALLDATASIZE PUSH1 0x4 PUSH2 0x2431 JUMP JUMPDEST PUSH2 0xE81 JUMP JUMPDEST PUSH2 0x26D PUSH1 0x0 DUP2 JUMP JUMPDEST PUSH2 0x26D PUSH2 0x50A CALLDATASIZE PUSH1 0x4 PUSH2 0x2171 JUMP JUMPDEST PUSH1 0xC PUSH1 0x20 MSTORE PUSH1 0x0 SWAP1 DUP2 MSTORE PUSH1 0x40 SWAP1 KECCAK256 SLOAD DUP2 JUMP JUMPDEST PUSH2 0x52F PUSH2 0x52A CALLDATASIZE PUSH1 0x4 PUSH2 0x2171 JUMP JUMPDEST PUSH2 0x104E JUMP JUMPDEST PUSH1 0x40 MLOAD PUSH2 0x22C SWAP8 SWAP7 SWAP6 SWAP5 SWAP4 SWAP3 SWAP2 SWAP1 PUSH2 0x24AB JUMP JUMPDEST PUSH2 0x343 PUSH2 0x550 CALLDATASIZE PUSH1 0x4 PUSH2 0x2510 JUMP JUMPDEST PUSH2 0x1151 JUMP JUMPDEST PUSH2 0x26D PUSH2 0x563 CALLDATASIZE PUSH1 0x4 PUSH2 0x2582 JUMP JUMPDEST PUSH2 0x1374 JUMP JUMPDEST PUSH2 0x343 PUSH2 0x576 CALLDATASIZE PUSH1 0x4 PUSH2 0x231B JUMP JUMPDEST PUSH2 0x153F JUMP JUMPDEST PUSH2 0x26D PUSH1 0xA SLOAD DUP2 JUMP JUMPDEST PUSH2 0x343 PUSH2 0x592 CALLDATASIZE PUSH1 0x4 PUSH2 0x2171 JUMP JUMPDEST PUSH2 0x1564 JUMP JUMPDEST PUSH2 0x5EC PUSH2 0x5A5 CALLDATASIZE PUSH1 0x4 PUSH2 0x2171 JUMP JUMPDEST PUSH1 0x5 PUSH1 0x20 DUP2 SWAP1 MSTORE PUSH1 0x0 SWAP2 DUP3 MSTORE PUSH1 0x40 SWAP1 SWAP2 KECCAK256 DUP1 SLOAD PUSH1 0x1 DUP3 ADD SLOAD PUSH1 0x2 DUP4 ADD SLOAD PUSH1 0x3 DUP5 ADD SLOAD PUSH1 0x4 DUP6 ADD SLOAD SWAP6 DUP6 ADD SLOAD PUSH1 0x6 DUP7 ADD SLOAD PUSH1 0x7 SWAP1 SWAP7 ADD SLOAD SWAP5 SWAP7 SWAP4 SWAP6 SWAP3 SWAP5 SWAP2 SWAP4 SWAP3 SWAP1 SWAP2 PUSH1 0xFF AND DUP9 JUMP JUMPDEST PUSH1 0x40 DUP1 MLOAD SWAP9 DUP10 MSTORE PUSH1 0x20 DUP10 ADD SWAP8 SWAP1 SWAP8 MSTORE SWAP6 DUP8 ADD SWAP5 SWAP1 SWAP5 MSTORE PUSH1 0x60 DUP7 ADD SWAP3 SWAP1 SWAP3 MSTORE PUSH1 0x80 DUP6 ADD MSTORE PUSH1 0xA0 DUP5 ADD MSTORE PUSH1 0xC0 DUP4 ADD MSTORE ISZERO ISZERO PUSH1 0xE0 DUP3 ADD MSTORE PUSH2 0x100 ADD PUSH2 0x22C JUMP JUMPDEST PUSH2 0x343 PUSH2 0x637 CALLDATASIZE PUSH1 0x4 PUSH2 0x2633 JUMP JUMPDEST PUSH2 0x162C JUMP JUMPDEST PUSH2 0x343 PUSH2 0x64A CALLDATASIZE PUSH1 0x4 PUSH2 0x2171 JUMP JUMPDEST PUSH2 0x16DB JUMP JUMPDEST PUSH1 0x4 PUSH1 0x20 MSTORE PUSH1 0x0 SWAP1 DUP2 MSTORE PUSH1 0x40 SWAP1 KECCAK256 DUP1 SLOAD PUSH1 0x1 DUP3 ADD DUP1 SLOAD PUSH1 0x1 PUSH1 0x1 PUSH1 0xA0 SHL SUB DUP4 AND SWAP4 PUSH1 0x1 PUSH1 0xA0 SHL SWAP1 SWAP4 DIV PUSH1 0xFF AND SWAP3 SWAP2 SWAP1 PUSH2 0x687 SWAP1 PUSH2 0x266C JUMP JUMPDEST DUP1 PUSH1 0x1F ADD PUSH1 0x20 DUP1 SWAP2 DIV MUL PUSH1 0x20 ADD PUSH1 0x40 MLOAD SWAP1 DUP2 ADD PUSH1 0x40 MSTORE DUP1 SWAP3 SWAP2 SWAP1 DUP2 DUP2 MSTORE PUSH1 0x20 ADD DUP3 DUP1 SLOAD PUSH2 0x6B3 SWAP1 PUSH2 0x266C JUMP JUMPDEST DUP1 ISZERO PUSH2 0x700 JUMPI DUP1 PUSH1 0x1F LT PUSH2 0x6D5 JUMPI PUSH2 0x100 DUP1 DUP4 SLOAD DIV MUL DUP4 MSTORE SWAP2 PUSH1 0x20 ADD SWAP2 PUSH2 0x700 JUMP JUMPDEST DUP3 ADD SWAP2 SWAP1 PUSH1 0x0 MSTORE PUSH1 0x20 PUSH1 0x0 KECCAK256 SWAP1 JUMPDEST DUP2 SLOAD DUP2 MSTORE SWAP1 PUSH1 0x1 ADD SWAP1 PUSH1 0x20 ADD DUP1 DUP4 GT PUSH2 0x6E3 JUMPI DUP3 SWAP1 SUB PUSH1 0x1F AND DUP3 ADD SWAP2 JUMPDEST POP POP POP POP POP SWAP1 DUP1 PUSH1 0x2 ADD DUP1 SLOAD PUSH2 0x715 SWAP1 PUSH2 0x266C JUMP JUMPDEST DUP1 PUSH1 0x1F ADD PUSH1 0x20 DUP1 SWAP2 DIV MUL PUSH1 0x20 ADD PUSH1 0x40 MLOAD SWAP1 DUP2 ADD PUSH1 0x40 MSTORE DUP1 SWAP3 SWAP2 SWAP1 DUP2 DUP2 MSTORE PUSH1 0x20 ADD DUP3 DUP1 SLOAD PUSH2 0x741 SWAP1 PUSH2 0x266C JUMP JUMPDEST DUP1 ISZERO PUSH2 0x78E JUMPI DUP1 PUSH1 0x1F LT PUSH2 0x763 JUMPI PUSH2 0x100 DUP1 DUP4 SLOAD DIV MUL DUP4 MSTORE SWAP2 PUSH1 0x20 ADD SWAP2 PUSH2 0x78E JUMP JUMPDEST DUP3 ADD SWAP2 SWAP1 PUSH1 0x0 MSTORE PUSH1 0x20 PUSH1 0x0 KECCAK256 SWAP1 JUMPDEST DUP2 SLOAD DUP2 MSTORE SWAP1 PUSH1 0x1 ADD SWAP1 PUSH1 0x20 ADD DUP1 DUP4 GT PUSH2 0x771 JUMPI DUP3 SWAP1 SUB PUSH1 0x1F AND DUP3 ADD SWAP2 JUMPDEST POP POP POP POP POP SWAP1 DUP1 PUSH1 0x3 ADD DUP1 SLOAD PUSH2 0x7A3 SWAP1 PUSH2 0x266C JUMP JUMPDEST DUP1 PUSH1 0x1F ADD PUSH1 0x20 DUP1 SWAP2 DIV MUL PUSH1 0x20 ADD PUSH1 0x40 MLOAD SWAP1 DUP2 ADD PUSH1 0x40 MSTORE DUP1 SWAP3 SWAP2 SWAP1 DUP2 DUP2 MSTORE PUSH1 0x20 ADD DUP3 DUP1 SLOAD PUSH2 0x7CF SWAP1 PUSH2 0x266C JUMP JUMPDEST DUP1 ISZERO PUSH2 0x81C JUMPI DUP1 PUSH1 0x1F LT PUSH2 0x7F1 JUMPI PUSH2 0x100 DUP1 DUP4 SLOAD DIV MUL DUP4 MSTORE SWAP2 PUSH1 0x20 ADD SWAP2 PUSH2 0x81C JUMP JUMPDEST DUP3 ADD SWAP2 SWAP1 PUSH1 0x0 MSTORE PUSH1 0x20 PUSH1 0x0 KECCAK256 SWAP1 JUMPDEST DUP2 SLOAD DUP2 MSTORE SWAP1 PUSH1 0x1 ADD SWAP1 PUSH1 0x20 ADD DUP1 DUP4 GT PUSH2 0x7FF JUMPI DUP3 SWAP1 SUB PUSH1 0x1F AND DUP3 ADD SWAP2 JUMPDEST POP POP POP PUSH1 0x4 DUP5 ADD SLOAD PUSH1 0x5 DUP6 ADD SLOAD PUSH1 0x6 DUP7 ADD SLOAD PUSH1 0x7 DUP8 ADD SLOAD PUSH1 0x8 DUP9 ADD SLOAD PUSH1 0x9 DUP10 ADD SLOAD PUSH1 0xA SWAP1 SWAP10 ADD SLOAD SWAP8 SWAP9 SWAP5 SWAP8 SWAP4 SWAP7 POP SWAP2 SWAP5 POP SWAP3 PUSH1 0xFF DUP1 DUP4 AND SWAP4 PUSH2 0x100 SWAP1 SWAP4 DIV AND SWAP2 DUP14 JUMP JUMPDEST PUSH1 0x0 PUSH1 0x1 PUSH1 0x1 PUSH1 0xE0 SHL SUB NOT DUP3 AND PUSH4 0x7965DB0B PUSH1 0xE0 SHL EQ DUP1 PUSH2 0x890 JUMPI POP PUSH4 0x1FFC9A7 PUSH1 0xE0 SHL PUSH1 0x1 PUSH1 0x1 PUSH1 0xE0 SHL SUB NOT DUP4 AND EQ JUMPDEST SWAP3 SWAP2 POP POP JUMP JUMPDEST PUSH1 0x0 PUSH2 0x890 DUP3 PUSH2 0x170A JUMP JUMPDEST PUSH1 0x0 DUP3 DUP2 MSTORE PUSH1 0x20 DUP2 SWAP1 MSTORE PUSH1 0x40 SWAP1 KECCAK256 PUSH1 0x1 ADD SLOAD PUSH2 0x8BC DUP2 PUSH2 0x1813 JUMP JUMPDEST PUSH2 0x8C6 DUP4 DUP4 PUSH2 0x1820 JUMP JUMPDEST POP POP POP JUMP JUMPDEST PUSH1 0x0 JUMPDEST DUP2 DUP2 LT ISZERO PUSH2 0x8C6 JUMPI PUSH1 0x0 DUP4 DUP4 DUP4 DUP2 DUP2 LT PUSH2 0x8EA JUMPI PUSH2 0x8EA PUSH2 0x26A6 JUMP JUMPDEST SWAP1 POP PUSH1 0x20 MUL ADD CALLDATALOAD SWAP1 POP PUSH1 0x0 PUSH1 0xC PUSH1 0x0 DUP4 DUP2 MSTORE PUSH1 0x20 ADD SWAP1 DUP2 MSTORE PUSH1 0x20 ADD PUSH1 0x0 KECCAK256 SLOAD GT DUP1 ISZERO PUSH2 0x930 JUMPI POP PUSH1 0x0 DUP2 DUP2 MSTORE PUSH1 0xC PUSH1 0x20 MSTORE PUSH1 0x40 SWAP1 KECCAK256 SLOAD PUSH2 0x92D SWAP1 PUSH3 0xED4E00 PUSH2 0x26D2 JUMP JUMPDEST TIMESTAMP GT JUMPDEST ISZERO PUSH2 0x9A9 JUMPI PUSH1 0x0 DUP2 DUP2 MSTORE PUSH1 0xD PUSH1 0x20 MSTORE PUSH1 0x40 SWAP1 KECCAK256 SLOAD PUSH3 0xF4240 DUP1 PUSH2 0x954 DUP4 PUSH1 0x64 PUSH2 0x26E5 JUMP JUMPDEST LT ISZERO PUSH2 0x9A6 JUMPI PUSH1 0x0 DUP4 DUP2 MSTORE PUSH1 0xC PUSH1 0x20 MSTORE PUSH1 0x40 DUP1 DUP3 KECCAK256 DUP3 SWAP1 SSTORE MLOAD DUP5 SWAP2 PUSH32 0x28E116F48ADD0F7CAC7D9FF1464080BA22ADDB5565453572947BF7A11A99A7FE SWAP2 PUSH2 0x99D SWAP2 DUP2 MSTORE PUSH1 0x20 ADD SWAP1 JUMP JUMPDEST PUSH1 0x40 MLOAD DUP1 SWAP2 SUB SWAP1 LOG2 JUMPDEST POP POP JUMPDEST POP DUP1 PUSH2 0x9B4 DUP2 PUSH2 0x26FC JUMP JUMPDEST SWAP2 POP POP PUSH2 0x8CE JUMP JUMPDEST PUSH1 0x0 DUP1 MLOAD PUSH1 0x20 PUSH2 0x2A18 DUP4 CODECOPY DUP2 MLOAD SWAP2 MSTORE PUSH2 0x9D4 DUP2 PUSH2 0x1813 JUMP JUMPDEST PUSH1 0x0 DUP6 DUP2 MSTORE PUSH1 0x5 PUSH1 0x20 MSTORE PUSH1 0x40 SWAP1 KECCAK256 PUSH1 0x7 DUP2 ADD SLOAD PUSH1 0xFF AND PUSH2 0xA33 JUMPI PUSH1 0x40 MLOAD PUSH3 0x461BCD PUSH1 0xE5 SHL DUP2 MSTORE PUSH1 0x20 PUSH1 0x4 DUP3 ADD MSTORE PUSH1 0x15 PUSH1 0x24 DUP3 ADD MSTORE PUSH21 0x4578706572696D656E74206E6F7420616374697665 PUSH1 0x58 SHL PUSH1 0x44 DUP3 ADD MSTORE PUSH1 0x64 ADD JUMPDEST PUSH1 0x40 MLOAD DUP1 SWAP2 SUB SWAP1 REVERT JUMPDEST DUP1 PUSH1 0x2 ADD SLOAD TIMESTAMP LT ISZERO PUSH2 0xA7E JUMPI PUSH1 0x40 MLOAD PUSH3 0x461BCD PUSH1 0xE5 SHL DUP2 MSTORE PUSH1 0x20 PUSH1 0x4 DUP3 ADD MSTORE PUSH1 0x14 PUSH1 0x24 DUP3 ADD MSTORE PUSH20 0x115E1C195C9A5B595B9D081B9BDD08195B991959 PUSH1 0x62 SHL PUSH1 0x44 DUP3 ADD MSTORE PUSH1 0x64 ADD PUSH2 0xA2A JUMP JUMPDEST PUSH1 0x7 DUP2 ADD DUP1 SLOAD PUSH1 0xFF NOT AND SWAP1 SSTORE PUSH1 0x0 DUP6 DUP6 GT DUP1 ISZERO PUSH2 0xA9B JUMPI POP PUSH1 0x0 DUP7 GT JUMPDEST ISZERO PUSH2 0xAC3 JUMPI DUP6 PUSH2 0xAAB DUP2 DUP8 PUSH2 0x2715 JUMP JUMPDEST PUSH2 0xAB6 SWAP1 PUSH1 0x64 PUSH2 0x26E5 JUMP JUMPDEST PUSH2 0xAC0 SWAP2 SWAP1 PUSH2 0x2728 JUMP JUMPDEST SWAP1 POP JUMPDEST PUSH1 0x0 PUSH1 0x5 DUP3 LT ISZERO DUP1 ISZERO PUSH2 0xAD6 JUMPI POP PUSH1 0x5 DUP6 LT JUMPDEST PUSH1 0x40 DUP1 MLOAD DUP3 ISZERO ISZERO DUP2 MSTORE PUSH1 0x20 DUP2 ADD DUP6 SWAP1 MSTORE SWAP1 DUP2 ADD DUP8 SWAP1 MSTORE SWAP1 SWAP2 POP DUP9 SWAP1 PUSH32 0x5754C43EE3FF1781CBF569AF884DDC950DCAE95B682119B4DE6D8CDD1C677521 SWAP1 PUSH1 0x60 ADD PUSH1 0x40 MLOAD DUP1 SWAP2 SUB SWAP1 LOG2 DUP1 ISZERO PUSH2 0xB34 JUMPI DUP3 SLOAD PUSH2 0xB2F SWAP1 PUSH2 0x18A4 JUMP JUMPDEST PUSH2 0xBA3 JUMP JUMPDEST DUP3 SLOAD PUSH1 0x0 SWAP1 DUP2 MSTORE PUSH1 0x4 PUSH1 0x20 DUP2 SWAP1 MSTORE PUSH1 0x40 DUP3 KECCAK256 SWAP1 DUP2 ADD SLOAD SWAP1 SWAP2 SWAP1 PUSH2 0xB59 SWAP1 PUSH1 0xA SWAP1 PUSH2 0x2728 JUMP JUMPDEST DUP3 SLOAD PUSH1 0x4 DUP5 ADD SLOAD SWAP2 SWAP3 POP PUSH2 0xB91 SWAP2 PUSH1 0x1 PUSH1 0x1 PUSH1 0xA0 SHL SUB SWAP1 SWAP2 AND SWAP1 PUSH2 0xB7E SWAP1 DUP5 SWAP1 PUSH2 0x2715 JUMP JUMPDEST PUSH1 0x3 SLOAD PUSH1 0x1 PUSH1 0x1 PUSH1 0xA0 SHL SUB AND SWAP2 SWAP1 PUSH2 0x19EC JUMP JUMPDEST POP PUSH1 0x8 ADD DUP1 SLOAD PUSH2 0xFF00 NOT AND PUSH2 0x100 OR SWAP1 SSTORE JUMPDEST POP POP POP POP POP POP POP POP JUMP JUMPDEST PUSH1 0x1 PUSH1 0x1 PUSH1 0xA0 SHL SUB DUP2 AND CALLER EQ PUSH2 0xC1D JUMPI PUSH1 0x40 MLOAD PUSH3 0x461BCD PUSH1 0xE5 SHL DUP2 MSTORE PUSH1 0x20 PUSH1 0x4 DUP3 ADD MSTORE PUSH1 0x2F PUSH1 0x24 DUP3 ADD MSTORE PUSH32 0x416363657373436F6E74726F6C3A2063616E206F6E6C792072656E6F756E6365 PUSH1 0x44 DUP3 ADD MSTORE PUSH15 0x103937B632B9903337B91039B2B633 PUSH1 0x89 SHL PUSH1 0x64 DUP3 ADD MSTORE PUSH1 0x84 ADD PUSH2 0xA2A JUMP JUMPDEST PUSH2 0xC27 DUP3 DUP3 PUSH2 0x1A4F JUMP JUMPDEST POP POP JUMP JUMPDEST PUSH32 0x169924E2C929407F694F5233A52E70102A6858A339B9A2BC70C1AC07817F255D PUSH2 0xC55 DUP2 PUSH2 0x1813 JUMP JUMPDEST PUSH1 0x0 DUP6 DUP2 MSTORE PUSH1 0x4 PUSH1 0x20 MSTORE PUSH1 0x40 SWAP1 KECCAK256 PUSH1 0x9 DUP2 ADD SLOAD PUSH2 0xCA7 JUMPI PUSH1 0x40 MLOAD PUSH3 0x461BCD PUSH1 0xE5 SHL DUP2 MSTORE PUSH1 0x20 PUSH1 0x4 DUP3 ADD MSTORE PUSH1 0x10 PUSH1 0x24 DUP3 ADD MSTORE PUSH16 0x125B9D985B1A59081C1C9BDC1BDCD85B PUSH1 0x82 SHL PUSH1 0x44 DUP3 ADD MSTORE PUSH1 0x64 ADD PUSH2 0xA2A JUMP JUMPDEST PUSH1 0x8 DUP2 ADD SLOAD PUSH1 0xFF AND ISZERO DUP1 ISZERO PUSH2 0xCC6 JUMPI POP PUSH1 0x8 DUP2 ADD SLOAD PUSH2 0x100 SWAP1 DIV PUSH1 0xFF AND ISZERO JUMPDEST PUSH2 0xD07 JUMPI PUSH1 0x40 MLOAD PUSH3 0x461BCD PUSH1 0xE5 SHL DUP2 MSTORE PUSH1 0x20 PUSH1 0x4 DUP3 ADD MSTORE PUSH1 0x12 PUSH1 0x24 DUP3 ADD MSTORE PUSH18 0x141C9BDC1BDCD85B08199A5B985B1A5E9959 PUSH1 0x72 SHL PUSH1 0x44 DUP3 ADD MSTORE PUSH1 0x64 ADD PUSH2 0xA2A JUMP JUMPDEST DUP1 PUSH1 0x6 ADD SLOAD DUP2 PUSH1 0x5 ADD SLOAD GT PUSH2 0xD55 JUMPI PUSH1 0x40 MLOAD PUSH3 0x461BCD PUSH1 0xE5 SHL DUP2 MSTORE PUSH1 0x20 PUSH1 0x4 DUP3 ADD MSTORE PUSH1 0x14 PUSH1 0x24 DUP3 ADD MSTORE PUSH20 0x125B9CDD59999A58DA595B9D081CDD5C1C1BDC9D PUSH1 0x62 SHL PUSH1 0x44 DUP3 ADD MSTORE PUSH1 0x64 ADD PUSH2 0xA2A JUMP JUMPDEST PUSH3 0x93A80 DUP6 LT ISZERO DUP1 ISZERO PUSH2 0xD6B JUMPI POP PUSH3 0x76A700 DUP6 GT ISZERO JUMPDEST PUSH2 0xDAA JUMPI PUSH1 0x40 MLOAD PUSH3 0x461BCD PUSH1 0xE5 SHL DUP2 MSTORE PUSH1 0x20 PUSH1 0x4 DUP3 ADD MSTORE PUSH1 0x10 PUSH1 0x24 DUP3 ADD MSTORE PUSH16 0x24B73B30B634B210323AB930BA34B7B7 PUSH1 0x81 SHL PUSH1 0x44 DUP3 ADD MSTORE PUSH1 0x64 ADD PUSH2 0xA2A JUMP JUMPDEST PUSH1 0xA DUP1 SLOAD PUSH1 0x0 SWAP2 DUP3 PUSH2 0xDBB DUP4 PUSH2 0x26FC JUMP JUMPDEST SWAP1 SWAP2 SSTORE POP PUSH1 0x7 DUP4 ADD DUP2 SWAP1 SSTORE PUSH1 0x0 DUP2 DUP2 MSTORE PUSH1 0x5 PUSH1 0x20 MSTORE PUSH1 0x40 SWAP1 KECCAK256 DUP9 DUP2 SSTORE TIMESTAMP PUSH1 0x1 DUP3 ADD DUP2 SWAP1 SSTORE SWAP2 SWAP3 POP SWAP1 PUSH2 0xDEE SWAP1 DUP9 SWAP1 PUSH2 0x26D2 JUMP JUMPDEST PUSH1 0x2 DUP3 ADD SSTORE PUSH1 0x5 DUP2 ADD DUP7 SWAP1 SSTORE PUSH1 0x6 DUP2 ADD DUP6 SWAP1 SSTORE PUSH1 0x7 DUP2 ADD DUP1 SLOAD PUSH1 0xFF NOT AND PUSH1 0x1 OR SWAP1 SSTORE PUSH1 0x40 MLOAD DUP9 SWAP1 DUP4 SWAP1 PUSH32 0xCFAF70F82C006F9B6D42D8D4BD4DF7B62745C2909AD1BF57D742C11AEA1D7C7B SWAP1 PUSH2 0xE46 SWAP1 DUP12 DUP2 MSTORE PUSH1 0x20 ADD SWAP1 JUMP JUMPDEST PUSH1 0x40 MLOAD DUP1 SWAP2 SUB SWAP1 LOG3 POP POP POP POP POP POP POP POP JUMP JUMPDEST PUSH1 0x0 SWAP2 DUP3 MSTORE PUSH1 0x20 DUP3 DUP2 MSTORE PUSH1 0x40 DUP1 DUP5 KECCAK256 PUSH1 0x1 PUSH1 0x1 PUSH1 0xA0 SHL SUB SWAP4 SWAP1 SWAP4 AND DUP5 MSTORE SWAP2 SWAP1 MSTORE SWAP1 KECCAK256 SLOAD PUSH1 0xFF AND SWAP1 JUMP JUMPDEST PUSH1 0x0 DUP1 MLOAD PUSH1 0x20 PUSH2 0x2A18 DUP4 CODECOPY DUP2 MLOAD SWAP2 MSTORE PUSH2 0xE99 DUP2 PUSH2 0x1813 JUMP JUMPDEST DUP4 DUP3 EQ PUSH2 0xED9 JUMPI PUSH1 0x40 MLOAD PUSH3 0x461BCD PUSH1 0xE5 SHL DUP2 MSTORE PUSH1 0x20 PUSH1 0x4 DUP3 ADD MSTORE PUSH1 0xE PUSH1 0x24 DUP3 ADD MSTORE PUSH14 0x82E4E4C2F240DAD2E6DAC2E8C6D PUSH1 0x93 SHL PUSH1 0x44 DUP3 ADD MSTORE PUSH1 0x64 ADD PUSH2 0xA2A JUMP JUMPDEST PUSH1 0x0 DUP7 DUP2 MSTORE PUSH1 0x5 PUSH1 0x20 MSTORE PUSH1 0x40 SWAP1 KECCAK256 PUSH1 0x7 DUP2 ADD SLOAD PUSH1 0xFF AND PUSH2 0xF33 JUMPI PUSH1 0x40 MLOAD PUSH3 0x461BCD PUSH1 0xE5 SHL DUP2 MSTORE PUSH1 0x20 PUSH1 0x4 DUP3 ADD MSTORE PUSH1 0x15 PUSH1 0x24 DUP3 ADD MSTORE PUSH21 0x4578706572696D656E74206E6F7420616374697665 PUSH1 0x58 SHL PUSH1 0x44 DUP3 ADD MSTORE PUSH1 0x64 ADD PUSH2 0xA2A JUMP JUMPDEST DUP1 PUSH1 0x2 ADD SLOAD TIMESTAMP LT PUSH2 0xF79 JUMPI PUSH1 0x40 MLOAD PUSH3 0x461BCD PUSH1 0xE5 SHL DUP2 MSTORE PUSH1 0x20 PUSH1 0x4 DUP3 ADD MSTORE PUSH1 0x10 PUSH1 0x24 DUP3 ADD MSTORE PUSH16 0x115E1C195C9A5B595B9D08195B991959 PUSH1 0x82 SHL PUSH1 0x44 DUP3 ADD MSTORE PUSH1 0x64 ADD PUSH2 0xA2A JUMP JUMPDEST PUSH1 0x0 JUMPDEST DUP6 DUP2 LT ISZERO PUSH2 0xBA3 JUMPI DUP5 DUP5 DUP3 DUP2 DUP2 LT PUSH2 0xF96 JUMPI PUSH2 0xF96 PUSH2 0x26A6 JUMP JUMPDEST SWAP1 POP PUSH1 0x20 MUL ADD PUSH1 0x20 DUP2 ADD SWAP1 PUSH2 0xFAB SWAP2 SWAP1 PUSH2 0x274A JUMP JUMPDEST ISZERO PUSH2 0x1024 JUMPI PUSH1 0x1 DUP3 PUSH1 0x8 ADD PUSH1 0x0 DUP10 DUP10 DUP6 DUP2 DUP2 LT PUSH2 0xFCA JUMPI PUSH2 0xFCA PUSH2 0x26A6 JUMP JUMPDEST SWAP1 POP PUSH1 0x20 MUL ADD PUSH1 0x20 DUP2 ADD SWAP1 PUSH2 0xFDF SWAP2 SWAP1 PUSH2 0x2300 JUMP JUMPDEST PUSH1 0x1 PUSH1 0x1 PUSH1 0xA0 SHL SUB AND DUP2 MSTORE PUSH1 0x20 DUP2 ADD SWAP2 SWAP1 SWAP2 MSTORE PUSH1 0x40 ADD PUSH1 0x0 SWAP1 DUP2 KECCAK256 DUP1 SLOAD PUSH1 0xFF NOT AND SWAP3 ISZERO ISZERO SWAP3 SWAP1 SWAP3 OR SWAP1 SWAP2 SSTORE PUSH1 0x4 DUP4 ADD DUP1 SLOAD SWAP2 PUSH2 0x101A DUP4 PUSH2 0x26FC JUMP JUMPDEST SWAP2 SWAP1 POP SSTORE POP PUSH2 0x103C JUMP JUMPDEST PUSH1 0x3 DUP3 ADD DUP1 SLOAD SWAP1 PUSH1 0x0 PUSH2 0x1036 DUP4 PUSH2 0x26FC JUMP JUMPDEST SWAP2 SWAP1 POP SSTORE POP JUMPDEST DUP1 PUSH2 0x1046 DUP2 PUSH2 0x26FC JUMP JUMPDEST SWAP2 POP POP PUSH2 0xF7C JUMP JUMPDEST PUSH1 0x0 DUP2 DUP2 MSTORE PUSH1 0x4 PUSH1 0x20 MSTORE PUSH1 0x40 DUP2 KECCAK256 DUP1 SLOAD PUSH1 0x5 DUP3 ADD SLOAD PUSH1 0x6 DUP4 ADD SLOAD PUSH1 0x8 DUP5 ADD SLOAD PUSH1 0x1 DUP6 ADD DUP1 SLOAD DUP8 SWAP7 PUSH1 0x60 SWAP7 DUP9 SWAP7 DUP8 SWAP7 DUP8 SWAP7 DUP8 SWAP7 SWAP5 SWAP6 PUSH1 0x1 PUSH1 0x1 PUSH1 0xA0 SHL SUB DUP6 AND SWAP6 PUSH1 0xFF PUSH1 0x1 PUSH1 0xA0 SHL SWAP1 SWAP7 DIV DUP7 AND SWAP6 SWAP1 SWAP5 SWAP4 SWAP3 DUP1 DUP3 AND SWAP3 PUSH2 0x100 SWAP1 SWAP2 DIV SWAP1 SWAP2 AND SWAP1 DUP6 SWAP1 PUSH2 0x10B7 SWAP1 PUSH2 0x266C JUMP JUMPDEST DUP1 PUSH1 0x1F ADD PUSH1 0x20 DUP1 SWAP2 DIV MUL PUSH1 0x20 ADD PUSH1 0x40 MLOAD SWAP1 DUP2 ADD PUSH1 0x40 MSTORE DUP1 SWAP3 SWAP2 SWAP1 DUP2 DUP2 MSTORE PUSH1 0x20 ADD DUP3 DUP1 SLOAD PUSH2 0x10E3 SWAP1 PUSH2 0x266C JUMP JUMPDEST DUP1 ISZERO PUSH2 0x1130 JUMPI DUP1 PUSH1 0x1F LT PUSH2 0x1105 JUMPI PUSH2 0x100 DUP1 DUP4 SLOAD DIV MUL DUP4 MSTORE SWAP2 PUSH1 0x20 ADD SWAP2 PUSH2 0x1130 JUMP JUMPDEST DUP3 ADD SWAP2 SWAP1 PUSH1 0x0 MSTORE PUSH1 0x20 PUSH1 0x0 KECCAK256 SWAP1 JUMPDEST DUP2 SLOAD DUP2 MSTORE SWAP1 PUSH1 0x1 ADD SWAP1 PUSH1 0x20 ADD DUP1 DUP4 GT PUSH2 0x1113 JUMPI DUP3 SWAP1 SUB PUSH1 0x1F AND DUP3 ADD SWAP2 JUMPDEST POP POP POP POP POP SWAP5 POP SWAP8 POP SWAP8 POP SWAP8 POP SWAP8 POP SWAP8 POP SWAP8 POP SWAP8 POP POP SWAP2 SWAP4 SWAP6 SWAP8 SWAP1 SWAP3 SWAP5 SWAP7 POP JUMP JUMPDEST PUSH2 0x1159 PUSH2 0x1AB4 JUMP JUMPDEST PUSH1 0x0 DUP3 DUP2 MSTORE PUSH1 0x4 PUSH1 0x20 MSTORE PUSH1 0x40 SWAP1 KECCAK256 PUSH1 0x9 DUP2 ADD SLOAD PUSH2 0x11AB JUMPI PUSH1 0x40 MLOAD PUSH3 0x461BCD PUSH1 0xE5 SHL DUP2 MSTORE PUSH1 0x20 PUSH1 0x4 DUP3 ADD MSTORE PUSH1 0x10 PUSH1 0x24 DUP3 ADD MSTORE PUSH16 0x125B9D985B1A59081C1C9BDC1BDCD85B PUSH1 0x82 SHL PUSH1 0x44 DUP3 ADD MSTORE PUSH1 0x64 ADD PUSH2 0xA2A JUMP JUMPDEST PUSH1 0x8 DUP2 ADD SLOAD PUSH1 0xFF AND ISZERO DUP1 ISZERO PUSH2 0x11CA JUMPI POP PUSH1 0x8 DUP2 ADD SLOAD PUSH2 0x100 SWAP1 DIV PUSH1 0xFF AND ISZERO JUMPDEST PUSH2 0x120B JUMPI PUSH1 0x40 MLOAD PUSH3 0x461BCD PUSH1 0xE5 SHL DUP2 MSTORE PUSH1 0x20 PUSH1 0x4 DUP3 ADD MSTORE PUSH1 0x12 PUSH1 0x24 DUP3 ADD MSTORE PUSH18 0x141C9BDC1BDCD85B08199A5B985B1A5E9959 PUSH1 0x72 SHL PUSH1 0x44 DUP3 ADD MSTORE PUSH1 0x64 ADD PUSH2 0xA2A JUMP JUMPDEST CALLER PUSH1 0x0 SWAP1 DUP2 MSTORE PUSH1 0x7 PUSH1 0x20 SWAP1 DUP2 MSTORE PUSH1 0x40 DUP1 DUP4 KECCAK256 DUP7 DUP5 MSTORE SWAP1 SWAP2 MSTORE SWAP1 KECCAK256 SLOAD PUSH1 0xFF AND ISZERO PUSH2 0x1266 JUMPI PUSH1 0x40 MLOAD PUSH3 0x461BCD PUSH1 0xE5 SHL DUP2 MSTORE PUSH1 0x20 PUSH1 0x4 DUP3 ADD MSTORE PUSH1 0xD PUSH1 0x24 DUP3 ADD MSTORE PUSH13 0x105B1C9958591E481D9BDD1959 PUSH1 0x9A SHL PUSH1 0x44 DUP3 ADD MSTORE PUSH1 0x64 ADD PUSH2 0xA2A JUMP JUMPDEST PUSH1 0x0 PUSH2 0x1271 CALLER PUSH2 0x170A JUMP JUMPDEST SWAP1 POP PUSH1 0x0 DUP2 GT PUSH2 0x12B5 JUMPI PUSH1 0x40 MLOAD PUSH3 0x461BCD PUSH1 0xE5 SHL DUP2 MSTORE PUSH1 0x20 PUSH1 0x4 DUP3 ADD MSTORE PUSH1 0xF PUSH1 0x24 DUP3 ADD MSTORE PUSH15 0x2737903B37BA34B733903837BBB2B9 PUSH1 0x89 SHL PUSH1 0x44 DUP3 ADD MSTORE PUSH1 0x64 ADD PUSH2 0xA2A JUMP JUMPDEST CALLER PUSH1 0x0 DUP2 DUP2 MSTORE PUSH1 0x7 PUSH1 0x20 SWAP1 DUP2 MSTORE PUSH1 0x40 DUP1 DUP4 KECCAK256 DUP9 DUP5 MSTORE DUP3 MSTORE DUP1 DUP4 KECCAK256 DUP1 SLOAD PUSH1 0xFF NOT AND PUSH1 0x1 OR SWAP1 SSTORE PUSH1 0x8 DUP3 MSTORE DUP1 DUP4 KECCAK256 SWAP4 DUP4 MSTORE SWAP3 SWAP1 MSTORE KECCAK256 DUP2 SWAP1 SSTORE DUP3 ISZERO PUSH2 0x1310 JUMPI DUP1 DUP3 PUSH1 0x5 ADD PUSH1 0x0 DUP3 DUP3 SLOAD PUSH2 0x1305 SWAP2 SWAP1 PUSH2 0x26D2 JUMP JUMPDEST SWAP1 SWAP2 SSTORE POP PUSH2 0x132A SWAP1 POP JUMP JUMPDEST DUP1 DUP3 PUSH1 0x6 ADD PUSH1 0x0 DUP3 DUP3 SLOAD PUSH2 0x1324 SWAP2 SWAP1 PUSH2 0x26D2 JUMP JUMPDEST SWAP1 SWAP2 SSTORE POP POP JUMPDEST PUSH1 0x40 DUP1 MLOAD DUP5 ISZERO ISZERO DUP2 MSTORE PUSH1 0x20 DUP2 ADD DUP4 SWAP1 MSTORE CALLER SWAP2 DUP7 SWAP2 PUSH32 0xCBDF6214089CBA887ECBF35A0B6A734589959C9763342C756BB2A80CA2BC9F6E SWAP2 ADD PUSH1 0x40 MLOAD DUP1 SWAP2 SUB SWAP1 LOG3 POP POP PUSH2 0xC27 PUSH1 0x1 DUP1 SSTORE JUMP JUMPDEST PUSH1 0x0 PUSH2 0x137E PUSH2 0x1AB4 JUMP JUMPDEST DUP6 PUSH2 0x13B9 JUMPI PUSH1 0x40 MLOAD PUSH3 0x461BCD PUSH1 0xE5 SHL DUP2 MSTORE PUSH1 0x20 PUSH1 0x4 DUP3 ADD MSTORE PUSH1 0xB PUSH1 0x24 DUP3 ADD MSTORE PUSH11 0x456D707479207469746C65 PUSH1 0xA8 SHL PUSH1 0x44 DUP3 ADD MSTORE PUSH1 0x64 ADD PUSH2 0xA2A JUMP JUMPDEST DUP4 PUSH2 0x13FA JUMPI PUSH1 0x40 MLOAD PUSH3 0x461BCD PUSH1 0xE5 SHL DUP2 MSTORE PUSH1 0x20 PUSH1 0x4 DUP3 ADD MSTORE PUSH1 0x11 PUSH1 0x24 DUP3 ADD MSTORE PUSH17 0x22B6B83A3C903232B9B1B934B83A34B7B7 PUSH1 0x79 SHL PUSH1 0x44 DUP3 ADD MSTORE PUSH1 0x64 ADD PUSH2 0xA2A JUMP JUMPDEST PUSH2 0x1427 CALLER ADDRESS PUSH2 0x1413 PUSH8 0xDE0B6B3A7640000 PUSH2 0x1F4 PUSH2 0x26E5 JUMP JUMPDEST PUSH1 0x3 SLOAD PUSH1 0x1 PUSH1 0x1 PUSH1 0xA0 SHL SUB AND SWAP3 SWAP2 SWAP1 PUSH2 0x1B0D JUMP JUMPDEST PUSH1 0x9 DUP1 SLOAD SWAP1 PUSH1 0x0 PUSH2 0x1437 DUP4 PUSH2 0x26FC JUMP JUMPDEST SWAP1 SWAP2 SSTORE POP PUSH1 0x0 DUP2 DUP2 MSTORE PUSH1 0x4 PUSH1 0x20 DUP2 SWAP1 MSTORE PUSH1 0x40 SWAP1 SWAP2 KECCAK256 DUP1 SLOAD CALLER PUSH1 0x1 PUSH1 0x1 PUSH1 0xA0 SHL SUB NOT DUP3 AND DUP2 OR DUP4 SSTORE SWAP4 SWAP5 POP SWAP1 SWAP3 DUP12 SWAP3 DUP5 SWAP3 PUSH1 0x1 PUSH1 0x1 PUSH1 0xA8 SHL SUB NOT AND PUSH1 0xFF PUSH1 0xA0 SHL NOT SWAP1 SWAP3 AND SWAP2 SWAP1 SWAP2 OR SWAP1 PUSH1 0x1 PUSH1 0xA0 SHL SWAP1 DUP5 SWAP1 DUP2 GT ISZERO PUSH2 0x1496 JUMPI PUSH2 0x1496 PUSH2 0x218A JUMP JUMPDEST MUL OR SWAP1 SSTORE POP PUSH1 0x1 DUP2 ADD PUSH2 0x14AA DUP9 DUP11 DUP4 PUSH2 0x27CB JUMP JUMPDEST POP PUSH1 0x2 DUP2 ADD PUSH2 0x14BA DUP7 DUP9 DUP4 PUSH2 0x27CB JUMP JUMPDEST POP PUSH1 0x3 DUP2 ADD PUSH2 0x14CA DUP5 DUP7 DUP4 PUSH2 0x27CB JUMP JUMPDEST POP PUSH2 0x14DF PUSH8 0xDE0B6B3A7640000 PUSH2 0x1F4 PUSH2 0x26E5 JUMP JUMPDEST PUSH1 0x4 DUP3 ADD SSTORE TIMESTAMP PUSH1 0x9 DUP3 ADD SSTORE PUSH1 0x40 MLOAD CALLER SWAP1 DUP4 SWAP1 PUSH32 0x8356BC5007056A642094F44DA4E8E22469DB3E8A36B5811C0F91F735F1491C79 SWAP1 PUSH2 0x1522 SWAP1 DUP14 SWAP1 DUP14 SWAP1 DUP14 SWAP1 PUSH2 0x288C JUMP JUMPDEST PUSH1 0x40 MLOAD DUP1 SWAP2 SUB SWAP1 LOG3 POP PUSH2 0x1534 PUSH1 0x1 DUP1 SSTORE JUMP JUMPDEST SWAP8 SWAP7 POP POP POP POP POP POP POP JUMP JUMPDEST PUSH1 0x0 DUP3 DUP2 MSTORE PUSH1 0x20 DUP2 SWAP1 MSTORE PUSH1 0x40 SWAP1 KECCAK256 PUSH1 0x1 ADD SLOAD PUSH2 0x155A DUP2 PUSH2 0x1813 JUMP JUMPDEST PUSH2 0x8C6 DUP4 DUP4 PUSH2 0x1A4F JUMP JUMPDEST PUSH1 0x0 PUSH2 0x156F DUP2 PUSH2 0x1813 JUMP JUMPDEST PUSH1 0x0 DUP3 DUP2 MSTORE PUSH1 0x4 PUSH1 0x20 DUP2 SWAP1 MSTORE PUSH1 0x40 SWAP1 SWAP2 KECCAK256 SWAP1 DUP2 SLOAD PUSH1 0x1 PUSH1 0xA0 SHL SWAP1 DIV PUSH1 0xFF AND PUSH1 0x4 DUP2 GT ISZERO PUSH2 0x159E JUMPI PUSH2 0x159E PUSH2 0x218A JUMP JUMPDEST EQ PUSH2 0x15DB JUMPI PUSH1 0x40 MLOAD PUSH3 0x461BCD PUSH1 0xE5 SHL DUP2 MSTORE PUSH1 0x20 PUSH1 0x4 DUP3 ADD MSTORE PUSH1 0xD PUSH1 0x24 DUP3 ADD MSTORE PUSH13 0x4E6F7420656D657267656E6379 PUSH1 0x98 SHL PUSH1 0x44 DUP3 ADD MSTORE PUSH1 0x64 ADD PUSH2 0xA2A JUMP JUMPDEST PUSH1 0x8 DUP2 ADD SLOAD PUSH1 0xFF AND ISZERO PUSH2 0x1623 JUMPI PUSH1 0x40 MLOAD PUSH3 0x461BCD PUSH1 0xE5 SHL DUP2 MSTORE PUSH1 0x20 PUSH1 0x4 DUP3 ADD MSTORE PUSH1 0x10 PUSH1 0x24 DUP3 ADD MSTORE PUSH16 0x105B1C9958591E48195E1958DD5D1959 PUSH1 0x82 SHL PUSH1 0x44 DUP3 ADD MSTORE PUSH1 0x64 ADD PUSH2 0xA2A JUMP JUMPDEST PUSH2 0x8C6 DUP4 PUSH2 0x18A4 JUMP JUMPDEST PUSH1 0x0 DUP1 MLOAD PUSH1 0x20 PUSH2 0x2A18 DUP4 CODECOPY DUP2 MLOAD SWAP2 MSTORE PUSH2 0x1644 DUP2 PUSH2 0x1813 JUMP JUMPDEST PUSH1 0x1 PUSH1 0x1 PUSH1 0xA0 SHL SUB DUP6 AND PUSH1 0x0 SWAP1 DUP2 MSTORE PUSH1 0x6 PUSH1 0x20 MSTORE PUSH1 0x40 DUP2 KECCAK256 DUP1 SLOAD SWAP1 SWAP2 DUP7 SWAP2 DUP4 SWAP2 SWAP1 PUSH2 0x1670 SWAP1 DUP5 SWAP1 PUSH2 0x26D2 JUMP JUMPDEST SWAP1 SWAP2 SSTORE POP POP PUSH1 0x1 DUP2 ADD SLOAD PUSH1 0x2 SWAP1 PUSH2 0x1688 SWAP1 DUP7 SWAP1 PUSH2 0x26D2 JUMP JUMPDEST PUSH2 0x1692 SWAP2 SWAP1 PUSH2 0x2728 JUMP JUMPDEST DUP2 PUSH1 0x1 ADD DUP2 SWAP1 SSTORE POP DUP3 DUP2 PUSH1 0x2 ADD PUSH1 0x0 DUP3 DUP3 SLOAD PUSH2 0x16AE SWAP2 SWAP1 PUSH2 0x26D2 JUMP JUMPDEST SWAP1 SWAP2 SSTORE POP POP TIMESTAMP PUSH1 0x3 DUP3 ADD SSTORE PUSH1 0xB DUP1 SLOAD DUP7 SWAP2 SWAP1 PUSH1 0x0 SWAP1 PUSH2 0x16CE SWAP1 DUP5 SWAP1 PUSH2 0x26D2 JUMP JUMPDEST SWAP1 SWAP2 SSTORE POP POP POP POP POP POP POP POP JUMP JUMPDEST PUSH1 0x0 DUP2 DUP2 MSTORE PUSH1 0xC PUSH1 0x20 SWAP1 DUP2 MSTORE PUSH1 0x40 DUP1 DUP4 KECCAK256 TIMESTAMP SWAP1 SSTORE PUSH1 0xD SWAP1 SWAP2 MSTORE DUP2 KECCAK256 DUP1 SLOAD SWAP2 PUSH2 0x1702 DUP4 PUSH2 0x26FC JUMP JUMPDEST SWAP2 SWAP1 POP SSTORE POP POP JUMP JUMPDEST PUSH1 0x1 PUSH1 0x1 PUSH1 0xA0 SHL SUB DUP2 AND PUSH1 0x0 SWAP1 DUP2 MSTORE PUSH1 0x6 PUSH1 0x20 SWAP1 DUP2 MSTORE PUSH1 0x40 DUP1 DUP4 KECCAK256 DUP2 MLOAD PUSH1 0x80 DUP2 ADD DUP4 MSTORE DUP2 SLOAD DUP1 DUP3 MSTORE PUSH1 0x1 DUP4 ADD SLOAD SWAP5 DUP3 ADD SWAP5 SWAP1 SWAP5 MSTORE PUSH1 0x2 DUP1 DUP4 ADD SLOAD SWAP4 DUP3 ADD SWAP4 SWAP1 SWAP4 MSTORE PUSH1 0x3 SWAP2 DUP3 ADD SLOAD PUSH1 0x60 DUP3 ADD MSTORE SWAP3 PUSH1 0x5 SWAP3 SWAP1 DUP6 SWAP1 PUSH1 0xA SWAP1 PUSH2 0x177C SWAP1 PUSH2 0x1777 SWAP1 PUSH8 0xDE0B6B3A7640000 SWAP1 PUSH2 0x26D2 JUMP JUMPDEST PUSH2 0x1B45 JUMP JUMPDEST PUSH2 0x1786 SWAP1 DUP7 PUSH2 0x26E5 JUMP JUMPDEST PUSH2 0x1790 SWAP2 SWAP1 PUSH2 0x2728 JUMP JUMPDEST SWAP1 POP PUSH1 0x0 PUSH1 0x64 DUP7 PUSH1 0x20 ADD MLOAD DUP6 PUSH2 0x17A6 SWAP2 SWAP1 PUSH2 0x26E5 JUMP JUMPDEST PUSH2 0x17B0 SWAP2 SWAP1 PUSH2 0x2728 JUMP JUMPDEST SWAP1 POP PUSH1 0x0 PUSH1 0xA DUP8 PUSH1 0x40 ADD MLOAD DUP6 PUSH2 0x17C6 SWAP2 SWAP1 PUSH2 0x26E5 JUMP JUMPDEST PUSH2 0x17D0 SWAP2 SWAP1 PUSH2 0x2728 JUMP JUMPDEST SWAP1 POP PUSH1 0x0 DUP2 PUSH2 0x17DF DUP5 DUP7 PUSH2 0x26D2 JUMP JUMPDEST PUSH2 0x17E9 SWAP2 SWAP1 PUSH2 0x26D2 JUMP JUMPDEST SWAP1 POP PUSH2 0x1805 PUSH2 0x1800 PUSH8 0xDE0B6B3A7640000 DUP4 PUSH2 0x26E5 JUMP JUMPDEST PUSH2 0x1CAD JUMP JUMPDEST SWAP11 SWAP10 POP POP POP POP POP POP POP POP POP POP JUMP JUMPDEST PUSH2 0x181D DUP2 CALLER PUSH2 0x1D15 JUMP JUMPDEST POP JUMP JUMPDEST PUSH2 0x182A DUP3 DUP3 PUSH2 0xE58 JUMP JUMPDEST PUSH2 0xC27 JUMPI PUSH1 0x0 DUP3 DUP2 MSTORE PUSH1 0x20 DUP2 DUP2 MSTORE PUSH1 0x40 DUP1 DUP4 KECCAK256 PUSH1 0x1 PUSH1 0x1 PUSH1 0xA0 SHL SUB DUP6 AND DUP5 MSTORE SWAP1 SWAP2 MSTORE SWAP1 KECCAK256 DUP1 SLOAD PUSH1 0xFF NOT AND PUSH1 0x1 OR SWAP1 SSTORE PUSH2 0x1860 CALLER SWAP1 JUMP JUMPDEST PUSH1 0x1 PUSH1 0x1 PUSH1 0xA0 SHL SUB AND DUP2 PUSH1 0x1 PUSH1 0x1 PUSH1 0xA0 SHL SUB AND DUP4 PUSH32 0x2F8788117E7EFF1D82E926EC794901D17C78024A50270940304540A733656F0D PUSH1 0x40 MLOAD PUSH1 0x40 MLOAD DUP1 SWAP2 SUB SWAP1 LOG4 POP POP JUMP JUMPDEST PUSH1 0x0 DUP2 DUP2 MSTORE PUSH1 0x4 PUSH1 0x20 MSTORE PUSH1 0x40 SWAP1 KECCAK256 PUSH1 0x8 DUP2 ADD SLOAD PUSH1 0xFF AND ISZERO PUSH2 0x18FA JUMPI PUSH1 0x40 MLOAD PUSH3 0x461BCD PUSH1 0xE5 SHL DUP2 MSTORE PUSH1 0x20 PUSH1 0x4 DUP3 ADD MSTORE PUSH1 0x10 PUSH1 0x24 DUP3 ADD MSTORE PUSH16 0x105B1C9958591E48195E1958DD5D1959 PUSH1 0x82 SHL PUSH1 0x44 DUP3 ADD MSTORE PUSH1 0x64 ADD PUSH2 0xA2A JUMP JUMPDEST PUSH1 0x8 DUP2 ADD DUP1 SLOAD PUSH1 0xFF NOT AND PUSH1 0x1 OR SWAP1 SSTORE TIMESTAMP PUSH1 0xA DUP3 ADD SSTORE PUSH1 0x40 MLOAD PUSH1 0x0 SWAP1 ADDRESS SWAP1 PUSH2 0x1925 SWAP1 PUSH1 0x3 DUP6 ADD SWAP1 PUSH2 0x28C9 JUMP JUMPDEST PUSH1 0x0 PUSH1 0x40 MLOAD DUP1 DUP4 SUB DUP2 PUSH1 0x0 DUP7 GAS CALL SWAP2 POP POP RETURNDATASIZE DUP1 PUSH1 0x0 DUP2 EQ PUSH2 0x1962 JUMPI PUSH1 0x40 MLOAD SWAP2 POP PUSH1 0x1F NOT PUSH1 0x3F RETURNDATASIZE ADD AND DUP3 ADD PUSH1 0x40 MSTORE RETURNDATASIZE DUP3 MSTORE RETURNDATASIZE PUSH1 0x0 PUSH1 0x20 DUP5 ADD RETURNDATACOPY PUSH2 0x1967 JUMP JUMPDEST PUSH1 0x60 SWAP2 POP JUMPDEST POP POP SWAP1 POP DUP3 PUSH32 0x948F4A9CD986F1118C3FBD459F7A22B23C0693E1CA3EF06A6A8BE5AA7D39CC03 DUP3 PUSH1 0x40 MLOAD PUSH2 0x199F SWAP2 ISZERO ISZERO DUP2 MSTORE PUSH1 0x20 ADD SWAP1 JUMP JUMPDEST PUSH1 0x40 MLOAD DUP1 SWAP2 SUB SWAP1 LOG2 DUP1 ISZERO PUSH2 0x8C6 JUMPI PUSH1 0x0 PUSH2 0x19C2 PUSH8 0xDE0B6B3A7640000 PUSH1 0x64 PUSH2 0x26E5 JUMP JUMPDEST DUP4 SLOAD PUSH1 0x4 DUP6 ADD SLOAD PUSH1 0x3 SLOAD SWAP3 SWAP4 POP PUSH2 0x19E6 SWAP3 PUSH1 0x1 PUSH1 0x1 PUSH1 0xA0 SHL SUB SWAP1 DUP2 AND SWAP3 AND SWAP1 PUSH2 0x19EC JUMP JUMPDEST POP POP POP POP JUMP JUMPDEST PUSH1 0x40 MLOAD PUSH1 0x1 PUSH1 0x1 PUSH1 0xA0 SHL SUB DUP4 AND PUSH1 0x24 DUP3 ADD MSTORE PUSH1 0x44 DUP2 ADD DUP3 SWAP1 MSTORE PUSH2 0x8C6 SWAP1 DUP5 SWAP1 PUSH4 0xA9059CBB PUSH1 0xE0 SHL SWAP1 PUSH1 0x64 ADD JUMPDEST PUSH1 0x40 DUP1 MLOAD PUSH1 0x1F NOT DUP2 DUP5 SUB ADD DUP2 MSTORE SWAP2 SWAP1 MSTORE PUSH1 0x20 DUP2 ADD DUP1 MLOAD PUSH1 0x1 PUSH1 0x1 PUSH1 0xE0 SHL SUB AND PUSH1 0x1 PUSH1 0x1 PUSH1 0xE0 SHL SUB NOT SWAP1 SWAP4 AND SWAP3 SWAP1 SWAP3 OR SWAP1 SWAP2 MSTORE PUSH2 0x1D6E JUMP JUMPDEST PUSH2 0x1A59 DUP3 DUP3 PUSH2 0xE58 JUMP JUMPDEST ISZERO PUSH2 0xC27 JUMPI PUSH1 0x0 DUP3 DUP2 MSTORE PUSH1 0x20 DUP2 DUP2 MSTORE PUSH1 0x40 DUP1 DUP4 KECCAK256 PUSH1 0x1 PUSH1 0x1 PUSH1 0xA0 SHL SUB DUP6 AND DUP1 DUP6 MSTORE SWAP3 MSTORE DUP1 DUP4 KECCAK256 DUP1 SLOAD PUSH1 0xFF NOT AND SWAP1 SSTORE MLOAD CALLER SWAP3 DUP6 SWAP2 PUSH32 0xF6391F5C32D9C69D2A47EA670B442974B53935D1EDC7FD64EB21E047A839171B SWAP2 SWAP1 LOG4 POP POP JUMP JUMPDEST PUSH1 0x2 PUSH1 0x1 SLOAD SUB PUSH2 0x1B06 JUMPI PUSH1 0x40 MLOAD PUSH3 0x461BCD PUSH1 0xE5 SHL DUP2 MSTORE PUSH1 0x20 PUSH1 0x4 DUP3 ADD MSTORE PUSH1 0x1F PUSH1 0x24 DUP3 ADD MSTORE PUSH32 0x5265656E7472616E637947756172643A207265656E7472616E742063616C6C00 PUSH1 0x44 DUP3 ADD MSTORE PUSH1 0x64 ADD PUSH2 0xA2A JUMP JUMPDEST PUSH1 0x2 PUSH1 0x1 SSTORE JUMP JUMPDEST PUSH1 0x40 MLOAD PUSH1 0x1 PUSH1 0x1 PUSH1 0xA0 SHL SUB DUP1 DUP6 AND PUSH1 0x24 DUP4 ADD MSTORE DUP4 AND PUSH1 0x44 DUP3 ADD MSTORE PUSH1 0x64 DUP2 ADD DUP3 SWAP1 MSTORE PUSH2 0x19E6 SWAP1 DUP6 SWAP1 PUSH4 0x23B872DD PUSH1 0xE0 SHL SWAP1 PUSH1 0x84 ADD PUSH2 0x1A18 JUMP JUMPDEST PUSH1 0x0 PUSH8 0xDE0B6B3A7640000 DUP3 LT PUSH2 0x1B5E JUMPI POP PUSH1 0x12 SWAP2 SWAP1 POP JUMP JUMPDEST PUSH8 0x16345785D8A0000 DUP3 LT PUSH2 0x1B75 JUMPI POP PUSH1 0x11 SWAP2 SWAP1 POP JUMP JUMPDEST PUSH7 0x2386F26FC10000 DUP3 LT PUSH2 0x1B8B JUMPI POP PUSH1 0x10 SWAP2 SWAP1 POP JUMP JUMPDEST PUSH7 0x38D7EA4C68000 DUP3 LT PUSH2 0x1BA1 JUMPI POP PUSH1 0xF SWAP2 SWAP1 POP JUMP JUMPDEST PUSH6 0x5AF3107A4000 DUP3 LT PUSH2 0x1BB6 JUMPI POP PUSH1 0xE SWAP2 SWAP1 POP JUMP JUMPDEST PUSH6 0x9184E72A000 DUP3 LT PUSH2 0x1BCB JUMPI POP PUSH1 0xD SWAP2 SWAP1 POP JUMP JUMPDEST PUSH5 0xE8D4A51000 DUP3 LT PUSH2 0x1BDF JUMPI POP PUSH1 0xC SWAP2 SWAP1 POP JUMP JUMPDEST PUSH5 0x174876E800 DUP3 LT PUSH2 0x1BF3 JUMPI POP PUSH1 0xB SWAP2 SWAP1 POP JUMP JUMPDEST PUSH5 0x2540BE400 DUP3 LT PUSH2 0x1C07 JUMPI POP PUSH1 0xA SWAP2 SWAP1 POP JUMP JUMPDEST PUSH4 0x3B9ACA00 DUP3 LT PUSH2 0x1C1A JUMPI POP PUSH1 0x9 SWAP2 SWAP1 POP JUMP JUMPDEST PUSH4 0x5F5E100 DUP3 LT PUSH2 0x1C2D JUMPI POP PUSH1 0x8 SWAP2 SWAP1 POP JUMP JUMPDEST PUSH3 0x989680 DUP3 LT PUSH2 0x1C3F JUMPI POP PUSH1 0x7 SWAP2 SWAP1 POP JUMP JUMPDEST PUSH3 0xF4240 DUP3 LT PUSH2 0x1C51 JUMPI POP PUSH1 0x6 SWAP2 SWAP1 POP JUMP JUMPDEST PUSH3 0x186A0 DUP3 LT PUSH2 0x1C63 JUMPI POP PUSH1 0x5 SWAP2 SWAP1 POP JUMP JUMPDEST PUSH2 0x2710 DUP3 LT PUSH2 0x1C74 JUMPI POP PUSH1 0x4 SWAP2 SWAP1 POP JUMP JUMPDEST PUSH2 0x3E8 DUP3 LT PUSH2 0x1C85 JUMPI POP PUSH1 0x3 SWAP2 SWAP1 POP JUMP JUMPDEST PUSH1 0x64 DUP3 LT PUSH2 0x1C95 JUMPI POP PUSH1 0x2 SWAP2 SWAP1 POP JUMP JUMPDEST PUSH1 0xA DUP3 LT PUSH2 0x1CA5 JUMPI POP PUSH1 0x1 SWAP2 SWAP1 POP JUMP JUMPDEST POP PUSH1 0x0 SWAP2 SWAP1 POP JUMP JUMPDEST PUSH1 0x0 DUP2 PUSH1 0x0 SUB PUSH2 0x1CBF JUMPI POP PUSH1 0x0 SWAP2 SWAP1 POP JUMP JUMPDEST PUSH1 0x0 PUSH1 0x2 PUSH2 0x1CCE DUP5 PUSH1 0x1 PUSH2 0x26D2 JUMP JUMPDEST PUSH2 0x1CD8 SWAP2 SWAP1 PUSH2 0x2728 JUMP JUMPDEST SWAP1 POP DUP3 JUMPDEST DUP1 DUP3 LT ISZERO PUSH2 0x1D0E JUMPI POP DUP1 PUSH1 0x2 DUP2 PUSH2 0x1CF3 DUP2 DUP8 PUSH2 0x2728 JUMP JUMPDEST PUSH2 0x1CFD SWAP2 SWAP1 PUSH2 0x26D2 JUMP JUMPDEST PUSH2 0x1D07 SWAP2 SWAP1 PUSH2 0x2728 JUMP JUMPDEST SWAP2 POP PUSH2 0x1CDC JUMP JUMPDEST SWAP4 SWAP3 POP POP POP JUMP JUMPDEST PUSH2 0x1D1F DUP3 DUP3 PUSH2 0xE58 JUMP JUMPDEST PUSH2 0xC27 JUMPI PUSH2 0x1D2C DUP2 PUSH2 0x1E43 JUMP JUMPDEST PUSH2 0x1D37 DUP4 PUSH1 0x20 PUSH2 0x1E55 JUMP JUMPDEST PUSH1 0x40 MLOAD PUSH1 0x20 ADD PUSH2 0x1D48 SWAP3 SWAP2 SWAP1 PUSH2 0x293F JUMP JUMPDEST PUSH1 0x40 DUP1 MLOAD PUSH1 0x1F NOT DUP2 DUP5 SUB ADD DUP2 MSTORE SWAP1 DUP3 SWAP1 MSTORE PUSH3 0x461BCD PUSH1 0xE5 SHL DUP3 MSTORE PUSH2 0xA2A SWAP2 PUSH1 0x4 ADD PUSH2 0x29B4 JUMP JUMPDEST PUSH1 0x0 PUSH2 0x1DC3 DUP3 PUSH1 0x40 MLOAD DUP1 PUSH1 0x40 ADD PUSH1 0x40 MSTORE DUP1 PUSH1 0x20 DUP2 MSTORE PUSH1 0x20 ADD PUSH32 0x5361666545524332303A206C6F772D6C6576656C2063616C6C206661696C6564 DUP2 MSTORE POP DUP6 PUSH1 0x1 PUSH1 0x1 PUSH1 0xA0 SHL SUB AND PUSH2 0x1FF1 SWAP1 SWAP3 SWAP2 SWAP1 PUSH4 0xFFFFFFFF AND JUMP JUMPDEST SWAP1 POP DUP1 MLOAD PUSH1 0x0 EQ DUP1 PUSH2 0x1DE4 JUMPI POP DUP1 DUP1 PUSH1 0x20 ADD SWAP1 MLOAD DUP2 ADD SWAP1 PUSH2 0x1DE4 SWAP2 SWAP1 PUSH2 0x29C7 JUMP JUMPDEST PUSH2 0x8C6 JUMPI PUSH1 0x40 MLOAD PUSH3 0x461BCD PUSH1 0xE5 SHL DUP2 MSTORE PUSH1 0x20 PUSH1 0x4 DUP3 ADD MSTORE PUSH1 0x2A PUSH1 0x24 DUP3 ADD MSTORE PUSH32 0x5361666545524332303A204552433230206F7065726174696F6E20646964206E PUSH1 0x44 DUP3 ADD MSTORE PUSH10 0x1BDD081CDD58D8D95959 PUSH1 0xB2 SHL PUSH1 0x64 DUP3 ADD MSTORE PUSH1 0x84 ADD PUSH2 0xA2A JUMP JUMPDEST PUSH1 0x60 PUSH2 0x890 PUSH1 0x1 PUSH1 0x1 PUSH1 0xA0 SHL SUB DUP4 AND PUSH1 0x14 JUMPDEST PUSH1 0x60 PUSH1 0x0 PUSH2 0x1E64 DUP4 PUSH1 0x2 PUSH2 0x26E5 JUMP JUMPDEST PUSH2 0x1E6F SWAP1 PUSH1 0x2 PUSH2 0x26D2 JUMP JUMPDEST PUSH8 0xFFFFFFFFFFFFFFFF DUP2 GT ISZERO PUSH2 0x1E87 JUMPI PUSH2 0x1E87 PUSH2 0x2767 JUMP JUMPDEST PUSH1 0x40 MLOAD SWAP1 DUP1 DUP3 MSTORE DUP1 PUSH1 0x1F ADD PUSH1 0x1F NOT AND PUSH1 0x20 ADD DUP3 ADD PUSH1 0x40 MSTORE DUP1 ISZERO PUSH2 0x1EB1 JUMPI PUSH1 0x20 DUP3 ADD DUP2 DUP1 CALLDATASIZE DUP4 CALLDATACOPY ADD SWAP1 POP JUMPDEST POP SWAP1 POP PUSH1 0x3 PUSH1 0xFC SHL DUP2 PUSH1 0x0 DUP2 MLOAD DUP2 LT PUSH2 0x1ECC JUMPI PUSH2 0x1ECC PUSH2 0x26A6 JUMP JUMPDEST PUSH1 0x20 ADD ADD SWAP1 PUSH1 0x1 PUSH1 0x1 PUSH1 0xF8 SHL SUB NOT AND SWAP1 DUP2 PUSH1 0x0 BYTE SWAP1 MSTORE8 POP PUSH1 0xF PUSH1 0xFB SHL DUP2 PUSH1 0x1 DUP2 MLOAD DUP2 LT PUSH2 0x1EFB JUMPI PUSH2 0x1EFB PUSH2 0x26A6 JUMP JUMPDEST PUSH1 0x20 ADD ADD SWAP1 PUSH1 0x1 PUSH1 0x1 PUSH1 0xF8 SHL SUB NOT AND SWAP1 DUP2 PUSH1 0x0 BYTE SWAP1 MSTORE8 POP PUSH1 0x0 PUSH2 0x1F1F DUP5 PUSH1 0x2 PUSH2 0x26E5 JUMP JUMPDEST PUSH2 0x1F2A SWAP1 PUSH1 0x1 PUSH2 0x26D2 JUMP JUMPDEST SWAP1 POP JUMPDEST PUSH1 0x1 DUP2 GT ISZERO PUSH2 0x1FA2 JUMPI PUSH16 0x181899199A1A9B1B9C1CB0B131B232B3 PUSH1 0x81 SHL DUP6 PUSH1 0xF AND PUSH1 0x10 DUP2 LT PUSH2 0x1F5E JUMPI PUSH2 0x1F5E PUSH2 0x26A6 JUMP JUMPDEST BYTE PUSH1 0xF8 SHL DUP3 DUP3 DUP2 MLOAD DUP2 LT PUSH2 0x1F74 JUMPI PUSH2 0x1F74 PUSH2 0x26A6 JUMP JUMPDEST PUSH1 0x20 ADD ADD SWAP1 PUSH1 0x1 PUSH1 0x1 PUSH1 0xF8 SHL SUB NOT AND SWAP1 DUP2 PUSH1 0x0 BYTE SWAP1 MSTORE8 POP PUSH1 0x4 SWAP5 SWAP1 SWAP5 SHR SWAP4 PUSH2 0x1F9B DUP2 PUSH2 0x29E4 JUMP JUMPDEST SWAP1 POP PUSH2 0x1F2D JUMP JUMPDEST POP DUP4 ISZERO PUSH2 0x1D0E JUMPI PUSH1 0x40 MLOAD PUSH3 0x461BCD PUSH1 0xE5 SHL DUP2 MSTORE PUSH1 0x20 PUSH1 0x4 DUP3 ADD DUP2 SWAP1 MSTORE PUSH1 0x24 DUP3 ADD MSTORE PUSH32 0x537472696E67733A20686578206C656E67746820696E73756666696369656E74 PUSH1 0x44 DUP3 ADD MSTORE PUSH1 0x64 ADD PUSH2 0xA2A JUMP JUMPDEST PUSH1 0x60 PUSH2 0x2000 DUP5 DUP5 PUSH1 0x0 DUP6 PUSH2 0x2008 JUMP JUMPDEST SWAP5 SWAP4 POP POP POP POP JUMP JUMPDEST PUSH1 0x60 DUP3 SELFBALANCE LT ISZERO PUSH2 0x2069 JUMPI PUSH1 0x40 MLOAD PUSH3 0x461BCD PUSH1 0xE5 SHL DUP2 MSTORE PUSH1 0x20 PUSH1 0x4 DUP3 ADD MSTORE PUSH1 0x26 PUSH1 0x24 DUP3 ADD MSTORE PUSH32 0x416464726573733A20696E73756666696369656E742062616C616E636520666F PUSH1 0x44 DUP3 ADD MSTORE PUSH6 0x1C8818D85B1B PUSH1 0xD2 SHL PUSH1 0x64 DUP3 ADD MSTORE PUSH1 0x84 ADD PUSH2 0xA2A JUMP JUMPDEST PUSH1 0x0 DUP1 DUP7 PUSH1 0x1 PUSH1 0x1 PUSH1 0xA0 SHL SUB AND DUP6 DUP8 PUSH1 0x40 MLOAD PUSH2 0x2085 SWAP2 SWAP1 PUSH2 0x29FB JUMP JUMPDEST PUSH1 0x0 PUSH1 0x40 MLOAD DUP1 DUP4 SUB DUP2 DUP6 DUP8 GAS CALL SWAP3 POP POP POP RETURNDATASIZE DUP1 PUSH1 0x0 DUP2 EQ PUSH2 0x20C2 JUMPI PUSH1 0x40 MLOAD SWAP2 POP PUSH1 0x1F NOT PUSH1 0x3F RETURNDATASIZE ADD AND DUP3 ADD PUSH1 0x40 MSTORE RETURNDATASIZE DUP3 MSTORE RETURNDATASIZE PUSH1 0x0 PUSH1 0x20 DUP5 ADD RETURNDATACOPY PUSH2 0x20C7 JUMP JUMPDEST PUSH1 0x60 SWAP2 POP JUMPDEST POP SWAP2 POP SWAP2 POP PUSH2 0x1534 DUP8 DUP4 DUP4 DUP8 PUSH1 0x60 DUP4 ISZERO PUSH2 0x2142 JUMPI DUP3 MLOAD PUSH1 0x0 SUB PUSH2 0x213B JUMPI PUSH1 0x1 PUSH1 0x1 PUSH1 0xA0 SHL SUB DUP6 AND EXTCODESIZE PUSH2 0x213B JUMPI PUSH1 0x40 MLOAD PUSH3 0x461BCD PUSH1 0xE5 SHL DUP2 MSTORE PUSH1 0x20 PUSH1 0x4 DUP3 ADD MSTORE PUSH1 0x1D PUSH1 0x24 DUP3 ADD MSTORE PUSH32 0x416464726573733A2063616C6C20746F206E6F6E2D636F6E7472616374000000 PUSH1 0x44 DUP3 ADD MSTORE PUSH1 0x64 ADD PUSH2 0xA2A JUMP JUMPDEST POP DUP2 PUSH2 0x2000 JUMP JUMPDEST PUSH2 0x2000 DUP4 DUP4 DUP2 MLOAD ISZERO PUSH2 0x2157 JUMPI DUP2 MLOAD DUP1 DUP4 PUSH1 0x20 ADD REVERT JUMPDEST DUP1 PUSH1 0x40 MLOAD PUSH3 0x461BCD PUSH1 0xE5 SHL DUP2 MSTORE PUSH1 0x4 ADD PUSH2 0xA2A SWAP2 SWAP1 PUSH2 0x29B4 JUMP JUMPDEST PUSH1 0x0 PUSH1 0x20 DUP3 DUP5 SUB SLT ISZERO PUSH2 0x2183 JUMPI PUSH1 0x0 DUP1 REVERT JUMPDEST POP CALLDATALOAD SWAP2 SWAP1 POP JUMP JUMPDEST PUSH4 0x4E487B71 PUSH1 0xE0 SHL PUSH1 0x0 MSTORE PUSH1 0x21 PUSH1 0x4 MSTORE PUSH1 0x24 PUSH1 0x0 REVERT JUMPDEST PUSH1 0x5 DUP2 LT PUSH2 0x21BE JUMPI PUSH4 0x4E487B71 PUSH1 0xE0 SHL PUSH1 0x0 MSTORE PUSH1 0x21 PUSH1 0x4 MSTORE PUSH1 0x24 PUSH1 0x0 REVERT JUMPDEST SWAP1 MSTORE JUMP JUMPDEST PUSH1 0x0 JUMPDEST DUP4 DUP2 LT ISZERO PUSH2 0x21DD JUMPI DUP2 DUP2 ADD MLOAD DUP4 DUP3 ADD MSTORE PUSH1 0x20 ADD PUSH2 0x21C5 JUMP JUMPDEST POP POP PUSH1 0x0 SWAP2 ADD MSTORE JUMP JUMPDEST PUSH1 0x0 DUP2 MLOAD DUP1 DUP5 MSTORE PUSH2 0x21FE DUP2 PUSH1 0x20 DUP7 ADD PUSH1 0x20 DUP7 ADD PUSH2 0x21C2 JUMP JUMPDEST PUSH1 0x1F ADD PUSH1 0x1F NOT AND SWAP3 SWAP1 SWAP3 ADD PUSH1 0x20 ADD SWAP3 SWAP2 POP POP JUMP JUMPDEST PUSH1 0x1 PUSH1 0x1 PUSH1 0xA0 SHL SUB DUP15 AND DUP2 MSTORE PUSH2 0x222B PUSH1 0x20 DUP3 ADD DUP15 PUSH2 0x21A0 JUMP JUMPDEST PUSH2 0x1A0 PUSH1 0x40 DUP3 ADD MSTORE PUSH1 0x0 PUSH2 0x2243 PUSH2 0x1A0 DUP4 ADD DUP15 PUSH2 0x21E6 JUMP JUMPDEST DUP3 DUP2 SUB PUSH1 0x60 DUP5 ADD MSTORE PUSH2 0x2255 DUP2 DUP15 PUSH2 0x21E6 JUMP JUMPDEST SWAP1 POP DUP3 DUP2 SUB PUSH1 0x80 DUP5 ADD MSTORE PUSH2 0x2269 DUP2 DUP14 PUSH2 0x21E6 JUMP JUMPDEST SWAP2 POP POP DUP10 PUSH1 0xA0 DUP4 ADD MSTORE DUP9 PUSH1 0xC0 DUP4 ADD MSTORE DUP8 PUSH1 0xE0 DUP4 ADD MSTORE DUP7 PUSH2 0x100 DUP4 ADD MSTORE PUSH2 0x2294 PUSH2 0x120 DUP4 ADD DUP8 ISZERO ISZERO SWAP1 MSTORE JUMP JUMPDEST DUP5 ISZERO ISZERO PUSH2 0x140 DUP4 ADD MSTORE PUSH2 0x160 DUP3 ADD SWAP4 SWAP1 SWAP4 MSTORE PUSH2 0x180 ADD MSTORE SWAP12 SWAP11 POP POP POP POP POP POP POP POP POP POP POP JUMP JUMPDEST PUSH1 0x0 PUSH1 0x20 DUP3 DUP5 SUB SLT ISZERO PUSH2 0x22CC JUMPI PUSH1 0x0 DUP1 REVERT JUMPDEST DUP2 CALLDATALOAD PUSH1 0x1 PUSH1 0x1 PUSH1 0xE0 SHL SUB NOT DUP2 AND DUP2 EQ PUSH2 0x1D0E JUMPI PUSH1 0x0 DUP1 REVERT JUMPDEST DUP1 CALLDATALOAD PUSH1 0x1 PUSH1 0x1 PUSH1 0xA0 SHL SUB DUP2 AND DUP2 EQ PUSH2 0x22FB JUMPI PUSH1 0x0 DUP1 REVERT JUMPDEST SWAP2 SWAP1 POP JUMP JUMPDEST PUSH1 0x0 PUSH1 0x20 DUP3 DUP5 SUB SLT ISZERO PUSH2 0x2312 JUMPI PUSH1 0x0 DUP1 REVERT JUMPDEST PUSH2 0x1D0E DUP3 PUSH2 0x22E4 JUMP JUMPDEST PUSH1 0x0 DUP1 PUSH1 0x40 DUP4 DUP6 SUB SLT ISZERO PUSH2 0x232E JUMPI PUSH1 0x0 DUP1 REVERT JUMPDEST DUP3 CALLDATALOAD SWAP2 POP PUSH2 0x233E PUSH1 0x20 DUP5 ADD PUSH2 0x22E4 JUMP JUMPDEST SWAP1 POP SWAP3 POP SWAP3 SWAP1 POP JUMP JUMPDEST PUSH1 0x0 DUP1 DUP4 PUSH1 0x1F DUP5 ADD SLT PUSH2 0x2359 JUMPI PUSH1 0x0 DUP1 REVERT JUMPDEST POP DUP2 CALLDATALOAD PUSH8 0xFFFFFFFFFFFFFFFF DUP2 GT ISZERO PUSH2 0x2371 JUMPI PUSH1 0x0 DUP1 REVERT JUMPDEST PUSH1 0x20 DUP4 ADD SWAP2 POP DUP4 PUSH1 0x20 DUP3 PUSH1 0x5 SHL DUP6 ADD ADD GT ISZERO PUSH2 0x238C JUMPI PUSH1 0x0 DUP1 REVERT JUMPDEST SWAP3 POP SWAP3 SWAP1 POP JUMP JUMPDEST PUSH1 0x0 DUP1 PUSH1 0x20 DUP4 DUP6 SUB SLT ISZERO PUSH2 0x23A6 JUMPI PUSH1 0x0 DUP1 REVERT JUMPDEST DUP3 CALLDATALOAD PUSH8 0xFFFFFFFFFFFFFFFF DUP2 GT ISZERO PUSH2 0x23BD JUMPI PUSH1 0x0 DUP1 REVERT JUMPDEST PUSH2 0x23C9 DUP6 DUP3 DUP7 ADD PUSH2 0x2347 JUMP JUMPDEST SWAP1 SWAP7 SWAP1 SWAP6 POP SWAP4 POP POP POP POP JUMP JUMPDEST PUSH1 0x0 DUP1 PUSH1 0x0 DUP1 PUSH1 0x80 DUP6 DUP8 SUB SLT ISZERO PUSH2 0x23EB JUMPI PUSH1 0x0 DUP1 REVERT JUMPDEST POP POP DUP3 CALLDATALOAD SWAP5 PUSH1 0x20 DUP5 ADD CALLDATALOAD SWAP5 POP PUSH1 0x40 DUP5 ADD CALLDATALOAD SWAP4 PUSH1 0x60 ADD CALLDATALOAD SWAP3 POP SWAP1 POP JUMP JUMPDEST PUSH1 0x0 DUP1 PUSH1 0x40 DUP4 DUP6 SUB SLT ISZERO PUSH2 0x241A JUMPI PUSH1 0x0 DUP1 REVERT JUMPDEST PUSH2 0x2423 DUP4 PUSH2 0x22E4 JUMP JUMPDEST SWAP5 PUSH1 0x20 SWAP4 SWAP1 SWAP4 ADD CALLDATALOAD SWAP4 POP POP POP JUMP JUMPDEST PUSH1 0x0 DUP1 PUSH1 0x0 DUP1 PUSH1 0x0 PUSH1 0x60 DUP7 DUP9 SUB SLT ISZERO PUSH2 0x2449 JUMPI PUSH1 0x0 DUP1 REVERT JUMPDEST DUP6 CALLDATALOAD SWAP5 POP PUSH1 0x20 DUP7 ADD CALLDATALOAD PUSH8 0xFFFFFFFFFFFFFFFF DUP1 DUP3 GT ISZERO PUSH2 0x2468 JUMPI PUSH1 0x0 DUP1 REVERT JUMPDEST PUSH2 0x2474 DUP10 DUP4 DUP11 ADD PUSH2 0x2347 JUMP JUMPDEST SWAP1 SWAP7 POP SWAP5 POP PUSH1 0x40 DUP9 ADD CALLDATALOAD SWAP2 POP DUP1 DUP3 GT ISZERO PUSH2 0x248D JUMPI PUSH1 0x0 DUP1 REVERT JUMPDEST POP PUSH2 0x249A DUP9 DUP3 DUP10 ADD PUSH2 0x2347 JUMP JUMPDEST SWAP7 SWAP10 SWAP6 SWAP9 POP SWAP4 SWAP7 POP SWAP3 SWAP5 SWAP4 SWAP3 POP POP POP JUMP JUMPDEST PUSH1 0x1 PUSH1 0x1 PUSH1 0xA0 SHL SUB DUP9 AND DUP2 MSTORE PUSH2 0x24C4 PUSH1 0x20 DUP3 ADD DUP9 PUSH2 0x21A0 JUMP JUMPDEST PUSH1 0xE0 PUSH1 0x40 DUP3 ADD MSTORE PUSH1 0x0 PUSH2 0x24DA PUSH1 0xE0 DUP4 ADD DUP9 PUSH2 0x21E6 JUMP JUMPDEST PUSH1 0x60 DUP4 ADD SWAP7 SWAP1 SWAP7 MSTORE POP PUSH1 0x80 DUP2 ADD SWAP4 SWAP1 SWAP4 MSTORE SWAP1 ISZERO ISZERO PUSH1 0xA0 DUP4 ADD MSTORE ISZERO ISZERO PUSH1 0xC0 SWAP1 SWAP2 ADD MSTORE SWAP4 SWAP3 POP POP POP JUMP JUMPDEST DUP1 ISZERO ISZERO DUP2 EQ PUSH2 0x181D JUMPI PUSH1 0x0 DUP1 REVERT JUMPDEST PUSH1 0x0 DUP1 PUSH1 0x40 DUP4 DUP6 SUB SLT ISZERO PUSH2 0x2523 JUMPI PUSH1 0x0 DUP1 REVERT JUMPDEST DUP3 CALLDATALOAD SWAP2 POP PUSH1 0x20 DUP4 ADD CALLDATALOAD PUSH2 0x2535 DUP2 PUSH2 0x2502 JUMP JUMPDEST DUP1 SWAP2 POP POP SWAP3 POP SWAP3 SWAP1 POP JUMP JUMPDEST PUSH1 0x0 DUP1 DUP4 PUSH1 0x1F DUP5 ADD SLT PUSH2 0x2552 JUMPI PUSH1 0x0 DUP1 REVERT JUMPDEST POP DUP2 CALLDATALOAD PUSH8 0xFFFFFFFFFFFFFFFF DUP2 GT ISZERO PUSH2 0x256A JUMPI PUSH1 0x0 DUP1 REVERT JUMPDEST PUSH1 0x20 DUP4 ADD SWAP2 POP DUP4 PUSH1 0x20 DUP3 DUP6 ADD ADD GT ISZERO PUSH2 0x238C JUMPI PUSH1 0x0 DUP1 REVERT JUMPDEST PUSH1 0x0 DUP1 PUSH1 0x0 DUP1 PUSH1 0x0 DUP1 PUSH1 0x0 PUSH1 0x80 DUP9 DUP11 SUB SLT ISZERO PUSH2 0x259D JUMPI PUSH1 0x0 DUP1 REVERT JUMPDEST DUP8 CALLDATALOAD PUSH1 0x5 DUP2 LT PUSH2 0x25AC JUMPI PUSH1 0x0 DUP1 REVERT JUMPDEST SWAP7 POP PUSH1 0x20 DUP9 ADD CALLDATALOAD PUSH8 0xFFFFFFFFFFFFFFFF DUP1 DUP3 GT ISZERO PUSH2 0x25C9 JUMPI PUSH1 0x0 DUP1 REVERT JUMPDEST PUSH2 0x25D5 DUP12 DUP4 DUP13 ADD PUSH2 0x2540 JUMP JUMPDEST SWAP1 SWAP9 POP SWAP7 POP PUSH1 0x40 DUP11 ADD CALLDATALOAD SWAP2 POP DUP1 DUP3 GT ISZERO PUSH2 0x25EE JUMPI PUSH1 0x0 DUP1 REVERT JUMPDEST PUSH2 0x25FA DUP12 DUP4 DUP13 ADD PUSH2 0x2540 JUMP JUMPDEST SWAP1 SWAP7 POP SWAP5 POP PUSH1 0x60 DUP11 ADD CALLDATALOAD SWAP2 POP DUP1 DUP3 GT ISZERO PUSH2 0x2613 JUMPI PUSH1 0x0 DUP1 REVERT JUMPDEST POP PUSH2 0x2620 DUP11 DUP3 DUP12 ADD PUSH2 0x2540 JUMP JUMPDEST SWAP9 SWAP12 SWAP8 SWAP11 POP SWAP6 SWAP9 POP SWAP4 SWAP7 SWAP3 SWAP6 SWAP3 SWAP4 POP POP POP JUMP JUMPDEST PUSH1 0x0 DUP1 PUSH1 0x0 DUP1 PUSH1 0x80 DUP6 DUP8 SUB SLT ISZERO PUSH2 0x2649 JUMPI PUSH1 0x0 DUP1 REVERT JUMPDEST PUSH2 0x2652 DUP6 PUSH2 0x22E4 JUMP JUMPDEST SWAP7 PUSH1 0x20 DUP7 ADD CALLDATALOAD SWAP7 POP PUSH1 0x40 DUP7 ADD CALLDATALOAD SWAP6 PUSH1 0x60 ADD CALLDATALOAD SWAP5 POP SWAP3 POP POP POP JUMP JUMPDEST PUSH1 0x1 DUP2 DUP2 SHR SWAP1 DUP3 AND DUP1 PUSH2 0x2680 JUMPI PUSH1 0x7F DUP3 AND SWAP2 POP JUMPDEST PUSH1 0x20 DUP3 LT DUP2 SUB PUSH2 0x26A0 JUMPI PUSH4 0x4E487B71 PUSH1 0xE0 SHL PUSH1 0x0 MSTORE PUSH1 0x22 PUSH1 0x4 MSTORE PUSH1 0x24 PUSH1 0x0 REVERT JUMPDEST POP SWAP2 SWAP1 POP JUMP JUMPDEST PUSH4 0x4E487B71 PUSH1 0xE0 SHL PUSH1 0x0 MSTORE PUSH1 0x32 PUSH1 0x4 MSTORE PUSH1 0x24 PUSH1 0x0 REVERT JUMPDEST PUSH4 0x4E487B71 PUSH1 0xE0 SHL PUSH1 0x0 MSTORE PUSH1 0x11 PUSH1 0x4 MSTORE PUSH1 0x24 PUSH1 0x0 REVERT JUMPDEST DUP1 DUP3 ADD DUP1 DUP3 GT ISZERO PUSH2 0x890 JUMPI PUSH2 0x890 PUSH2 0x26BC JUMP JUMPDEST DUP1 DUP3 MUL DUP2 ISZERO DUP3 DUP3 DIV DUP5 EQ OR PUSH2 0x890 JUMPI PUSH2 0x890 PUSH2 0x26BC JUMP JUMPDEST PUSH1 0x0 PUSH1 0x1 DUP3 ADD PUSH2 0x270E JUMPI PUSH2 0x270E PUSH2 0x26BC JUMP JUMPDEST POP PUSH1 0x1 ADD SWAP1 JUMP JUMPDEST DUP2 DUP2 SUB DUP2 DUP2 GT ISZERO PUSH2 0x890 JUMPI PUSH2 0x890 PUSH2 0x26BC JUMP JUMPDEST PUSH1 0x0 DUP3 PUSH2 0x2745 JUMPI PUSH4 0x4E487B71 PUSH1 0xE0 SHL PUSH1 0x0 MSTORE PUSH1 0x12 PUSH1 0x4 MSTORE PUSH1 0x24 PUSH1 0x0 REVERT JUMPDEST POP DIV SWAP1 JUMP JUMPDEST PUSH1 0x0 PUSH1 0x20 DUP3 DUP5 SUB SLT ISZERO PUSH2 0x275C JUMPI PUSH1 0x0 DUP1 REVERT JUMPDEST DUP2 CALLDATALOAD PUSH2 0x1D0E DUP2 PUSH2 0x2502 JUMP JUMPDEST PUSH4 0x4E487B71 PUSH1 0xE0 SHL PUSH1 0x0 MSTORE PUSH1 0x41 PUSH1 0x4 MSTORE PUSH1 0x24 PUSH1 0x0 REVERT JUMPDEST PUSH1 0x1F DUP3 GT ISZERO PUSH2 0x8C6 JUMPI PUSH1 0x0 DUP2 DUP2 MSTORE PUSH1 0x20 DUP2 KECCAK256 PUSH1 0x1F DUP6 ADD PUSH1 0x5 SHR DUP2 ADD PUSH1 0x20 DUP7 LT ISZERO PUSH2 0x27A4 JUMPI POP DUP1 JUMPDEST PUSH1 0x1F DUP6 ADD PUSH1 0x5 SHR DUP3 ADD SWAP2 POP JUMPDEST DUP2 DUP2 LT ISZERO PUSH2 0x27C3 JUMPI DUP3 DUP2 SSTORE PUSH1 0x1 ADD PUSH2 0x27B0 JUMP JUMPDEST POP POP POP POP POP POP JUMP JUMPDEST PUSH8 0xFFFFFFFFFFFFFFFF DUP4 GT ISZERO PUSH2 0x27E3 JUMPI PUSH2 0x27E3 PUSH2 0x2767 JUMP JUMPDEST PUSH2 0x27F7 DUP4 PUSH2 0x27F1 DUP4 SLOAD PUSH2 0x266C JUMP JUMPDEST DUP4 PUSH2 0x277D JUMP JUMPDEST PUSH1 0x0 PUSH1 0x1F DUP5 GT PUSH1 0x1 DUP2 EQ PUSH2 0x282B JUMPI PUSH1 0x0 DUP6 ISZERO PUSH2 0x2813 JUMPI POP DUP4 DUP3 ADD CALLDATALOAD JUMPDEST PUSH1 0x0 NOT PUSH1 0x3 DUP8 SWAP1 SHL SHR NOT AND PUSH1 0x1 DUP7 SWAP1 SHL OR DUP4 SSTORE PUSH2 0x2885 JUMP JUMPDEST PUSH1 0x0 DUP4 DUP2 MSTORE PUSH1 0x20 SWAP1 KECCAK256 PUSH1 0x1F NOT DUP7 AND SWAP1 DUP4 JUMPDEST DUP3 DUP2 LT ISZERO PUSH2 0x285C JUMPI DUP7 DUP6 ADD CALLDATALOAD DUP3 SSTORE PUSH1 0x20 SWAP5 DUP6 ADD SWAP5 PUSH1 0x1 SWAP1 SWAP3 ADD SWAP2 ADD PUSH2 0x283C JUMP JUMPDEST POP DUP7 DUP3 LT ISZERO PUSH2 0x2879 JUMPI PUSH1 0x0 NOT PUSH1 0xF8 DUP9 PUSH1 0x3 SHL AND SHR NOT DUP5 DUP8 ADD CALLDATALOAD AND DUP2 SSTORE JUMPDEST POP POP PUSH1 0x1 DUP6 PUSH1 0x1 SHL ADD DUP4 SSTORE JUMPDEST POP POP POP POP POP JUMP JUMPDEST PUSH2 0x2896 DUP2 DUP6 PUSH2 0x21A0 JUMP JUMPDEST PUSH1 0x40 PUSH1 0x20 DUP3 ADD MSTORE DUP2 PUSH1 0x40 DUP3 ADD MSTORE DUP2 DUP4 PUSH1 0x60 DUP4 ADD CALLDATACOPY PUSH1 0x0 DUP2 DUP4 ADD PUSH1 0x60 SWAP1 DUP2 ADD SWAP2 SWAP1 SWAP2 MSTORE PUSH1 0x1F SWAP1 SWAP3 ADD PUSH1 0x1F NOT AND ADD ADD SWAP3 SWAP2 POP POP JUMP JUMPDEST PUSH1 0x0 DUP1 DUP4 SLOAD PUSH2 0x28D7 DUP2 PUSH2 0x266C JUMP JUMPDEST PUSH1 0x1 DUP3 DUP2 AND DUP1 ISZERO PUSH2 0x28EF JUMPI PUSH1 0x1 DUP2 EQ PUSH2 0x2904 JUMPI PUSH2 0x2933 JUMP JUMPDEST PUSH1 0xFF NOT DUP5 AND DUP8 MSTORE DUP3 ISZERO ISZERO DUP4 MUL DUP8 ADD SWAP5 POP PUSH2 0x2933 JUMP JUMPDEST DUP8 PUSH1 0x0 MSTORE PUSH1 0x20 DUP1 PUSH1 0x0 KECCAK256 PUSH1 0x0 JUMPDEST DUP6 DUP2 LT ISZERO PUSH2 0x292A JUMPI DUP2 SLOAD DUP11 DUP3 ADD MSTORE SWAP1 DUP5 ADD SWAP1 DUP3 ADD PUSH2 0x2911 JUMP JUMPDEST POP POP POP DUP3 DUP8 ADD SWAP5 POP JUMPDEST POP SWAP3 SWAP7 SWAP6 POP POP POP POP POP POP JUMP JUMPDEST PUSH32 0x416363657373436F6E74726F6C3A206163636F756E7420000000000000000000 DUP2 MSTORE PUSH1 0x0 DUP4 MLOAD PUSH2 0x2977 DUP2 PUSH1 0x17 DUP6 ADD PUSH1 0x20 DUP9 ADD PUSH2 0x21C2 JUMP JUMPDEST PUSH17 0x1034B99036B4B9B9B4B733903937B6329 PUSH1 0x7D SHL PUSH1 0x17 SWAP2 DUP5 ADD SWAP2 DUP3 ADD MSTORE DUP4 MLOAD PUSH2 0x29A8 DUP2 PUSH1 0x28 DUP5 ADD PUSH1 0x20 DUP9 ADD PUSH2 0x21C2 JUMP JUMPDEST ADD PUSH1 0x28 ADD SWAP5 SWAP4 POP POP POP POP JUMP JUMPDEST PUSH1 0x20 DUP2 MSTORE PUSH1 0x0 PUSH2 0x1D0E PUSH1 0x20 DUP4 ADD DUP5 PUSH2 0x21E6 JUMP JUMPDEST PUSH1 0x0 PUSH1 0x20 DUP3 DUP5 SUB SLT ISZERO PUSH2 0x29D9 JUMPI PUSH1 0x0 DUP1 REVERT JUMPDEST DUP2 MLOAD PUSH2 0x1D0E DUP2 PUSH2 0x2502 JUMP JUMPDEST PUSH1 0x0 DUP2 PUSH2 0x29F3 JUMPI PUSH2 0x29F3 PUSH2 0x26BC JUMP JUMPDEST POP PUSH1 0x0 NOT ADD SWAP1 JUMP JUMPDEST PUSH1 0x0 DUP3 MLOAD PUSH2 0x2A0D DUP2 DUP5 PUSH1 0x20 DUP8 ADD PUSH2 0x21C2 JUMP JUMPDEST SWAP2 SWAP1 SWAP2 ADD SWAP3 SWAP2 POP POP JUMP INVALID PUSH9 0xE79A7BF1E0BC45D0A3 ADDRESS 0xC5 PUSH20 0xBC367F9CF464FD326078812F301165FBDA4EF1A2 PUSH5 0x6970667358 0x22 SLT KECCAK256 DIV LOG0 SHL DIV DUP16 DELEGATECALL JUMP PUSH18 0xB671629632394743BA6822B1C1B6B0966A9C SWAP7 0xEF 0x24 DUP6 0xD4 PUSH22 0x64736F6C634300081300330000000000000000000000 "},"methodIdentifiers":{"DEFAULT_ADMIN_ROLE()":"a217fddf","EXPERIMENT_ROLE()":"68d03d69","ORACLE_ROLE()":"07e2cea5","assignToExperiment(uint256,address[],bool[])":"94ac26e5","autophageToken()":"141c5728","catalystToken()":"6a3f1e6f","completeExperiment(uint256,uint256,uint256,uint256)":"3504d6a5","contributionScores(address)":"6c55b0a7","createProposal(uint8,string,string,bytes)":"d155aecd","emergencyExecute(uint256)":"e8d9510a","experiments(uint256)":"eb4706b5","featureLastUsed(bytes32)":"a7fcfb81","featureUsageCount(bytes32)":"254899ab","getExperiment(uint256)":"34ae9b23","getProposal(uint256)":"c7f758a8","getRoleAdmin(bytes32)":"248a9ca3","getUserVotingPower(address)":"0baca2e5","grantRole(bytes32,address)":"2f2ff15d","hasRole(bytes32,address)":"91d14854","hasVoted(address,uint256)":"42545825","nextExperimentId()":"e40b1e31","nextProposalId()":"2ab09d14","proposals(uint256)":"013cf08b","renounceRole(bytes32,address)":"36568abe","revokeRole(bytes32,address)":"d547741f","startExperiment(uint256,uint256,bytes32,bytes32)":"63cfa987","sunsetUnusedFeatures(bytes32[])":"31591fb8","supportsInterface(bytes4)":"01ffc9a7","totalContributions()":"37c08923","trackFeatureUsage(bytes32)":"ff324324","updateContributionScore(address,uint256,uint256,uint256)":"faa537c7","vote(uint256,bool)":"c9d27afe","voteWeight(uint256,address)":"2b0a999d"}}}}}