{
  "_format": "hh-sol-artifact-1",
  "contractName": "ReservoirContract",
  "sourceName": "contracts/ReservoirContract.sol",
  "abi": [
    {
      "inputs": [
        {
          "internalType": "address",
          "name": "_token",
          "type": "address"
        },
        {
          "internalType": "address",
          "name": "_usdc",
          "type": "address"
        }
      ],
      "stateMutability": "nonpayable",
      "type": "constructor"
    },
    {
      "anonymous": false,
      "inputs": [
        {
          "indexed": true,
          "internalType": "uint256",
          "name": "claimId",
          "type": "uint256"
        },
        {
          "indexed": false,
          "internalType": "uint256",
          "name": "amount",
          "type": "uint256"
        }
      ],
      "name": "HealthcareClaimProcessed",
      "type": "event"
    },
    {
      "anonymous": false,
      "inputs": [
        {
          "indexed": true,
          "internalType": "uint256",
          "name": "claimId",
          "type": "uint256"
        },
        {
          "indexed": true,
          "internalType": "address",
          "name": "claimant",
          "type": "address"
        },
        {
          "indexed": false,
          "internalType": "uint256",
          "name": "amount",
          "type": "uint256"
        }
      ],
      "name": "HealthcareClaimSubmitted",
      "type": "event"
    },
    {
      "anonymous": false,
      "inputs": [
        {
          "indexed": false,
          "internalType": "uint256",
          "name": "newPrice",
          "type": "uint256"
        }
      ],
      "name": "MetabolicPriceUpdate",
      "type": "event"
    },
    {
      "anonymous": false,
      "inputs": [
        {
          "indexed": true,
          "internalType": "bytes32",
          "name": "role",
          "type": "bytes32"
        },
        {
          "indexed": true,
          "internalType": "bytes32",
          "name": "previousAdminRole",
          "type": "bytes32"
        },
        {
          "indexed": true,
          "internalType": "bytes32",
          "name": "newAdminRole",
          "type": "bytes32"
        }
      ],
      "name": "RoleAdminChanged",
      "type": "event"
    },
    {
      "anonymous": false,
      "inputs": [
        {
          "indexed": true,
          "internalType": "bytes32",
          "name": "role",
          "type": "bytes32"
        },
        {
          "indexed": true,
          "internalType": "address",
          "name": "account",
          "type": "address"
        },
        {
          "indexed": true,
          "internalType": "address",
          "name": "sender",
          "type": "address"
        }
      ],
      "name": "RoleGranted",
      "type": "event"
    },
    {
      "anonymous": false,
      "inputs": [
        {
          "indexed": true,
          "internalType": "bytes32",
          "name": "role",
          "type": "bytes32"
        },
        {
          "indexed": true,
          "internalType": "address",
          "name": "account",
          "type": "address"
        },
        {
          "indexed": true,
          "internalType": "address",
          "name": "sender",
          "type": "address"
        }
      ],
      "name": "RoleRevoked",
      "type": "event"
    },
    {
      "anonymous": false,
      "inputs": [
        {
          "indexed": false,
          "internalType": "uint256",
          "name": "required",
          "type": "uint256"
        },
        {
          "indexed": false,
          "internalType": "uint256",
          "name": "available",
          "type": "uint256"
        }
      ],
      "name": "SolvencyWarning",
      "type": "event"
    },
    {
      "anonymous": false,
      "inputs": [
        {
          "indexed": true,
          "internalType": "uint8",
          "name": "species",
          "type": "uint8"
        },
        {
          "indexed": false,
          "internalType": "uint256",
          "name": "amount",
          "type": "uint256"
        }
      ],
      "name": "TokensCollected",
      "type": "event"
    },
    {
      "anonymous": false,
      "inputs": [
        {
          "indexed": true,
          "internalType": "uint8",
          "name": "species",
          "type": "uint8"
        },
        {
          "indexed": true,
          "internalType": "address",
          "name": "recipient",
          "type": "address"
        },
        {
          "indexed": false,
          "internalType": "uint256",
          "name": "amount",
          "type": "uint256"
        }
      ],
      "name": "TokensDistributed",
      "type": "event"
    },
    {
      "anonymous": false,
      "inputs": [
        {
          "indexed": true,
          "internalType": "address",
          "name": "depositor",
          "type": "address"
        },
        {
          "indexed": false,
          "internalType": "uint256",
          "name": "amount",
          "type": "uint256"
        }
      ],
      "name": "USDCDeposited",
      "type": "event"
    },
    {
      "inputs": [],
      "name": "DEFAULT_ADMIN_ROLE",
      "outputs": [
        {
          "internalType": "bytes32",
          "name": "",
          "type": "bytes32"
        }
      ],
      "stateMutability": "view",
      "type": "function"
    },
    {
      "inputs": [],
      "name": "ORACLE_ROLE",
      "outputs": [
        {
          "internalType": "bytes32",
          "name": "",
          "type": "bytes32"
        }
      ],
      "stateMutability": "view",
      "type": "function"
    },
    {
      "inputs": [],
      "name": "SETTLEMENT_ROLE",
      "outputs": [
        {
          "internalType": "bytes32",
          "name": "",
          "type": "bytes32"
        }
      ],
      "stateMutability": "view",
      "type": "function"
    },
    {
      "inputs": [],
      "name": "TREASURY_ROLE",
      "outputs": [
        {
          "internalType": "bytes32",
          "name": "",
          "type": "bytes32"
        }
      ],
      "stateMutability": "view",
      "type": "function"
    },
    {
      "inputs": [],
      "name": "annualRevenue",
      "outputs": [
        {
          "internalType": "uint256",
          "name": "",
          "type": "uint256"
        }
      ],
      "stateMutability": "view",
      "type": "function"
    },
    {
      "inputs": [],
      "name": "autophageToken",
      "outputs": [
        {
          "internalType": "contract IAutophageToken",
          "name": "",
          "type": "address"
        }
      ],
      "stateMutability": "view",
      "type": "function"
    },
    {
      "inputs": [],
      "name": "calculateMetabolicPrice",
      "outputs": [
        {
          "internalType": "uint256",
          "name": "",
          "type": "uint256"
        }
      ],
      "stateMutability": "view",
      "type": "function"
    },
    {
      "inputs": [
        {
          "internalType": "uint256",
          "name": "",
          "type": "uint256"
        }
      ],
      "name": "claims",
      "outputs": [
        {
          "internalType": "address",
          "name": "claimant",
          "type": "address"
        },
        {
          "internalType": "uint256",
          "name": "amount",
          "type": "uint256"
        },
        {
          "internalType": "uint8",
          "name": "urgencyScore",
          "type": "uint8"
        },
        {
          "internalType": "uint256",
          "name": "timestamp",
          "type": "uint256"
        },
        {
          "internalType": "string",
          "name": "claimType",
          "type": "string"
        },
        {
          "internalType": "bytes32",
          "name": "verificationHash",
          "type": "bytes32"
        },
        {
          "internalType": "bool",
          "name": "processed",
          "type": "bool"
        }
      ],
      "stateMutability": "view",
      "type": "function"
    },
    {
      "inputs": [
        {
          "internalType": "address[]",
          "name": "users",
          "type": "address[]"
        },
        {
          "internalType": "uint8[]",
          "name": "species",
          "type": "uint8[]"
        }
      ],
      "name": "collectDecayedTokens",
      "outputs": [],
      "stateMutability": "nonpayable",
      "type": "function"
    },
    {
      "inputs": [],
      "name": "currentDayIndex",
      "outputs": [
        {
          "internalType": "uint8",
          "name": "",
          "type": "uint8"
        }
      ],
      "stateMutability": "view",
      "type": "function"
    },
    {
      "inputs": [
        {
          "internalType": "uint256",
          "name": "",
          "type": "uint256"
        }
      ],
      "name": "dailyHealthcareSpending",
      "outputs": [
        {
          "internalType": "uint256",
          "name": "",
          "type": "uint256"
        }
      ],
      "stateMutability": "view",
      "type": "function"
    },
    {
      "inputs": [
        {
          "internalType": "uint256",
          "name": "amount",
          "type": "uint256"
        }
      ],
      "name": "depositUSDC",
      "outputs": [],
      "stateMutability": "nonpayable",
      "type": "function"
    },
    {
      "inputs": [
        {
          "internalType": "address",
          "name": "recipient",
          "type": "address"
        },
        {
          "internalType": "uint8",
          "name": "species",
          "type": "uint8"
        },
        {
          "internalType": "uint256",
          "name": "amount",
          "type": "uint256"
        }
      ],
      "name": "distributeReward",
      "outputs": [],
      "stateMutability": "nonpayable",
      "type": "function"
    },
    {
      "inputs": [
        {
          "internalType": "address",
          "name": "token",
          "type": "address"
        },
        {
          "internalType": "uint256",
          "name": "amount",
          "type": "uint256"
        }
      ],
      "name": "emergencyWithdraw",
      "outputs": [],
      "stateMutability": "nonpayable",
      "type": "function"
    },
    {
      "inputs": [],
      "name": "getReservoirStats",
      "outputs": [
        {
          "internalType": "uint256[4]",
          "name": "tokenBalances",
          "type": "uint256[4]"
        },
        {
          "internalType": "uint256",
          "name": "usdcReserve",
          "type": "uint256"
        },
        {
          "internalType": "uint256",
          "name": "pendingClaims",
          "type": "uint256"
        },
        {
          "internalType": "uint256",
          "name": "monthlySpending",
          "type": "uint256"
        },
        {
          "internalType": "bool",
          "name": "isSolvent",
          "type": "bool"
        }
      ],
      "stateMutability": "view",
      "type": "function"
    },
    {
      "inputs": [
        {
          "internalType": "bytes32",
          "name": "role",
          "type": "bytes32"
        }
      ],
      "name": "getRoleAdmin",
      "outputs": [
        {
          "internalType": "bytes32",
          "name": "",
          "type": "bytes32"
        }
      ],
      "stateMutability": "view",
      "type": "function"
    },
    {
      "inputs": [
        {
          "internalType": "bytes32",
          "name": "role",
          "type": "bytes32"
        },
        {
          "internalType": "address",
          "name": "account",
          "type": "address"
        }
      ],
      "name": "grantRole",
      "outputs": [],
      "stateMutability": "nonpayable",
      "type": "function"
    },
    {
      "inputs": [
        {
          "internalType": "bytes32",
          "name": "role",
          "type": "bytes32"
        },
        {
          "internalType": "address",
          "name": "account",
          "type": "address"
        }
      ],
      "name": "hasRole",
      "outputs": [
        {
          "internalType": "bool",
          "name": "",
          "type": "bool"
        }
      ],
      "stateMutability": "view",
      "type": "function"
    },
    {
      "inputs": [],
      "name": "lastSolvencyCheck",
      "outputs": [
        {
          "internalType": "uint256",
          "name": "",
          "type": "uint256"
        }
      ],
      "stateMutability": "view",
      "type": "function"
    },
    {
      "inputs": [],
      "name": "monthlyHealthcareSpending",
      "outputs": [
        {
          "internalType": "uint256",
          "name": "",
          "type": "uint256"
        }
      ],
      "stateMutability": "view",
      "type": "function"
    },
    {
      "inputs": [],
      "name": "nextClaimId",
      "outputs": [
        {
          "internalType": "uint256",
          "name": "",
          "type": "uint256"
        }
      ],
      "stateMutability": "view",
      "type": "function"
    },
    {
      "inputs": [
        {
          "internalType": "uint256",
          "name": "",
          "type": "uint256"
        }
      ],
      "name": "pendingClaimIds",
      "outputs": [
        {
          "internalType": "uint256",
          "name": "",
          "type": "uint256"
        }
      ],
      "stateMutability": "view",
      "type": "function"
    },
    {
      "inputs": [
        {
          "internalType": "uint256",
          "name": "maxClaims",
          "type": "uint256"
        }
      ],
      "name": "processHealthcareClaims",
      "outputs": [],
      "stateMutability": "nonpayable",
      "type": "function"
    },
    {
      "inputs": [
        {
          "internalType": "bytes32",
          "name": "role",
          "type": "bytes32"
        },
        {
          "internalType": "address",
          "name": "account",
          "type": "address"
        }
      ],
      "name": "renounceRole",
      "outputs": [],
      "stateMutability": "nonpayable",
      "type": "function"
    },
    {
      "inputs": [
        {
          "internalType": "bytes32",
          "name": "role",
          "type": "bytes32"
        },
        {
          "internalType": "address",
          "name": "account",
          "type": "address"
        }
      ],
      "name": "revokeRole",
      "outputs": [],
      "stateMutability": "nonpayable",
      "type": "function"
    },
    {
      "inputs": [
        {
          "internalType": "uint256",
          "name": "amount",
          "type": "uint256"
        },
        {
          "internalType": "uint8",
          "name": "urgencyScore",
          "type": "uint8"
        },
        {
          "internalType": "string",
          "name": "claimType",
          "type": "string"
        },
        {
          "internalType": "bytes32",
          "name": "verificationHash",
          "type": "bytes32"
        }
      ],
      "name": "submitHealthcareClaim",
      "outputs": [
        {
          "internalType": "uint256",
          "name": "claimId",
          "type": "uint256"
        }
      ],
      "stateMutability": "nonpayable",
      "type": "function"
    },
    {
      "inputs": [
        {
          "internalType": "bytes4",
          "name": "interfaceId",
          "type": "bytes4"
        }
      ],
      "name": "supportsInterface",
      "outputs": [
        {
          "internalType": "bool",
          "name": "",
          "type": "bool"
        }
      ],
      "stateMutability": "view",
      "type": "function"
    },
    {
      "inputs": [
        {
          "internalType": "uint8",
          "name": "",
          "type": "uint8"
        }
      ],
      "name": "tokenChamber",
      "outputs": [
        {
          "internalType": "uint256",
          "name": "collected",
          "type": "uint256"
        },
        {
          "internalType": "uint256",
          "name": "distributed",
          "type": "uint256"
        },
        {
          "internalType": "uint256",
          "name": "current",
          "type": "uint256"
        }
      ],
      "stateMutability": "view",
      "type": "function"
    },
    {
      "inputs": [],
      "name": "totalDeposits",
      "outputs": [
        {
          "internalType": "uint256",
          "name": "",
          "type": "uint256"
        }
      ],
      "stateMutability": "view",
      "type": "function"
    },
    {
      "inputs": [
        {
          "internalType": "uint256",
          "name": "_revenue",
          "type": "uint256"
        }
      ],
      "name": "updateAnnualRevenue",
      "outputs": [],
      "stateMutability": "nonpayable",
      "type": "function"
    },
    {
      "inputs": [],
      "name": "usdc",
      "outputs": [
        {
          "internalType": "contract IERC20",
          "name": "",
          "type": "address"
        }
      ],
      "stateMutability": "view",
      "type": "function"
    },
    {
      "inputs": [],
      "name": "usdcBalance",
      "outputs": [
        {
          "internalType": "uint256",
          "name": "",
          "type": "uint256"
        }
      ],
      "stateMutability": "view",
      "type": "function"
    }
  ],
  "bytecode": "0x60806040523480156200001157600080fd5b5060405162002a4e38038062002a4e833981016040819052620000349162000167565b60018055600280546001600160a01b038085166001600160a01b031992831617909255600380549284169290911691909117905562000075600033620000a9565b620000a17fe1dcbdb91df27212a29bc27177c840cf2f819ecf2187432e1fac86c2dd5dfca933620000a9565b50506200019f565b6000828152602081815260408083206001600160a01b038516845290915290205460ff1662000146576000828152602081815260408083206001600160a01b03851684529091529020805460ff19166001179055620001053390565b6001600160a01b0316816001600160a01b0316837f2f8788117e7eff1d82e926ec794901d17c78024a50270940304540a733656f0d60405160405180910390a45b5050565b80516001600160a01b03811681146200016257600080fd5b919050565b600080604083850312156200017b57600080fd5b62000186836200014a565b915062000196602084016200014a565b90509250929050565b61289f80620001af6000396000f3fe608060405234801561001057600080fd5b50600436106101f05760003560e01c806395ccea671161010f578063ba9cf01d116100a2578063d547741f11610071578063d547741f14610490578063dbb8cc46146104a3578063e2ea3b45146104c2578063f688bcfb146104d557600080fd5b8063ba9cf01d14610427578063c77dcc0a1461044e578063c9b8ce6014610461578063d11a57ec1461046957600080fd5b8063a888c2cd116100de578063a888c2cd146103cc578063aff221b1146103f2578063b3367959146103fb578063b3bdf4851461040e57600080fd5b806395ccea671461035e578063a0021cf114610371578063a217fddf1461037a578063a24a161b1461038257600080fd5b80633d187ec51161018757806368ea5a931161015657806368ea5a931461033057806373688e56146103395780637d8820971461034257806391d148541461034b57600080fd5b80633d187ec5146102ee5780633e413bee146103015780635a650da31461031457806366b2320a1461032757600080fd5b80631a45faaf116101c35780631a45faaf14610290578063248a9ca3146102a55780632f2ff15d146102c857806336568abe146102db57600080fd5b806301ffc9a7146101f557806307e2cea51461021d5780631045d4ab14610252578063141c572814610265575b600080fd5b6102086102033660046121b4565b6104e8565b60405190151581526020015b60405180910390f35b6102447f68e79a7bf1e0bc45d0a330c573bc367f9cf464fd326078812f301165fbda4ef181565b604051908152602001610214565b6102446102603660046121de565b61051f565b600254610278906001600160a01b031681565b6040516001600160a01b039091168152602001610214565b6102a361029e366004612243565b610536565b005b6102446102b33660046121de565b60009081526020819052604090206001015490565b6102a36102d63660046122cb565b610879565b6102a36102e93660046122cb565b6108a3565b6102a36102fc3660046121de565b610921565b600354610278906001600160a01b031681565b6102a36103223660046121de565b610a6e565b61024460085481565b610244600c5481565b61024460055481565b61024460065481565b6102086103593660046122cb565b610a9e565b6102a361036c3660046122f7565b610ac7565b610244600a5481565b610244600081565b6103b1610390366004612332565b60046020526000908152604090208054600182015460029092015490919083565b60408051938452602084019290925290820152606001610214565b6103df6103da3660046121de565b610b5a565b604051610214979695949392919061239d565b61024460075481565b6102a36104093660046123ee565b610c31565b610416610dc6565b60405161021495949392919061242a565b6102447f300f9ae985dc711960f7a4d1dd013f9c19ecf40bff149522ab7523b2187a384681565b61024461045c36600461247a565b610ea4565b6102446110fa565b6102447fe1dcbdb91df27212a29bc27177c840cf2f819ecf2187432e1fac86c2dd5dfca981565b6102a361049e3660046122cb565b61120e565b602b546104b09060ff1681565b60405160ff9091168152602001610214565b6102446104d03660046121de565b611233565b6102a36104e33660046121de565b611254565b60006001600160e01b03198216637965db0b60e01b148061051957506301ffc9a760e01b6001600160e01b03198316145b92915050565b600d81601e811061052f57600080fd5b0154905081565b7f68e79a7bf1e0bc45d0a330c573bc367f9cf464fd326078812f301165fbda4ef16105608161132e565b8382146105a55760405162461bcd60e51b815260206004820152600e60248201526d082e4e4c2f240dad2e6dac2e8c6d60931b60448201526064015b60405180910390fd5b60005b84811015610871576002546000906001600160a01b0316635bcb4bf28888858181106105d6576105d6612509565b90506020020160208101906105eb919061251f565b8787868181106105fd576105fd612509565b90506020020160208101906106129190612332565b6040516001600160e01b031960e085901b1681526001600160a01b03909216600483015260ff166024820152604401602060405180830381865afa15801561065e573d6000803e3d6000fd5b505050506040513d601f19601f82011682018060405250810190610682919061253a565b9050801561085e576002546001600160a01b03166350e1a3bc8888858181106106ad576106ad612509565b90506020020160208101906106c2919061251f565b8787868181106106d4576106d4612509565b90506020020160208101906106e99190612332565b6040516001600160e01b031960e085901b1681526001600160a01b03909216600483015260ff166024820152604401600060405180830381600087803b15801561073257600080fd5b505af1158015610746573d6000803e3d6000fd5b50505050806004600087878681811061076157610761612509565b90506020020160208101906107769190612332565b60ff1660ff168152602001908152602001600020600001600082825461079c9190612569565b90915550819050600460008787868181106107b9576107b9612509565b90506020020160208101906107ce9190612332565b60ff1660ff16815260200190815260200160002060020160008282546107f49190612569565b90915550859050848381811061080c5761080c612509565b90506020020160208101906108219190612332565b60ff167f8061b28e7414f7fe236db788aa0d448b5760a3ca21dc4c3cfd1cedea4b5bc36c8260405161085591815260200190565b60405180910390a25b50806108698161257c565b9150506105a8565b505050505050565b6000828152602081905260409020600101546108948161132e565b61089e8383611338565b505050565b6001600160a01b03811633146109135760405162461bcd60e51b815260206004820152602f60248201527f416363657373436f6e74726f6c3a2063616e206f6e6c792072656e6f756e636560448201526e103937b632b9903337b91039b2b63360891b606482015260840161059c565b61091d82826113bc565b5050565b7f300f9ae985dc711960f7a4d1dd013f9c19ecf40bff149522ab7523b2187a384661094b8161132e565b60005b828110801561095e5750600b5415155b801561096d575061096d611421565b15610a6657600061097c611434565b600081815260096020526040902060068101549192509060ff161580156109a95750806001015460055410155b15610a565760068101805460ff19166001908117909155810154600580546000906109d5908490612595565b909155505060018101546109e89061149e565b80546001820154600354610a0a926001600160a01b0391821692911690611567565b817f645247e420898f823df59f2ab6cefc9ef3d8e8477b58b3a3a26b83197938fb858260010154604051610a4091815260200190565b60405180910390a282610a528161257c565b9350505b610a5f826115ca565b505061094e565b61089e611694565b7fe1dcbdb91df27212a29bc27177c840cf2f819ecf2187432e1fac86c2dd5dfca9610a988161132e565b50600855565b6000918252602082815260408084206001600160a01b0393909316845291905290205460ff1690565b6000610ad28161132e565b6003546001600160a01b038481169116141580610b035750610af26116e7565b82600554610b009190612595565b10155b610b465760405162461bcd60e51b8152602060048201526014602482015273576f756c6420627265616b20736f6c76656e637960601b604482015260640161059c565b61089e6001600160a01b0384163384611567565b600960205260009081526040902080546001820154600283015460038401546004850180546001600160a01b0390951695939460ff909316939192610b9e906125a8565b80601f0160208091040260200160405190810160405280929190818152602001828054610bca906125a8565b8015610c175780601f10610bec57610100808354040283529160200191610c17565b820191906000526020600020905b815481529060010190602001808311610bfa57829003601f168201915b50505050600583015460069093015491929160ff16905087565b7f68e79a7bf1e0bc45d0a330c573bc367f9cf464fd326078812f301165fbda4ef1610c5b8161132e565b60ff8316600090815260046020526040902060020154821115610cb65760405162461bcd60e51b8152602060048201526013602482015272496e73756666696369656e7420746f6b656e7360681b604482015260640161059c565b60ff831660009081526004602052604081206002018054849290610cdb908490612595565b909155505060ff831660009081526004602052604081206001018054849290610d05908490612569565b9091555050600254604051632769c3d960e11b81526001600160a01b03868116600483015260ff861660248301526044820185905290911690634ed387b290606401600060405180830381600087803b158015610d6157600080fd5b505af1158015610d75573d6000803e3d6000fd5b50505050836001600160a01b03168360ff167f8c2d36d9a6ec91a08ad1c7346cb4a7057854f5699e46dd7e110a87c71f21535484604051610db891815260200190565b60405180910390a350505050565b610dce612196565b50604080516080810182527f17ef568e3e12ab5b9c7254a8d58478811de00f9e6eb34345acd53bf8fd09d3ee5481527fabd6e7cb50984ff9c2f3e18a2660c3353dadf4e3291deeb275dae2cd1e44fe07546020808301919091527f91da3fd0782e51c6b3986e9e672fd566868e71f3dbc2d6c2cd6fbb3e361af2a954928201929092526003600090815260049092527f2e174c10e159ea99b867ce3205125c24a42d128804e4070ed6fcc8cc98166aa2546060820152600554600b54600754929391929091610e9b611758565b90509091929394565b6000610eae61176c565b60008611610eef5760405162461bcd60e51b815260206004820152600e60248201526d125b9d985b1a5908185b5bdd5b9d60921b604482015260640161059c565b60018560ff1610158015610f075750600a8560ff1611155b610f455760405162461bcd60e51b815260206004820152600f60248201526e496e76616c696420757267656e637960881b604482015260640161059c565b82610f875760405162461bcd60e51b8152602060048201526012602482015271496e76616c696420636c61696d207479706560701b604482015260640161059c565b600a8054906000610f978361257c565b9190505590506040518060e00160405280336001600160a01b031681526020018781526020018660ff16815260200142815260200185858080601f0160208091040260200160405190810160405280939291908181526020018383808284376000920182905250938552505050602080830186905260409283018290528482526009815290829020835181546001600160a01b0319166001600160a01b039091161781559083015160018201559082015160028201805460ff191660ff909216919091179055606082015160038201556080820151600482019061107b908261263e565b5060a0820151600582015560c0909101516006909101805460ff19169115159190911790556110a9816117c5565b604051868152339082907f5b4f60eb286a5feaa1750946835885a36f688c2c576685b66daca877b88d065c9060200160405180910390a36110e86118f8565b6110f160018055565b95945050505050565b6000620f424081611109611a26565b90506000611115611a42565b90506000611121611a59565b90506703311fc80a5700006000670de0b6b3a76400006111428360026126fe565b61115490670de0b6b3a7640000612569565b61115e90886126fe565b611168919061272b565b90506000670de0b6b3a764000061117f8482612595565b61118990886126fe565b611193919061272b565b905060006111a18284612569565b90506000670de0b6b3a76400006111c067058d15e17628000082612569565b6111ca888a6126fe565b6111d491906126fe565b6111de919061272b565b90506000816111f5670de0b6b3a7640000856126fe565b6111ff919061272b565b9b9a5050505050505050505050565b6000828152602081905260409020600101546112298161132e565b61089e83836113bc565b600b818154811061124357600080fd5b600091825260209091200154905081565b61125c61176c565b6000811161129d5760405162461bcd60e51b815260206004820152600e60248201526d125b9d985b1a5908185b5bdd5b9d60921b604482015260640161059c565b6003546112b5906001600160a01b0316333084611a7a565b80600560008282546112c79190612569565b9250508190555080600660008282546112e09190612569565b909155505060405181815233907f80ecc532cf2e08856601df42646970d676a686d8eeacbfd2038fae4ff288da569060200160405180910390a26113226118f8565b61132b60018055565b50565b61132b8133611ab8565b6113428282610a9e565b61091d576000828152602081815260408083206001600160a01b03851684529091529020805460ff191660011790556113783390565b6001600160a01b0316816001600160a01b0316837f2f8788117e7eff1d82e926ec794901d17c78024a50270940304540a733656f0d60405160405180910390a45050565b6113c68282610a9e565b1561091d576000828152602081815260408083206001600160a01b0385168085529252808320805460ff1916905551339285917ff6391f5c32d9c69d2a47ea670b442974b53935d1edc7fd64eb21e047a839171b9190a45050565b600061142b6116e7565b60055411905090565b600b5460009061147a5760405162461bcd60e51b81526020600482015260116024820152704e6f2070656e64696e6720636c61696d7360781b604482015260640161059c565b600b60008154811061148e5761148e612509565b9060005260206000200154905090565b6000601e6114af620151804261272b565b6114b9919061273f565b602b5490915060ff1681146114ef576000600d82601e81106114dd576114dd612509565b0155602b805460ff191660ff83161790555b81600d82601e811061150357611503612509565b0160008282546115139190612569565b9091555050600060078190555b601e81101561089e57600d81601e811061153c5761153c612509565b01546007600082825461154f9190612569565b9091555081905061155f8161257c565b915050611520565b6040516001600160a01b03831660248201526044810182905261089e90849063a9059cbb60e01b906064015b60408051601f198184030181529190526020810180516001600160e01b03166001600160e01b031990931692909217909152611b11565b60005b600b5481101561091d5781600b82815481106115eb576115eb612509565b90600052602060002001540361168257600b805461160b90600190612595565b8154811061161b5761161b612509565b9060005260206000200154600b828154811061163957611639612509565b600091825260209091200155600b80548061165657611656612753565b60019003818190600052602060002001600090559055600b8054905081101561091d5761091d81611be6565b8061168c8161257c565b9150506115cd565b61169c611758565b6116e5577fd6b3dfac3e11b7be3b63871ab9b0fda1f0c0fd252cf44c0115b91e13ede988b26116c96116e7565b6005546040805192835260208301919091520160405180910390a15b565b600080606460286006546116fb91906126fe565b611705919061272b565b90506000600360075461171891906126fe565b905060006064601660085461172d91906126fe565b611737919061272b565b905082808311156117455750815b808211156117505750805b949350505050565b60006117626116e7565b6005541015905090565b6002600154036117be5760405162461bcd60e51b815260206004820152601f60248201527f5265656e7472616e637947756172643a207265656e7472616e742063616c6c00604482015260640161059c565b6002600155565b600b80546001818101835560008381527f0175b7a638427703f0dbe7bb9bbf987a2551717b34e79f33b5b1008d1fa01db99092018490559154909161180991612595565b90505b801561091d5760006002611821600184612595565b61182b919061272b565b9050611853600b828154811061184357611843612509565b9060005260206000200154611d3f565b611869600b848154811061184357611843612509565b111561089e57600b818154811061188257611882612509565b9060005260206000200154600b83815481106118a0576118a0612509565b9060005260206000200154600b84815481106118be576118be612509565b906000526020600020016000600b85815481106118dd576118dd612509565b6000918252602090912001929092559190915550905061180c565b60005b600a8110801561190c5750600b5415155b801561191b575061191b611421565b1561132b57600061192a611434565b600081815260096020526040902060068101549192509060ff1615801561196957506119546116e7565b81600101546119639190612569565b60055410155b15611a165760068101805460ff1916600190811790915581015460058054600090611995908490612595565b909155505060018101546119a89061149e565b805460018201546003546119ca926001600160a01b0391821692911690611567565b817f645247e420898f823df59f2ab6cefc9ef3d8e8477b58b3a3a26b83197938fb858260010154604051611a0091815260200190565b60405180910390a282611a128161257c565b9350505b611a1f826115ca565b50506118fb565b6000611a3d670de0b6b3a7640000620249f06126fe565b905090565b6000611a3d670de0b6b3a7640000629896806126fe565b6000601e611a70670de0b6b3a7640000600f6126fe565b611a3d919061272b565b6040516001600160a01b0380851660248301528316604482015260648101829052611ab29085906323b872dd60e01b90608401611593565b50505050565b611ac28282610a9e565b61091d57611acf81611ebe565b611ada836020611ed0565b604051602001611aeb929190612769565b60408051601f198184030181529082905262461bcd60e51b825261059c916004016127de565b6000611b66826040518060400160405280602081526020017f5361666545524332303a206c6f772d6c6576656c2063616c6c206661696c6564815250856001600160a01b03166120739092919063ffffffff16565b9050805160001480611b87575080806020019051810190611b8791906127f1565b61089e5760405162461bcd60e51b815260206004820152602a60248201527f5361666545524332303a204552433230206f7065726174696f6e20646964206e6044820152691bdd081cdd58d8d9595960b21b606482015260840161059c565b600b545b6000611bf78360026126fe565b611c02906001612569565b90506000611c118460026126fe565b611c1c906002612569565b9050838383108015611c575750611c3f600b828154811061184357611843612509565b611c55600b858154811061184357611843612509565b115b15611c5f5750815b8382108015611c975750611c7f600b828154811061184357611843612509565b611c95600b848154811061184357611843612509565b115b15611c9f5750805b848114611d3057600b8181548110611cb957611cb9612509565b9060005260206000200154600b8681548110611cd757611cd7612509565b9060005260206000200154600b8781548110611cf557611cf5612509565b906000526020600020016000600b8581548110611d1457611d14612509565b6000918252602090912001929092559190915550935083611d37565b5050505050565b505050611bea565b6000818152600960209081526040808320815160e08101835281546001600160a01b03168152600182015493810193909352600281015460ff169183019190915260038101546060830152600481018054849392916080840191611da2906125a8565b80601f0160208091040260200160405190810160405280929190818152602001828054611dce906125a8565b8015611e1b5780601f10611df057610100808354040283529160200191611e1b565b820191906000526020600020905b815481529060010190602001808311611dfe57829003601f168201915b50505091835250506005820154602082015260069091015460ff161515604091820152810151909150600090611e52906046612813565b60ff1690506000610e10836060015142611e6c9190612595565b611e76919061272b565b611e819060026126fe565b60a0840151909150600090611e97576000611e9a565b600a5b60ff16905080611eaa8385612569565b611eb49190612569565b9695505050505050565b60606105196001600160a01b03831660145b60606000611edf8360026126fe565b611eea906002612569565b67ffffffffffffffff811115611f0257611f026125e2565b6040519080825280601f01601f191660200182016040528015611f2c576020820181803683370190505b509050600360fc1b81600081518110611f4757611f47612509565b60200101906001600160f81b031916908160001a905350600f60fb1b81600181518110611f7657611f76612509565b60200101906001600160f81b031916908160001a9053506000611f9a8460026126fe565b611fa5906001612569565b90505b600181111561201d576f181899199a1a9b1b9c1cb0b131b232b360811b85600f1660108110611fd957611fd9612509565b1a60f81b828281518110611fef57611fef612509565b60200101906001600160f81b031916908160001a90535060049490941c9361201681612836565b9050611fa8565b50831561206c5760405162461bcd60e51b815260206004820181905260248201527f537472696e67733a20686578206c656e67746820696e73756666696369656e74604482015260640161059c565b9392505050565b6060611750848460008585600080866001600160a01b0316858760405161209a919061284d565b60006040518083038185875af1925050503d80600081146120d7576040519150601f19603f3d011682016040523d82523d6000602084013e6120dc565b606091505b50915091506120ed878383876120f8565b979650505050505050565b60608315612167578251600003612160576001600160a01b0385163b6121605760405162461bcd60e51b815260206004820152601d60248201527f416464726573733a2063616c6c20746f206e6f6e2d636f6e7472616374000000604482015260640161059c565b5081611750565b611750838381511561217c5781518083602001fd5b8060405162461bcd60e51b815260040161059c91906127de565b60405180608001604052806004906020820280368337509192915050565b6000602082840312156121c657600080fd5b81356001600160e01b03198116811461206c57600080fd5b6000602082840312156121f057600080fd5b5035919050565b60008083601f84011261220957600080fd5b50813567ffffffffffffffff81111561222157600080fd5b6020830191508360208260051b850101111561223c57600080fd5b9250929050565b6000806000806040858703121561225957600080fd5b843567ffffffffffffffff8082111561227157600080fd5b61227d888389016121f7565b9096509450602087013591508082111561229657600080fd5b506122a3878288016121f7565b95989497509550505050565b80356001600160a01b03811681146122c657600080fd5b919050565b600080604083850312156122de57600080fd5b823591506122ee602084016122af565b90509250929050565b6000806040838503121561230a57600080fd5b612313836122af565b946020939093013593505050565b803560ff811681146122c657600080fd5b60006020828403121561234457600080fd5b61206c82612321565b60005b83811015612368578181015183820152602001612350565b50506000910152565b6000815180845261238981602086016020860161234d565b601f01601f19169290920160200192915050565b60018060a01b038816815286602082015260ff8616604082015284606082015260e0608082015260006123d360e0830186612371565b60a08301949094525090151560c09091015295945050505050565b60008060006060848603121561240357600080fd5b61240c846122af565b925061241a60208501612321565b9150604084013590509250925092565b6101008101818760005b6004811015612453578151835260209283019290910190600101612434565b5050508560808301528460a08301528360c083015282151560e08301529695505050505050565b60008060008060006080868803121561249257600080fd5b853594506124a260208701612321565b9350604086013567ffffffffffffffff808211156124bf57600080fd5b818801915088601f8301126124d357600080fd5b8135818111156124e257600080fd5b8960208285010111156124f457600080fd5b96999598505060200195606001359392505050565b634e487b7160e01b600052603260045260246000fd5b60006020828403121561253157600080fd5b61206c826122af565b60006020828403121561254c57600080fd5b5051919050565b634e487b7160e01b600052601160045260246000fd5b8082018082111561051957610519612553565b60006001820161258e5761258e612553565b5060010190565b8181038181111561051957610519612553565b600181811c908216806125bc57607f821691505b6020821081036125dc57634e487b7160e01b600052602260045260246000fd5b50919050565b634e487b7160e01b600052604160045260246000fd5b601f82111561089e57600081815260208120601f850160051c8101602086101561261f5750805b601f850160051c820191505b818110156108715782815560010161262b565b815167ffffffffffffffff811115612658576126586125e2565b61266c8161266684546125a8565b846125f8565b602080601f8311600181146126a157600084156126895750858301515b600019600386901b1c1916600185901b178555610871565b600085815260208120601f198616915b828110156126d0578886015182559484019460019091019084016126b1565b50858210156126ee5787850151600019600388901b60f8161c191681555b5050505050600190811b01905550565b808202811582820484141761051957610519612553565b634e487b7160e01b600052601260045260246000fd5b60008261273a5761273a612715565b500490565b60008261274e5761274e612715565b500690565b634e487b7160e01b600052603160045260246000fd5b7f416363657373436f6e74726f6c3a206163636f756e74200000000000000000008152600083516127a181601785016020880161234d565b7001034b99036b4b9b9b4b733903937b6329607d1b60179184019182015283516127d281602884016020880161234d565b01602801949350505050565b60208152600061206c6020830184612371565b60006020828403121561280357600080fd5b8151801515811461206c57600080fd5b60ff818116838216029081169081811461282f5761282f612553565b5092915050565b60008161284557612845612553565b506000190190565b6000825161285f81846020870161234d565b919091019291505056fea26469706673582212204a44427a8348014c5419b741f6f93f9f9389bcbed06304bb61685db5bc732b1a64736f6c63430008130033",
  "linkReferences": {},
  "deployedLinkReferences": {}
}