{
  "_format": "hh-sol-artifact-1",
  "contractName": "AutophageToken",
  "sourceName": "contracts/AutophageToken.sol",
  "abi": [
    {
      "inputs": [],
      "stateMutability": "nonpayable",
      "type": "constructor"
    },
    {
      "anonymous": false,
      "inputs": [
        {
          "indexed": true,
          "internalType": "address",
          "name": "user",
          "type": "address"
        },
        {
          "indexed": true,
          "internalType": "uint8",
          "name": "species",
          "type": "uint8"
        },
        {
          "indexed": false,
          "internalType": "uint256",
          "name": "amount",
          "type": "uint256"
        }
      ],
      "name": "DecayApplied",
      "type": "event"
    },
    {
      "anonymous": false,
      "inputs": [
        {
          "indexed": true,
          "internalType": "uint8",
          "name": "species",
          "type": "uint8"
        },
        {
          "indexed": false,
          "internalType": "uint256",
          "name": "oldRate",
          "type": "uint256"
        },
        {
          "indexed": false,
          "internalType": "uint256",
          "name": "newRate",
          "type": "uint256"
        }
      ],
      "name": "DecayRateUpdated",
      "type": "event"
    },
    {
      "anonymous": false,
      "inputs": [
        {
          "indexed": true,
          "internalType": "address",
          "name": "to",
          "type": "address"
        },
        {
          "indexed": true,
          "internalType": "uint8",
          "name": "species",
          "type": "uint8"
        },
        {
          "indexed": false,
          "internalType": "uint256",
          "name": "amount",
          "type": "uint256"
        }
      ],
      "name": "Mint",
      "type": "event"
    },
    {
      "anonymous": false,
      "inputs": [
        {
          "indexed": false,
          "internalType": "address",
          "name": "account",
          "type": "address"
        }
      ],
      "name": "Paused",
      "type": "event"
    },
    {
      "anonymous": false,
      "inputs": [
        {
          "indexed": true,
          "internalType": "bytes32",
          "name": "role",
          "type": "bytes32"
        },
        {
          "indexed": true,
          "internalType": "bytes32",
          "name": "previousAdminRole",
          "type": "bytes32"
        },
        {
          "indexed": true,
          "internalType": "bytes32",
          "name": "newAdminRole",
          "type": "bytes32"
        }
      ],
      "name": "RoleAdminChanged",
      "type": "event"
    },
    {
      "anonymous": false,
      "inputs": [
        {
          "indexed": true,
          "internalType": "bytes32",
          "name": "role",
          "type": "bytes32"
        },
        {
          "indexed": true,
          "internalType": "address",
          "name": "account",
          "type": "address"
        },
        {
          "indexed": true,
          "internalType": "address",
          "name": "sender",
          "type": "address"
        }
      ],
      "name": "RoleGranted",
      "type": "event"
    },
    {
      "anonymous": false,
      "inputs": [
        {
          "indexed": true,
          "internalType": "bytes32",
          "name": "role",
          "type": "bytes32"
        },
        {
          "indexed": true,
          "internalType": "address",
          "name": "account",
          "type": "address"
        },
        {
          "indexed": true,
          "internalType": "address",
          "name": "sender",
          "type": "address"
        }
      ],
      "name": "RoleRevoked",
      "type": "event"
    },
    {
      "anonymous": false,
      "inputs": [
        {
          "indexed": true,
          "internalType": "address",
          "name": "from",
          "type": "address"
        },
        {
          "indexed": true,
          "internalType": "address",
          "name": "to",
          "type": "address"
        },
        {
          "indexed": true,
          "internalType": "uint8",
          "name": "species",
          "type": "uint8"
        },
        {
          "indexed": false,
          "internalType": "uint256",
          "name": "amount",
          "type": "uint256"
        },
        {
          "indexed": false,
          "internalType": "uint256",
          "name": "decayAmount",
          "type": "uint256"
        }
      ],
      "name": "Transfer",
      "type": "event"
    },
    {
      "anonymous": false,
      "inputs": [
        {
          "indexed": false,
          "internalType": "address",
          "name": "account",
          "type": "address"
        }
      ],
      "name": "Unpaused",
      "type": "event"
    },
    {
      "anonymous": false,
      "inputs": [
        {
          "indexed": true,
          "internalType": "address",
          "name": "user",
          "type": "address"
        },
        {
          "indexed": true,
          "internalType": "uint8",
          "name": "species",
          "type": "uint8"
        },
        {
          "indexed": false,
          "internalType": "uint256",
          "name": "amount",
          "type": "uint256"
        },
        {
          "indexed": false,
          "internalType": "uint256",
          "name": "lockDuration",
          "type": "uint256"
        }
      ],
      "name": "VaultLocked",
      "type": "event"
    },
    {
      "inputs": [],
      "name": "CATALYST",
      "outputs": [
        {
          "internalType": "uint8",
          "name": "",
          "type": "uint8"
        }
      ],
      "stateMutability": "view",
      "type": "function"
    },
    {
      "inputs": [],
      "name": "DEFAULT_ADMIN_ROLE",
      "outputs": [
        {
          "internalType": "bytes32",
          "name": "",
          "type": "bytes32"
        }
      ],
      "stateMutability": "view",
      "type": "function"
    },
    {
      "inputs": [],
      "name": "FOUNDATION",
      "outputs": [
        {
          "internalType": "uint8",
          "name": "",
          "type": "uint8"
        }
      ],
      "stateMutability": "view",
      "type": "function"
    },
    {
      "inputs": [],
      "name": "GOVERNANCE_ROLE",
      "outputs": [
        {
          "internalType": "bytes32",
          "name": "",
          "type": "bytes32"
        }
      ],
      "stateMutability": "view",
      "type": "function"
    },
    {
      "inputs": [],
      "name": "HEALING",
      "outputs": [
        {
          "internalType": "uint8",
          "name": "",
          "type": "uint8"
        }
      ],
      "stateMutability": "view",
      "type": "function"
    },
    {
      "inputs": [],
      "name": "MINTER_ROLE",
      "outputs": [
        {
          "internalType": "bytes32",
          "name": "",
          "type": "bytes32"
        }
      ],
      "stateMutability": "view",
      "type": "function"
    },
    {
      "inputs": [],
      "name": "RESERVOIR_ROLE",
      "outputs": [
        {
          "internalType": "bytes32",
          "name": "",
          "type": "bytes32"
        }
      ],
      "stateMutability": "view",
      "type": "function"
    },
    {
      "inputs": [],
      "name": "RHYTHM",
      "outputs": [
        {
          "internalType": "uint8",
          "name": "",
          "type": "uint8"
        }
      ],
      "stateMutability": "view",
      "type": "function"
    },
    {
      "inputs": [
        {
          "internalType": "address",
          "name": "user",
          "type": "address"
        },
        {
          "internalType": "uint8",
          "name": "species",
          "type": "uint8"
        }
      ],
      "name": "balanceOf",
      "outputs": [
        {
          "internalType": "uint256",
          "name": "",
          "type": "uint256"
        }
      ],
      "stateMutability": "view",
      "type": "function"
    },
    {
      "inputs": [
        {
          "internalType": "address[]",
          "name": "users",
          "type": "address[]"
        },
        {
          "internalType": "uint8[]",
          "name": "species",
          "type": "uint8[]"
        }
      ],
      "name": "collectDecay",
      "outputs": [
        {
          "internalType": "uint256",
          "name": "totalDecayed",
          "type": "uint256"
        }
      ],
      "stateMutability": "nonpayable",
      "type": "function"
    },
    {
      "inputs": [
        {
          "internalType": "uint8",
          "name": "",
          "type": "uint8"
        }
      ],
      "name": "decayRates",
      "outputs": [
        {
          "internalType": "uint256",
          "name": "",
          "type": "uint256"
        }
      ],
      "stateMutability": "view",
      "type": "function"
    },
    {
      "inputs": [
        {
          "internalType": "address",
          "name": "user",
          "type": "address"
        }
      ],
      "name": "getAllBalances",
      "outputs": [
        {
          "internalType": "uint256[4]",
          "name": "",
          "type": "uint256[4]"
        }
      ],
      "stateMutability": "view",
      "type": "function"
    },
    {
      "inputs": [
        {
          "internalType": "bytes32",
          "name": "role",
          "type": "bytes32"
        }
      ],
      "name": "getRoleAdmin",
      "outputs": [
        {
          "internalType": "bytes32",
          "name": "",
          "type": "bytes32"
        }
      ],
      "stateMutability": "view",
      "type": "function"
    },
    {
      "inputs": [
        {
          "internalType": "bytes32",
          "name": "role",
          "type": "bytes32"
        },
        {
          "internalType": "address",
          "name": "account",
          "type": "address"
        }
      ],
      "name": "grantRole",
      "outputs": [],
      "stateMutability": "nonpayable",
      "type": "function"
    },
    {
      "inputs": [
        {
          "internalType": "bytes32",
          "name": "role",
          "type": "bytes32"
        },
        {
          "internalType": "address",
          "name": "account",
          "type": "address"
        }
      ],
      "name": "hasRole",
      "outputs": [
        {
          "internalType": "bool",
          "name": "",
          "type": "bool"
        }
      ],
      "stateMutability": "view",
      "type": "function"
    },
    {
      "inputs": [
        {
          "internalType": "uint8",
          "name": "species",
          "type": "uint8"
        },
        {
          "internalType": "uint256",
          "name": "amount",
          "type": "uint256"
        },
        {
          "internalType": "uint256",
          "name": "lockDays",
          "type": "uint256"
        }
      ],
      "name": "lockInVault",
      "outputs": [],
      "stateMutability": "nonpayable",
      "type": "function"
    },
    {
      "inputs": [
        {
          "internalType": "address",
          "name": "to",
          "type": "address"
        },
        {
          "internalType": "uint8",
          "name": "species",
          "type": "uint8"
        },
        {
          "internalType": "uint256",
          "name": "amount",
          "type": "uint256"
        }
      ],
      "name": "mint",
      "outputs": [],
      "stateMutability": "nonpayable",
      "type": "function"
    },
    {
      "inputs": [],
      "name": "pause",
      "outputs": [],
      "stateMutability": "nonpayable",
      "type": "function"
    },
    {
      "inputs": [],
      "name": "paused",
      "outputs": [
        {
          "internalType": "bool",
          "name": "",
          "type": "bool"
        }
      ],
      "stateMutability": "view",
      "type": "function"
    },
    {
      "inputs": [
        {
          "internalType": "bytes32",
          "name": "role",
          "type": "bytes32"
        },
        {
          "internalType": "address",
          "name": "account",
          "type": "address"
        }
      ],
      "name": "renounceRole",
      "outputs": [],
      "stateMutability": "nonpayable",
      "type": "function"
    },
    {
      "inputs": [
        {
          "internalType": "bytes32",
          "name": "role",
          "type": "bytes32"
        },
        {
          "internalType": "address",
          "name": "account",
          "type": "address"
        }
      ],
      "name": "revokeRole",
      "outputs": [],
      "stateMutability": "nonpayable",
      "type": "function"
    },
    {
      "inputs": [
        {
          "internalType": "bytes4",
          "name": "interfaceId",
          "type": "bytes4"
        }
      ],
      "name": "supportsInterface",
      "outputs": [
        {
          "internalType": "bool",
          "name": "",
          "type": "bool"
        }
      ],
      "stateMutability": "view",
      "type": "function"
    },
    {
      "inputs": [
        {
          "internalType": "uint8",
          "name": "",
          "type": "uint8"
        }
      ],
      "name": "totalSupply",
      "outputs": [
        {
          "internalType": "uint256",
          "name": "",
          "type": "uint256"
        }
      ],
      "stateMutability": "view",
      "type": "function"
    },
    {
      "inputs": [
        {
          "internalType": "address",
          "name": "to",
          "type": "address"
        },
        {
          "internalType": "uint8",
          "name": "species",
          "type": "uint8"
        },
        {
          "internalType": "uint256",
          "name": "amount",
          "type": "uint256"
        }
      ],
      "name": "transfer",
      "outputs": [
        {
          "internalType": "bool",
          "name": "",
          "type": "bool"
        }
      ],
      "stateMutability": "nonpayable",
      "type": "function"
    },
    {
      "inputs": [],
      "name": "unpause",
      "outputs": [],
      "stateMutability": "nonpayable",
      "type": "function"
    },
    {
      "inputs": [
        {
          "internalType": "uint8",
          "name": "species",
          "type": "uint8"
        },
        {
          "internalType": "uint256",
          "name": "newRate",
          "type": "uint256"
        }
      ],
      "name": "updateDecayRate",
      "outputs": [],
      "stateMutability": "nonpayable",
      "type": "function"
    },
    {
      "inputs": [
        {
          "internalType": "uint8",
          "name": "",
          "type": "uint8"
        },
        {
          "internalType": "uint256",
          "name": "",
          "type": "uint256"
        }
      ],
      "name": "whaleMultipliers",
      "outputs": [
        {
          "internalType": "uint256",
          "name": "",
          "type": "uint256"
        }
      ],
      "stateMutability": "view",
      "type": "function"
    },
    {
      "inputs": [
        {
          "internalType": "uint8",
          "name": "",
          "type": "uint8"
        },
        {
          "internalType": "uint256",
          "name": "",
          "type": "uint256"
        }
      ],
      "name": "whaleThresholds",
      "outputs": [
        {
          "internalType": "uint256",
          "name": "",
          "type": "uint256"
        }
      ],
      "stateMutability": "view",
      "type": "function"
    }
  ],
  "bytecode": "0x60806040523480156200001157600080fd5b50600180556002805460ff191690556200002d6000336200021d565b620000597f71840dc4906352362b0cdaf79870196c8e42acafade72d5d5a6d59291253ceb1336200021d565b600460205266b1a2bc2ec500007f17ef568e3e12ab5b9c7254a8d58478811de00f9e6eb34345acd53bf8fd09d3ec819055661aa535d3d0c0007fabd6e7cb50984ff9c2f3e18a2660c3353dadf4e3291deeb275dae2cd1e44fe055566038d7ea4c680007f91da3fd0782e51c6b3986e9e672fd566868e71f3dbc2d6c2cd6fbb3e361af2a75560036000527f2e174c10e159ea99b867ce3205125c24a42d128804e4070ed6fcc8cc98166aa05560408051606081019091528062000127670de0b6b3a764000061271062000338565b815260200162000142670de0b6b3a764000061c35062000338565b81526020016200015e670de0b6b3a7640000620186a062000338565b905260008052600660205262000198907f54cdd369e4e8a8515e52ca72ec816c2101831ad1f18bf44102ed171459c9b4f8906003620002d1565b5060408051608081018252670de0b6b3a764000081526714d1120d7b160000602080830191909152671bc16d674ec80000928201929092526729a2241af62c0000606082015260008052600790915262000216907f6d5257204ebe7d88fd91ae87941cb2dd9d8062b64ae5a2bd2d28ec40b9fbf6df906004620002d1565b506200035e565b620002298282620002a6565b620002a2576000828152602081815260408083206001600160a01b03851684529091529020805460ff19166001179055620002613390565b6001600160a01b0316816001600160a01b0316837f2f8788117e7eff1d82e926ec794901d17c78024a50270940304540a733656f0d60405160405180910390a45b5050565b6000828152602081815260408083206001600160a01b038516845290915290205460ff165b92915050565b8280548282559060005260206000209081019282156200030f579160200282015b828111156200030f578251825591602001919060010190620002f2565b506200031d92915062000321565b5090565b5b808211156200031d576000815560010162000322565b8082028115828204841417620002cb57634e487b7160e01b600052601160045260246000fd5b611f3d806200036e6000396000f3fe608060405234801561001057600080fd5b50600436106101c45760003560e01c806367412045116100f9578063a7c3fce711610097578063c85d171211610071578063c85d1712146103c9578063d5391393146103d1578063d547741f146103f8578063f36c8f5c1461040b57600080fd5b8063a7c3fce71461038e578063b0a3996e14610396578063c53d6ce1146103a957600080fd5b80638456cb59116100d35780638456cb591461034b57806391d1485414610353578063a217fddf14610366578063a388b3b51461036e57600080fd5b8063674120451461031257806370904483146103255780637d5ffe211461033857600080fd5b80633f4ba83a116101665780634ed387b2116101405780634ed387b2146102d2578063598150b2146102e55780635c975abb146102ff57806365df2e511461030a57600080fd5b80633f4ba83a1461029757806345881d0b1461029f578063496d9f44146102b257600080fd5b80632741ef17116101a25780632741ef17146102495780632f2ff15d1461025c5780633431757c1461027157806336568abe1461028457600080fd5b806301ffc9a7146101c957806319ccd5ee146101f1578063248a9ca314610226575b600080fd5b6101dc6101d7366004611a9e565b610432565b60405190151581526020015b60405180910390f35b6102187fcfd434139d70347fd097c11cc39da980977996175f8d0cd5219f61ed0070f3b381565b6040519081526020016101e8565b610218610234366004611ac8565b60009081526020819052604090206001015490565b610218610257366004611af7565b610469565b61026f61026a366004611b38565b61049a565b005b61026f61027f366004611af7565b6104c4565b61026f610292366004611b38565b6105bc565b61026f61063a565b61026f6102ad366004611b64565b610650565b6102186102c0366004611b97565b60056020526000908152604090205481565b61026f6102e0366004611bb2565b61089c565b6102ed600381565b60405160ff90911681526020016101e8565b60025460ff166101dc565b6102ed600281565b610218610320366004611bee565b610a5b565b6101dc610333366004611bb2565b610ba9565b610218610346366004611af7565b610e2a565b61026f610e46565b6101dc610361366004611b38565b610e59565b610218600081565b61021861037c366004611b97565b60046020526000908152604090205481565b6102ed600181565b6102186103a4366004611c63565b610e82565b6103bc6103b7366004611cce565b610fe1565b6040516101e89190611ce9565b6102ed600081565b6102187f9f2df0fed2c77648de5860a4cc508cd0818c85b8b8a1ab4ceeef8d981c8956a681565b61026f610406366004611b38565b611037565b6102187f71840dc4906352362b0cdaf79870196c8e42acafade72d5d5a6d59291253ceb181565b60006001600160e01b03198216637965db0b60e01b148061046357506301ffc9a760e01b6001600160e01b03198316145b92915050565b6007602052816000526040600020818154811061048557600080fd5b90600052602060002001600091509150505481565b6000828152602081905260409020600101546104b58161105c565b6104bf8383611066565b505050565b7f71840dc4906352362b0cdaf79870196c8e42acafade72d5d5a6d59291253ceb16104ee8161105c565b60048360ff161061051a5760405162461bcd60e51b815260040161051190611d1a565b60405180910390fd5b67016345785d8a00008211156105625760405162461bcd60e51b815260206004820152600d60248201526c0a4c2e8ca40e8dede40d0d2ced609b1b6044820152606401610511565b60ff8316600081815260046020908152604091829020805490869055825181815291820186905292917f5fe4ec169dd2e350332e390738cc0e826afd8dd8cd51a28c639b819743c7f84f910160405180910390a250505050565b6001600160a01b038116331461062c5760405162461bcd60e51b815260206004820152602f60248201527f416363657373436f6e74726f6c3a2063616e206f6e6c792072656e6f756e636560448201526e103937b632b9903337b91039b2b63360891b6064820152608401610511565b61063682826110ea565b5050565b60006106458161105c565b61064d61114f565b50565b6106586111a1565b6106606111fa565b60048360ff16106106835760405162461bcd60e51b815260040161051190611d1a565b601e8110158015610696575061016d8111155b6106e25760405162461bcd60e51b815260206004820152601f60248201527f4c6f636b20706572696f64206d7573742062652033302d3336352064617973006044820152606401610511565b6000821161072c5760405162461bcd60e51b8152602060048201526017602482015276416d6f756e74206d75737420626520706f73697469766560481b6044820152606401610511565b60006107383385611242565b9050828110156107815760405162461bcd60e51b8152602060048201526014602482015273496e73756666696369656e742062616c616e636560601b6044820152606401610511565b33600090815260036020908152604080832060ff8816845290915290205442600160c01b9091046001600160401b031611156107f05760405162461bcd60e51b815260206004820152600e60248201526d105b1c9958591e481b1bd8dad95960921b6044820152606401610511565b60006107ff6201518084611d59565b905061080b8142611d70565b33600081815260036020908152604080832060ff8b1680855292529182902080546001600160401b0395909516600160c01b026001600160c01b0390951694909417909355517fcebf0ddba10e8c31e8033a2f05c648b4c997e4d173a310387c37be455f46d88b906108899088908690918252602082015260400190565b60405180910390a350506104bf60018055565b7f9f2df0fed2c77648de5860a4cc508cd0818c85b8b8a1ab4ceeef8d981c8956a66108c68161105c565b6108ce6111fa565b6001600160a01b0384166109185760405162461bcd60e51b8152602060048201526011602482015270125b9d985b1a59081c9958da5c1a595b9d607a1b6044820152606401610511565b60048360ff161061093b5760405162461bcd60e51b815260040161051190611d1a565b600082116109855760405162461bcd60e51b8152602060048201526017602482015276416d6f756e74206d75737420626520706f73697469766560481b6044820152606401610511565b60006109918585611242565b905061099d8382611d70565b6001600160a01b038616600090815260036020908152604080832060ff89168452825280832080546001600160801b03959095166001600160c01b031990951694909417600160801b426001600160401b03160217909355600590529081208054859290610a0c908490611d70565b909155505060405183815260ff8516906001600160a01b038716907ffe446fb36fbb8c47e4ee0d7e1e9fca431c3a2314854d8de0f3bb04fa156d6e719060200160405180910390a35050505050565b600060048260ff1610610a805760405162461bcd60e51b815260040161051190611d1a565b6001600160a01b038316600090815260036020908152604080832060ff861684528252808320815160608101835290546001600160801b0381168083526001600160401b03600160801b8304811695840195909552600160c01b909104909316918101919091529103610af7576000915050610463565b4281604001516001600160401b03161115610b1e57610b168184611351565b915050610463565b600081602001516001600160401b031642610b399190611d83565b90506000610b4a6201518083611d96565b905080600003610b67575050516001600160801b03169050610463565b6000610b81878786600001516001600160801b0316611422565b90506000610b9d85600001516001600160801b031683856115e6565b98975050505050505050565b6000610bb36111a1565b610bbb6111fa565b6001600160a01b038416610c055760405162461bcd60e51b8152602060048201526011602482015270125b9d985b1a59081c9958da5c1a595b9d607a1b6044820152606401610511565b60048360ff1610610c285760405162461bcd60e51b815260040161051190611d1a565b6000610c343385611242565b905082811015610c7d5760405162461bcd60e51b8152602060048201526014602482015273496e73756666696369656e742062616c616e636560601b6044820152606401610511565b33600090815260036020908152604080832060ff8816845290915290205442600160c01b9091046001600160401b03161115610cf45760405162461bcd60e51b8152602060048201526016602482015275151bdad95b9cc81b1bd8dad959081a5b881d985d5b1d60521b6044820152606401610511565b610cfe8382611d83565b33600090815260036020908152604080832060ff89168452909152812080546001600160801b03939093166001600160c01b031990931692909217600160801b426001600160401b03160217909155610d578686611242565b9050610d638482611d70565b6001600160a01b038716600090815260036020908152604080832060ff8a168452909152812080546001600160801b03939093166001600160c01b031990931692909217600160801b426001600160401b03160217909155610dc53387611665565b604080518781526020810183905291925060ff8816916001600160a01b038a169133917fe5ff0d2b76d23d83b4f100713c827146903cb7c83470e5f991586d2a4cbe5e9d910160405180910390a460019350505050610e2360018055565b9392505050565b6006602052816000526040600020818154811061048557600080fd5b6000610e518161105c565b61064d611725565b6000918252602082815260408084206001600160a01b0393909316845291905290205460ff1690565b60007fcfd434139d70347fd097c11cc39da980977996175f8d0cd5219f61ed0070f3b3610eae8161105c565b848314610ef55760405162461bcd60e51b8152602060048201526015602482015274082e4e4c2f240d8cadccee8d040dad2e6dac2e8c6d605b1b6044820152606401610511565b60005b85811015610fd7576000610f58888884818110610f1757610f17611db8565b9050602002016020810190610f2c9190611cce565b878785818110610f3e57610f3e611db8565b9050602002016020810190610f539190611b97565b611665565b90508015610fc457610fb6888884818110610f7557610f75611db8565b9050602002016020810190610f8a9190611cce565b878785818110610f9c57610f9c611db8565b9050602002016020810190610fb19190611b97565b611242565b50610fc18185611d70565b93505b5080610fcf81611dce565b915050610ef8565b5050949350505050565b610fe9611a80565b6040518060800160405280610fff846000610a5b565b815260200161100f846001610a5b565b815260200161101f846002610a5b565b815260200161102f846003610a5b565b905292915050565b6000828152602081905260409020600101546110528161105c565b6104bf83836110ea565b61064d8133611762565b6110708282610e59565b610636576000828152602081815260408083206001600160a01b03851684529091529020805460ff191660011790556110a63390565b6001600160a01b0316816001600160a01b0316837f2f8788117e7eff1d82e926ec794901d17c78024a50270940304540a733656f0d60405160405180910390a45050565b6110f48282610e59565b15610636576000828152602081815260408083206001600160a01b0385168085529252808320805460ff1916905551339285917ff6391f5c32d9c69d2a47ea670b442974b53935d1edc7fd64eb21e047a839171b9190a45050565b6111576117bb565b6002805460ff191690557f5db9ee0a495bf2e6ff9c91a7834c1ba4fdd244a5e8aa4e537bd38aeae4b073aa335b6040516001600160a01b03909116815260200160405180910390a1565b6002600154036111f35760405162461bcd60e51b815260206004820152601f60248201527f5265656e7472616e637947756172643a207265656e7472616e742063616c6c006044820152606401610511565b6002600155565b60025460ff16156112405760405162461bcd60e51b815260206004820152601060248201526f14185d5cd8589b194e881c185d5cd95960821b6044820152606401610511565b565b6001600160a01b038216600090815260036020908152604080832060ff85168452909152812080546001600160801b031682036112a457805467ffffffffffffffff60801b1916600160801b426001600160401b031602179055506000610463565b60006112b08585610a5b565b82549091506000906112cc9083906001600160801b0316611d83565b9050801561131c578460ff16866001600160a01b03167fc69c91ba5f5913e26138489c21e28ec634a1150b5308c549b9ea252053c982208360405161131391815260200190565b60405180910390a35b5081546001600160801b0382166001600160c01b031990911617600160801b426001600160401b031602179091559392505050565b600080836020015184604001516113689190611de7565b6001600160401b0316905060006113826201518083611d96565b9050600061138f82611804565b90506000670de0b6b3a76400006113a68382611d83565b60ff88166000908152600460205260409020546113c39190611d59565b6113cd9190611d96565b9050600087602001516001600160401b0316426113ea9190611d83565b905060006113fb6201518083611d96565b905061141589600001516001600160801b031684836115e6565b9998505050505050505050565b600060ff8316151580611445575060ff8316600090815260066020526040902054155b15611463575060ff8216600090815260046020526040902054610e23565b60ff83166000908152600660209081526040808320805482518185028101850190935280835291929091908301828280156114bd57602002820191906000526020600020905b8154815260200190600101908083116114a9575b5050505060ff86166000908152600760209081526040808320805482518185028101850190935280835295965092949093509083018282801561151f57602002820191906000526020600020905b81548152602001906001019080831161150b575b505085519394505050505b80156115c7578261153c600183611d83565b8151811061154c5761154c611db8565b602002602001015185106115b557670de0b6b3a764000082828151811061157557611575611db8565b6020026020010151600460008960ff1660ff168152602001908152602001600020546115a19190611d59565b6115ab9190611d96565b9350505050610e23565b806115bf81611e0e565b91505061152a565b50505060ff831660009081526004602052604090205490509392505050565b60008115806115f3575082155b156115ff575082610e23565b600061161384670de0b6b3a7640000611d83565b9050600061162a8285670de0b6b3a764000061185b565b9050611647670de0b6b3a764000085670de0b6b3a764000061185b565b6116518288611d59565b61165b9190611d96565b9695505050505050565b6001600160a01b038216600090815260036020908152604080832060ff851684528252808320815160608101835290546001600160801b0381168083526001600160401b03600160801b8304811695840195909552600160c01b909104909316918101919091529082036116dd576000915050610463565b60006116e98585610a5b565b90508082600001516001600160801b03161161170657600061171c565b815161171c9082906001600160801b0316611d83565b95945050505050565b61172d6111fa565b6002805460ff191660011790557f62e78cea01bee320cd4e420270b5ea74000d11b0c9f74754ebdbfc544b05a2586111843390565b61176c8282610e59565b61063657611779816118d3565b6117848360206118e5565b604051602001611795929190611e49565b60408051601f198184030181529082905262461bcd60e51b825261051191600401611ebe565b60025460ff166112405760405162461bcd60e51b815260206004820152601460248201527314185d5cd8589b194e881b9bdd081c185d5cd95960621b6044820152606401610511565b600061016d821061181e5750670c7d713b49da0000919050565b60b48210611835575067063eb89da4ed0000919050565b605a821061184c57506703bf3b91c95b0000919050565b5067013fbe85edc90000919050565b60008260000361186c575080610e23565b8260010361187b575082610e23565b81845b84156118ca57846001166001036118a7578361189a8284611d59565b6118a49190611d96565b91505b836118b28280611d59565b6118bc9190611d96565b9050600185901c945061187e565b50949350505050565b60606104636001600160a01b03831660145b606060006118f4836002611d59565b6118ff906002611d70565b6001600160401b0381111561191657611916611ef1565b6040519080825280601f01601f191660200182016040528015611940576020820181803683370190505b509050600360fc1b8160008151811061195b5761195b611db8565b60200101906001600160f81b031916908160001a905350600f60fb1b8160018151811061198a5761198a611db8565b60200101906001600160f81b031916908160001a90535060006119ae846002611d59565b6119b9906001611d70565b90505b6001811115611a31576f181899199a1a9b1b9c1cb0b131b232b360811b85600f16601081106119ed576119ed611db8565b1a60f81b828281518110611a0357611a03611db8565b60200101906001600160f81b031916908160001a90535060049490941c93611a2a81611e0e565b90506119bc565b508315610e235760405162461bcd60e51b815260206004820181905260248201527f537472696e67733a20686578206c656e67746820696e73756666696369656e746044820152606401610511565b60405180608001604052806004906020820280368337509192915050565b600060208284031215611ab057600080fd5b81356001600160e01b031981168114610e2357600080fd5b600060208284031215611ada57600080fd5b5035919050565b803560ff81168114611af257600080fd5b919050565b60008060408385031215611b0a57600080fd5b611b1383611ae1565b946020939093013593505050565b80356001600160a01b0381168114611af257600080fd5b60008060408385031215611b4b57600080fd5b82359150611b5b60208401611b21565b90509250929050565b600080600060608486031215611b7957600080fd5b611b8284611ae1565b95602085013595506040909401359392505050565b600060208284031215611ba957600080fd5b610e2382611ae1565b600080600060608486031215611bc757600080fd5b611bd084611b21565b9250611bde60208501611ae1565b9150604084013590509250925092565b60008060408385031215611c0157600080fd5b611c0a83611b21565b9150611b5b60208401611ae1565b60008083601f840112611c2a57600080fd5b5081356001600160401b03811115611c4157600080fd5b6020830191508360208260051b8501011115611c5c57600080fd5b9250929050565b60008060008060408587031215611c7957600080fd5b84356001600160401b0380821115611c9057600080fd5b611c9c88838901611c18565b90965094506020870135915080821115611cb557600080fd5b50611cc287828801611c18565b95989497509550505050565b600060208284031215611ce057600080fd5b610e2382611b21565b60808101818360005b6004811015611d11578151835260209283019290910190600101611cf2565b50505092915050565b6020808252600f908201526e496e76616c6964207370656369657360881b604082015260600190565b634e487b7160e01b600052601160045260246000fd5b808202811582820484141761046357610463611d43565b8082018082111561046357610463611d43565b8181038181111561046357610463611d43565b600082611db357634e487b7160e01b600052601260045260246000fd5b500490565b634e487b7160e01b600052603260045260246000fd5b600060018201611de057611de0611d43565b5060010190565b6001600160401b03828116828216039080821115611e0757611e07611d43565b5092915050565b600081611e1d57611e1d611d43565b506000190190565b60005b83811015611e40578181015183820152602001611e28565b50506000910152565b7f416363657373436f6e74726f6c3a206163636f756e7420000000000000000000815260008351611e81816017850160208801611e25565b7001034b99036b4b9b9b4b733903937b6329607d1b6017918401918201528351611eb2816028840160208801611e25565b01602801949350505050565b6020815260008251806020840152611edd816040850160208701611e25565b601f01601f19169190910160400192915050565b634e487b7160e01b600052604160045260246000fdfea26469706673582212209c30133451486e6c8236ba990eff28eb3591b2856ddac0de9e69b62b6abaf59764736f6c63430008130033",
  "linkReferences": {},
  "deployedLinkReferences": {}
}