{
  "_format": "hh-sol-artifact-1",
  "contractName": "VerificationEngine",
  "sourceName": "contracts/VerificationEngine.sol",
  "abi": [
    {
      "inputs": [
        {
          "internalType": "address",
          "name": "_token",
          "type": "address"
        },
        {
          "internalType": "address",
          "name": "_reservoir",
          "type": "address"
        }
      ],
      "stateMutability": "nonpayable",
      "type": "constructor"
    },
    {
      "anonymous": false,
      "inputs": [
        {
          "indexed": true,
          "internalType": "address",
          "name": "app",
          "type": "address"
        },
        {
          "indexed": false,
          "internalType": "uint256",
          "name": "stake",
          "type": "uint256"
        }
      ],
      "name": "AppRegistered",
      "type": "event"
    },
    {
      "anonymous": false,
      "inputs": [
        {
          "indexed": true,
          "internalType": "address",
          "name": "app",
          "type": "address"
        },
        {
          "indexed": false,
          "internalType": "uint256",
          "name": "amount",
          "type": "uint256"
        },
        {
          "indexed": false,
          "internalType": "string",
          "name": "reason",
          "type": "string"
        }
      ],
      "name": "AppSlashed",
      "type": "event"
    },
    {
      "anonymous": false,
      "inputs": [
        {
          "indexed": false,
          "internalType": "uint256",
          "name": "count",
          "type": "uint256"
        },
        {
          "indexed": false,
          "internalType": "uint256",
          "name": "totalRewards",
          "type": "uint256"
        }
      ],
      "name": "BatchProofVerified",
      "type": "event"
    },
    {
      "anonymous": false,
      "inputs": [
        {
          "indexed": true,
          "internalType": "bytes32",
          "name": "profileId",
          "type": "bytes32"
        },
        {
          "indexed": false,
          "internalType": "string",
          "name": "traitName",
          "type": "string"
        },
        {
          "indexed": false,
          "internalType": "uint256",
          "name": "cost",
          "type": "uint256"
        }
      ],
      "name": "GeneticTraitEvolved",
      "type": "event"
    },
    {
      "anonymous": false,
      "inputs": [
        {
          "indexed": false,
          "internalType": "address",
          "name": "account",
          "type": "address"
        }
      ],
      "name": "Paused",
      "type": "event"
    },
    {
      "anonymous": false,
      "inputs": [
        {
          "indexed": true,
          "internalType": "bytes32",
          "name": "profileId",
          "type": "bytes32"
        },
        {
          "indexed": true,
          "internalType": "uint8",
          "name": "activityType",
          "type": "uint8"
        },
        {
          "indexed": false,
          "internalType": "uint256",
          "name": "reward",
          "type": "uint256"
        },
        {
          "indexed": false,
          "internalType": "uint256",
          "name": "multiplier",
          "type": "uint256"
        }
      ],
      "name": "ProofVerified",
      "type": "event"
    },
    {
      "anonymous": false,
      "inputs": [
        {
          "indexed": true,
          "internalType": "bytes32",
          "name": "role",
          "type": "bytes32"
        },
        {
          "indexed": true,
          "internalType": "bytes32",
          "name": "previousAdminRole",
          "type": "bytes32"
        },
        {
          "indexed": true,
          "internalType": "bytes32",
          "name": "newAdminRole",
          "type": "bytes32"
        }
      ],
      "name": "RoleAdminChanged",
      "type": "event"
    },
    {
      "anonymous": false,
      "inputs": [
        {
          "indexed": true,
          "internalType": "bytes32",
          "name": "role",
          "type": "bytes32"
        },
        {
          "indexed": true,
          "internalType": "address",
          "name": "account",
          "type": "address"
        },
        {
          "indexed": true,
          "internalType": "address",
          "name": "sender",
          "type": "address"
        }
      ],
      "name": "RoleGranted",
      "type": "event"
    },
    {
      "anonymous": false,
      "inputs": [
        {
          "indexed": true,
          "internalType": "bytes32",
          "name": "role",
          "type": "bytes32"
        },
        {
          "indexed": true,
          "internalType": "address",
          "name": "account",
          "type": "address"
        },
        {
          "indexed": true,
          "internalType": "address",
          "name": "sender",
          "type": "address"
        }
      ],
      "name": "RoleRevoked",
      "type": "event"
    },
    {
      "anonymous": false,
      "inputs": [
        {
          "indexed": false,
          "internalType": "address",
          "name": "account",
          "type": "address"
        }
      ],
      "name": "Unpaused",
      "type": "event"
    },
    {
      "inputs": [],
      "name": "APP_ROLE",
      "outputs": [
        {
          "internalType": "bytes32",
          "name": "",
          "type": "bytes32"
        }
      ],
      "stateMutability": "view",
      "type": "function"
    },
    {
      "inputs": [],
      "name": "DEFAULT_ADMIN_ROLE",
      "outputs": [
        {
          "internalType": "bytes32",
          "name": "",
          "type": "bytes32"
        }
      ],
      "stateMutability": "view",
      "type": "function"
    },
    {
      "inputs": [],
      "name": "ORACLE_ROLE",
      "outputs": [
        {
          "internalType": "bytes32",
          "name": "",
          "type": "bytes32"
        }
      ],
      "stateMutability": "view",
      "type": "function"
    },
    {
      "inputs": [],
      "name": "VERIFIER_ROLE",
      "outputs": [
        {
          "internalType": "bytes32",
          "name": "",
          "type": "bytes32"
        }
      ],
      "stateMutability": "view",
      "type": "function"
    },
    {
      "inputs": [
        {
          "internalType": "enum VerificationEngine.ActivityType",
          "name": "",
          "type": "uint8"
        }
      ],
      "name": "activityToSpecies",
      "outputs": [
        {
          "internalType": "uint8",
          "name": "",
          "type": "uint8"
        }
      ],
      "stateMutability": "view",
      "type": "function"
    },
    {
      "inputs": [
        {
          "internalType": "address",
          "name": "",
          "type": "address"
        }
      ],
      "name": "appStakes",
      "outputs": [
        {
          "internalType": "uint256",
          "name": "",
          "type": "uint256"
        }
      ],
      "stateMutability": "view",
      "type": "function"
    },
    {
      "inputs": [
        {
          "internalType": "address",
          "name": "",
          "type": "address"
        }
      ],
      "name": "appViolations",
      "outputs": [
        {
          "internalType": "uint256",
          "name": "",
          "type": "uint256"
        }
      ],
      "stateMutability": "view",
      "type": "function"
    },
    {
      "inputs": [],
      "name": "autophageToken",
      "outputs": [
        {
          "internalType": "contract IAutophageToken",
          "name": "",
          "type": "address"
        }
      ],
      "stateMutability": "view",
      "type": "function"
    },
    {
      "inputs": [
        {
          "internalType": "enum VerificationEngine.ActivityType",
          "name": "",
          "type": "uint8"
        }
      ],
      "name": "baseRewards",
      "outputs": [
        {
          "internalType": "uint256",
          "name": "",
          "type": "uint256"
        }
      ],
      "stateMutability": "view",
      "type": "function"
    },
    {
      "inputs": [
        {
          "components": [
            {
              "internalType": "bytes32",
              "name": "activityHash",
              "type": "bytes32"
            },
            {
              "internalType": "uint8",
              "name": "activityType",
              "type": "uint8"
            },
            {
              "internalType": "uint256",
              "name": "energyExpended",
              "type": "uint256"
            },
            {
              "internalType": "uint256",
              "name": "timestamp",
              "type": "uint256"
            },
            {
              "internalType": "bytes32",
              "name": "profileId",
              "type": "bytes32"
            },
            {
              "internalType": "bytes",
              "name": "proof",
              "type": "bytes"
            },
            {
              "internalType": "bytes",
              "name": "metadata",
              "type": "bytes"
            }
          ],
          "internalType": "struct VerificationEngine.HealthProof[]",
          "name": "proofs",
          "type": "tuple[]"
        }
      ],
      "name": "batchVerifyAndMint",
      "outputs": [
        {
          "internalType": "uint256",
          "name": "totalRewards",
          "type": "uint256"
        }
      ],
      "stateMutability": "nonpayable",
      "type": "function"
    },
    {
      "inputs": [
        {
          "internalType": "bytes32",
          "name": "",
          "type": "bytes32"
        },
        {
          "internalType": "uint8",
          "name": "",
          "type": "uint8"
        }
      ],
      "name": "dailyActivities",
      "outputs": [
        {
          "internalType": "bool",
          "name": "",
          "type": "bool"
        }
      ],
      "stateMutability": "view",
      "type": "function"
    },
    {
      "inputs": [
        {
          "internalType": "bytes32",
          "name": "profileId",
          "type": "bytes32"
        },
        {
          "internalType": "string",
          "name": "traitName",
          "type": "string"
        }
      ],
      "name": "evolveGeneticTrait",
      "outputs": [],
      "stateMutability": "nonpayable",
      "type": "function"
    },
    {
      "inputs": [
        {
          "internalType": "bytes32",
          "name": "",
          "type": "bytes32"
        }
      ],
      "name": "geneticTraitCount",
      "outputs": [
        {
          "internalType": "uint256",
          "name": "",
          "type": "uint256"
        }
      ],
      "stateMutability": "view",
      "type": "function"
    },
    {
      "inputs": [
        {
          "internalType": "bytes32",
          "name": "role",
          "type": "bytes32"
        }
      ],
      "name": "getRoleAdmin",
      "outputs": [
        {
          "internalType": "bytes32",
          "name": "",
          "type": "bytes32"
        }
      ],
      "stateMutability": "view",
      "type": "function"
    },
    {
      "inputs": [
        {
          "internalType": "bytes32",
          "name": "role",
          "type": "bytes32"
        },
        {
          "internalType": "address",
          "name": "account",
          "type": "address"
        }
      ],
      "name": "grantRole",
      "outputs": [],
      "stateMutability": "nonpayable",
      "type": "function"
    },
    {
      "inputs": [
        {
          "internalType": "bytes32",
          "name": "role",
          "type": "bytes32"
        },
        {
          "internalType": "address",
          "name": "account",
          "type": "address"
        }
      ],
      "name": "hasRole",
      "outputs": [
        {
          "internalType": "bool",
          "name": "",
          "type": "bool"
        }
      ],
      "stateMutability": "view",
      "type": "function"
    },
    {
      "inputs": [
        {
          "internalType": "bytes32",
          "name": "",
          "type": "bytes32"
        }
      ],
      "name": "lastActivityTimestamp",
      "outputs": [
        {
          "internalType": "uint256",
          "name": "",
          "type": "uint256"
        }
      ],
      "stateMutability": "view",
      "type": "function"
    },
    {
      "inputs": [],
      "name": "nextTraitId",
      "outputs": [
        {
          "internalType": "uint8",
          "name": "",
          "type": "uint8"
        }
      ],
      "stateMutability": "view",
      "type": "function"
    },
    {
      "inputs": [],
      "name": "pause",
      "outputs": [],
      "stateMutability": "nonpayable",
      "type": "function"
    },
    {
      "inputs": [],
      "name": "paused",
      "outputs": [
        {
          "internalType": "bool",
          "name": "",
          "type": "bool"
        }
      ],
      "stateMutability": "view",
      "type": "function"
    },
    {
      "inputs": [
        {
          "internalType": "uint256",
          "name": "stakeAmount",
          "type": "uint256"
        }
      ],
      "name": "registerApp",
      "outputs": [],
      "stateMutability": "nonpayable",
      "type": "function"
    },
    {
      "inputs": [
        {
          "internalType": "address",
          "name": "",
          "type": "address"
        }
      ],
      "name": "registeredApps",
      "outputs": [
        {
          "internalType": "bool",
          "name": "",
          "type": "bool"
        }
      ],
      "stateMutability": "view",
      "type": "function"
    },
    {
      "inputs": [
        {
          "internalType": "bytes32",
          "name": "role",
          "type": "bytes32"
        },
        {
          "internalType": "address",
          "name": "account",
          "type": "address"
        }
      ],
      "name": "renounceRole",
      "outputs": [],
      "stateMutability": "nonpayable",
      "type": "function"
    },
    {
      "inputs": [],
      "name": "reservoir",
      "outputs": [
        {
          "internalType": "contract IReservoir",
          "name": "",
          "type": "address"
        }
      ],
      "stateMutability": "view",
      "type": "function"
    },
    {
      "inputs": [
        {
          "internalType": "bytes32",
          "name": "role",
          "type": "bytes32"
        },
        {
          "internalType": "address",
          "name": "account",
          "type": "address"
        }
      ],
      "name": "revokeRole",
      "outputs": [],
      "stateMutability": "nonpayable",
      "type": "function"
    },
    {
      "inputs": [
        {
          "internalType": "address",
          "name": "app",
          "type": "address"
        },
        {
          "internalType": "string",
          "name": "reason",
          "type": "string"
        }
      ],
      "name": "slashApp",
      "outputs": [],
      "stateMutability": "nonpayable",
      "type": "function"
    },
    {
      "inputs": [
        {
          "internalType": "bytes32",
          "name": "",
          "type": "bytes32"
        }
      ],
      "name": "streakCount",
      "outputs": [
        {
          "internalType": "uint256",
          "name": "",
          "type": "uint256"
        }
      ],
      "stateMutability": "view",
      "type": "function"
    },
    {
      "inputs": [
        {
          "internalType": "bytes4",
          "name": "interfaceId",
          "type": "bytes4"
        }
      ],
      "name": "supportsInterface",
      "outputs": [
        {
          "internalType": "bool",
          "name": "",
          "type": "bool"
        }
      ],
      "stateMutability": "view",
      "type": "function"
    },
    {
      "inputs": [
        {
          "internalType": "string",
          "name": "",
          "type": "string"
        }
      ],
      "name": "traitNameToId",
      "outputs": [
        {
          "internalType": "uint8",
          "name": "",
          "type": "uint8"
        }
      ],
      "stateMutability": "view",
      "type": "function"
    },
    {
      "inputs": [],
      "name": "unpause",
      "outputs": [],
      "stateMutability": "nonpayable",
      "type": "function"
    },
    {
      "inputs": [
        {
          "internalType": "enum VerificationEngine.ActivityType",
          "name": "activityType",
          "type": "uint8"
        },
        {
          "internalType": "uint256",
          "name": "newReward",
          "type": "uint256"
        }
      ],
      "name": "updateBaseReward",
      "outputs": [],
      "stateMutability": "nonpayable",
      "type": "function"
    },
    {
      "inputs": [
        {
          "internalType": "bytes32",
          "name": "",
          "type": "bytes32"
        },
        {
          "internalType": "uint8",
          "name": "",
          "type": "uint8"
        }
      ],
      "name": "userTraits",
      "outputs": [
        {
          "internalType": "string",
          "name": "name",
          "type": "string"
        },
        {
          "internalType": "uint256",
          "name": "bonus",
          "type": "uint256"
        },
        {
          "internalType": "uint256",
          "name": "cost",
          "type": "uint256"
        },
        {
          "internalType": "bool",
          "name": "active",
          "type": "bool"
        }
      ],
      "stateMutability": "view",
      "type": "function"
    },
    {
      "inputs": [
        {
          "components": [
            {
              "internalType": "bytes32",
              "name": "activityHash",
              "type": "bytes32"
            },
            {
              "internalType": "uint8",
              "name": "activityType",
              "type": "uint8"
            },
            {
              "internalType": "uint256",
              "name": "energyExpended",
              "type": "uint256"
            },
            {
              "internalType": "uint256",
              "name": "timestamp",
              "type": "uint256"
            },
            {
              "internalType": "bytes32",
              "name": "profileId",
              "type": "bytes32"
            },
            {
              "internalType": "bytes",
              "name": "proof",
              "type": "bytes"
            },
            {
              "internalType": "bytes",
              "name": "metadata",
              "type": "bytes"
            }
          ],
          "internalType": "struct VerificationEngine.HealthProof",
          "name": "healthProof",
          "type": "tuple"
        }
      ],
      "name": "verifyAndMint",
      "outputs": [
        {
          "internalType": "uint256",
          "name": "reward",
          "type": "uint256"
        }
      ],
      "stateMutability": "nonpayable",
      "type": "function"
    }
  ],
  "bytecode": "0x60806040523480156200001157600080fd5b50604051620031c4380380620031c483398101604081905262000034916200070f565b60018055600280546001600160a81b0319166101006001600160a01b038581169190910291909117909155600380546001600160a01b03191691831691909117905562000083600033620003bd565b620000af7f68e79a7bf1e0bc45d0a330c573bc367f9cf464fd326078812f301165fbda4ef133620003bd565b60046020527f17ef568e3e12ab5b9c7254a8d58478811de00f9e6eb34345acd53bf8fd09d3ec805460ff199081169091557f2e174c10e159ea99b867ce3205125c24a42d128804e4070ed6fcc8cc98166aa08054821690557fabd6e7cb50984ff9c2f3e18a2660c3353dadf4e3291deeb275dae2cd1e44fe058054821660019081179091557f1a1e6821cde7d0159c0d293177871e09677b4e42307c7db3ba94f8648a5a050f8054831690911790557f91da3fd0782e51c6b3986e9e672fd566868e71f3dbc2d6c2cd6fbb3e361af2a78054821660029081179091557f04cde762ef08b6b6c5ded8e8c4c0b3f4e5c9ad7342c88fcc93681b4588b73f0580548316909117905560066000527fc59312466997bb42aaaf719ece141047820e6b34531e1670dc1852a453648f0f80549091166003179055620001fa670de0b6b3a764000060326200075d565b6000805260056020527f05b8ccbb9d4d8fb16ea74ce3c29a41f1b461fbdaff4714a0d9a8eb05499746bc556200023a670de0b6b3a764000060506200075d565b600160005260056020527f1471eb6eb2c5e789fc3de43f8ce62938c7d1836ec861730447e2ada8fd81017b556200027b670de0b6b3a764000060646200075d565b600260005260056020527f89832631fb3c3307a103ba2c84ab569c64d6182a18893dcd163f0f1c2090733a55620002bc670de0b6b3a7640000601e6200075d565b600360005260056020527fa9bc9a3a348c357ba16b37005d7e6b3236198c0e939f4af8c5f19b8deeb8ebc055620002fd670de0b6b3a764000060286200075d565b600460005260056020527f3eec716f11ba9e820c81ca75eb978ffb45831ef8b7a53e5e422c26008e1ca6d5556200033e670de0b6b3a764000060146200075d565b600560008190526020527f458b30c2d72bfd2c6317304a4594ecbafe5f729d3111b65fdc3a33bd48e5432d556200037f670de0b6b3a764000060236200075d565b600660005260056020527f069400f22b28c6c362558d92f66163cec5671cba50b61abd2eecfcd0eaeac51855620003b562000446565b5050620007ca565b620003c9828262000650565b62000442576000828152602081815260408083206001600160a01b03851684529091529020805460ff19166001179055620004013390565b6001600160a01b0316816001600160a01b0316837f2f8788117e7eff1d82e926ec794901d17c78024a50270940304540a733656f0d60405160405180910390a45b5050565b60408051808201909152600a81526911585c9b1e48109a5c9960b21b60208201526200047490600c6200067b565b604080518082019091526009815268139a59da1d0813dddb60ba1b6020820152620004a190600c6200067b565b60408051808201909152600d81526c29ba3932b0b59026b0b9ba32b960991b6020820152620004d290600a6200067b565b60408051808201909152600d81526c47726f7570204669746e65737360981b6020820152620005039060086200067b565b6200053d6040518060400160405280600f81526020016e456e647572616e636520456c69746560881b815250600f6200067b60201b60201c565b60408051808201909152600f81526e149958dbdd995c9e48115e1c195c9d608a1b60208201526200057090600a6200067b565b6040805180820190915260118152704d656e74616c20526573696c69656e636560781b6020820152620005a590600c6200067b565b60408051808201909152601381527f4e7574726974696f6e204f7074696d697a6572000000000000000000000000006020820152620005e69060086200067b565b60408051808201909152601081526f536f6369616c20427574746572666c7960801b60208201526200061a90600a6200067b565b60408051808201909152601081526f436f6e73697374656e6379204b696e6760801b60208201526200064e90600f6200067b565b565b6000828152602081815260408083206001600160a01b038516845290915290205460ff165b92915050565b600c805460ff16906000620006908362000777565b91906101000a81548160ff021916908360ff16021790555050600c60009054906101000a900460ff16600b83604051620006cb919062000799565b908152604051908190036020019020805460ff9290921660ff199092169190911790555050565b80516001600160a01b03811681146200070a57600080fd5b919050565b600080604083850312156200072357600080fd5b6200072e83620006f2565b91506200073e60208401620006f2565b90509250929050565b634e487b7160e01b600052601160045260246000fd5b808202811582820484141762000675576200067562000747565b600060ff821660ff810362000790576200079062000747565b60010192915050565b6000825160005b81811015620007bc5760208186018101518583015201620007a0565b506000920191825250919050565b6129ea80620007da6000396000f3fe608060405234801561001057600080fd5b50600436106101fb5760003560e01c806391d148541161011a578063aff97a31116100ad578063c385d2f31161007c578063c385d2f314610506578063cb8cd71914610519578063d547741f14610539578063e7705db61461054c578063f68f224a1461057357600080fd5b8063aff97a3114610475578063b1e3c1a914610498578063ba7c8df6146104c6578063bb453b32146104e657600080fd5b8063a99d6405116100e9578063a99d64051461041c578063a9adcaa11461043c578063aaa0e5181461044f578063ad3915c81461046257600080fd5b806391d14854146103be578063931433fd146103d1578063a217fddf146103f1578063a6c4cce9146103f957600080fd5b806336568abe11610192578063674e914711610161578063674e91471461036e5780637ecd66f81461038e57806383fd49a7146103a35780638456cb59146103b657600080fd5b806336568abe1461033b5780633f4ba83a1461034e5780635c975abb146103565780636275f8a31461036157600080fd5b806316dc8062116101ce57806316dc8062146102a0578063248a9ca3146102c35780632f2ff15d146102e657806333d66609146102fb57600080fd5b806301ffc9a71461020057806307e2cea514610228578063141c57281461025d578063151e6aa51461028d575b600080fd5b61021361020e3660046121cb565b610586565b60405190151581526020015b60405180910390f35b61024f7f68e79a7bf1e0bc45d0a330c573bc367f9cf464fd326078812f301165fbda4ef181565b60405190815260200161021f565b6002546102759061010090046001600160a01b031681565b6040516001600160a01b03909116815260200161021f565b600354610275906001600160a01b031681565b6102b36102ae366004612206565b6105bd565b60405161021f9493929190612282565b61024f6102d13660046122b3565b60009081526020819052604090206001015490565b6102f96102f43660046122e3565b61067d565b005b61032961030936600461231c565b8051602081830181018051600b8252928201919093012091525460ff1681565b60405160ff909116815260200161021f565b6102f96103493660046122e3565b6106a7565b6102f961072a565b60025460ff16610213565b600c546103299060ff1681565b61024f61037c3660046123cd565b600f6020526000908152604090205481565b61024f60008051602061299583398151915281565b61024f6103b13660046123e8565b610740565b6102f96109cc565b6102136103cc3660046122e3565b6109df565b61024f6103df3660046123cd565b600e6020526000908152604090205481565b61024f600081565b6102136104073660046123cd565b600d6020526000908152604090205460ff1681565b61024f61042a366004612432565b60056020526000908152604090205481565b6102f961044a366004612496565b610a08565b6102f961045d3660046124e9565b610c83565b6102f96104703660046122b3565b610f55565b610329610483366004612432565b60046020526000908152604090205460ff1681565b6102136104a6366004612206565b600860209081526000928352604080842090915290825290205460ff1681565b61024f6104d43660046122b3565b60066020526000908152604090205481565b61024f6104f43660046122b3565b60096020526000908152604090205481565b6102f961051436600461251c565b6110eb565b61024f6105273660046122b3565b60076020526000908152604090205481565b6102f96105473660046122e3565b611153565b61024f7f0ce23c3e399818cfee81a7ab0880f714e53d7672b08df0fa62f2843416e1ea0981565b61024f610581366004612546565b611178565b60006001600160e01b03198216637965db0b60e01b14806105b757506301ffc9a760e01b6001600160e01b03198316145b92915050565b600a6020908152600092835260408084209091529082529020805481906105e3906125bb565b80601f016020809104026020016040519081016040528092919081815260200182805461060f906125bb565b801561065c5780601f106106315761010080835404028352916020019161065c565b820191906000526020600020905b81548152906001019060200180831161063f57829003601f168201915b50505050600183015460028401546003909401549293909290915060ff1684565b60008281526020819052604090206001015461069881611342565b6106a2838361134c565b505050565b6001600160a01b038116331461071c5760405162461bcd60e51b815260206004820152602f60248201527f416363657373436f6e74726f6c3a2063616e206f6e6c792072656e6f756e636560448201526e103937b632b9903337b91039b2b63360891b60648201526084015b60405180910390fd5b61072682826113d0565b5050565b600061073581611342565b61073d611435565b50565b600061074a611487565b6107526114e0565b60008051602061299583398151915261076a81611342565b61077383611528565b6107af5760405162461bcd60e51b815260206004820152600d60248201526c24b73b30b634b210383937b7b360991b6044820152606401610713565b60808301356000908152600660205260409020546107cf90610e1061260b565b421161081d5760405162461bcd60e51b815260206004820152601c60248201527f546f6f20736f6f6e2073696e6365206c617374206163746976697479000000006044820152606401610713565b600061082884611576565b905060006108358561162b565b905060006108428261182a565b905061084d8161190f565b9050670de0b6b3a7640000610862828561261e565b61086c919061264b565b945061087786611987565b600060048161088c60408a0160208b0161265f565b60ff1660068111156108a0576108a061267a565b60068111156108b1576108b161267a565b60068111156108c2576108c261267a565b815260208101919091526040016000205460025460ff909116915061010090046001600160a01b0316634ed387b260808901356040516001600160e01b031960e084901b1681526001600160a01b03909116600482015260ff8416602482015260448101899052606401600060405180830381600087803b15801561094657600080fd5b505af115801561095a573d6000803e3d6000fd5b5061096f92505050604088016020890161265f565b60ff1687608001357fe1aef7c7bd671e633c5732ce5a3b2ace78de3182b6df7babab76e3a5279056d288856040516109b1929190918252602082015260400190565b60405180910390a350505050506109c760018055565b919050565b60006109d781611342565b61073d611a72565b6000918252602082815260408084206001600160a01b0393909316845291905290205460ff1690565b7f68e79a7bf1e0bc45d0a330c573bc367f9cf464fd326078812f301165fbda4ef1610a3281611342565b6001600160a01b0384166000908152600d602052604090205460ff16610a8f5760405162461bcd60e51b8152602060048201526012602482015271105c1c081b9bdd081c9959da5cdd195c995960721b6044820152606401610713565b6001600160a01b0384166000908152600f60205260408120805491610ab383612690565b91905055506000610ac385611aaf565b6001600160a01b0386166000908152600e60205260409020549091508110610ba3576003546001600160a01b038681166000818152600e60205260409081902054905163131a38b560e31b8152600481019290925260248201529116906398d1c5a890604401600060405180830381600087803b158015610b4357600080fd5b505af1158015610b57573d6000803e3d6000fd5b5050506001600160a01b0386166000908152600d60209081526040808320805460ff19169055600e90915281205550610b9e600080516020612995833981519152866113d0565b610c37565b60035460405163131a38b560e31b81526001600160a01b03878116600483015260248201849052909116906398d1c5a890604401600060405180830381600087803b158015610bf157600080fd5b505af1158015610c05573d6000803e3d6000fd5b505050506001600160a01b0385166000908152600e602052604081208054839290610c319084906126a9565b90915550505b846001600160a01b03167fb090b5aad42b59cf0a8521faeaf4c01cace742461abe4f9bd4726294e452244a828686604051610c74939291906126e5565b60405180910390a25050505050565b610c8b611487565b610c936114e0565b336001600160a01b03841614610cdf5760405162461bcd60e51b81526020600482015260116024820152702737ba10383937b334b6329037bbb732b960791b6044820152606401610713565b6000600b8383604051610cf3929190612708565b9081526040519081900360200190205460ff16905080610d455760405162461bcd60e51b815260206004820152600d60248201526c125b9d985b1a59081d1c985a5d609a1b6044820152606401610713565b6000848152600a6020908152604080832060ff80861685529252909120600381015490911615610dae5760405162461bcd60e51b8152602060048201526014602482015273547261697420616c72656164792061637469766560601b6044820152606401610713565b600085815260096020526040902054600a11610e015760405162461bcd60e51b815260206004820152601260248201527113585e081d1c985a5d1cc81c995858da195960721b6044820152606401610713565b6000610e17670de0b6b3a76400006103e861261e565b60008781526009602052604081205491925090610e3590600a6127fc565b600088815260096020526040902054610e4f9060196127fc565b610e59908461261e565b610e63919061264b565b6002805460405163a29b3f5b60e01b81523360048201526024810192909252604482018390529192506101009091046001600160a01b03169063a29b3f5b90606401600060405180830381600087803b158015610ebf57600080fd5b505af1158015610ed3573d6000803e3d6000fd5b50505060038401805460ff1916600117905550600283018190556000878152600960205260408120805491610f0783612690565b9190505550867fc5e2258fafc54f5c6bc61750ed415420ea06489a8424db56e223ae2e7d6ccb10878784604051610f4093929190612808565b60405180910390a2505050506106a260018055565b610f5d611487565b610f71670de0b6b3a764000061271061261e565b811015610fb55760405162461bcd60e51b8152602060048201526012602482015271496e73756666696369656e74207374616b6560701b6044820152606401610713565b336000908152600d602052604090205460ff161561100a5760405162461bcd60e51b8152602060048201526012602482015271105b1c9958591e481c9959da5cdd195c995960721b6044820152606401610713565b600354604051622b006760e81b8152336004820152602481018390526001600160a01b0390911690632b00670090604401600060405180830381600087803b15801561105557600080fd5b505af1158015611069573d6000803e3d6000fd5b5050336000818152600d60209081526040808320805460ff19166001179055600e90915290208490556110ad9250600080516020612995833981519152915061134c565b60405181815233907f2d2c3cda96327d29a77f74fcf6444053faf409786e4dcae6caba837e5375ebbf9060200160405180910390a261073d60018055565b7f68e79a7bf1e0bc45d0a330c573bc367f9cf464fd326078812f301165fbda4ef161111581611342565b816005600085600681111561112c5761112c61267a565b600681111561113d5761113d61267a565b8152602081019190915260400160002055505050565b60008281526020819052604090206001015461116e81611342565b6106a283836113d0565b6000611182611487565b61118a6114e0565b6000805160206129958339815191526111a281611342565b60648311156111e55760405162461bcd60e51b815260206004820152600f60248201526e426174636820746f6f206c6172676560881b6044820152606401610713565b826112205760405162461bcd60e51b815260206004820152600b60248201526a08adae0e8f240c4c2e8c6d60ab1b6044820152606401610713565b60005b838110156112fe576112578585838181106112405761124061282c565b90506020028101906112529190612842565b611528565b15806112aa5750600660008686848181106112745761127461282c565b90506020028101906112869190612842565b60800135815260200190815260200160002054610e106112a6919061260b565b4211155b6112ec5760006112dc8686848181106112c5576112c561282c565b90506020028101906112d79190612842565b611b63565b90506112e8818561260b565b9350505b806112f681612690565b915050611223565b5060408051848152602081018490527f7dc133219b0c7fc08e64c767c1387c34ba1ed1da56fbbd864d1fb4a458d2ab2c910160405180910390a1506105b760018055565b61073d8133611d09565b61135682826109df565b610726576000828152602081815260408083206001600160a01b03851684529091529020805460ff1916600117905561138c3390565b6001600160a01b0316816001600160a01b0316837f2f8788117e7eff1d82e926ec794901d17c78024a50270940304540a733656f0d60405160405180910390a45050565b6113da82826109df565b15610726576000828152602081815260408083206001600160a01b0385168085529252808320805460ff1916905551339285917ff6391f5c32d9c69d2a47ea670b442974b53935d1edc7fd64eb21e047a839171b9190a45050565b61143d611d62565b6002805460ff191690557f5db9ee0a495bf2e6ff9c91a7834c1ba4fdd244a5e8aa4e537bd38aeae4b073aa335b6040516001600160a01b03909116815260200160405180910390a1565b6002600154036114d95760405162461bcd60e51b815260206004820152601f60248201527f5265656e7472616e637947756172643a207265656e7472616e742063616c6c006044820152606401610713565b6002600155565b60025460ff16156115265760405162461bcd60e51b815260206004820152601060248201526f14185d5cd8589b194e881c185d5cd95960821b6044820152606401610713565b565b60008061153860a0840184612862565b90501180156115475750813515155b80156115565750428260600135105b80156105b7575061156a62015180426126a9565b82606001351192915050565b60008060058161158c604086016020870161265f565b60ff1660068111156115a0576115a061267a565b60068111156115b1576115b161267a565b60068111156115c2576115c261267a565b81526020019081526020016000205490506000836040013511156105b757600060646115fa670de0b6b3a7640000604087013561261e565b611604919061264b565b9050670de0b6b3a7640000611619828461261e565b611623919061264b565b949350505050565b6116646040518060c001604052806000815260200160008152602001600081526020016000815260200160008152602001600081525090565b61169d6040518060c001604052806000815260200160008152602001600081526020016000815260200160008152602001600081525090565b6080830135600090815260076020526040902054801561170157600a6116cc6116c783600161260b565b611dab565b6116de90670de0b6b3a764000061261e565b6116e8919061264b565b6116fa90670de0b6b3a764000061260b565b825261170d565b670de0b6b3a764000082525b6000610e106117236201518060608801356128a9565b61172d919061264b565b905061173881611e1b565b604084015261174a6080860135611e84565b6060840152600061175e60c0870187612862565b905011156117a157600a61177b670de0b6b3a7640000600561261e565b611785919061264b565b61179790670de0b6b3a764000061260b565b60208401526117b0565b670de0b6b3a764000060208401525b60006117bf8660800135611fc8565b9050600181111561180457600a6117de82670de0b6b3a764000061261e565b6117e8919061264b565b6117fa90670de0b6b3a764000061260b565b6080850152611813565b670de0b6b3a764000060808501525b5050670de0b6b3a764000060a08301525092915050565b8051600090670de0b6b3a7640000908190611845908261261e565b61184f919061264b565b9050670de0b6b3a764000083602001518261186a919061261e565b611874919061264b565b9050670de0b6b3a764000083604001518261188f919061261e565b611899919061264b565b9050670de0b6b3a76400008360600151826118b4919061261e565b6118be919061264b565b9050670de0b6b3a76400008360800151826118d9919061261e565b6118e3919061264b565b9050670de0b6b3a76400008360a00151826118fe919061261e565b611908919061264b565b9392505050565b6000611924670de0b6b3a7640000601461261e565b82111561193e576105b7670de0b6b3a7640000601461261e565b600a611953670de0b6b3a7640000600361261e565b61195d919061264b565b82101561198357600a611979670de0b6b3a7640000600361261e565b6105b7919061264b565b5090565b6080810135600061199b620151804261264b565b600083815260066020526040812054919250906119bc90620151809061264b565b90506119c981600161260b565b82036119f35760008381526007602052604081208054916119e983612690565b9190505550611a0d565b808214611a0d576000838152600760205260409020600190555b6001600860008581526020019081526020016000206000866020016020810190611a37919061265f565b60ff16815260208082019290925260409081016000908120805460ff1916941515949094179093559482526006905292909220429055505050565b611a7a6114e0565b6002805460ff191660011790557f62e78cea01bee320cd4e420270b5ea74000d11b0c9f74754ebdbfc544b05a25861146a3390565b6001600160a01b0381166000908152600f6020908152604080832054600e9092528220548290611ae190600a9061264b565b905060048210611b09575050506001600160a01b03166000908152600e602052604090205490565b81600303611b36576001600160a01b0384166000908152600e60205260409020546116239060029061264b565b81600203611908576001600160a01b0384166000908152600e60205260409020546116239060049061264b565b600080611b6f83611576565b90506000611b7c8461162b565b90506000611b91611b8c8361182a565b61190f565b90506000670de0b6b3a7640000611ba8838661261e565b611bb2919061264b565b9050611bbd86611987565b6000600481611bd260408a0160208b0161265f565b60ff166006811115611be657611be661267a565b6006811115611bf757611bf761267a565b6006811115611c0857611c0861267a565b815260208101919091526040016000205460025460ff909116915061010090046001600160a01b0316634ed387b260808901356040516001600160e01b031960e084901b1681526001600160a01b03909116600482015260ff8416602482015260448101859052606401600060405180830381600087803b158015611c8c57600080fd5b505af1158015611ca0573d6000803e3d6000fd5b50611cb592505050604088016020890161265f565b60ff1687608001357fe1aef7c7bd671e633c5732ce5a3b2ace78de3182b6df7babab76e3a5279056d28486604051611cf7929190918252602082015260400190565b60405180910390a35095945050505050565b611d1382826109df565b61072657611d208161201d565b611d2b83602061202f565b604051602001611d3c9291906128bd565b60408051601f198184030181529082905262461bcd60e51b825261071391600401612932565b60025460ff166115265760405162461bcd60e51b815260206004820152601460248201527314185d5cd8589b194e881b9bdd081c185d5cd95960621b6044820152606401610713565b6000620f42408210611dbf57506006919050565b620186a08210611dd157506005919050565b6127108210611de257506004919050565b6103e88210611df357506003919050565b60648210611e0357506002919050565b600a8210611e1357506001919050565b506000919050565b600060048210158015611e2f575060088211155b15611e4957600a611979670de0b6b3a7640000600d61261e565b60108210158015611e5b575060148211155b15611e7557600a611979670de0b6b3a7640000600761261e565b50670de0b6b3a7640000919050565b600081815260096020526040812054670de0b6b3a764000090808303611eab575092915050565b60015b600c5460ff90811690821611611f85576000858152600a6020908152604080832060ff80861685529252909120600301541615611f73576000858152600a6020818152604080842060ff861685529091528220600190810154929190611f149085612945565b611f299060ff16670de0b6b3a764000061261e565b611f33919061264b565b611f4590670de0b6b3a76400006126a9565b9050670de0b6b3a7640000611f5a828461261e565b611f64919061264b565b611f6e908661260b565b945050505b80611f7d8161295e565b915050611eae565b50600a611f9b670de0b6b3a7640000600f61261e565b611fa5919061264b565b821115611fc157600a611619670de0b6b3a7640000600f61261e565b5092915050565b600080805b60078160ff161015611fc157600084815260086020908152604080832060ff8086168552925290912054161561200b578161200781612690565b9250505b806120158161295e565b915050611fcd565b60606105b76001600160a01b03831660145b6060600061203e83600261261e565b61204990600261260b565b67ffffffffffffffff81111561206157612061612306565b6040519080825280601f01601f19166020018201604052801561208b576020820181803683370190505b509050600360fc1b816000815181106120a6576120a661282c565b60200101906001600160f81b031916908160001a905350600f60fb1b816001815181106120d5576120d561282c565b60200101906001600160f81b031916908160001a90535060006120f984600261261e565b61210490600161260b565b90505b600181111561217c576f181899199a1a9b1b9c1cb0b131b232b360811b85600f16601081106121385761213861282c565b1a60f81b82828151811061214e5761214e61282c565b60200101906001600160f81b031916908160001a90535060049490941c936121758161297d565b9050612107565b5083156119085760405162461bcd60e51b815260206004820181905260248201527f537472696e67733a20686578206c656e67746820696e73756666696369656e746044820152606401610713565b6000602082840312156121dd57600080fd5b81356001600160e01b03198116811461190857600080fd5b803560ff811681146109c757600080fd5b6000806040838503121561221957600080fd5b82359150612229602084016121f5565b90509250929050565b60005b8381101561224d578181015183820152602001612235565b50506000910152565b6000815180845261226e816020860160208601612232565b601f01601f19169290920160200192915050565b6080815260006122956080830187612256565b60208301959095525060408101929092521515606090910152919050565b6000602082840312156122c557600080fd5b5035919050565b80356001600160a01b03811681146109c757600080fd5b600080604083850312156122f657600080fd5b82359150612229602084016122cc565b634e487b7160e01b600052604160045260246000fd5b60006020828403121561232e57600080fd5b813567ffffffffffffffff8082111561234657600080fd5b818401915084601f83011261235a57600080fd5b81358181111561236c5761236c612306565b604051601f8201601f19908116603f0116810190838211818310171561239457612394612306565b816040528281528760208487010111156123ad57600080fd5b826020860160208301376000928101602001929092525095945050505050565b6000602082840312156123df57600080fd5b611908826122cc565b6000602082840312156123fa57600080fd5b813567ffffffffffffffff81111561241157600080fd5b820160e0818503121561190857600080fd5b8035600781106109c757600080fd5b60006020828403121561244457600080fd5b61190882612423565b60008083601f84011261245f57600080fd5b50813567ffffffffffffffff81111561247757600080fd5b60208301915083602082850101111561248f57600080fd5b9250929050565b6000806000604084860312156124ab57600080fd5b6124b4846122cc565b9250602084013567ffffffffffffffff8111156124d057600080fd5b6124dc8682870161244d565b9497909650939450505050565b6000806000604084860312156124fe57600080fd5b83359250602084013567ffffffffffffffff8111156124d057600080fd5b6000806040838503121561252f57600080fd5b61253883612423565b946020939093013593505050565b6000806020838503121561255957600080fd5b823567ffffffffffffffff8082111561257157600080fd5b818501915085601f83011261258557600080fd5b81358181111561259457600080fd5b8660208260051b85010111156125a957600080fd5b60209290920196919550909350505050565b600181811c908216806125cf57607f821691505b6020821081036125ef57634e487b7160e01b600052602260045260246000fd5b50919050565b634e487b7160e01b600052601160045260246000fd5b808201808211156105b7576105b76125f5565b80820281158282048414176105b7576105b76125f5565b634e487b7160e01b600052601260045260246000fd5b60008261265a5761265a612635565b500490565b60006020828403121561267157600080fd5b611908826121f5565b634e487b7160e01b600052602160045260246000fd5b6000600182016126a2576126a26125f5565b5060010190565b818103818111156105b7576105b76125f5565b81835281816020850137506000828201602090810191909152601f909101601f19169091010190565b8381526040602082015260006126ff6040830184866126bc565b95945050505050565b8183823760009101908152919050565b600181815b80851115612753578160001904821115612739576127396125f5565b8085161561274657918102915b93841c939080029061271d565b509250929050565b60008261276a575060016105b7565b81612777575060006105b7565b816001811461278d5760028114612797576127b3565b60019150506105b7565b60ff8411156127a8576127a86125f5565b50506001821b6105b7565b5060208310610133831016604e8410600b84101617156127d6575081810a6105b7565b6127e08383612718565b80600019048211156127f4576127f46125f5565b029392505050565b6000611908838361275b565b60408152600061281c6040830185876126bc565b9050826020830152949350505050565b634e487b7160e01b600052603260045260246000fd5b6000823560de1983360301811261285857600080fd5b9190910192915050565b6000808335601e1984360301811261287957600080fd5b83018035915067ffffffffffffffff82111561289457600080fd5b60200191503681900382131561248f57600080fd5b6000826128b8576128b8612635565b500690565b7f416363657373436f6e74726f6c3a206163636f756e74200000000000000000008152600083516128f5816017850160208801612232565b7001034b99036b4b9b9b4b733903937b6329607d1b6017918401918201528351612926816028840160208801612232565b01602801949350505050565b6020815260006119086020830184612256565b60ff82811682821603908111156105b7576105b76125f5565b600060ff821660ff8103612974576129746125f5565b60010192915050565b60008161298c5761298c6125f5565b50600019019056fe7b98b41c1b69918066115c47a3fabea25b5765269638096b0143b9ee263737bea264697066735822122012be0ee6c186a9ac3578e6535b56138c6ff41265fecc213f60bdc5f1c778d99a64736f6c63430008130033",
  "linkReferences": {},
  "deployedLinkReferences": {}
}