{
  "_format": "hh-sol-artifact-1",
  "contractName": "MockERC20",
  "sourceName": "contracts/mocks/MockERC20.sol",
  "abi": [
    {
      "inputs": [
        {
          "internalType": "address",
          "name": "spender",
          "type": "address"
        },
        {
          "internalType": "uint256",
          "name": "amount",
          "type": "uint256"
        }
      ],
      "name": "approve",
      "outputs": [
        {
          "internalType": "bool",
          "name": "",
          "type": "bool"
        }
      ],
      "stateMutability": "nonpayable",
      "type": "function"
    },
    {
      "inputs": [
        {
          "internalType": "address",
          "name": "",
          "type": "address"
        }
      ],
      "name": "balanceOf",
      "outputs": [
        {
          "internalType": "uint256",
          "name": "",
          "type": "uint256"
        }
      ],
      "stateMutability": "view",
      "type": "function"
    },
    {
      "inputs": [],
      "name": "decimals",
      "outputs": [
        {
          "internalType": "uint8",
          "name": "",
          "type": "uint8"
        }
      ],
      "stateMutability": "view",
      "type": "function"
    },
    {
      "inputs": [
        {
          "internalType": "address",
          "name": "to",
          "type": "address"
        },
        {
          "internalType": "uint256",
          "name": "amount",
          "type": "uint256"
        }
      ],
      "name": "mint",
      "outputs": [],
      "stateMutability": "nonpayable",
      "type": "function"
    },
    {
      "inputs": [],
      "name": "name",
      "outputs": [
        {
          "internalType": "string",
          "name": "",
          "type": "string"
        }
      ],
      "stateMutability": "view",
      "type": "function"
    },
    {
      "inputs": [],
      "name": "symbol",
      "outputs": [
        {
          "internalType": "string",
          "name": "",
          "type": "string"
        }
      ],
      "stateMutability": "view",
      "type": "function"
    },
    {
      "inputs": [
        {
          "internalType": "address",
          "name": "to",
          "type": "address"
        },
        {
          "internalType": "uint256",
          "name": "amount",
          "type": "uint256"
        }
      ],
      "name": "transfer",
      "outputs": [
        {
          "internalType": "bool",
          "name": "",
          "type": "bool"
        }
      ],
      "stateMutability": "nonpayable",
      "type": "function"
    },
    {
      "inputs": [
        {
          "internalType": "address",
          "name": "from",
          "type": "address"
        },
        {
          "internalType": "address",
          "name": "to",
          "type": "address"
        },
        {
          "internalType": "uint256",
          "name": "amount",
          "type": "uint256"
        }
      ],
      "name": "transferFrom",
      "outputs": [
        {
          "internalType": "bool",
          "name": "",
          "type": "bool"
        }
      ],
      "stateMutability": "nonpayable",
      "type": "function"
    }
  ],
  "bytecode": "0x60c060405260096080908152684d6f636b205553444360b81b60a0526001906100289082610110565b506040805180820190915260048152635553444360e01b60208201526002906100519082610110565b506003805460ff1916601217905534801561006b57600080fd5b506101cf565b634e487b7160e01b600052604160045260246000fd5b600181811c9082168061009b57607f821691505b6020821081036100bb57634e487b7160e01b600052602260045260246000fd5b50919050565b601f82111561010b57600081815260208120601f850160051c810160208610156100e85750805b601f850160051c820191505b81811015610107578281556001016100f4565b5050505b505050565b81516001600160401b0381111561012957610129610071565b61013d816101378454610087565b846100c1565b602080601f831160018114610172576000841561015a5750858301515b600019600386901b1c1916600185901b178555610107565b600085815260208120601f198616915b828110156101a157888601518255948401946001909101908401610182565b50858210156101bf5787850151600019600388901b60f8161c191681555b5050505050600190811b01905550565b610549806101de6000396000f3fe608060405234801561001057600080fd5b50600436106100885760003560e01c806340c10f191161005b57806340c10f191461010057806370a082311461011557806395d89b4114610143578063a9059cbb1461014b57600080fd5b806306fdde031461008d578063095ea7b3146100ab57806323b872dd146100ce578063313ce567146100e1575b600080fd5b61009561015e565b6040516100a291906103ab565b60405180910390f35b6100be6100b9366004610415565b6101ec565b60405190151581526020016100a2565b6100be6100dc36600461043f565b6101f5565b6003546100ee9060ff1681565b60405160ff90911681526020016100a2565b61011361010e366004610415565b6102bd565b005b61013561012336600461047b565b60006020819052908152604090205481565b6040519081526020016100a2565b6100956102ee565b6100be610159366004610415565b6102fb565b6001805461016b9061049d565b80601f01602080910402602001604051908101604052809291908181526020018280546101979061049d565b80156101e45780601f106101b9576101008083540402835291602001916101e4565b820191906000526020600020905b8154815290600101906020018083116101c757829003601f168201915b505050505081565b60015b92915050565b6001600160a01b0383166000908152602081905260408120548211156102595760405162461bcd60e51b8152602060048201526014602482015273496e73756666696369656e742062616c616e636560601b60448201526064015b60405180910390fd5b6001600160a01b038416600090815260208190526040812080548492906102819084906104ed565b90915550506001600160a01b038316600090815260208190526040812080548492906102ae908490610500565b90915550600195945050505050565b6001600160a01b038216600090815260208190526040812080548392906102e5908490610500565b90915550505050565b6002805461016b9061049d565b336000908152602081905260408120548211156103515760405162461bcd60e51b8152602060048201526014602482015273496e73756666696369656e742062616c616e636560601b6044820152606401610250565b33600090815260208190526040812080548492906103709084906104ed565b90915550506001600160a01b0383166000908152602081905260408120805484929061039d908490610500565b909155506001949350505050565b600060208083528351808285015260005b818110156103d8578581018301518582016040015282016103bc565b506000604082860101526040601f19601f8301168501019250505092915050565b80356001600160a01b038116811461041057600080fd5b919050565b6000806040838503121561042857600080fd5b610431836103f9565b946020939093013593505050565b60008060006060848603121561045457600080fd5b61045d846103f9565b925061046b602085016103f9565b9150604084013590509250925092565b60006020828403121561048d57600080fd5b610496826103f9565b9392505050565b600181811c908216806104b157607f821691505b6020821081036104d157634e487b7160e01b600052602260045260246000fd5b50919050565b634e487b7160e01b600052601160045260246000fd5b818103818111156101ef576101ef6104d7565b808201808211156101ef576101ef6104d756fea26469706673582212208b18165c3e18821cba10b90e714ba7e9f655c9c5f3d5fa68432b7621de7da0b064736f6c63430008130033",
  "linkReferences": {},
  "deployedLinkReferences": {}
}